{
  "contractName": "AutoAppealableArbitrator",
  "abi": [
    {
      "constant": true,
      "inputs": [
        {
          "name": "",
          "type": "uint256"
        }
      ],
      "name": "disputes",
      "outputs": [
        {
          "name": "arbitrated",
          "type": "address"
        },
        {
          "name": "choices",
          "type": "uint256"
        },
        {
          "name": "fees",
          "type": "uint256"
        },
        {
          "name": "ruling",
          "type": "uint256"
        },
        {
          "name": "status",
          "type": "uint8"
        },
        {
          "name": "appealCost",
          "type": "uint256"
        },
        {
          "name": "appealPeriodStart",
          "type": "uint256"
        },
        {
          "name": "appealPeriodEnd",
          "type": "uint256"
        }
      ],
      "payable": false,
      "stateMutability": "view",
      "type": "function",
      "signature": "0x564a565d"
    },
    {
      "constant": true,
      "inputs": [],
      "name": "owner",
      "outputs": [
        {
          "name": "",
          "type": "address"
        }
      ],
      "payable": false,
      "stateMutability": "view",
      "type": "function",
      "signature": "0x8da5cb5b"
    },
    {
      "inputs": [
        {
          "name": "_arbitrationPrice",
          "type": "uint256"
        }
      ],
      "payable": false,
      "stateMutability": "nonpayable",
      "type": "constructor",
      "signature": "constructor"
    },
    {
      "anonymous": false,
      "inputs": [
        {
          "indexed": true,
          "name": "_disputeID",
          "type": "uint256"
        },
        {
          "indexed": true,
          "name": "_arbitrable",
          "type": "address"
        }
      ],
      "name": "DisputeCreation",
      "type": "event",
      "signature": "0x141dfc18aa6a56fc816f44f0e9e2f1ebc92b15ab167770e17db5b084c10ed995"
    },
    {
      "anonymous": false,
      "inputs": [
        {
          "indexed": true,
          "name": "_disputeID",
          "type": "uint256"
        },
        {
          "indexed": true,
          "name": "_arbitrable",
          "type": "address"
        }
      ],
      "name": "AppealPossible",
      "type": "event",
      "signature": "0xa5d41b970d849372be1da1481ffd78d162bfe57a7aa2fe4e5fb73481fa5ac24f"
    },
    {
      "anonymous": false,
      "inputs": [
        {
          "indexed": true,
          "name": "_disputeID",
          "type": "uint256"
        },
        {
          "indexed": true,
          "name": "_arbitrable",
          "type": "address"
        }
      ],
      "name": "AppealDecision",
      "type": "event",
      "signature": "0x9c9b64db9e130f48381bf697abf638e73117dbfbfd7a4484f2da3ba188f4187d"
    },
    {
      "constant": false,
      "inputs": [
        {
          "name": "_arbitrationPrice",
          "type": "uint256"
        }
      ],
      "name": "setArbitrationPrice",
      "outputs": [],
      "payable": false,
      "stateMutability": "nonpayable",
      "type": "function",
      "signature": "0xffb43c48"
    },
    {
      "constant": true,
      "inputs": [
        {
          "name": "_extraData",
          "type": "bytes"
        }
      ],
      "name": "arbitrationCost",
      "outputs": [
        {
          "name": "fee",
          "type": "uint256"
        }
      ],
      "payable": false,
      "stateMutability": "view",
      "type": "function",
      "signature": "0xf7434ea9"
    },
    {
      "constant": true,
      "inputs": [
        {
          "name": "_disputeID",
          "type": "uint256"
        },
        {
          "name": "_extraData",
          "type": "bytes"
        }
      ],
      "name": "appealCost",
      "outputs": [
        {
          "name": "fee",
          "type": "uint256"
        }
      ],
      "payable": false,
      "stateMutability": "view",
      "type": "function",
      "signature": "0xf23f16e6"
    },
    {
      "constant": false,
      "inputs": [
        {
          "name": "_choices",
          "type": "uint256"
        },
        {
          "name": "_extraData",
          "type": "bytes"
        }
      ],
      "name": "createDispute",
      "outputs": [
        {
          "name": "disputeID",
          "type": "uint256"
        }
      ],
      "payable": true,
      "stateMutability": "payable",
      "type": "function",
      "signature": "0xc13517e1"
    },
    {
      "constant": false,
      "inputs": [
        {
          "name": "_disputeID",
          "type": "uint256"
        },
        {
          "name": "_ruling",
          "type": "uint256"
        }
      ],
      "name": "giveRuling",
      "outputs": [],
      "payable": false,
      "stateMutability": "nonpayable",
      "type": "function",
      "signature": "0xc97c4d5c"
    },
    {
      "constant": false,
      "inputs": [
        {
          "name": "_disputeID",
          "type": "uint256"
        },
        {
          "name": "_ruling",
          "type": "uint256"
        },
        {
          "name": "_appealCost",
          "type": "uint256"
        },
        {
          "name": "_timeToAppeal",
          "type": "uint256"
        }
      ],
      "name": "giveAppealableRuling",
      "outputs": [],
      "payable": false,
      "stateMutability": "nonpayable",
      "type": "function",
      "signature": "0x78e5effc"
    },
    {
      "constant": false,
      "inputs": [
        {
          "name": "_disputeID",
          "type": "uint256"
        },
        {
          "name": "_appealCost",
          "type": "uint256"
        }
      ],
      "name": "changeAppealFee",
      "outputs": [],
      "payable": false,
      "stateMutability": "nonpayable",
      "type": "function",
      "signature": "0x0688eef9"
    },
    {
      "constant": false,
      "inputs": [
        {
          "name": "_disputeID",
          "type": "uint256"
        },
        {
          "name": "_extraData",
          "type": "bytes"
        }
      ],
      "name": "appeal",
      "outputs": [],
      "payable": true,
      "stateMutability": "payable",
      "type": "function",
      "signature": "0x49912f88"
    },
    {
      "constant": false,
      "inputs": [
        {
          "name": "_disputeID",
          "type": "uint256"
        }
      ],
      "name": "executeRuling",
      "outputs": [],
      "payable": false,
      "stateMutability": "nonpayable",
      "type": "function",
      "signature": "0x8bb04875"
    },
    {
      "constant": true,
      "inputs": [
        {
          "name": "_disputeID",
          "type": "uint256"
        }
      ],
      "name": "disputeStatus",
      "outputs": [
        {
          "name": "status",
          "type": "uint8"
        }
      ],
      "payable": false,
      "stateMutability": "view",
      "type": "function",
      "signature": "0x10f169e8"
    },
    {
      "constant": true,
      "inputs": [
        {
          "name": "_disputeID",
          "type": "uint256"
        }
      ],
      "name": "currentRuling",
      "outputs": [
        {
          "name": "ruling",
          "type": "uint256"
        }
      ],
      "payable": false,
      "stateMutability": "view",
      "type": "function",
      "signature": "0x1c3db16d"
    },
    {
      "constant": true,
      "inputs": [
        {
          "name": "_disputeID",
          "type": "uint256"
        }
      ],
      "name": "appealPeriod",
      "outputs": [
        {
          "name": "start",
          "type": "uint256"
        },
        {
          "name": "end",
          "type": "uint256"
        }
      ],
      "payable": false,
      "stateMutability": "view",
      "type": "function",
      "signature": "0xafe15cfb"
    }
  ],
  "bytecode": "0x608060405260008054600160a060020a0319163317905534801561002257600080fd5b506040516020806113448339810180604052602081101561004257600080fd5b50516001556112ee806100566000396000f3fe6080604052600436106100cf5763ffffffff7c01000000000000000000000000000000000000000000000000000000006000350416630688eef981146100d457806310f169e8146101065780631c3db16d1461015457806349912f8814610190578063564a565d1461023d57806378e5effc146102ce5780638bb048751461030a5780638da5cb5b14610334578063afe15cfb14610365578063c13517e1146103a8578063c97c4d5c14610455578063f23f16e614610485578063f7434ea91461053f578063ffb43c48146105f2575b600080fd5b3480156100e057600080fd5b50610104600480360360408110156100f757600080fd5b508035906020013561061c565b005b34801561011257600080fd5b506101306004803603602081101561012957600080fd5b5035610700565b6040518082600281111561014057fe5b60ff16815260200191505060405180910390f35b34801561016057600080fd5b5061017e6004803603602081101561017757600080fd5b50356107a9565b60408051918252519081900360200190f35b610104600480360360408110156101a657600080fd5b813591908101906040810160208201356401000000008111156101c857600080fd5b8201836020820111156101da57600080fd5b803590602001918460018302840111640100000000831117156101fc57600080fd5b91908080601f0160208091040260200160405190810160405280939291908181526020018383808284376000920191909152509295506107d3945050505050565b34801561024957600080fd5b506102676004803603602081101561026057600080fd5b50356109b4565b6040518089600160a060020a0316600160a060020a031681526020018881526020018781526020018681526020018560028111156102a157fe5b60ff1681526020018481526020018381526020018281526020019850505050505050505060405180910390f35b3480156102da57600080fd5b50610104600480360360808110156102f157600080fd5b5080359060208101359060408101359060600135610a16565b34801561031657600080fd5b506101046004803603602081101561032d57600080fd5b5035610bb0565b34801561034057600080fd5b50610349610d79565b60408051600160a060020a039092168252519081900360200190f35b34801561037157600080fd5b5061038f6004803603602081101561038857600080fd5b5035610d88565b6040805192835260208301919091528051918290030190f35b61017e600480360360408110156103be57600080fd5b813591908101906040810160208201356401000000008111156103e057600080fd5b8201836020820111156103f257600080fd5b8035906020019184600183028401116401000000008311171561041457600080fd5b91908080601f016020809104026020016040519081016040528093929190818152602001838380828437600092019190915250929550610dc0945050505050565b34801561046157600080fd5b506101046004803603604081101561047857600080fd5b5080359060200135610f07565b34801561049157600080fd5b5061017e600480360360408110156104a857600080fd5b813591908101906040810160208201356401000000008111156104ca57600080fd5b8201836020820111156104dc57600080fd5b803590602001918460018302840111640100000000831117156104fe57600080fd5b91908080601f016020809104026020016040519081016040528093929190818152602001838380828437600092019190915250929550611123945050505050565b34801561054b57600080fd5b5061017e6004803603602081101561056257600080fd5b81019060208101813564010000000081111561057d57600080fd5b82018360208201111561058f57600080fd5b803590602001918460018302840111640100000000831117156105b157600080fd5b91908080601f01602080910402602001604051908101604052809392919081815260200183838082843760009201919091525092955061119e945050505050565b3480156105fe57600080fd5b506101046004803603602081101561061557600080fd5b50356111a5565b600054600160a060020a0316331461066c576040805160e560020a62461bcd02815260206004820181905260248201526000805160206112a3833981519152604482015290519081900360640190fd5b600060028381548110151561067d57fe5b6000918252602090912060089091020190506001600482015460ff1660028111156106a457fe5b146106f9576040805160e560020a62461bcd02815260206004820152601f60248201527f5468652064697370757465206d7573742062652061707065616c61626c652e00604482015290519081900360640190fd5b6005015550565b60008060028381548110151561071257fe5b6000918252602090912060089091020190506001600280548590811061073457fe5b600091825260209091206004600890920201015460ff16600281111561075657fe5b148015610767575080600701544210155b156107765760029150506107a4565b600280548490811061078457fe5b600091825260209091206004600890920201015460ff1691506107a49050565b919050565b60006002828154811015156107ba57fe5b9060005260206000209060080201600301549050919050565b81816107df8282611123565b34101561085c576040805160e560020a62461bcd02815260206004820152602560248201527f4e6f7420656e6f7567682045544820746f20636f7665722061707065616c206360448201527f6f7374732e000000000000000000000000000000000000000000000000000000606482015290519081900360840190fd5b600060028581548110151561086d57fe5b6000918252602090912060089091020190506001600482015460ff16600281111561089457fe5b146108e9576040805160e560020a62461bcd02815260206004820152601f60248201527f5468652064697370757465206d7573742062652061707065616c61626c652e00604482015290519081900360640190fd5b6007810154421061096a576040805160e560020a62461bcd02815260206004820152603a60248201527f5468652061707065616c206d757374206f63637572206265666f72652074686560448201527f20656e64206f66207468652061707065616c20706572696f642e000000000000606482015290519081900360840190fd5b6002810180543401905560048101805460ff19169055604051339086907f9c9b64db9e130f48381bf697abf638e73117dbfbfd7a4484f2da3ba188f4187d90600090a35050505050565b60028054829081106109c257fe5b600091825260209091206008909102018054600182015460028301546003840154600485015460058601546006870154600790970154600160a060020a03909616975093959294919360ff90911692909188565b600054600160a060020a03163314610a66576040805160e560020a62461bcd02815260206004820181905260248201526000805160206112a3833981519152604482015290519081900360640190fd5b6000600285815481101515610a7757fe5b9060005260206000209060080201905080600101548411151515610ae5576040805160e560020a62461bcd02815260206004820152600f60248201527f496e76616c69642072756c696e672e0000000000000000000000000000000000604482015290519081900360640190fd5b6000600482015460ff166002811115610afa57fe5b14610b75576040805160e560020a62461bcd02815260206004820152602c60248201527f5468652064697370757465206d7573742062652077616974696e6720666f722060448201527f6172626974726174696f6e2e0000000000000000000000000000000000000000606482015290519081900360840190fd5b6003810184905560048101805460ff19166001179055600581018390554260068201819055610ba490836111fa565b60079091015550505050565b6000600282815481101515610bc157fe5b6000918252602090912060089091020190506001600482015460ff166002811115610be857fe5b14610c3d576040805160e560020a62461bcd02815260206004820152601f60248201527f5468652064697370757465206d7573742062652061707065616c61626c652e00604482015290519081900360640190fd5b6007810154421015610cbf576040805160e560020a62461bcd02815260206004820152603f60248201527f5468652064697370757465206d7573742062652065786563757465642061667460448201527f6572206974732061707065616c20706572696f642068617320656e6465642e00606482015290519081900360840190fd5b60048101805460ff1916600290811790915581015460405133916108fc811502916000818181858888f1505083546003850154604080517f311a6c5600000000000000000000000000000000000000000000000000000000815260048101899052602481019290925251600160a060020a03909216945063311a6c569350604480820193506000929182900301818387803b158015610d5d57600080fd5b505af1158015610d71573d6000803e3d6000fd5b505050505050565b600054600160a060020a031681565b6000806000600284815481101515610d9c57fe5b90600052602060002090600802019050806006015481600701549250925050915091565b6000610dcc8383611219565b50600160026101006040519081016040528033600160a060020a031681526020018681526020013481526020016000815260200160006002811115610e0d57fe5b8152600060208083018290526040808401839052606093840183905285546001808201808955978552938390208651600890920201805473ffffffffffffffffffffffffffffffffffffffff1916600160a060020a039092169190911781559185015182840155840151600280830191909155928401516003820155608084015160048201805492949193909260ff1916918490811115610eaa57fe5b021790555060a0820151600582015560c0820151600682015560e0909101516007909101556040519190039150339082907f141dfc18aa6a56fc816f44f0e9e2f1ebc92b15ab167770e17db5b084c10ed99590600090a392915050565b600054600160a060020a03163314610f57576040805160e560020a62461bcd02815260206004820181905260248201526000805160206112a3833981519152604482015290519081900360640190fd5b6000600283815481101515610f6857fe5b9060005260206000209060080201905080600101548211151515610fd6576040805160e560020a62461bcd02815260206004820152600f60248201527f496e76616c69642072756c696e672e0000000000000000000000000000000000604482015290519081900360640190fd5b6000600482015460ff166002811115610feb57fe5b14611066576040805160e560020a62461bcd02815260206004820152602c60248201527f5468652064697370757465206d7573742062652077616974696e6720666f722060448201527f6172626974726174696f6e2e0000000000000000000000000000000000000000606482015290519081900360840190fd5b6003810182905560048101805460ff1916600290811790915581015460405133916108fc811502916000818181858888f150508354604080517f311a6c5600000000000000000000000000000000000000000000000000000000815260048101899052602481018890529051600160a060020a03909216945063311a6c569350604480820193506000929182900301818387803b15801561110657600080fd5b505af115801561111a573d6000803e3d6000fd5b50505050505050565b60008060028481548110151561113557fe5b6000918252602090912060089091020190506001600482015460ff16600281111561115c57fe5b141561116d57600501549050611198565b7f7fffffffffffffffffffffffffffffffffffffffffffffffffffffffffffffff915050611198565b505b92915050565b5060015490565b600054600160a060020a031633146111f5576040805160e560020a62461bcd02815260206004820181905260248201526000805160206112a3833981519152604482015290519081900360640190fd5b600155565b60008282018381101561120f57600019611211565b805b949350505050565b6000816112258161119e565b341015611196576040805160e560020a62461bcd02815260206004820152602a60248201527f4e6f7420656e6f7567682045544820746f20636f76657220617262697472617460448201527f696f6e20636f7374732e00000000000000000000000000000000000000000000606482015290519081900360840190fdfe43616e206f6e6c792062652063616c6c656420627920746865206f776e65722ea165627a7a72305820ea383c9fd266c246416a242b4a9654f03aedc6af532113e9cdc7542a0d0876190029",
  "source": "/**\r\n *  @authors: [@mtsalenc]\r\n *  @reviewers: [@clesaege]\r\n *  @auditors: []\r\n *  @bounties: []\r\n *  @deployments: []\r\n */\r\n\r\npragma solidity ^0.5.0;\r\n\r\n\r\n/**\r\n * @title CappedMath\r\n * @dev Math operations with caps for under and overflow.\r\n */\r\nlibrary CappedMath {\r\n    uint constant private UINT_MAX = 2**256 - 1;\r\n\r\n    /**\r\n     * @dev Adds two unsigned integers, returns 2^256 - 1 on overflow.\r\n     */\r\n    function addCap(uint _a, uint _b) internal pure returns (uint) {\r\n        uint c = _a + _b;\r\n        return c >= _a ? c : UINT_MAX;\r\n    }\r\n\r\n    /**\r\n     * @dev Subtracts two integers, returns 0 on underflow.\r\n     */\r\n    function subCap(uint _a, uint _b) internal pure returns (uint) {\r\n        if (_b > _a)\r\n            return 0;\r\n        else\r\n            return _a - _b;\r\n    }\r\n\r\n    /**\r\n     * @dev Multiplies two unsigned integers, returns 2^256 - 1 on overflow.\r\n     */\r\n    function mulCap(uint _a, uint _b) internal pure returns (uint) {\r\n        // Gas optimization: this is cheaper than requiring '_a' not being zero, but the\r\n        // benefit is lost if '_b' is also tested.\r\n        // See: https://github.com/OpenZeppelin/openzeppelin-solidity/pull/522\r\n        if (_a == 0)\r\n            return 0;\r\n\r\n        uint c = _a * _b;\r\n        return c / _a == _b ? c : UINT_MAX;\r\n    }\r\n}\r\n\r\ncontract AutoArbitrable  {\r\n    AutoArbitrator public arbitrator;\r\n    bytes public arbitratorExtraData; // Extra data to require particular dispute and appeal behaviour.\r\n\r\n    modifier onlyArbitrator {require(msg.sender == address(arbitrator), \"Can only be called by the arbitrator.\"); _;}\r\n    \r\n    event Ruling(AutoArbitrator indexed _arbitrator, uint indexed _disputeID, uint _ruling);\r\n    \r\n    \r\n    /** @dev Constructor. Choose the arbitrator.\r\n     *  @param _arbitrator The arbitrator of the contract.\r\n     *  @param _arbitratorExtraData Extra data for the arbitrator.\r\n     */\r\n    constructor(AutoArbitrator _arbitrator, bytes memory _arbitratorExtraData) public {\r\n        arbitrator = _arbitrator;\r\n        arbitratorExtraData = _arbitratorExtraData;\r\n    }\r\n\r\n    /** @dev Give a ruling for a dispute. Must be called by the arbitrator.\r\n     *  The purpose of this function is to ensure that the address calling it has the right to rule on the contract.\r\n     *  @param _disputeID ID of the dispute in the Arbitrator contract.\r\n     *  @param _ruling Ruling given by the arbitrator. Note that 0 is reserved for \"Not able/wanting to make a decision\".\r\n     */\r\n    function rule(uint _disputeID, uint _ruling) public onlyArbitrator {\r\n        emit Ruling(AutoArbitrator(msg.sender),_disputeID,_ruling);\r\n\r\n        executeRuling(_disputeID,_ruling);\r\n    }\r\n\r\n\r\n    /** @dev Execute a ruling of a dispute.\r\n     *  @param _disputeID ID of the dispute in the Arbitrator contract.\r\n     *  @param _ruling Ruling given by the arbitrator. Note that 0 is reserved for \"Not able/wanting to make a decision\".\r\n     */\r\n    function executeRuling(uint _disputeID, uint _ruling) internal;\r\n}\r\n\r\n\r\n\r\ncontract AutoArbitrator {\r\n\r\n    enum DisputeStatus {Waiting, Appealable, Solved}\r\n\r\n    modifier requireArbitrationFee(bytes memory _extraData) {\r\n        require(msg.value >= arbitrationCost(_extraData), \"Not enough ETH to cover arbitration costs.\");\r\n        _;\r\n    }\r\n    modifier requireAppealFee(uint _disputeID, bytes memory _extraData) {\r\n        require(msg.value >= appealCost(_disputeID, _extraData), \"Not enough ETH to cover appeal costs.\");\r\n        _;\r\n    }\r\n\r\n    /** @dev To be raised when a dispute is created.\r\n     *  @param _disputeID ID of the dispute.\r\n     *  @param _arbitrable The contract which created the dispute.\r\n     */\r\n    event DisputeCreation(uint indexed _disputeID, AutoArbitrable indexed _arbitrable);\r\n\r\n    /** @dev To be raised when a dispute can be appealed.\r\n     *  @param _disputeID ID of the dispute.\r\n     */\r\n    event AppealPossible(uint indexed _disputeID, AutoArbitrable indexed _arbitrable);\r\n\r\n    /** @dev To be raised when the current ruling is appealed.\r\n     *  @param _disputeID ID of the dispute.\r\n     *  @param _arbitrable The contract which created the dispute.\r\n     */\r\n    event AppealDecision(uint indexed _disputeID, AutoArbitrable indexed _arbitrable);\r\n\r\n    /** @dev Create a dispute. Must be called by the arbitrable contract.\r\n     *  Must be paid at least arbitrationCost(_extraData).\r\n     *  @param _choices Amount of choices the arbitrator can make in this dispute.\r\n     *  @param _extraData Can be used to give additional info on the dispute to be created.\r\n     *  @return disputeID ID of the dispute created.\r\n     */\r\n    function createDispute(uint _choices, bytes memory _extraData) public requireArbitrationFee(_extraData) payable returns(uint disputeID) {}\r\n\r\n    /** @dev Compute the cost of arbitration. It is recommended not to increase it often, as it can be highly time and gas consuming for the arbitrated contracts to cope with fee augmentation.\r\n     *  @param _extraData Can be used to give additional info on the dispute to be created.\r\n     *  @return fee Amount to be paid.\r\n     */\r\n    function arbitrationCost(bytes memory _extraData) public view returns(uint fee);\r\n\r\n    /** @dev Appeal a ruling. Note that it has to be called before the arbitrator contract calls rule.\r\n     *  @param _disputeID ID of the dispute to be appealed.\r\n     *  @param _extraData Can be used to give extra info on the appeal.\r\n     */\r\n    function appeal(uint _disputeID, bytes memory _extraData) public requireAppealFee(_disputeID,_extraData) payable {\r\n        emit AppealDecision(_disputeID, AutoArbitrable(msg.sender));\r\n    }\r\n\r\n    /** @dev Compute the cost of appeal. It is recommended not to increase it often, as it can be higly time and gas consuming for the arbitrated contracts to cope with fee augmentation.\r\n     *  @param _disputeID ID of the dispute to be appealed.\r\n     *  @param _extraData Can be used to give additional info on the dispute to be created.\r\n     *  @return fee Amount to be paid.\r\n     */\r\n    function appealCost(uint _disputeID, bytes memory _extraData) public view returns(uint fee);\r\n\r\n    /** @dev Compute the start and end of the dispute's current or next appeal period, if possible.\r\n     *  @param _disputeID ID of the dispute.\r\n     *  @return The start and end of the period.\r\n     */\r\n    function appealPeriod(uint _disputeID) public view returns(uint start, uint end) {}\r\n\r\n    /** @dev Return the status of a dispute.\r\n     *  @param _disputeID ID of the dispute to rule.\r\n     *  @return status The status of the dispute.\r\n     */\r\n    function disputeStatus(uint _disputeID) public view returns(DisputeStatus status);\r\n\r\n    /** @dev Return the current ruling of a dispute. This is useful for parties to know if they should appeal.\r\n     *  @param _disputeID ID of the dispute.\r\n     *  @return ruling The ruling which has been given or the one which will be given if there is no appeal.\r\n     */\r\n    function currentRuling(uint _disputeID) public view returns(uint ruling);\r\n}\r\n\r\n\r\n\r\n\r\n \r\n\r\n \r\ncontract AutoAppealableArbitrator is AutoArbitrator {\r\n    using CappedMath for uint; // Operations bounded between 0 and 2**256 - 1.\r\n    \r\n    address public owner = msg.sender;\r\n    uint arbitrationPrice; // Not public because arbitrationCost already acts as an accessor.\r\n    uint constant NOT_PAYABLE_VALUE = (2**256 - 2) / 2; // High value to be sure that the appeal is too expensive.\r\n\r\n    struct Dispute {\r\n        AutoArbitrable arbitrated;  // The contract requiring arbitration.\r\n        uint choices;           // The amount of possible choices, 0 excluded.\r\n        uint fees;              // The total amount of fees collected by the arbitrator.\r\n        uint ruling;            // The current ruling.\r\n        DisputeStatus status;   // The status of the dispute.\r\n        uint appealCost;        // The cost to appeal. 0 before it is appealable.\r\n        uint appealPeriodStart; // The start of the appeal period. 0 before it is appealable.\r\n        uint appealPeriodEnd;   // The end of the appeal Period. 0 before it is appealable.\r\n    }\r\n\r\n    modifier onlyOwner {require(msg.sender==owner, \"Can only be called by the owner.\"); _;}\r\n\r\n    Dispute[] public disputes;\r\n\r\n    /** @dev Constructor. Set the initial arbitration price.\r\n     *  @param _arbitrationPrice Amount to be paid for arbitration.\r\n     */\r\n    constructor(uint _arbitrationPrice) public {\r\n        arbitrationPrice = _arbitrationPrice;\r\n    }\r\n\r\n    /** @dev Set the arbitration price. Only callable by the owner.\r\n     *  @param _arbitrationPrice Amount to be paid for arbitration.\r\n     */\r\n    function setArbitrationPrice(uint _arbitrationPrice) external onlyOwner {\r\n        arbitrationPrice = _arbitrationPrice;\r\n    }\r\n\r\n    /** @dev Cost of arbitration. Accessor to arbitrationPrice.\r\n     *  @param _extraData Not used by this contract.\r\n     *  @return fee Amount to be paid.\r\n     */\r\n    function arbitrationCost(bytes memory _extraData) public view returns(uint fee) {\r\n        return arbitrationPrice;\r\n    }\r\n\r\n    /** @dev Cost of appeal. If appeal is not possible, it's a high value which can never be paid.\r\n     *  @param _disputeID ID of the dispute to be appealed.\r\n     *  @param _extraData Not used by this contract.\r\n     *  @return fee Amount to be paid.\r\n     */\r\n    function appealCost(uint _disputeID, bytes memory _extraData) public view returns(uint fee) {\r\n        Dispute storage dispute = disputes[_disputeID];\r\n        if (dispute.status == DisputeStatus.Appealable)\r\n            return dispute.appealCost;\r\n        else\r\n            return NOT_PAYABLE_VALUE;\r\n    }\r\n\r\n    /** @dev Create a dispute. Must be called by the arbitrable contract.\r\n     *  Must be paid at least arbitrationCost().\r\n     *  @param _choices Amount of choices the arbitrator can make in this dispute. When ruling <= choices.\r\n     *  @param _extraData Can be used to give additional info on the dispute to be created.\r\n     *  @return disputeID ID of the dispute created.\r\n     */\r\n    function createDispute(uint _choices, bytes memory _extraData) public payable returns(uint disputeID) {\r\n        super.createDispute(_choices, _extraData);\r\n        disputeID = disputes.push(Dispute({\r\n            arbitrated: AutoArbitrable(msg.sender),\r\n            choices: _choices,\r\n            fees: msg.value,\r\n            ruling: 0,\r\n            status: DisputeStatus.Waiting,\r\n            appealCost: 0,\r\n            appealPeriodStart: 0,\r\n            appealPeriodEnd: 0\r\n            })) - 1; // Create the dispute and return its number.\r\n        emit DisputeCreation(disputeID, AutoArbitrable(msg.sender));\r\n    }\r\n    \r\n    /** @dev Give a ruling. UNTRUSTED.\r\n     *  @param _disputeID ID of the dispute to rule.\r\n     *  @param _ruling Ruling given by the arbitrator. Note that 0 means \"Not able/wanting to make a decision\".\r\n     */\r\n    function giveRuling(uint _disputeID, uint _ruling) external onlyOwner {\r\n        Dispute storage dispute = disputes[_disputeID];\r\n        require(_ruling <= dispute.choices, \"Invalid ruling.\");\r\n        require(dispute.status == DisputeStatus.Waiting, \"The dispute must be waiting for arbitration.\");\r\n\r\n        dispute.ruling = _ruling;\r\n        dispute.status = DisputeStatus.Solved;\r\n\r\n        msg.sender.send(dispute.fees); // Avoid blocking.\r\n        dispute.arbitrated.rule(_disputeID, _ruling);\r\n    }\r\n    \r\n    /** @dev Give an appealable ruling.\r\n     *  @param _disputeID ID of the dispute to rule.\r\n     *  @param _ruling Ruling given by the arbitrator. Note that 0 means \"Not able/wanting to make a decision\".\r\n     *  @param _appealCost The cost of appeal.\r\n     *  @param _timeToAppeal The time to appeal the ruling.\r\n     */\r\n    function giveAppealableRuling(uint _disputeID, uint _ruling, uint _appealCost, uint _timeToAppeal) external onlyOwner {\r\n        Dispute storage dispute = disputes[_disputeID];\r\n        require(_ruling <= dispute.choices, \"Invalid ruling.\");\r\n        require(dispute.status == DisputeStatus.Waiting, \"The dispute must be waiting for arbitration.\");\r\n        \r\n        dispute.ruling = _ruling;\r\n        dispute.status = DisputeStatus.Appealable;\r\n        dispute.appealCost = _appealCost;\r\n        dispute.appealPeriodStart = now;\r\n        dispute.appealPeriodEnd = now.addCap(_timeToAppeal);\r\n    }\r\n    \r\n    \r\n    /** @dev Change the appeal fee of a dispute.\r\n     *  @param _disputeID The ID of the dispute to update.\r\n     *  @param _appealCost The new cost to appeal this ruling.\r\n     */\r\n    function changeAppealFee(uint _disputeID, uint _appealCost) external onlyOwner {\r\n        Dispute storage dispute = disputes[_disputeID];\r\n        require(dispute.status == DisputeStatus.Appealable, \"The dispute must be appealable.\");\r\n        \r\n        dispute.appealCost = _appealCost;\r\n    }\r\n    \r\n    /** @dev Appeal a ruling. Note that it has to be called before the arbitrator contract calls rule.\r\n     *  @param _disputeID ID of the dispute to be appealed.\r\n     *  @param _extraData Can be used to give extra info on the appeal.\r\n     */\r\n    function appeal(uint _disputeID, bytes memory _extraData) public requireAppealFee(_disputeID, _extraData) payable {\r\n        Dispute storage dispute = disputes[_disputeID];\r\n        require(dispute.status == DisputeStatus.Appealable, \"The dispute must be appealable.\");\r\n        require(now < dispute.appealPeriodEnd, \"The appeal must occur before the end of the appeal period.\");\r\n        \r\n        dispute.fees += msg.value;\r\n        dispute.status = DisputeStatus.Waiting;\r\n        emit AppealDecision(_disputeID, AutoArbitrable(msg.sender));\r\n    }\r\n    \r\n    /** @dev Execute the ruling of a dispute after the appeal period has passed. UNTRUSTED.\r\n     *  @param _disputeID ID of the dispute to execute.\r\n     */\r\n    function executeRuling(uint _disputeID) external {\r\n        Dispute storage dispute = disputes[_disputeID];\r\n        require(dispute.status == DisputeStatus.Appealable, \"The dispute must be appealable.\");\r\n        require(now >= dispute.appealPeriodEnd, \"The dispute must be executed after its appeal period has ended.\");\r\n        \r\n        dispute.status = DisputeStatus.Solved;\r\n        msg.sender.send(dispute.fees); // Avoid blocking.\r\n        dispute.arbitrated.rule(_disputeID, dispute.ruling);\r\n    }\r\n\r\n    /** @dev Return the status of a dispute (in the sense of ERC792, not the Dispute property).\r\n     *  @param _disputeID ID of the dispute to rule.\r\n     *  @return status The status of the dispute.\r\n     */\r\n    function disputeStatus(uint _disputeID) public view returns(DisputeStatus status) {\r\n        Dispute storage dispute = disputes[_disputeID];\r\n        if (disputes[_disputeID].status==DisputeStatus.Appealable && now>=dispute.appealPeriodEnd) // If the appeal period is over, consider it solved even if rule has not been called yet.\r\n            return DisputeStatus.Solved;\r\n        else\r\n            return disputes[_disputeID].status;\r\n    }\r\n\r\n    /** @dev Return the ruling of a dispute.\r\n     *  @param _disputeID ID of the dispute.\r\n     *  @return ruling The ruling which have been given or which would be given if no appeals are raised.\r\n     */\r\n    function currentRuling(uint _disputeID) public view returns(uint ruling) {\r\n        return disputes[_disputeID].ruling;\r\n    }\r\n    \r\n    /** @dev Compute the start and end of the dispute's current or next appeal period, if possible.\r\n     *  @param _disputeID ID of the dispute.\r\n     *  @return The start and end of the period.\r\n     */\r\n    function appealPeriod(uint _disputeID) public view returns(uint start, uint end) {\r\n        Dispute storage dispute = disputes[_disputeID];\r\n        return (dispute.appealPeriodStart, dispute.appealPeriodEnd);\r\n    }\r\n\r\n}",
  "sourcePath": "C:/Users/Alessandro/solidity_work/myproject/contracts/AutoAppealableArbitrator.sol",
  "compiler": {
    "name": "solc",
    "version": "0.5.0+commit.1d4f565a.Emscripten.clang"
  },
  "schemaVersion": "3.0.0",
  "updatedAt": "2019-10-17T15:30:30.539Z",
  "devdoc": {
    "methods": {
      "appeal(uint256,bytes)": {
        "details": "Appeal a ruling. Note that it has to be called before the arbitrator contract calls rule.\r",
        "params": {
          "_disputeID": "ID of the dispute to be appealed.\r",
          "_extraData": "Can be used to give extra info on the appeal.\r"
        }
      },
      "appealCost(uint256,bytes)": {
        "details": "Cost of appeal. If appeal is not possible, it's a high value which can never be paid.\r",
        "params": {
          "_disputeID": "ID of the dispute to be appealed.\r",
          "_extraData": "Not used by this contract.\r"
        },
        "return": "fee Amount to be paid.\r"
      },
      "appealPeriod(uint256)": {
        "details": "Compute the start and end of the dispute's current or next appeal period, if possible.\r",
        "params": {
          "_disputeID": "ID of the dispute.\r"
        },
        "return": "The start and end of the period.\r"
      },
      "arbitrationCost(bytes)": {
        "details": "Cost of arbitration. Accessor to arbitrationPrice.\r",
        "params": {
          "_extraData": "Not used by this contract.\r"
        },
        "return": "fee Amount to be paid.\r"
      },
      "changeAppealFee(uint256,uint256)": {
        "details": "Change the appeal fee of a dispute.\r",
        "params": {
          "_appealCost": "The new cost to appeal this ruling.\r",
          "_disputeID": "The ID of the dispute to update.\r"
        }
      },
      "constructor": {
        "details": "Constructor. Set the initial arbitration price.\r",
        "params": {
          "_arbitrationPrice": "Amount to be paid for arbitration.\r"
        }
      },
      "createDispute(uint256,bytes)": {
        "details": "Create a dispute. Must be called by the arbitrable contract.\r Must be paid at least arbitrationCost().\r",
        "params": {
          "_choices": "Amount of choices the arbitrator can make in this dispute. When ruling <= choices.\r",
          "_extraData": "Can be used to give additional info on the dispute to be created.\r"
        },
        "return": "disputeID ID of the dispute created.\r"
      },
      "currentRuling(uint256)": {
        "details": "Return the ruling of a dispute.\r",
        "params": {
          "_disputeID": "ID of the dispute.\r"
        },
        "return": "ruling The ruling which have been given or which would be given if no appeals are raised.\r"
      },
      "disputeStatus(uint256)": {
        "details": "Return the status of a dispute (in the sense of ERC792, not the Dispute property).\r",
        "params": {
          "_disputeID": "ID of the dispute to rule.\r"
        },
        "return": "status The status of the dispute.\r"
      },
      "executeRuling(uint256)": {
        "details": "Execute the ruling of a dispute after the appeal period has passed. UNTRUSTED.\r",
        "params": {
          "_disputeID": "ID of the dispute to execute.\r"
        }
      },
      "giveAppealableRuling(uint256,uint256,uint256,uint256)": {
        "details": "Give an appealable ruling.\r",
        "params": {
          "_appealCost": "The cost of appeal.\r",
          "_disputeID": "ID of the dispute to rule.\r",
          "_ruling": "Ruling given by the arbitrator. Note that 0 means \"Not able/wanting to make a decision\".\r",
          "_timeToAppeal": "The time to appeal the ruling.\r"
        }
      },
      "giveRuling(uint256,uint256)": {
        "details": "Give a ruling. UNTRUSTED.\r",
        "params": {
          "_disputeID": "ID of the dispute to rule.\r",
          "_ruling": "Ruling given by the arbitrator. Note that 0 means \"Not able/wanting to make a decision\".\r"
        }
      },
      "setArbitrationPrice(uint256)": {
        "details": "Set the arbitration price. Only callable by the owner.\r",
        "params": {
          "_arbitrationPrice": "Amount to be paid for arbitration.\r"
        }
      }
    }
  },
  "userdoc": {
    "methods": {}
  }
}