{
  "contractName": "LogicalPuzzlesWithdraw",
  "abi": [
    {
      "constant": true,
      "inputs": [],
      "name": "storagepuzzles",
      "outputs": [
        {
          "name": "",
          "type": "address"
        }
      ],
      "payable": false,
      "stateMutability": "view",
      "type": "function",
      "signature": "0xac578833"
    },
    {
      "inputs": [
        {
          "name": "_storagepuzzles",
          "type": "address"
        }
      ],
      "payable": false,
      "stateMutability": "nonpayable",
      "type": "constructor",
      "signature": "constructor"
    },
    {
      "anonymous": false,
      "inputs": [
        {
          "indexed": true,
          "name": "_gameId",
          "type": "uint256"
        },
        {
          "indexed": true,
          "name": "_player",
          "type": "address"
        },
        {
          "indexed": false,
          "name": "_WonOrLost",
          "type": "bool"
        },
        {
          "indexed": false,
          "name": "_amount",
          "type": "uint256"
        }
      ],
      "name": "SolutionStatusLog",
      "type": "event",
      "signature": "0x62809b1d24234a22638c4168bc8068d18fe4ef0ef627bace3425a405b9c64e80"
    },
    {
      "constant": false,
      "inputs": [
        {
          "name": "_gameIndex",
          "type": "uint256"
        }
      ],
      "name": "withdrawNonSubmittedGame",
      "outputs": [],
      "payable": false,
      "stateMutability": "nonpayable",
      "type": "function",
      "signature": "0x2c364e83"
    },
    {
      "constant": false,
      "inputs": [
        {
          "name": "_gameIndex",
          "type": "uint256"
        }
      ],
      "name": "playerWithdraw",
      "outputs": [],
      "payable": false,
      "stateMutability": "nonpayable",
      "type": "function",
      "signature": "0x5629365b"
    },
    {
      "constant": false,
      "inputs": [
        {
          "name": "_gameIndex",
          "type": "uint256"
        }
      ],
      "name": "creatorWithdraw",
      "outputs": [],
      "payable": false,
      "stateMutability": "nonpayable",
      "type": "function",
      "signature": "0x71eb89f3"
    },
    {
      "constant": false,
      "inputs": [
        {
          "name": "_gameIndex",
          "type": "uint256"
        },
        {
          "name": "_player",
          "type": "address"
        }
      ],
      "name": "creatorWithdrawSingle",
      "outputs": [],
      "payable": false,
      "stateMutability": "nonpayable",
      "type": "function",
      "signature": "0x67c0e2fe"
    },
    {
      "constant": false,
      "inputs": [
        {
          "name": "_gameIndex",
          "type": "uint256"
        }
      ],
      "name": "bothNoSolutionPlayerWithdraw",
      "outputs": [],
      "payable": false,
      "stateMutability": "nonpayable",
      "type": "function",
      "signature": "0x6541bb9b"
    },
    {
      "constant": false,
      "inputs": [
        {
          "name": "_gameIndex",
          "type": "uint256"
        }
      ],
      "name": "bothNoSolutionCreatorWithdraw",
      "outputs": [],
      "payable": false,
      "stateMutability": "nonpayable",
      "type": "function",
      "signature": "0xce619e9d"
    },
    {
      "constant": false,
      "inputs": [
        {
          "name": "_gameIndex",
          "type": "uint256"
        },
        {
          "name": "_player",
          "type": "address"
        }
      ],
      "name": "bothNoSolutionCreatorWithdrawSingle",
      "outputs": [],
      "payable": false,
      "stateMutability": "nonpayable",
      "type": "function",
      "signature": "0x13043a21"
    },
    {
      "constant": false,
      "inputs": [
        {
          "name": "_logicalContractIndex",
          "type": "uint256"
        },
        {
          "name": "_gameId",
          "type": "uint256"
        },
        {
          "name": "_player",
          "type": "address"
        },
        {
          "name": "_WonOrLost",
          "type": "bool"
        },
        {
          "name": "_amount",
          "type": "uint256"
        }
      ],
      "name": "emitSolutionStatusLog",
      "outputs": [],
      "payable": false,
      "stateMutability": "nonpayable",
      "type": "function",
      "signature": "0xd3dcdad5"
    }
  ],
  "bytecode": "0x60806040523480156200001157600080fd5b5060405160208062005dbd833981018060405260208110156200003357600080fd5b505160008054600160a060020a03909216600160a060020a0319909216919091179055615d5780620000666000396000f3fe60806040526004361061007f5763ffffffff60e060020a60003504166313043a2181146100845780632c364e83146100bf5780635629365b146100e95780636541bb9b1461011357806367c0e2fe1461013d57806371eb89f314610176578063ac578833146101a0578063ce619e9d146101d1578063d3dcdad5146101fb575b600080fd5b34801561009057600080fd5b506100bd600480360360408110156100a757600080fd5b5080359060200135600160a060020a0316610248565b005b3480156100cb57600080fd5b506100bd600480360360208110156100e257600080fd5b5035610ef8565b3480156100f557600080fd5b506100bd6004803603602081101561010c57600080fd5b50356118c0565b34801561011f57600080fd5b506100bd6004803603602081101561013657600080fd5b50356125a1565b34801561014957600080fd5b506100bd6004803603604081101561016057600080fd5b5080359060200135600160a060020a03166130b4565b34801561018257600080fd5b506100bd6004803603602081101561019957600080fd5b50356140f8565b3480156101ac57600080fd5b506101b5614e5f565b60408051600160a060020a039092168252519081900360200190f35b3480156101dd57600080fd5b506100bd600480360360208110156101f457600080fd5b5035614e6e565b34801561020757600080fd5b506100bd600480360360a081101561021e57600080fd5b50803590602081013590600160a060020a0360408201351690606081013515159060800135615977565b6000809054906101000a9004600160a060020a0316600160a060020a031663654f1ccb6040518163ffffffff1660e060020a02815260040160206040518083038186803b15801561029857600080fd5b505afa1580156102ac573d6000803e3d6000fd5b505050506040513d60208110156102c257600080fd5b50518210610308576040805160e560020a62461bcd0281526020600482015260166024820152600080516020615cec833981519152604482015290519081900360640190fd5b6000546040805160e060020a632a1594a1028152600481018590529051600160a060020a0390921691632a1594a191602480820192602092909190829003018186803b15801561035757600080fd5b505afa15801561036b573d6000803e3d6000fd5b505050506040513d602081101561038157600080fd5b505115156001146103ca576040805160e560020a62461bcd0281526020600482015260196024820152600080516020615cac833981519152604482015290519081900360640190fd5b6000546040805160e160020a633381f6e5028152600481018590529051600160a060020a0390921691636703edca91602480820192602092909190829003018186803b15801561041957600080fd5b505afa15801561042d573d6000803e3d6000fd5b505050506040513d602081101561044357600080fd5b50511560011461048b576040805160e560020a62461bcd0281526020600482015260166024820152600080516020615c8c833981519152604482015290519081900360640190fd5b6000546040805160e160020a633d6a06430281526004810185905290513392600160a060020a031691637ad40c86916024808301926020929190829003018186803b1580156104d957600080fd5b505afa1580156104ed573d6000803e3d6000fd5b505050506040513d602081101561050357600080fd5b5051600160a060020a031614610551576040805160e560020a62461bcd02815260206004820152601b6024820152600080516020615ccc833981519152604482015290519081900360640190fd5b6000546040805160e160020a6346afb21702815260048101859052600160a060020a03848116602483015291519190921691638d5f642e916044808301926020929190829003018186803b1580156105a857600080fd5b505afa1580156105bc573d6000803e3d6000fd5b505050506040513d60208110156105d257600080fd5b5051151560011461061b576040805160e560020a62461bcd0281526020600482015260136024820152600080516020615d0c833981519152604482015290519081900360640190fd5b6000546040805160e060020a634c20605902815260048101859052600160a060020a03848116602483015291519190921691634c206059916044808301926020929190829003018186803b15801561067257600080fd5b505afa158015610686573d6000803e3d6000fd5b505050506040513d602081101561069c57600080fd5b5051156001146106f6576040805160e560020a62461bcd02815260206004820152601260248201527f736f6c7574696f6e207375626d69747465640000000000000000000000000000604482015290519081900360640190fd5b600080546040805160e060020a630781e9bf02815260048101869052600160a060020a03858116602483015291519190921691630781e9bf916044808301926020929190829003018186803b15801561074e57600080fd5b505afa158015610762573d6000803e3d6000fd5b505050506040513d602081101561077857600080fd5b50519050600080546040805160e060020a633cbeaa9b02815260048101879052602481018590529051600160a060020a0390921691633cbeaa9b91604480820192602092909190829003018186803b1580156107d357600080fd5b505afa1580156107e7573d6000803e3d6000fd5b505050506040513d60208110156107fd57600080fd5b505114610851576040805160e560020a62461bcd02815260206004820152602480820152600080516020615c2c833981519152604482015260e060020a637461746502606482015290519081900360840190fd5b6000546040805160e060020a637cfdb1b90281529051610a4a92600160a060020a031691637cfdb1b9916004808301926020929190829003018186803b15801561089a57600080fd5b505afa1580156108ae573d6000803e3d6000fd5b505050506040513d60208110156108c457600080fd5b50516000546040805160e160020a632e114abb0281529051610a3e92600160a060020a031691635c229576916004808301926020929190829003018186803b15801561090f57600080fd5b505afa158015610923573d6000803e3d6000fd5b505050506040513d602081101561093957600080fd5b50516000546040805160e060020a63cd08e3b7028152600481018a90529051610a3e92600160a060020a03169163cd08e3b7916024808301926020929190829003018186803b15801561098b57600080fd5b505afa15801561099f573d6000803e3d6000fd5b505050506040513d60208110156109b557600080fd5b50516000546040805160e160020a633ab1b853028152600481018c90529051600160a060020a039092169163756370a691602480820192602092909190829003018186803b158015610a0657600080fd5b505afa158015610a1a573d6000803e3d6000fd5b505050506040513d6020811015610a3057600080fd5b50519063ffffffff615bd016565b9063ffffffff615bd016565b4211610a9c576040805160e560020a62461bcd0281526020600482015260226024820152600080516020615c6c833981519152604482015260f260020a61195902606482015290519081900360840190fd5b600080546040805160e060020a63187c6eb502815260048101879052602481018590529051600160a060020a039092169163187c6eb591604480820192602092909190829003018186803b158015610af357600080fd5b505afa158015610b07573d6000803e3d6000fd5b505050506040513d6020811015610b1d57600080fd5b5051600080546040805160e060020a63d66691ab028152600481018990526024810187905290519394509192600160a060020a039091169163d66691ab916044808301926020929190829003018186803b158015610b7a57600080fd5b505afa158015610b8e573d6000803e3d6000fd5b505050506040513d6020811015610ba457600080fd5b5051600080546040805160e160020a6331e947f1028152600481018a905290519394509192600160a060020a03909116916363d28fe2916024808301926020929190829003018186803b158015610bfa57600080fd5b505afa158015610c0e573d6000803e3d6000fd5b505050506040513d6020811015610c2457600080fd5b5051610c3784606463ffffffff615beb16565b811515610c4057fe5b0490506000610c5b6002845b8491900463ffffffff615c1616565b90506000610c776002855b85880391900463ffffffff615c1616565b6040805160008152600287046020820152815192935033928b92600080516020615c4c833981519152928290030190a3600160a060020a03871688600080516020615c4c833981519152600060028860408051931515845291900460208301528051918290030190a3600080546040805160e260020a6326bd28dd02815260016004820152602481018c9052604481018a9052600660648201529051600160a060020a0390921692639af4a3749260848084019382900301818387803b158015610d4057600080fd5b505af1158015610d54573d6000803e3d6000fd5b50506000546040805160e060020a63d4c30ceb0281529051600160a060020a03909216935063e10d2ef39250600191610db0918991869163d4c30ceb916004808301926020929190829003018186803b158015610a0657600080fd5b6040518363ffffffff1660e060020a0281526004018083815260200182815260200192505050600060405180830381600087803b158015610df057600080fd5b505af1158015610e04573d6000803e3d6000fd5b5050600080546040805160e160020a637a9278a302815260016004820152336024820152604481018790529051600160a060020a03909216945063f524f1469350606480820193929182900301818387803b158015610e6257600080fd5b505af1158015610e76573d6000803e3d6000fd5b5050600080546040805160e160020a637a9278a302815260016004820152600160a060020a038d8116602483015260448201899052915191909216945063f524f14693506064808301939282900301818387803b158015610ed657600080fd5b505af1158015610eea573d6000803e3d6000fd5b505050505050505050505050565b6000809054906101000a9004600160a060020a0316600160a060020a031663654f1ccb6040518163ffffffff1660e060020a02815260040160206040518083038186803b158015610f4857600080fd5b505afa158015610f5c573d6000803e3d6000fd5b505050506040513d6020811015610f7257600080fd5b50518110610fb8576040805160e560020a62461bcd0281526020600482015260166024820152600080516020615cec833981519152604482015290519081900360640190fd5b6000546040805160e060020a632a1594a1028152600481018490529051600160a060020a0390921691632a1594a191602480820192602092909190829003018186803b15801561100757600080fd5b505afa15801561101b573d6000803e3d6000fd5b505050506040513d602081101561103157600080fd5b50511560011461108b576040805160e560020a62461bcd02815260206004820152601560248201527f67616d6520686173206265656e20637265617465640000000000000000000000604482015290519081900360640190fd5b6000546040805160e160020a6346afb217028152600481018490523360248201529051600160a060020a0390921691638d5f642e91604480820192602092909190829003018186803b1580156110e057600080fd5b505afa1580156110f4573d6000803e3d6000fd5b505050506040513d602081101561110a57600080fd5b50511515600114611153576040805160e560020a62461bcd0281526020600482015260136024820152600080516020615d0c833981519152604482015290519081900360640190fd5b600080546040805160e060020a630781e9bf028152600481018590523360248201529051600160a060020a0390921691630781e9bf91604480820192602092909190829003018186803b1580156111a957600080fd5b505afa1580156111bd573d6000803e3d6000fd5b505050506040513d60208110156111d357600080fd5b50519050600080546040805160e060020a633cbeaa9b02815260048101869052602481018590529051600160a060020a0390921691633cbeaa9b91604480820192602092909190829003018186803b15801561122e57600080fd5b505afa158015611242573d6000803e3d6000fd5b505050506040513d602081101561125857600080fd5b5051146112ac576040805160e560020a62461bcd02815260206004820152602480820152600080516020615c2c833981519152604482015260e060020a637461746502606482015290519081900360840190fd5b600054604080517fdb034279000000000000000000000000000000000000000000000000000000008152905161142e92600160a060020a03169163db034279916004808301926020929190829003018186803b15801561130b57600080fd5b505afa15801561131f573d6000803e3d6000fd5b505050506040513d602081101561133557600080fd5b5051600054604080517ffea93d7d000000000000000000000000000000000000000000000000000000008152600481018790529051610a3e92600160a060020a03169163fea93d7d916024808301926020929190829003018186803b15801561139d57600080fd5b505afa1580156113b1573d6000803e3d6000fd5b505050506040513d60208110156113c757600080fd5b5051600054604080517f9c5dc026000000000000000000000000000000000000000000000000000000008152600481018990529051600160a060020a0390921691639c5dc02691602480820192602092909190829003018186803b158015610a0657600080fd5b4211611484576040805160e560020a62461bcd02815260206004820152601a60248201527f67616d65206372656174696f6e2079657420706f737369626c65000000000000604482015290519081900360640190fd5b600080546040805160e060020a63187c6eb502815260048101869052602481018590529051600160a060020a039092169163187c6eb591604480820192602092909190829003018186803b1580156114db57600080fd5b505afa1580156114ef573d6000803e3d6000fd5b505050506040513d602081101561150557600080fd5b5051600080546040805160e060020a63d66691ab028152600481018890526024810187905290519394509192600160a060020a039091169163d66691ab916044808301926020929190829003018186803b15801561156257600080fd5b505afa158015611576573d6000803e3d6000fd5b505050506040513d602081101561158c57600080fd5b5051600080546040805160e160020a6331e947f102815260048101899052905193945084860393600160a060020a03909216916363d28fe291602480820192602092909190829003018186803b1580156115e557600080fd5b505afa1580156115f9573d6000803e3d6000fd5b505050506040513d602081101561160f57600080fd5b505161162285606463ffffffff615beb16565b81151561162b57fe5b0490503386600080516020615c4c8339815191526001611651868663ffffffff615c1616565b60408051921515835260208301919091528051918290030190a36000546040805160e160020a633d6a0643028152600481018990529051600160a060020a0390921691637ad40c8691602480820192602092909190829003018186803b1580156116ba57600080fd5b505afa1580156116ce573d6000803e3d6000fd5b505050506040513d60208110156116e457600080fd5b5051604080516000815283870360208201528151600160a060020a03909316928992600080516020615c4c833981519152928290030190a3600080546040805160e260020a6326bd28dd0281526001600482810191909152602482018b9052604482018a905260648201529051600160a060020a0390921692639af4a3749260848084019382900301818387803b15801561177e57600080fd5b505af1158015611792573d6000803e3d6000fd5b50506000546040805160e060020a63d4c30ceb0281529051600160a060020a03909216935063e10d2ef392506001916117ee918891869163d4c30ceb916004808301926020929190829003018186803b158015610a0657600080fd5b6040518363ffffffff1660e060020a0281526004018083815260200182815260200192505050600060405180830381600087803b15801561182e57600080fd5b505af1158015611842573d6000803e3d6000fd5b5050600080546040805160e160020a637a9278a302815260016004820152336024820152604481018890529051600160a060020a03909216945063f524f1469350606480820193929182900301818387803b1580156118a057600080fd5b505af11580156118b4573d6000803e3d6000fd5b50505050505050505050565b6000809054906101000a9004600160a060020a0316600160a060020a031663654f1ccb6040518163ffffffff1660e060020a02815260040160206040518083038186803b15801561191057600080fd5b505afa158015611924573d6000803e3d6000fd5b505050506040513d602081101561193a57600080fd5b50518110611980576040805160e560020a62461bcd0281526020600482015260166024820152600080516020615cec833981519152604482015290519081900360640190fd5b6000546040805160e060020a632a1594a1028152600481018490529051600160a060020a0390921691632a1594a191602480820192602092909190829003018186803b1580156119cf57600080fd5b505afa1580156119e3573d6000803e3d6000fd5b505050506040513d60208110156119f957600080fd5b50511515600114611a42576040805160e560020a62461bcd0281526020600482015260196024820152600080516020615cac833981519152604482015290519081900360640190fd5b6000546040805160e060020a634c206059028152600481018490523360248201529051600160a060020a0390921691634c20605991604480820192602092909190829003018186803b158015611a9757600080fd5b505afa158015611aab573d6000803e3d6000fd5b505050506040513d6020811015611ac157600080fd5b50511515600114611b0a576040805160e560020a62461bcd0281526020600482015260166024820152600080516020615c8c833981519152604482015290519081900360640190fd5b600080546040805160e060020a630781e9bf028152600481018590523360248201529051600160a060020a0390921691630781e9bf91604480820192602092909190829003018186803b158015611b6057600080fd5b505afa158015611b74573d6000803e3d6000fd5b505050506040513d6020811015611b8a57600080fd5b50519050600080546040805160e060020a633cbeaa9b02815260048101869052602481018590529051600160a060020a0390921691633cbeaa9b91604480820192602092909190829003018186803b158015611be557600080fd5b505afa158015611bf9573d6000803e3d6000fd5b505050506040513d6020811015611c0f57600080fd5b505114611c63576040805160e560020a62461bcd02815260206004820152602480820152600080516020615c2c833981519152604482015260e060020a637461746502606482015290519081900360840190fd5b6000546040805160e060020a637cfdb1b90281529051611e1892600160a060020a031691637cfdb1b9916004808301926020929190829003018186803b158015611cac57600080fd5b505afa158015611cc0573d6000803e3d6000fd5b505050506040513d6020811015611cd657600080fd5b50516000546040805160e160020a632e114abb0281529051610a3e92600160a060020a031691635c229576916004808301926020929190829003018186803b158015611d2157600080fd5b505afa158015611d35573d6000803e3d6000fd5b505050506040513d6020811015611d4b57600080fd5b50516000546040805160e060020a63cd08e3b7028152600481018990529051610a3e92600160a060020a03169163cd08e3b7916024808301926020929190829003018186803b158015611d9d57600080fd5b505afa158015611db1573d6000803e3d6000fd5b505050506040513d6020811015611dc757600080fd5b50516000546040805160e160020a633ab1b853028152600481018b90529051600160a060020a039092169163756370a691602480820192602092909190829003018186803b158015610a0657600080fd5b4211611e6a576040805160e560020a62461bcd0281526020600482015260226024820152600080516020615c6c833981519152604482015260f260020a61195902606482015290519081900360840190fd5b600054604080517f2fdfdca000000000000000000000000000000000000000000000000000000000815290516120aa92600160a060020a031691632fdfdca0916004808301926020929190829003018186803b158015611ec957600080fd5b505afa158015611edd573d6000803e3d6000fd5b505050506040513d6020811015611ef357600080fd5b50516000546040805160e060020a637cfdb1b90281529051610a3e92600160a060020a031691637cfdb1b9916004808301926020929190829003018186803b158015611f3e57600080fd5b505afa158015611f52573d6000803e3d6000fd5b505050506040513d6020811015611f6857600080fd5b50516000546040805160e160020a632e114abb0281529051610a3e92600160a060020a031691635c229576916004808301926020929190829003018186803b158015611fb357600080fd5b505afa158015611fc7573d6000803e3d6000fd5b505050506040513d6020811015611fdd57600080fd5b50516000546040805160e060020a63cd08e3b7028152600481018b90529051610a3e92600160a060020a03169163cd08e3b7916024808301926020929190829003018186803b15801561202f57600080fd5b505afa158015612043573d6000803e3d6000fd5b505050506040513d602081101561205957600080fd5b50516000546040805160e160020a633ab1b853028152600481018d90529051600160a060020a039092169163756370a691602480820192602092909190829003018186803b158015610a0657600080fd5b4211612188576000546040805160e160020a633381f6e5028152600481018590529051600160a060020a0390921691636703edca91602480820192602092909190829003018186803b1580156120ff57600080fd5b505afa158015612113573d6000803e3d6000fd5b505050506040513d602081101561212957600080fd5b505115600114612183576040805160e560020a62461bcd02815260206004820152601260248201527f736f6c7574696f6e207375626d69747465640000000000000000000000000000604482015290519081900360640190fd5b611484565b60008054604080517fdbe1d9be000000000000000000000000000000000000000000000000000000008152600481018690529051606093600160a060020a039093169263dbe1d9be9260248082019391829003018186803b1580156121ec57600080fd5b505afa158015612200573d6000803e3d6000fd5b505050506040513d6000823e601f3d908101601f19168201604052602081101561222957600080fd5b81019080805164010000000081111561224157600080fd5b8201602081018481111561225457600080fd5b815164010000000081118282018710171561226e57600080fd5b505060008054604080517fe55a6a8a000000000000000000000000000000000000000000000000000000008152600481018b9052602481018a9052905193975060609650600160a060020a03909116945063e55a6a8a935060448082019391829003018186803b1580156122e157600080fd5b505afa1580156122f5573d6000803e3d6000fd5b505050506040513d6000823e601f3d908101601f19168201604052602081101561231e57600080fd5b81019080805164010000000081111561233657600080fd5b8201602081018481111561234957600080fd5b815164010000000081118282018710171561236357600080fd5b50506000546040805160e160020a633381f6e5028152600481018b90529051929650600160a060020a039091169450636703edca93506024808201935060209291829003018186803b1580156123b857600080fd5b505afa1580156123cc573d6000803e3d6000fd5b505050506040513d60208110156123e257600080fd5b505115600114806124cc5750806040516020018082805190602001908083835b602083106124215780518252601f199092019160209182019101612402565b6001836020036101000a03801982511681845116808217855250505050505090500191505060405160208183030381529060405280519060200120826040516020018082805190602001908083835b6020831061248f5780518252601f199092019160209182019101612470565b6001836020036101000a03801982511681845116808217855250505050505090500191505060405160208183030381529060405280519060200120145b1515612548576040805160e560020a62461bcd02815260206004820152602d60248201527f736f6c7574696f6e207375626d697474656420616e6420736f6c7574696f6e2060448201527f706c617965722077726f6e672000000000000000000000000000000000000000606482015290519081900360840190fd5b5050600080546040805160e060020a63187c6eb502815260048101869052602481018590529051600160a060020a039092169163187c6eb591604480820192602092909190829003018186803b1580156114db57600080fd5b6000809054906101000a9004600160a060020a0316600160a060020a031663654f1ccb6040518163ffffffff1660e060020a02815260040160206040518083038186803b1580156125f157600080fd5b505afa158015612605573d6000803e3d6000fd5b505050506040513d602081101561261b57600080fd5b50518110612661576040805160e560020a62461bcd0281526020600482015260166024820152600080516020615cec833981519152604482015290519081900360640190fd5b6000546040805160e060020a632a1594a1028152600481018490529051600160a060020a0390921691632a1594a191602480820192602092909190829003018186803b1580156126b057600080fd5b505afa1580156126c4573d6000803e3d6000fd5b505050506040513d60208110156126da57600080fd5b50511515600114612723576040805160e560020a62461bcd0281526020600482015260196024820152600080516020615cac833981519152604482015290519081900360640190fd5b6000546040805160e160020a633381f6e5028152600481018490529051600160a060020a0390921691636703edca91602480820192602092909190829003018186803b15801561277257600080fd5b505afa158015612786573d6000803e3d6000fd5b505050506040513d602081101561279c57600080fd5b5051156001146127e4576040805160e560020a62461bcd0281526020600482015260166024820152600080516020615c8c833981519152604482015290519081900360640190fd5b6000546040805160e160020a6346afb217028152600481018490523360248201529051600160a060020a0390921691638d5f642e91604480820192602092909190829003018186803b15801561283957600080fd5b505afa15801561284d573d6000803e3d6000fd5b505050506040513d602081101561286357600080fd5b505115156001146128ac576040805160e560020a62461bcd0281526020600482015260136024820152600080516020615d0c833981519152604482015290519081900360640190fd5b6000546040805160e060020a634c206059028152600481018490523360248201529051600160a060020a0390921691634c20605991604480820192602092909190829003018186803b15801561290157600080fd5b505afa158015612915573d6000803e3d6000fd5b505050506040513d602081101561292b57600080fd5b505115600114612985576040805160e560020a62461bcd02815260206004820152601260248201527f736f6c7574696f6e207375626d69747465640000000000000000000000000000604482015290519081900360640190fd5b600080546040805160e060020a630781e9bf028152600481018590523360248201529051600160a060020a0390921691630781e9bf91604480820192602092909190829003018186803b1580156129db57600080fd5b505afa1580156129ef573d6000803e3d6000fd5b505050506040513d6020811015612a0557600080fd5b50519050600080546040805160e060020a633cbeaa9b02815260048101869052602481018590529051600160a060020a0390921691633cbeaa9b91604480820192602092909190829003018186803b158015612a6057600080fd5b505afa158015612a74573d6000803e3d6000fd5b505050506040513d6020811015612a8a57600080fd5b505114612ade576040805160e560020a62461bcd02815260206004820152602480820152600080516020615c2c833981519152604482015260e060020a637461746502606482015290519081900360840190fd5b6000546040805160e060020a637cfdb1b90281529051612b2792600160a060020a031691637cfdb1b9916004808301926020929190829003018186803b158015611cac57600080fd5b4211612b79576040805160e560020a62461bcd0281526020600482015260226024820152600080516020615c6c833981519152604482015260f260020a61195902606482015290519081900360840190fd5b600080546040805160e060020a63187c6eb502815260048101869052602481018590529051600160a060020a039092169163187c6eb591604480820192602092909190829003018186803b158015612bd057600080fd5b505afa158015612be4573d6000803e3d6000fd5b505050506040513d6020811015612bfa57600080fd5b5051600080546040805160e060020a63d66691ab028152600481018890526024810187905290519394509192600160a060020a039091169163d66691ab916044808301926020929190829003018186803b158015612c5757600080fd5b505afa158015612c6b573d6000803e3d6000fd5b505050506040513d6020811015612c8157600080fd5b5051600080546040805160e160020a6331e947f10281526004810189905290519394509192600160a060020a03909116916363d28fe2916024808301926020929190829003018186803b158015612cd757600080fd5b505afa158015612ceb573d6000803e3d6000fd5b505050506040513d6020811015612d0157600080fd5b5051612d1484606463ffffffff615beb16565b811515612d1d57fe5b0490506000612d2d600284610c4c565b90506000612d3c600285610c66565b6000546040805160e160020a633d6a0643028152600481018b90529051929350600160a060020a0390911691637ad40c8691602480820192602092909190829003018186803b158015612d8e57600080fd5b505afa158015612da2573d6000803e3d6000fd5b505050506040513d6020811015612db857600080fd5b505160408051600081526002870460208201528151600160a060020a03909316928a92600080516020615c4c833981519152928290030190a33387600080516020615c4c833981519152600060028860408051931515845291900460208301528051918290030190a3600080546040805160e260020a6326bd28dd02815260016004820152602481018b9052604481018a9052600660648201529051600160a060020a0390921692639af4a3749260848084019382900301818387803b158015612e8157600080fd5b505af1158015612e95573d6000803e3d6000fd5b50506000546040805160e060020a63d4c30ceb0281529051600160a060020a03909216935063e10d2ef39250600191612ef1918991869163d4c30ceb916004808301926020929190829003018186803b158015610a0657600080fd5b6040518363ffffffff1660e060020a0281526004018083815260200182815260200192505050600060405180830381600087803b158015612f3157600080fd5b505af1158015612f45573d6000803e3d6000fd5b5050600080546040805160e160020a637a9278a302815260016004820152336024820152604481018890529051600160a060020a03909216945063f524f1469350606480820193929182900301818387803b158015612fa357600080fd5b505af1158015612fb7573d6000803e3d6000fd5b50506000546040805160e160020a633d6a0643028152600481018c90529051600160a060020a03909216935063f524f14692506001918491637ad40c86916024808301926020929190829003018186803b15801561301457600080fd5b505afa158015613028573d6000803e3d6000fd5b505050506040513d602081101561303e57600080fd5b50516040805160e060020a63ffffffff86160281526004810193909352600160a060020a0390911660248301526044820185905251606480830192600092919082900301818387803b15801561309357600080fd5b505af11580156130a7573d6000803e3d6000fd5b5050505050505050505050565b6000809054906101000a9004600160a060020a0316600160a060020a031663654f1ccb6040518163ffffffff1660e060020a02815260040160206040518083038186803b15801561310457600080fd5b505afa158015613118573d6000803e3d6000fd5b505050506040513d602081101561312e57600080fd5b50518210613174576040805160e560020a62461bcd0281526020600482015260166024820152600080516020615cec833981519152604482015290519081900360640190fd5b6000546040805160e160020a633381f6e5028152600481018590529051600160a060020a0390921691636703edca91602480820192602092909190829003018186803b1580156131c357600080fd5b505afa1580156131d7573d6000803e3d6000fd5b505050506040513d60208110156131ed57600080fd5b50511515600114613236576040805160e560020a62461bcd0281526020600482015260166024820152600080516020615c8c833981519152604482015290519081900360640190fd5b6000546040805160e160020a633d6a06430281526004810185905290513392600160a060020a031691637ad40c86916024808301926020929190829003018186803b15801561328457600080fd5b505afa158015613298573d6000803e3d6000fd5b505050506040513d60208110156132ae57600080fd5b5051600160a060020a0316146132fc576040805160e560020a62461bcd02815260206004820152601b6024820152600080516020615ccc833981519152604482015290519081900360640190fd5b6000546040805160e160020a6346afb21702815260048101859052600160a060020a03848116602483015291519190921691638d5f642e916044808301926020929190829003018186803b15801561335357600080fd5b505afa158015613367573d6000803e3d6000fd5b505050506040513d602081101561337d57600080fd5b505115156001146133c6576040805160e560020a62461bcd0281526020600482015260136024820152600080516020615d0c833981519152604482015290519081900360640190fd5b600080546040805160e060020a630781e9bf02815260048101869052600160a060020a03858116602483015291519190921691630781e9bf916044808301926020929190829003018186803b15801561341e57600080fd5b505afa158015613432573d6000803e3d6000fd5b505050506040513d602081101561344857600080fd5b50519050600080546040805160e060020a633cbeaa9b02815260048101879052602481018590529051600160a060020a0390921691633cbeaa9b91604480820192602092909190829003018186803b1580156134a357600080fd5b505afa1580156134b7573d6000803e3d6000fd5b505050506040513d60208110156134cd57600080fd5b505114613521576040805160e560020a62461bcd02815260206004820152602480820152600080516020615c2c833981519152604482015260e060020a637461746502606482015290519081900360840190fd5b6000546040805160e060020a637cfdb1b9028152905161356a92600160a060020a031691637cfdb1b9916004808301926020929190829003018186803b15801561089a57600080fd5b42116135e6576040805160e560020a62461bcd02815260206004820152602a60248201527f74696d656f757420666f722077697468647261772077696e20616c726561647960448201527f2061637469766174656400000000000000000000000000000000000000000000606482015290519081900360840190fd5b600054604080517f2fdfdca0000000000000000000000000000000000000000000000000000000008152905161382692600160a060020a031691632fdfdca0916004808301926020929190829003018186803b15801561364557600080fd5b505afa158015613659573d6000803e3d6000fd5b505050506040513d602081101561366f57600080fd5b50516000546040805160e060020a637cfdb1b90281529051610a3e92600160a060020a031691637cfdb1b9916004808301926020929190829003018186803b1580156136ba57600080fd5b505afa1580156136ce573d6000803e3d6000fd5b505050506040513d60208110156136e457600080fd5b50516000546040805160e160020a632e114abb0281529051610a3e92600160a060020a031691635c229576916004808301926020929190829003018186803b15801561372f57600080fd5b505afa158015613743573d6000803e3d6000fd5b505050506040513d602081101561375957600080fd5b50516000546040805160e060020a63cd08e3b7028152600481018c90529051610a3e92600160a060020a03169163cd08e3b7916024808301926020929190829003018186803b1580156137ab57600080fd5b505afa1580156137bf573d6000803e3d6000fd5b505050506040513d60208110156137d557600080fd5b50516000546040805160e160020a633ab1b853028152600481018e90529051600160a060020a039092169163756370a691602480820192602092909190829003018186803b158015610a0657600080fd5b421161390c576000546040805160e060020a634c20605902815260048101869052600160a060020a03858116602483015291519190921691634c206059916044808301926020929190829003018186803b15801561388357600080fd5b505afa158015613897573d6000803e3d6000fd5b505050506040513d60208110156138ad57600080fd5b505115600114613907576040805160e560020a62461bcd02815260206004820152601960248201527f736f6c7574696f6e20706c61796572207375626d697474656400000000000000604482015290519081900360640190fd5b613cd7565b60008054604080517fdbe1d9be000000000000000000000000000000000000000000000000000000008152600481018790529051606093600160a060020a039093169263dbe1d9be9260248082019391829003018186803b15801561397057600080fd5b505afa158015613984573d6000803e3d6000fd5b505050506040513d6000823e601f3d908101601f1916820160405260208110156139ad57600080fd5b8101908080516401000000008111156139c557600080fd5b820160208101848111156139d857600080fd5b81516401000000008111828201871017156139f257600080fd5b505060008054604080517fe55a6a8a000000000000000000000000000000000000000000000000000000008152600481018c9052602481018a9052905193975060609650600160a060020a03909116945063e55a6a8a935060448082019391829003018186803b158015613a6557600080fd5b505afa158015613a79573d6000803e3d6000fd5b505050506040513d6000823e601f3d908101601f191682016040526020811015613aa257600080fd5b810190808051640100000000811115613aba57600080fd5b82016020810184811115613acd57600080fd5b8151640100000000811182820187101715613ae757600080fd5b50506000546040805160e060020a634c206059028152600481018c9052600160a060020a038b81166024830152915193975091169450634c20605993506044808201935060209291829003018186803b158015613b4357600080fd5b505afa158015613b57573d6000803e3d6000fd5b505050506040513d6020811015613b6d57600080fd5b50511560011480613c585750806040516020018082805190602001908083835b60208310613bac5780518252601f199092019160209182019101613b8d565b6001836020036101000a03801982511681845116808217855250505050505090500191505060405160208183030381529060405280519060200120826040516020018082805190602001908083835b60208310613c1a5780518252601f199092019160209182019101613bfb565b6001836020036101000a0380198251168184511680821785525050505050509050019150506040516020818303038152906040528051906020012014155b1515613cd4576040805160e560020a62461bcd02815260206004820152602560248201527f506c6179657220736f6c7574696f6e207375626d697474656420616e6420636f60448201527f7272656374000000000000000000000000000000000000000000000000000000606482015290519081900360840190fd5b50505b600080546040805160e060020a63187c6eb502815260048101879052602481018590529051600160a060020a039092169163187c6eb591604480820192602092909190829003018186803b158015613d2e57600080fd5b505afa158015613d42573d6000803e3d6000fd5b505050506040513d6020811015613d5857600080fd5b5051600080546040805160e060020a63d66691ab028152600481018990526024810187905290519394509192600160a060020a039091169163d66691ab916044808301926020929190829003018186803b158015613db557600080fd5b505afa158015613dc9573d6000803e3d6000fd5b505050506040513d6020811015613ddf57600080fd5b5051600080546040805160e160020a6331e947f1028152600481018a9052905193945084860393600160a060020a03909216916363d28fe291602480820192602092909190829003018186803b158015613e3857600080fd5b505afa158015613e4c573d6000803e3d6000fd5b505050506040513d6020811015613e6257600080fd5b5051613e7585606463ffffffff615beb16565b811515613e7e57fe5b6000546040805160e160020a6325e6df75028152600481018c9052602481018a90529051939092049350600160a060020a031691634bcdbeea91604480820192602092909190829003018186803b158015613ed857600080fd5b505afa158015613eec573d6000803e3d6000fd5b505050506040513d6020811015613f0257600080fd5b50516040805160008152602081018490528151600160a060020a03909316928a92600080516020615c4c833981519152928290030190a33387600080516020615c4c8339815191526001613f5c858863ffffffff615c1616565b60408051921515835260208301919091528051918290030190a3600080546040805160e260020a6326bd28dd02815260016004820152602481018b905260448101899052600560648201529051600160a060020a0390921692639af4a3749260848084019382900301818387803b158015613fd657600080fd5b505af1158015613fea573d6000803e3d6000fd5b50506000546040805160e060020a63d4c30ceb0281529051600160a060020a03909216935063e10d2ef39250600191614046918891869163d4c30ceb916004808301926020929190829003018186803b158015610a0657600080fd5b6040518363ffffffff1660e060020a0281526004018083815260200182815260200192505050600060405180830381600087803b15801561408657600080fd5b505af115801561409a573d6000803e3d6000fd5b5050600080546040805160e160020a637a9278a302815260016004820152336024820152604481018890529051600160a060020a03909216945063f524f1469350606480820193929182900301818387803b15801561309357600080fd5b6000809054906101000a9004600160a060020a0316600160a060020a031663654f1ccb6040518163ffffffff1660e060020a02815260040160206040518083038186803b15801561414857600080fd5b505afa15801561415c573d6000803e3d6000fd5b505050506040513d602081101561417257600080fd5b505181106141b8576040805160e560020a62461bcd0281526020600482015260166024820152600080516020615cec833981519152604482015290519081900360640190fd5b6000546040805160e160020a633381f6e5028152600481018490529051600160a060020a0390921691636703edca91602480820192602092909190829003018186803b15801561420757600080fd5b505afa15801561421b573d6000803e3d6000fd5b505050506040513d602081101561423157600080fd5b5051151560011461427a576040805160e560020a62461bcd0281526020600482015260166024820152600080516020615c8c833981519152604482015290519081900360640190fd5b6000546040805160e160020a633d6a06430281526004810184905290513392600160a060020a031691637ad40c86916024808301926020929190829003018186803b1580156142c857600080fd5b505afa1580156142dc573d6000803e3d6000fd5b505050506040513d60208110156142f257600080fd5b5051600160a060020a031614614340576040805160e560020a62461bcd02815260206004820152601b6024820152600080516020615ccc833981519152604482015290519081900360640190fd5b600054604080517f2fdfdca0000000000000000000000000000000000000000000000000000000008152905161441492600160a060020a031691632fdfdca0916004808301926020929190829003018186803b15801561439f57600080fd5b505afa1580156143b3573d6000803e3d6000fd5b505050506040513d60208110156143c957600080fd5b50516000546040805160e060020a637cfdb1b90281529051610a3e92600160a060020a031691637cfdb1b9916004808301926020929190829003018186803b15801561089a57600080fd5b4211614490576040805160e560020a62461bcd02815260206004820152602a60248201527f74696d656f757420666f722077697468647261772077696e20616c726561647960448201527f2061637469766174656400000000000000000000000000000000000000000000606482015290519081900360840190fd5b600080805b600054604080517ff590901d000000000000000000000000000000000000000000000000000000008152600481018790529051600160a060020a039092169163f590901d91602480820192602092909190829003018186803b1580156144fa57600080fd5b505afa15801561450e573d6000803e3d6000fd5b505050506040513d602081101561452457600080fd5b5051811015614d3757600080546040805160e160020a6325e6df7502815260048101889052602481018590529051600160a060020a0390921691634bcdbeea91604480820192602092909190829003018186803b15801561458457600080fd5b505afa158015614598573d6000803e3d6000fd5b505050506040513d60208110156145ae57600080fd5b50519050600080546040805160e060020a633cbeaa9b02815260048101899052602481018690529051600160a060020a0390921691633cbeaa9b91604480820192602092909190829003018186803b15801561460957600080fd5b505afa15801561461d573d6000803e3d6000fd5b505050506040513d602081101561463357600080fd5b505114801561498257506000546040805160e060020a634c20605902815260048101889052600160a060020a03848116602483015291519190921691634c206059916044808301926020929190829003018186803b15801561469457600080fd5b505afa1580156146a8573d6000803e3d6000fd5b505050506040513d60208110156146be57600080fd5b50511560011480614982575060008054604080517fe55a6a8a00000000000000000000000000000000000000000000000000000000815260048101899052602481018690529051600160a060020a039092169263e55a6a8a92604480840193829003018186803b15801561473157600080fd5b505afa158015614745573d6000803e3d6000fd5b505050506040513d6000823e601f3d908101601f19168201604052602081101561476e57600080fd5b81019080805164010000000081111561478657600080fd5b8201602081018481111561479957600080fd5b81516401000000008111828201871017156147b357600080fd5b50509291905050506040516020018082805190602001908083835b602083106147ed5780518252601f1990920191602091820191016147ce565b51815160209384036101000a60001901801990921691161790526040805192909401828103601f1901835280855282519290910191909120600080547fdbe1d9be000000000000000000000000000000000000000000000000000000008452600484018d90529451919650600160a060020a03909416945063dbe1d9be93602480840194509092829003018186803b15801561488857600080fd5b505afa15801561489c573d6000803e3d6000fd5b505050506040513d6000823e601f3d908101601f1916820160405260208110156148c557600080fd5b8101908080516401000000008111156148dd57600080fd5b820160208101848111156148f057600080fd5b815164010000000081118282018710171561490a57600080fd5b50509291905050506040516020018082805190602001908083835b602083106149445780518252601f199092019160209182019101614925565b6001836020036101000a0380198251168184511680821785525050505050509050019150506040516020818303038152906040528051906020012014155b15614d2e57600080546040805160e060020a63187c6eb502815260048101899052602481018690529051600160a060020a039092169163187c6eb591604480820192602092909190829003018186803b1580156149de57600080fd5b505afa1580156149f2573d6000803e3d6000fd5b505050506040513d6020811015614a0857600080fd5b5051600080546040805160e060020a63d66691ab028152600481018b90526024810188905290519394509192600160a060020a039091169163d66691ab916044808301926020929190829003018186803b158015614a6557600080fd5b505afa158015614a79573d6000803e3d6000fd5b505050506040513d6020811015614a8f57600080fd5b5051600080546040805160e160020a6331e947f1028152600481018c9052905193945084860393600160a060020a03909216916363d28fe291602480820192602092909190829003018186803b158015614ae857600080fd5b505afa158015614afc573d6000803e3d6000fd5b505050506040513d6020811015614b1257600080fd5b5051614b2585606463ffffffff615beb16565b811515614b2e57fe5b6000546040805160e160020a6325e6df75028152600481018e9052602481018b90529051939092049350600160a060020a031691634bcdbeea91604480820192602092909190829003018186803b158015614b8857600080fd5b505afa158015614b9c573d6000803e3d6000fd5b505050506040513d6020811015614bb257600080fd5b50516040805160008152602081018490528151600160a060020a03909316928c92600080516020615c4c833981519152928290030190a36000546040805160e160020a633d6a0643028152600481018c90529051600160a060020a0390921691637ad40c8691602480820192602092909190829003018186803b158015614c3857600080fd5b505afa158015614c4c573d6000803e3d6000fd5b505050506040513d6020811015614c6257600080fd5b5051600160a060020a031689600080516020615c4c8339815191526001614c8f858863ffffffff615c1616565b60408051921515835260208301919091528051918290030190a3600080546040805160e260020a6326bd28dd02815260016004820152602481018d9052604481018a9052600560648201529051600160a060020a0390921692639af4a3749260848084019382900301818387803b158015614d0957600080fd5b505af1158015614d1d573d6000803e3d6000fd5b505050979092019650949094019350505b50600101614495565b506000546040805160e060020a63d4c30ceb0281529051600160a060020a039092169163e10d2ef391600191614d90918791869163d4c30ceb916004808301926020929190829003018186803b158015610a0657600080fd5b6040518363ffffffff1660e060020a0281526004018083815260200182815260200192505050600060405180830381600087803b158015614dd057600080fd5b505af1158015614de4573d6000803e3d6000fd5b5050600080546040805160e160020a637a9278a302815260016004820152336024820152604481018790529051600160a060020a03909216945063f524f1469350606480820193929182900301818387803b158015614e4257600080fd5b505af1158015614e56573d6000803e3d6000fd5b50505050505050565b600054600160a060020a031681565b6000809054906101000a9004600160a060020a0316600160a060020a031663654f1ccb6040518163ffffffff1660e060020a02815260040160206040518083038186803b158015614ebe57600080fd5b505afa158015614ed2573d6000803e3d6000fd5b505050506040513d6020811015614ee857600080fd5b50518110614f2e576040805160e560020a62461bcd0281526020600482015260166024820152600080516020615cec833981519152604482015290519081900360640190fd5b6000546040805160e060020a632a1594a1028152600481018490529051600160a060020a0390921691632a1594a191602480820192602092909190829003018186803b158015614f7d57600080fd5b505afa158015614f91573d6000803e3d6000fd5b505050506040513d6020811015614fa757600080fd5b50511515600114614ff0576040805160e560020a62461bcd0281526020600482015260196024820152600080516020615cac833981519152604482015290519081900360640190fd5b6000546040805160e160020a633381f6e5028152600481018490529051600160a060020a0390921691636703edca91602480820192602092909190829003018186803b15801561503f57600080fd5b505afa158015615053573d6000803e3d6000fd5b505050506040513d602081101561506957600080fd5b5051156001146150b1576040805160e560020a62461bcd0281526020600482015260166024820152600080516020615c8c833981519152604482015290519081900360640190fd5b6000546040805160e160020a633d6a06430281526004810184905290513392600160a060020a031691637ad40c86916024808301926020929190829003018186803b1580156150ff57600080fd5b505afa158015615113573d6000803e3d6000fd5b505050506040513d602081101561512957600080fd5b5051600160a060020a031614615177576040805160e560020a62461bcd02815260206004820152601b6024820152600080516020615ccc833981519152604482015290519081900360640190fd5b6000546040805160e060020a637cfdb1b9028152905161532c92600160a060020a031691637cfdb1b9916004808301926020929190829003018186803b1580156151c057600080fd5b505afa1580156151d4573d6000803e3d6000fd5b505050506040513d60208110156151ea57600080fd5b50516000546040805160e160020a632e114abb0281529051610a3e92600160a060020a031691635c229576916004808301926020929190829003018186803b15801561523557600080fd5b505afa158015615249573d6000803e3d6000fd5b505050506040513d602081101561525f57600080fd5b50516000546040805160e060020a63cd08e3b7028152600481018890529051610a3e92600160a060020a03169163cd08e3b7916024808301926020929190829003018186803b1580156152b157600080fd5b505afa1580156152c5573d6000803e3d6000fd5b505050506040513d60208110156152db57600080fd5b50516000546040805160e160020a633ab1b853028152600481018a90529051600160a060020a039092169163756370a691602480820192602092909190829003018186803b158015610a0657600080fd5b421161537e576040805160e560020a62461bcd0281526020600482015260226024820152600080516020615c6c833981519152604482015260f260020a61195902606482015290519081900360840190fd5b600080805b600054604080517ff590901d000000000000000000000000000000000000000000000000000000008152600481018790529051600160a060020a039092169163f590901d91602480820192602092909190829003018186803b1580156153e857600080fd5b505afa1580156153fc573d6000803e3d6000fd5b505050506040513d602081101561541257600080fd5b5051811015614d3757600080546040805160e160020a6325e6df7502815260048101889052602481018590529051600160a060020a0390921691634bcdbeea91604480820192602092909190829003018186803b15801561547257600080fd5b505afa158015615486573d6000803e3d6000fd5b505050506040513d602081101561549c57600080fd5b50516000546040805160e160020a6346afb21702815260048101899052600160a060020a0380851660248301529151939450911691638d5f642e91604480820192602092909190829003018186803b1580156154f757600080fd5b505afa15801561550b573d6000803e3d6000fd5b505050506040513d602081101561552157600080fd5b5051151560011480156155b757506000546040805160e060020a634c20605902815260048101889052600160a060020a03848116602483015291519190921691634c206059916044808301926020929190829003018186803b15801561558657600080fd5b505afa15801561559a573d6000803e3d6000fd5b505050506040513d60208110156155b057600080fd5b5051156001145b80156156435750600080546040805160e060020a633cbeaa9b02815260048101899052602481018690529051600160a060020a0390921691633cbeaa9b91604480820192602092909190829003018186803b15801561561557600080fd5b505afa158015615629573d6000803e3d6000fd5b505050506040513d602081101561563f57600080fd5b5051145b1561596e57600080546040805160e060020a63187c6eb502815260048101899052602481018690529051600160a060020a039092169163187c6eb591604480820192602092909190829003018186803b15801561569f57600080fd5b505afa1580156156b3573d6000803e3d6000fd5b505050506040513d60208110156156c957600080fd5b5051600080546040805160e060020a63d66691ab028152600481018b90526024810188905290519394509192600160a060020a039091169163d66691ab916044808301926020929190829003018186803b15801561572657600080fd5b505afa15801561573a573d6000803e3d6000fd5b505050506040513d602081101561575057600080fd5b5051600080546040805160e160020a6331e947f1028152600481018c905290519394509192600160a060020a03909116916363d28fe2916024808301926020929190829003018186803b1580156157a657600080fd5b505afa1580156157ba573d6000803e3d6000fd5b505050506040513d60208110156157d057600080fd5b50516157e384606463ffffffff615beb16565b8115156157ec57fe5b04905060006157fc600284610c4c565b9050600061580b600285610c66565b6040805160008152600287046020820152815192935033928d92600080516020615c4c833981519152928290030190a3600160a060020a0386168a600080516020615c4c833981519152600060028860408051931515845291900460208301528051918290030190a3600080546040805160e260020a6326bd28dd02815260016004820152602481018e9052604481018b9052600660648201529051600160a060020a0390921692639af4a3749260848084019382900301818387803b1580156158d457600080fd5b505af11580156158e8573d6000803e3d6000fd5b5050600080546040805160e160020a637a9278a302815260016004820152600160a060020a038c8116602483015260448201899052915191909216945063f524f14693506064808301939282900301818387803b15801561594857600080fd5b505af115801561595c573d6000803e3d6000fd5b50505098909301975050509390930192505b50600101615383565b600054604080517fbc882a8f00000000000000000000000000000000000000000000000000000000815290518792600160a060020a03169163bc882a8f916004808301926020929190829003018186803b1580156159d457600080fd5b505afa1580156159e8573d6000803e3d6000fd5b505050506040513d60208110156159fe57600080fd5b50518110615a7c576040805160e560020a62461bcd02815260206004820152602260248201527f4c6f676963616c20636f6e747261637420696e646578206e6f7420707265736560448201527f6e74000000000000000000000000000000000000000000000000000000000000606482015290519081900360840190fd5b600054604080517fbb3968330000000000000000000000000000000000000000000000000000000081526004810184905290513392600160a060020a03169163bb396833916024808301926020929190829003018186803b158015615ae057600080fd5b505afa158015615af4573d6000803e3d6000fd5b505050506040513d6020811015615b0a57600080fd5b5051600160a060020a031614615b90576040805160e560020a62461bcd02815260206004820152602660248201527f53656e64657220646966666572656e742066726f6d206c6f676963616c20636f60448201527f6e74726163740000000000000000000000000000000000000000000000000000606482015290519081900360840190fd5b604080518415158152602081018490528151600160a060020a038716928892600080516020615c4c833981519152929081900390910190a3505050505050565b600082820183811015615be257600080fd5b90505b92915050565b6000821515615bfc57506000615be5565b828202828482811515615c0b57fe5b0414615be257600080fd5b600082821115615c2557600080fd5b5090039056fe536f6c7574696f6e20726573756c74206e6f7420696e2064656661756c74207362809b1d24234a22638c4168bc8068d18fe4ef0ef627bace3425a405b9c64e8077697468647261772077696e206e6f7420616c72656164792061637469766174736f6c7574696f6e206e6f74207375626d69747465640000000000000000000067616d6520686173206e6f74206265656e20637265617465640000000000000073656e646572206d7573742062652067616d652063726561746f72000000000047616d6520696e646578206e6f7420636f7272656374000000000000000000006f66666572206e6f74207375626d697474656400000000000000000000000000a165627a7a72305820887a45f18bc787f030fe589095577b48ea3a3c9bb7424921baef046664a519fa0029",
  "source": "   pragma solidity ^0.5.0;\r\n\r\nlibrary SafeMath {\r\n    /**\r\n     * @dev Multiplies two unsigned integers, reverts on overflow.\r\n     */\r\n    function mul(uint256 a, uint256 b) internal pure returns (uint256) {\r\n        // Gas optimization: this is cheaper than requiring 'a' not being zero, but the\r\n        // benefit is lost if 'b' is also tested.\r\n        // See: https://github.com/OpenZeppelin/openzeppelin-solidity/pull/522\r\n        if (a == 0) {\r\n            return 0;\r\n        }\r\n\r\n        uint256 c = a * b;\r\n        require(c / a == b);\r\n\r\n        return c;\r\n    }\r\n\r\n    /**\r\n     * @dev Integer division of two unsigned integers truncating the quotient, reverts on division by zero.\r\n     */\r\n    function div(uint256 a, uint256 b) internal pure returns (uint256) {\r\n        // Solidity only automatically asserts when dividing by 0\r\n        require(b > 0);\r\n        uint256 c = a / b;\r\n        // assert(a == b * c + a % b); // There is no case in which this doesn't hold\r\n\r\n        return c;\r\n    }\r\n\r\n    /**\r\n     * @dev Subtracts two unsigned integers, reverts on overflow (i.e. if subtrahend is greater than minuend).\r\n     */\r\n    function sub(uint256 a, uint256 b) internal pure returns (uint256) {\r\n        require(b <= a);\r\n        uint256 c = a - b;\r\n\r\n        return c;\r\n    }\r\n\r\n    /**\r\n     * @dev Adds two unsigned integers, reverts on overflow.\r\n     */\r\n    function add(uint256 a, uint256 b) internal pure returns (uint256) {\r\n        uint256 c = a + b;\r\n        require(c >= a);\r\n\r\n        return c;\r\n    }\r\n\r\n    /**\r\n     * @dev Divides two unsigned integers and returns the remainder (unsigned integer modulo),\r\n     * reverts when dividing by zero.\r\n     */\r\n    function mod(uint256 a, uint256 b) internal pure returns (uint256) {\r\n        require(b != 0);\r\n        return a % b;\r\n    }\r\n}\r\n\r\ncontract StoragePuzzlesAbstract  {\r\n    \r\n    function AddGamesType (bool _gameActivated)  external;\r\n    \r\n    function SetGameType (bool _gameActivated, uint256 _gameTypeIndex)  external;\r\n    \r\n    function GetGameType (uint256 _gameTypeIndex) external view returns (bool);\r\n    \r\n    function GetGameTypeLength()  external view returns (uint256);\r\n    \r\n    function setMinimalJackpot (uint256 _minimalJackpot)  external;\r\n    \r\n    function getMinimalJackpot() external view returns(uint256);\r\n    \r\n    function setMaxTimeoutCreation (uint256 _maxTimeoutCreation)   external;\r\n    \r\n    function getMaxTimeoutCreation () external view returns(uint256);\r\n    \r\n    function setTimeoutPlayerSolution (uint256 _timeoutPlayerSolution)  external;\r\n    \r\n    function getTimeoutPlayerSolution () external view returns(uint256);\r\n    \r\n    function setTimeoutCreatorSolution (uint256 _timeoutCreatorSolution) external;\r\n    \r\n    function getTimeoutCreatorSolution () external view returns(uint256);\r\n        \r\n    function setTimeoutDisp (uint256 _timeoutDisp)  external;\r\n    \r\n    function getTimeoutDisp () external view returns(uint256);\r\n    \r\n    function setTimeoutRuling (uint256 _timeoutRuling)  external;\r\n    \r\n    function getTimeoutRuling () external view returns(uint256);\r\n    \r\n    function setFeePercent (uint256 _feePercent)  external;\r\n    \r\n    function getFeePercent() external view returns(uint256);\r\n \r\n    function setArbitrator (address _arbitratorAddress, bytes calldata _arbitratorExtraData)  external;\r\n    \r\n    function getArbitratorAddress() external view returns(address);\r\n    \r\n    function getarbitratorExtraData() external view returns(bytes memory);\r\n    \r\n    function setFeeTimeout(uint256 _feeTimeout)  external;\r\n    \r\n    function getFeeTimeout() external view returns(uint256);\r\n    \r\n    function addLogicalContract (address _logicalContract)  external;\r\n    \r\n    function setLogicalContract (address _logicalContract, uint256 _logicalContractIndex)  external;\r\n    \r\n    function getLogicalContract (uint256 _logicalContractIndex) external view returns(address);\r\n    \r\n    function getLogicalContractLength () external view returns(uint256);\r\n    \r\n    function withdrawFee (address payable _destination, uint256 _amount)  external;\r\n    \r\n\r\n    \r\n    \r\n    function addGame (uint256 _logicalContractIndex, uint32  _gameType,  address payable _creator, uint256 _residualJackpot,  uint256[3] calldata _gameLimits, uint256[2] calldata _timeouts, uint256[2] calldata _times, uint256 _quote, bytes32 _solutionHash, string calldata _solution) external;\r\n      \r\n    function setGameType (uint256 _logicalContractIndex, uint256 _gameIndex, uint32 _gameType) external;\r\n     \r\n    function setGameCreator (uint256 _logicalContractIndex, uint256 _gameIndex, address payable _creator)  external ;\r\n  \r\n    function setGameResidualJackpot (uint256 _logicalContractIndex, uint256 _gameIndex, uint256 _residualJackpot)  external ;\r\n    \r\n    function setGameMaxOffer (uint256 _logicalContractIndex, uint256 _gameIndex, uint256 _maxOffer)  external;\r\n    \r\n    function setGameMinOffer (uint256 _logicalContractIndex, uint256 _gameIndex, uint256 _minOffer)  external;\r\n    \r\n    function setGameMaxOfferNumber (uint256 _logicalContractIndex, uint256 _gameIndex, uint256 _maxOfferNumber)  external;\r\n    \r\n    function setTimePropose (uint256 _logicalContractIndex, uint256 _gameIndex, uint256 _timePropose)  external;\r\n    \r\n    function setGametimeoutOffer(uint256 _logicalContractIndex, uint256 _gameIndex, uint256 _timeoutOffer)  external;\r\n    \r\n    function setGameTimeCreationGame(uint256 _logicalContractIndex, uint256 _gameIndex, uint256 _timeCreationGame)  external;\r\n    \r\n    function setGameTimeoutResolution(uint256 _logicalContractIndex, uint256 _gameIndex, uint256 _timeoutResolution)  external;\r\n    \r\n    function setGameQuote(uint256 _logicalContractIndex, uint256 _gameIndex, uint256 _quote)  external;\r\n    \r\n    function setGameSolutionHash(uint256 _logicalContractIndex, uint256 _gameIndex, bytes32 _solutionHash)  external;\r\n    \r\n    function setGameSolution(uint256 _logicalContractIndex, uint256 _gameIndex, string calldata _solution)  external;\r\n    \r\n    function getGameType (uint256 _gameIndex) external view returns(uint32);\r\n    \r\n    function getGameCreator (uint256 _gameIndex) external view returns(address payable);\r\n    \r\n    function getGameResidualJackpot (uint256 _gameIndex) external view returns(uint256);\r\n    \r\n    function getGameMaxOffer(uint256 _gameIndex) external view returns(uint256);\r\n    \r\n    function getGameMinOffer (uint256 _gameIndex) external view returns(uint256);\r\n    \r\n    function getGameMaxOfferNumber (uint256 _gameIndex) external view returns(uint256);\r\n    \r\n    function getGameTimePropose (uint256 _gameIndex) external view returns(uint256);\r\n    \r\n    function getGameTimeoutOffer (uint256 _gameIndex) external view returns(uint256);\r\n    \r\n    function getGameTimeCreationGame(uint256 _gameIndex) external view returns(uint256);\r\n    \r\n    function getGameTimeoutResolution (uint256 _gameIndex) external view returns(uint256);\r\n    \r\n    function getGameQuote (uint256 _gameIndex) external view returns(uint256);\r\n    \r\n    function getGameSolutionHash (uint256 _gameIndex) external view returns(bytes32);\r\n    \r\n    function getGameSolution (uint256 _gameIndex) external view returns(string memory);\r\n    \r\n    function getGamesLength ()  external view returns(uint256);\r\n    \r\n\r\n   \r\n    \r\n    \r\n    function setGameMetadata (uint256 _logicalContractIndex, uint256 _gameIndex, string calldata _gameMetadata)  external;\r\n    \r\n    function getGameMetadata(uint256 _gameIndex) external view returns(string memory);\r\n   \r\n    \r\n    \r\n\r\n    \r\n    \r\n    function addOffer (uint256 _logicalContractIndex, uint256 _gameIndex, address payable _player, uint256 _expectedwin, uint256 _serviceFee, bytes32 _solutionHash, string calldata _solutionPlayer, uint256 _lastInteraction, uint256 _solutionResult, uint256[6] calldata _disputeFields)  external;\r\n    \r\n    function setOfferPlayer (uint256 _logicalContractIndex, uint256 _gameIndex, uint256 _offerIndex, address payable _player) external;\r\n    \r\n    function setOfferExpectedWin (uint256 _logicalContractIndex, uint256 _gameIndex, uint256 _offerIndex, uint256 _expectedWin) external;\r\n    \r\n    function setOfferServiceFee (uint256 _logicalContractIndex, uint256 _gameIndex, uint256 _offerIndex, uint256 _serviceFee)  external;\r\n    \r\n    function setOfferSolutionHash (uint256 _logicalContractIndex, uint256 _gameIndex, uint256 _offerIndex, bytes32 _solutionHash) external;\r\n    \r\n    function setOfferSolutionPlayer(uint256 _logicalContractIndex, uint256 _gameIndex, uint256 _offerIndex, string calldata _solutionPlayer)   external;\r\n    \r\n    function setOfferLastInteraction(uint256 _logicalContractIndex, uint256 _gameIndex, uint256 _offerIndex, uint256 _lastInteraction) external;\r\n    \r\n    function setOfferSolutionResult(uint256 _logicalContractIndex, uint256 _gameIndex, uint256 _offerIndex, uint256 _solutionResult)   external;\r\n    \r\n    function setOfferDisputeId(uint256 _logicalContractIndex, uint256 _gameIndex, uint256 _offerIndex, uint256 _disputeId)   external;\r\n\t\r\n\tfunction setOfferTimeDispute(uint256 _logicalContractIndex, uint256 _gameIndex, uint256 _offerIndex, uint256 _timeDispute)  external;\r\n    \r\n    function setOfferPlayerFee(uint256 _logicalContractIndex, uint256 _gameIndex, uint256 _offerIndex, uint256 _playerFee)   external;\r\n    \r\n    function setOfferCreatorFee(uint256 _logicalContractIndex, uint256 _gameIndex, uint256 _offerIndex, uint256 _creatorFee)   external;\r\n    \r\n    function setOfferAppeal(uint256 _logicalContractIndex, uint256 _gameIndex, uint256 _offerIndex, uint256 _appeal)   external;\r\n    \r\n    function setOfferAppealFee(uint256 _logicalContractIndex, uint256 _gameIndex, uint256 _offerIndex, uint256 _appealFee)   external;\r\n    \r\n    function getOfferPlayer (uint256 _gameIndex, uint256 _offerIndex) external view returns(address payable);\r\n    \r\n    function getOfferExpectedWin (uint256 _gameIndex, uint256 _offerIndex) external view returns(uint256);\r\n    \r\n    function getOfferServiceFee (uint256 _gameIndex, uint256 _offerIndex) external view returns(uint256);\r\n    \r\n    function getOfferSolutionHash (uint256 _gameIndex, uint256 _offerIndex) external view returns(bytes32);\r\n    \r\n    function getOfferSolutionPlayer (uint256 _gameIndex, uint256 _offerIndex) external view returns(string memory);\r\n    \r\n    function getOfferLastInteraction (uint256 _gameIndex, uint256 _offerIndex) external view returns(uint256);\r\n    \r\n    function getOfferSolutionResult (uint256 _gameIndex, uint256 _offerIndex) external view returns(uint256);\r\n    \r\n    function getOfferDisputeId (uint256 _gameIndex, uint256 _offerIndex) external view returns(uint256);\r\n\t\r\n\tfunction getOfferTimeDispute (uint256 _gameIndex, uint256 _offerIndex) external view returns(uint256);\r\n    \r\n    function getOfferPlayerFee (uint256 _gameIndex, uint256 _offerIndex) external view returns(uint256);\r\n    \r\n    function getOfferCreatorFee (uint256 _gameIndex, uint256 _offerIndex) external view returns(uint256);\r\n    \r\n    function getOfferAppeal (uint256 _gameIndex, uint256 _offerIndex) external view returns(uint256);\r\n    \r\n    function getOfferAppealFee(uint256 _gameIndex, uint256 _offerIndex) external view returns(uint256);\r\n      \r\n    function getOffersLength (uint256 _gameIndex)  external view returns(uint256);\r\n    \r\n    \r\n\r\n    \r\n    \r\n    function addOffersMap (uint256 _logicalContractIndex, uint256 _gameIndex, address _player, uint256 _indexOffer, bool _submittedOffer, bool _submittedHashSol, bool _submittedSol)  external;\r\n    \r\n    function setOffersMapIndexOffer (uint256 _logicalContractIndex, uint256 _gameIndex, address _player, uint256 _indexOffer)  external;\r\n    \r\n    function setOffersMapSubmittedOffer (uint256 _logicalContractIndex, uint256 _gameIndex, address _player, bool _submittedOffer)  external;\r\n\t\r\n    function setOffersMapSubmittedHashSol (uint256 _logicalContractIndex, uint256 _gameIndex, address _player, bool _submittedHashSol)  external;\r\n\t\r\n    function setOffersMapSubmittedSol (uint256 _logicalContractIndex, uint256 _gameIndex, address _player, bool _submittedSol)  external;\r\n    \r\n    function getOffersMapIndexOffer (uint256 _gameIndex, address _player) external view returns (uint256);\r\n    \r\n    function getOffersMapSubmittedOffer(uint256 _gameIndex, address _player) external view returns (bool);\r\n    \r\n    function getOffersMapSubmittedHashSol (uint256 _gameIndex, address _player) external view returns (bool);\r\n    \r\n    function getOffersMapSubmittedSol (uint256 _gameIndex, address _player) external view returns (bool);\r\n    \r\n\r\n    \r\n \r\n \r\n    function addCreationMap (uint256 _logicalContractIndex, uint256 _gameIndex, bool _submittedGame, bool _submittedSol)  external;\r\n    \r\n    function setCreationMapSubmittedGame (uint256 _logicalContractIndex, uint256 _gameIndex, bool _submittedGame)  external;\r\n    \r\n    function setCreationMapSubmittedSol (uint256 _logicalContractIndex, uint256 _gameIndex, bool _submittedSol)  external;\r\n    \r\n    function getCreationMapSubmittedGame (uint256 _gameIndex) external view returns(bool);\r\n    \r\n    function getCreationMapSubmittedSol (uint256 _gameIndex) external view returns(bool);\r\n    \r\n\r\n    \r\n    \r\n    function addDisputeIDtoArbitrationIndexID (uint256 _logicalContractIndex, uint256 _disputeId,  uint256 _gameIndex, address payable _player)  external;\r\n    \r\n    function setDisputeIDtoArbitrationIndexIDGameIndex (uint256 _logicalContractIndex, uint256 _disputeId,  uint256 _gameIndex)  external;\r\n    \r\n    function setDisputeIDtoArbitrationIndexIDPlayer (uint256 _logicalContractIndex, uint256 _disputeId,  address payable _player)  external;\r\n    \r\n    function getDisputeIDtoArbitrationIndexIDGameIndex (uint256 _disputeId) external view returns(uint256);\r\n    \r\n    function getDisputeIDtoArbitrationIndexIDPlayer (uint256 _disputeId) external view returns(address payable);\r\n    \r\n\r\n    \r\n    function SetFeeBalance (uint256 _logicalContractIndex, uint256 _feeBalance)  external;\r\n    \r\n    function getFeeBalance() external view returns(uint256);\r\n    \r\n    function transferEth (uint256 _logicalContractIndex, address payable _destination, uint256 _amount)  external;\r\n    \r\n    function () external payable {}\r\n\r\n}\r\n   \r\n   \r\n   contract LogicalPuzzlesWithdraw {\r\n   \r\n   using SafeMath for uint256;\r\n    \r\n   enum Result {NOTHING, WAITING_CREATOR, WAITING_PLAYER, DISPUTE_CREATED, PLAYER_WINS, CREATOR_WINS, NO_WINNER}\r\n    \r\n  \r\n    \r\n   \r\n   event SolutionStatusLog (uint256 indexed _gameId, address indexed _player,  bool _WonOrLost, uint256 _amount);\r\n \r\n   \r\n   StoragePuzzlesAbstract public storagepuzzles;\r\n   \r\n    modifier onlyOtherLogicalContracts(uint256 _logicalContractIndex) {\r\n        require (_logicalContractIndex<storagepuzzles.getLogicalContractLength(), \"Logical contract index not present\");\r\n        require (storagepuzzles.getLogicalContract(_logicalContractIndex)==msg.sender, \"Sender different from logical contract\");\r\n        _;\r\n    }\r\n    \r\n   constructor (address payable _storagepuzzles) public {\r\n        storagepuzzles=StoragePuzzlesAbstract(_storagepuzzles);\r\n    }\r\n \r\n  \r\n \r\n    \r\n    function withdrawNonSubmittedGame (uint256 _gameIndex) external {\r\n        require (_gameIndex<storagepuzzles.getGamesLength(), \"Game index not correct\");\r\n        require (!storagepuzzles.getCreationMapSubmittedGame(_gameIndex)==true, \"game has been created\");\r\n        require (storagepuzzles.getOffersMapSubmittedOffer(_gameIndex,msg.sender)==true, \"offer not submitted\" );\r\n        uint256 indexoffer=storagepuzzles.getOffersMapIndexOffer(_gameIndex, msg.sender);\r\n\t\trequire (storagepuzzles.getOfferSolutionResult(_gameIndex,indexoffer)==uint256(Result.NOTHING), \"Solution result not in default state\");\r\n\t\trequire (now > storagepuzzles.getGameTimePropose(_gameIndex).add(storagepuzzles.getGameTimeoutOffer(_gameIndex)).add(storagepuzzles.getMaxTimeoutCreation()) , \"game creation yet possible\");\r\n        uint256 grosswin=storagepuzzles.getOfferExpectedWin(_gameIndex, indexoffer);\r\n        uint256 fee=storagepuzzles.getOfferServiceFee(_gameIndex, indexoffer);\r\n        uint256 netwin= grosswin-fee;\r\n        uint256 valuebet=(grosswin.mul(100))/storagepuzzles.getGameQuote(_gameIndex);\r\n        emit SolutionStatusLog (_gameIndex, msg.sender, true, netwin.sub(valuebet));\r\n        emit SolutionStatusLog (_gameIndex, storagepuzzles.getGameCreator(_gameIndex), false , grosswin-valuebet);\r\n        storagepuzzles.setOfferSolutionResult(1, _gameIndex, indexoffer, uint256(Result.PLAYER_WINS));\r\n        storagepuzzles.SetFeeBalance(1,storagepuzzles.getFeeBalance().add(fee));\r\n        storagepuzzles.transferEth(1,msg.sender,netwin);\r\n    }\r\n    \r\n    \r\n    function playerWithdraw (uint256 _gameIndex)  external {\r\n        require (_gameIndex<storagepuzzles.getGamesLength(), \"Game index not correct\");\r\n        require (storagepuzzles.getCreationMapSubmittedGame(_gameIndex)==true, \"game has not been created\");\r\n        require (storagepuzzles.getOffersMapSubmittedSol(_gameIndex,msg.sender)==true, \"solution not submitted\");\r\n        uint256 indexoffer=storagepuzzles.getOffersMapIndexOffer(_gameIndex, msg.sender);\r\n        require(storagepuzzles.getOfferSolutionResult(_gameIndex,indexoffer)==uint256(Result.NOTHING), \"Solution result not in default state\");\r\n        require (now>storagepuzzles.getGameTimeCreationGame(_gameIndex).add(storagepuzzles.getGameTimeoutResolution(_gameIndex)).add(storagepuzzles.getTimeoutPlayerSolution()).add(storagepuzzles.getTimeoutCreatorSolution()), \"withdraw win not already activated\");\r\n\t\tif (now<=storagepuzzles.getGameTimeCreationGame(_gameIndex).add(storagepuzzles.getGameTimeoutResolution(_gameIndex)).add(storagepuzzles.getTimeoutPlayerSolution()).add(storagepuzzles.getTimeoutCreatorSolution()).add(storagepuzzles.getTimeoutDisp()))  {\r\n\t\t  require(!storagepuzzles.getCreationMapSubmittedSol(_gameIndex)==true, \"solution submitted\");\r\n\t\t}\r\n\t\telse {\r\n\t\t  string memory gamesolution=storagepuzzles.getGameSolution(_gameIndex);\r\n          string memory playersolution=storagepuzzles.getOfferSolutionPlayer(_gameIndex,indexoffer);\r\n          require (!storagepuzzles.getCreationMapSubmittedSol(_gameIndex)==true || keccak256(abi.encodePacked(gamesolution)) ==  keccak256(abi.encodePacked(playersolution)), \"solution submitted and solution player wrong \" );\r\n\t\t}\r\n        uint256 grosswin=storagepuzzles.getOfferExpectedWin(_gameIndex,indexoffer);\r\n        uint256 fee=storagepuzzles.getOfferServiceFee(_gameIndex, indexoffer);\r\n        uint256 netwin= grosswin-fee;\r\n        uint256 valuebet=(grosswin.mul(100))/storagepuzzles.getGameQuote(_gameIndex);\r\n        emit SolutionStatusLog (_gameIndex, msg.sender, true , netwin.sub(valuebet));\r\n        emit SolutionStatusLog (_gameIndex, storagepuzzles.getGameCreator(_gameIndex) , false , grosswin-valuebet);\r\n        storagepuzzles.setOfferSolutionResult(1,_gameIndex,indexoffer,uint256(Result.PLAYER_WINS));\r\n        storagepuzzles.SetFeeBalance(1,storagepuzzles.getFeeBalance().add(fee));\r\n        storagepuzzles.transferEth(1,msg.sender,netwin);\r\n   }\r\n   \r\n    \r\n    function creatorWithdraw (uint256 _gameIndex) external {\r\n        require (_gameIndex<storagepuzzles.getGamesLength(), \"Game index not correct\");\r\n        require (storagepuzzles.getCreationMapSubmittedSol(_gameIndex)==true, \"solution not submitted\");\r\n        require (storagepuzzles.getGameCreator(_gameIndex)==msg.sender,\"sender must be game creator\");\r\n        require (now>storagepuzzles.getGameTimeCreationGame(_gameIndex).add(storagepuzzles.getGameTimeoutResolution(_gameIndex)).add(storagepuzzles.getTimeoutPlayerSolution()).add(storagepuzzles.getTimeoutCreatorSolution()).add(storagepuzzles.getTimeoutDisp()),\"timeout for withdraw win already activated\");\r\n        uint256 totalFee=0;\r\n        uint256 totalNetWin=0;\r\n        for (uint256 j=0; j<storagepuzzles.getOffersLength(_gameIndex); j++)  {\r\n            address player=storagepuzzles.getOfferPlayer(_gameIndex,j);\r\n            if (storagepuzzles.getOfferSolutionResult(_gameIndex, j)==uint256(Result.NOTHING) && (!storagepuzzles.getOffersMapSubmittedSol(_gameIndex,player)==true || keccak256(abi.encodePacked(storagepuzzles.getGameSolution(_gameIndex))) !=  keccak256(abi.encodePacked(storagepuzzles.getOfferSolutionPlayer(_gameIndex,j))) ) ) {\r\n                uint256 grosswin = storagepuzzles.getOfferExpectedWin(_gameIndex, j);\r\n                uint256 fee=storagepuzzles.getOfferServiceFee(_gameIndex, j);\r\n                uint256 netwin = grosswin-fee;\r\n                uint256 valuebet=(grosswin.mul(100))/storagepuzzles.getGameQuote(_gameIndex);\r\n                emit SolutionStatusLog (_gameIndex, storagepuzzles.getOfferPlayer(_gameIndex, j) , false , valuebet);  \r\n                emit SolutionStatusLog (_gameIndex, storagepuzzles.getGameCreator(_gameIndex) , true , valuebet.sub(fee)); \r\n                storagepuzzles.setOfferSolutionResult(1, _gameIndex, j, uint256(Result.CREATOR_WINS));\r\n                totalFee=totalFee+fee;\r\n                totalNetWin=totalNetWin+netwin;\r\n            } \r\n        }\r\n        storagepuzzles.SetFeeBalance(1,storagepuzzles.getFeeBalance().add(totalFee));\r\n        storagepuzzles.transferEth(1,msg.sender,totalNetWin);\r\n    }\r\n\t\r\n\t\r\n    \r\n    function creatorWithdrawSingle (uint256 _gameIndex, address _player) external {\r\n        require (_gameIndex<storagepuzzles.getGamesLength(), \"Game index not correct\");\r\n        require (storagepuzzles.getCreationMapSubmittedSol(_gameIndex)==true, \"solution not submitted\");\r\n        require (storagepuzzles.getGameCreator(_gameIndex)==msg.sender,\"sender must be game creator\");\r\n\t\trequire (storagepuzzles.getOffersMapSubmittedOffer(_gameIndex, _player)==true, \"offer not submitted\" );\r\n\t    uint256 indexoffer=storagepuzzles.getOffersMapIndexOffer(_gameIndex, _player);\r\n\t\trequire (storagepuzzles.getOfferSolutionResult(_gameIndex, indexoffer)==uint256(Result.NOTHING),\"Solution result not in default state\");\r\n        require (now>storagepuzzles.getGameTimeCreationGame(_gameIndex).add(storagepuzzles.getGameTimeoutResolution(_gameIndex)).add(storagepuzzles.getTimeoutPlayerSolution()).add(storagepuzzles.getTimeoutCreatorSolution()),\"timeout for withdraw win already activated\");\r\n        if (now<=storagepuzzles.getGameTimeCreationGame(_gameIndex).add(storagepuzzles.getGameTimeoutResolution(_gameIndex)).add(storagepuzzles.getTimeoutPlayerSolution()).add(storagepuzzles.getTimeoutCreatorSolution()).add(storagepuzzles.getTimeoutDisp()))  {\r\n\t\t  require(!storagepuzzles.getOffersMapSubmittedSol(_gameIndex,_player)==true, \"solution player submitted\");\r\n\t\t}\r\n\t\telse {\r\n\t\t  string memory gamesolution=storagepuzzles.getGameSolution(_gameIndex);\r\n          string memory playersolution=storagepuzzles.getOfferSolutionPlayer(_gameIndex,indexoffer);\r\n          require (!storagepuzzles.getOffersMapSubmittedSol(_gameIndex,_player)==true || keccak256(abi.encodePacked(gamesolution)) !=  keccak256(abi.encodePacked(playersolution)), \"Player solution submitted and correct\" );\r\n\t\t}\r\n        uint256 grosswin = storagepuzzles.getOfferExpectedWin(_gameIndex, indexoffer);\r\n        uint256 fee=storagepuzzles.getOfferServiceFee(_gameIndex, indexoffer);\r\n        uint256 netwin = grosswin-fee;\r\n        uint256 valuebet=(grosswin.mul(100))/storagepuzzles.getGameQuote(_gameIndex);\r\n        emit SolutionStatusLog (_gameIndex, storagepuzzles.getOfferPlayer(_gameIndex, indexoffer) , false , valuebet);  \r\n        emit SolutionStatusLog (_gameIndex, msg.sender, true , valuebet.sub(fee)); \r\n        storagepuzzles.setOfferSolutionResult(1, _gameIndex, indexoffer, uint256(Result.CREATOR_WINS));\r\n        storagepuzzles.SetFeeBalance(1,storagepuzzles.getFeeBalance().add(fee));\r\n        storagepuzzles.transferEth(1,msg.sender,netwin);\r\n    }\r\n    \r\n    \r\n\tfunction bothNoSolutionPlayerWithdraw (uint256 _gameIndex) external {\r\n        require (_gameIndex<storagepuzzles.getGamesLength(), \"Game index not correct\");\r\n        require (storagepuzzles.getCreationMapSubmittedGame(_gameIndex)==true, \"game has not been created\");\r\n        require (!storagepuzzles.getCreationMapSubmittedSol(_gameIndex)==true, \"solution not submitted\");\r\n        require (storagepuzzles.getOffersMapSubmittedOffer(_gameIndex,msg.sender)==true, \"offer not submitted\" );\r\n        require (!storagepuzzles.getOffersMapSubmittedSol(_gameIndex,msg.sender)==true, \"solution submitted\");\r\n\t\tuint256 indexoffer=storagepuzzles.getOffersMapIndexOffer(_gameIndex, msg.sender);\r\n\t\trequire (storagepuzzles.getOfferSolutionResult(_gameIndex, indexoffer)==uint256(Result.NOTHING),\"Solution result not in default state\");\r\n\t\trequire (now>storagepuzzles.getGameTimeCreationGame(_gameIndex).add(storagepuzzles.getGameTimeoutResolution(_gameIndex)).add(storagepuzzles.getTimeoutPlayerSolution()).add(storagepuzzles.getTimeoutCreatorSolution()),\"withdraw win not already activated\");\r\n        uint256 grosswin = storagepuzzles.getOfferExpectedWin(_gameIndex, indexoffer);\r\n        uint256 fee=storagepuzzles.getOfferServiceFee(_gameIndex, indexoffer);\r\n        uint256 valuebet=(grosswin.mul(100))/storagepuzzles.getGameQuote(_gameIndex);\r\n        uint256 playeramount = valuebet.sub(fee/2);\r\n        uint256 creatoramount = (grosswin-valuebet).sub(fee/2);\r\n        emit SolutionStatusLog (_gameIndex, storagepuzzles.getGameCreator(_gameIndex) , false , fee/2);\r\n        emit SolutionStatusLog (_gameIndex, msg.sender , false , fee/2);\r\n        storagepuzzles.setOfferSolutionResult(1, _gameIndex, indexoffer, uint256(Result.NO_WINNER));\r\n        storagepuzzles.SetFeeBalance(1,storagepuzzles.getFeeBalance().add(fee));\r\n        storagepuzzles.transferEth(1,msg.sender,playeramount);\r\n        storagepuzzles.transferEth(1,storagepuzzles.getGameCreator(_gameIndex),creatoramount);\r\n    }\r\n    \r\n    function bothNoSolutionCreatorWithdraw (uint256 _gameIndex ) external {\r\n        require (_gameIndex<storagepuzzles.getGamesLength(), \"Game index not correct\");\r\n        require (storagepuzzles.getCreationMapSubmittedGame(_gameIndex)==true, \"game has not been created\");\r\n        require (!storagepuzzles.getCreationMapSubmittedSol(_gameIndex)==true, \"solution not submitted\");\r\n        require (storagepuzzles.getGameCreator(_gameIndex)==msg.sender,\"sender must be game creator\");\r\n        require (now>storagepuzzles.getGameTimeCreationGame(_gameIndex).add(storagepuzzles.getGameTimeoutResolution(_gameIndex)).add(storagepuzzles.getTimeoutPlayerSolution()).add(storagepuzzles.getTimeoutCreatorSolution()),\"withdraw win not already activated\");\r\n        uint256 totalFee=0;\r\n        uint256 totalCreatorAmount=0;\r\n        for (uint256 j=0; j<storagepuzzles.getOffersLength(_gameIndex); j++) {\r\n            address payable player=storagepuzzles.getOfferPlayer(_gameIndex, j);\r\n            if(storagepuzzles.getOffersMapSubmittedOffer(_gameIndex,player)==true && !storagepuzzles.getOffersMapSubmittedSol(_gameIndex,player)==true && storagepuzzles.getOfferSolutionResult(_gameIndex, j)==uint256(Result.NOTHING)) {\r\n                uint256 grosswin = storagepuzzles.getOfferExpectedWin(_gameIndex, j);\r\n                uint256 fee=storagepuzzles.getOfferServiceFee(_gameIndex,j);\r\n                uint256 valuebet=(grosswin.mul(100))/storagepuzzles.getGameQuote(_gameIndex);\r\n                uint256 playeramount = valuebet.sub(fee/2);\r\n                uint256 creatoramount = (grosswin-valuebet).sub(fee/2);\r\n                emit SolutionStatusLog (_gameIndex, msg.sender , false , fee/2);\r\n                emit SolutionStatusLog (_gameIndex, player , false , fee/2);\r\n                storagepuzzles.setOfferSolutionResult(1, _gameIndex, j, uint256(Result.NO_WINNER));\r\n                storagepuzzles.transferEth(1, player, playeramount);\r\n                totalFee=totalFee+fee;\r\n                totalCreatorAmount=totalCreatorAmount+creatoramount;\r\n            }\r\n        }\r\n        storagepuzzles.SetFeeBalance(1,storagepuzzles.getFeeBalance().add(totalFee));\r\n        storagepuzzles.transferEth(1,msg.sender,totalCreatorAmount);\r\n    }\r\n        \r\n       \r\n    function bothNoSolutionCreatorWithdrawSingle (uint256 _gameIndex, address payable _player) external {\r\n        require (_gameIndex<storagepuzzles.getGamesLength(), \"Game index not correct\");\r\n        require (storagepuzzles.getCreationMapSubmittedGame(_gameIndex)==true, \"game has not been created\");\r\n        require (!storagepuzzles.getCreationMapSubmittedSol(_gameIndex)==true, \"solution not submitted\");\r\n        require (storagepuzzles.getGameCreator(_gameIndex)==msg.sender,\"sender must be game creator\");\r\n        require (storagepuzzles.getOffersMapSubmittedOffer(_gameIndex,_player)==true, \"offer not submitted\" );\r\n        require (!storagepuzzles.getOffersMapSubmittedSol(_gameIndex,_player)==true, \"solution submitted\");\r\n        uint256 indexoffer=storagepuzzles.getOffersMapIndexOffer(_gameIndex, _player);\r\n        require (storagepuzzles.getOfferSolutionResult(_gameIndex, indexoffer)==uint256(Result.NOTHING),\"Solution result not in default state\");\r\n        require (now>storagepuzzles.getGameTimeCreationGame(_gameIndex).add(storagepuzzles.getGameTimeoutResolution(_gameIndex)).add(storagepuzzles.getTimeoutPlayerSolution()).add(storagepuzzles.getTimeoutCreatorSolution()),\"withdraw win not already activated\");\r\n        uint256 grosswin = storagepuzzles.getOfferExpectedWin(_gameIndex, indexoffer);\r\n        uint256 fee=storagepuzzles.getOfferServiceFee(_gameIndex, indexoffer);\r\n        uint256 valuebet=(grosswin.mul(100))/storagepuzzles.getGameQuote(_gameIndex);\r\n        uint256 playeramount = valuebet.sub(fee/2);\r\n        uint256 creatoramount = (grosswin-valuebet).sub(fee/2);\r\n        emit SolutionStatusLog (_gameIndex, msg.sender , false , fee/2);\r\n        emit SolutionStatusLog (_gameIndex, _player , false , fee/2);\r\n        storagepuzzles.setOfferSolutionResult(1, _gameIndex, indexoffer, uint256(Result.NO_WINNER));\r\n        storagepuzzles.SetFeeBalance(1,storagepuzzles.getFeeBalance().add(fee));\r\n        storagepuzzles.transferEth(1,msg.sender,creatoramount);\r\n        storagepuzzles.transferEth(1,_player, playeramount);\r\n    }\r\n    \r\n    \r\n    \r\n    function emitSolutionStatusLog (uint256 _logicalContractIndex,uint256  _gameId, address  _player,  bool _WonOrLost, uint256 _amount)   onlyOtherLogicalContracts(_logicalContractIndex) external {\r\n         emit SolutionStatusLog (_gameId, _player, _WonOrLost, _amount);\r\n    } \r\n    \r\n}",
  "sourcePath": "C:/Users/Alessandro/solidity_work/myproject/contracts/LogicalPuzzlesWithdraw.sol",
  "compiler": {
    "name": "solc",
    "version": "0.5.0+commit.1d4f565a.Emscripten.clang"
  },
  "schemaVersion": "3.0.0",
  "updatedAt": "2019-10-17T15:30:30.770Z",
  "devdoc": {
    "methods": {}
  },
  "userdoc": {
    "methods": {}
  }
}