{
  "contractName": "LogicalPuzzlesInitialization",
  "abi": [
    {
      "constant": true,
      "inputs": [],
      "name": "storagepuzzles",
      "outputs": [
        {
          "name": "",
          "type": "address"
        }
      ],
      "payable": false,
      "stateMutability": "view",
      "type": "function",
      "signature": "0xac578833"
    },
    {
      "inputs": [
        {
          "name": "_storagepuzzles",
          "type": "address"
        }
      ],
      "payable": false,
      "stateMutability": "nonpayable",
      "type": "constructor",
      "signature": "constructor"
    },
    {
      "anonymous": false,
      "inputs": [
        {
          "indexed": true,
          "name": "_gameId",
          "type": "uint256"
        },
        {
          "indexed": true,
          "name": "_payer",
          "type": "address"
        },
        {
          "indexed": true,
          "name": "_disputeOtherSide",
          "type": "address"
        },
        {
          "indexed": false,
          "name": "_minimalAmount",
          "type": "uint256"
        }
      ],
      "name": "HasToPayFee",
      "type": "event",
      "signature": "0x074309ff946c9895a4d9db10a9d117d6d80e53b7430a95283e54c0c516043474"
    },
    {
      "constant": true,
      "inputs": [],
      "name": "getArbitrationCost",
      "outputs": [
        {
          "name": "arbitrationCost",
          "type": "uint256"
        }
      ],
      "payable": false,
      "stateMutability": "view",
      "type": "function",
      "signature": "0x63022560"
    },
    {
      "constant": false,
      "inputs": [
        {
          "name": "_gameIndex",
          "type": "uint256"
        }
      ],
      "name": "payArbitrationFeeByPlayer",
      "outputs": [],
      "payable": true,
      "stateMutability": "payable",
      "type": "function",
      "signature": "0x9f2948e4"
    },
    {
      "constant": false,
      "inputs": [
        {
          "name": "_gameIndex",
          "type": "uint256"
        },
        {
          "name": "_player",
          "type": "address"
        }
      ],
      "name": "payArbitrationFeeByCreator",
      "outputs": [],
      "payable": true,
      "stateMutability": "payable",
      "type": "function",
      "signature": "0x264a3cbd"
    }
  ],
  "bytecode": "0x608060405234801561001057600080fd5b50604051602080612e1d8339810180604052602081101561003057600080fd5b505160008054600160a060020a03909216600160a060020a0319909216919091179055612dbb806100626000396000f3fe6080604052600436106100485763ffffffff60e060020a600035041663264a3cbd811461004d578063630225601461007b5780639f2948e4146100a2578063ac578833146100bf575b600080fd5b6100796004803603604081101561006357600080fd5b5080359060200135600160a060020a03166100f0565b005b34801561008757600080fd5b5061009061164e565b60408051918252519081900360200190f35b610079600480360360208110156100b857600080fd5b50356118b1565b3480156100cb57600080fd5b506100d4612d67565b60408051600160a060020a039092168252519081900360200190f35b6000809054906101000a9004600160a060020a0316600160a060020a031663654f1ccb6040518163ffffffff1660e060020a02815260040160206040518083038186803b15801561014057600080fd5b505afa158015610154573d6000803e3d6000fd5b505050506040513d602081101561016a57600080fd5b505182106101c2576040805160e560020a62461bcd02815260206004820152601660248201527f47616d6520696e646578206e6f7420636f727265637400000000000000000000604482015290519081900360640190fd5b600054604080517f7ad40c860000000000000000000000000000000000000000000000000000000081526004810185905290513392600160a060020a031691637ad40c86916024808301926020929190829003018186803b15801561022657600080fd5b505afa15801561023a573d6000803e3d6000fd5b505050506040513d602081101561025057600080fd5b5051600160a060020a0316146102b0576040805160e560020a62461bcd02815260206004820152601b60248201527f73656e646572206d7573742062652067616d652063726561746f720000000000604482015290519081900360640190fd5b600054604080517f4c20605900000000000000000000000000000000000000000000000000000000815260048101859052600160a060020a03848116602483015291519190921691634c206059916044808301926020929190829003018186803b15801561031d57600080fd5b505afa158015610331573d6000803e3d6000fd5b505050506040513d602081101561034757600080fd5b505115156001146103a2576040805160e560020a62461bcd02815260206004820152601b60248201527f47616d6520736f6c7574696f6e206e6f74207375626d69747465640000000000604482015290519081900360640190fd5b60008054604080517f0781e9bf00000000000000000000000000000000000000000000000000000000815260048101869052600160a060020a03858116602483015291519190921691630781e9bf916044808301926020929190829003018186803b15801561041057600080fd5b505afa158015610424573d6000803e3d6000fd5b505050506040513d602081101561043a57600080fd5b5051905060036000546040805160e060020a633cbeaa9b02815260048101879052602481018590529051600160a060020a0390921691633cbeaa9b91604480820192602092909190829003018186803b15801561049657600080fd5b505afa1580156104aa573d6000803e3d6000fd5b505050506040513d60208110156104c057600080fd5b505110610517576040805160e560020a62461bcd02815260206004820181905260248201527f446973707574652068617320616c7265616479206265656e2063726561746564604482015290519081900360640190fd5b600080546040805160e060020a633cbeaa9b02815260048101879052602481018590529051600160a060020a0390921691633cbeaa9b91604480820192602092909190829003018186803b15801561056e57600080fd5b505afa158015610582573d6000803e3d6000fd5b505050506040513d602081101561059857600080fd5b50511415610e5857600054604080517f6703edca000000000000000000000000000000000000000000000000000000008152600481018690529051600160a060020a0390921691636703edca91602480820192602092909190829003018186803b15801561060557600080fd5b505afa158015610619573d6000803e3d6000fd5b505050506040513d602081101561062f57600080fd5b5051151560011461068a576040805160e560020a62461bcd02815260206004820152601660248201527f736f6c7574696f6e206e6f74207375626d697474656400000000000000000000604482015290519081900360640190fd5b6000546040805160e060020a637cfdb1b9028152905161088392600160a060020a031691637cfdb1b9916004808301926020929190829003018186803b1580156106d357600080fd5b505afa1580156106e7573d6000803e3d6000fd5b505050506040513d60208110156106fd57600080fd5b50516000546040805160e160020a632e114abb028152905161087792600160a060020a031691635c229576916004808301926020929190829003018186803b15801561074857600080fd5b505afa15801561075c573d6000803e3d6000fd5b505050506040513d602081101561077257600080fd5b50516000546040805160e060020a63cd08e3b7028152600481018a9052905161087792600160a060020a03169163cd08e3b7916024808301926020929190829003018186803b1580156107c457600080fd5b505afa1580156107d8573d6000803e3d6000fd5b505050506040513d60208110156107ee57600080fd5b50516000546040805160e160020a633ab1b853028152600481018c90529051600160a060020a039092169163756370a691602480820192602092909190829003018186803b15801561083f57600080fd5b505afa158015610853573d6000803e3d6000fd5b505050506040513d602081101561086957600080fd5b50519063ffffffff612d7616565b9063ffffffff612d7616565b42118015610ad05750600054604080517f2fdfdca00000000000000000000000000000000000000000000000000000000081529051610acc92600160a060020a031691632fdfdca0916004808301926020929190829003018186803b1580156108eb57600080fd5b505afa1580156108ff573d6000803e3d6000fd5b505050506040513d602081101561091557600080fd5b50516000546040805160e060020a637cfdb1b9028152905161087792600160a060020a031691637cfdb1b9916004808301926020929190829003018186803b15801561096057600080fd5b505afa158015610974573d6000803e3d6000fd5b505050506040513d602081101561098a57600080fd5b50516000546040805160e160020a632e114abb028152905161087792600160a060020a031691635c229576916004808301926020929190829003018186803b1580156109d557600080fd5b505afa1580156109e9573d6000803e3d6000fd5b505050506040513d60208110156109ff57600080fd5b50516000546040805160e060020a63cd08e3b7028152600481018c9052905161087792600160a060020a03169163cd08e3b7916024808301926020929190829003018186803b158015610a5157600080fd5b505afa158015610a65573d6000803e3d6000fd5b505050506040513d6020811015610a7b57600080fd5b50516000546040805160e160020a633ab1b853028152600481018e90529051600160a060020a039092169163756370a691602480820192602092909190829003018186803b15801561083f57600080fd5b4211155b1515610b4c576040805160e560020a62461bcd02815260206004820152602f60248201527f74696d656f757420666f72206172626974726174696f6e20737461727420616c60448201527f7265616479206163746976617465640000000000000000000000000000000000606482015290519081900360840190fd5b60008054604080517fe55a6a8a00000000000000000000000000000000000000000000000000000000815260048101879052602481018590529051600160a060020a039092169263e55a6a8a92604480840193829003018186803b158015610bb357600080fd5b505afa158015610bc7573d6000803e3d6000fd5b505050506040513d6000823e601f3d908101601f191682016040526020811015610bf057600080fd5b810190808051640100000000811115610c0857600080fd5b82016020810184811115610c1b57600080fd5b8151640100000000811182820187101715610c3557600080fd5b50509291905050506040516020018082805190602001908083835b60208310610c6f5780518252601f199092019160209182019101610c50565b51815160209384036101000a60001901801990921691161790526040805192909401828103601f1901835280855282519290910191909120600080547fdbe1d9be000000000000000000000000000000000000000000000000000000008452600484018b90529451919650600160a060020a03909416945063dbe1d9be93602480840194509092829003018186803b158015610d0a57600080fd5b505afa158015610d1e573d6000803e3d6000fd5b505050506040513d6000823e601f3d908101601f191682016040526020811015610d4757600080fd5b810190808051640100000000811115610d5f57600080fd5b82016020810184811115610d7257600080fd5b8151640100000000811182820187101715610d8c57600080fd5b50509291905050506040516020018082805190602001908083835b60208310610dc65780518252601f199092019160209182019101610da7565b6001836020036101000a03801982511681845116808217855250505050505090500191505060405160208183030381529060405280519060200120141515610e58576040805160e560020a62461bcd02815260206004820152601360248201527f736f6c7574696f6e20697320636f727265637400000000000000000000000000604482015290519081900360640190fd5b60008060009054906101000a9004600160a060020a0316600160a060020a031663e0efefd96040518163ffffffff1660e060020a02815260040160206040518083038186803b158015610eaa57600080fd5b505afa158015610ebe573d6000803e3d6000fd5b505050506040513d6020811015610ed457600080fd5b505160008054604080517f915bb7680000000000000000000000000000000000000000000000000000000081529051939450606093600160a060020a039092169263915bb76892600480840193829003018186803b158015610f3557600080fd5b505afa158015610f49573d6000803e3d6000fd5b505050506040513d6000823e601f3d908101601f191682016040526020811015610f7257600080fd5b810190808051640100000000811115610f8a57600080fd5b82016020810184811115610f9d57600080fd5b8151640100000000811182820187101715610fb757600080fd5b50506040517ff7434ea900000000000000000000000000000000000000000000000000000000815260206004820181815283516024840152835193975060009650600160a060020a038916955063f7434ea99450879390928392604490910191908501908083838b5b83811015611038578181015183820152602001611020565b50505050905090810190601f1680156110655780820380516001836020036101000a031916815260200191505b509250505060206040518083038186803b15801561108257600080fd5b505afa158015611096573d6000803e3d6000fd5b505050506040513d60208110156110ac57600080fd5b5051600054604080517fd5469b97000000000000000000000000000000000000000000000000000000008152600481018a9052602481018890529051929350600160a060020a039091169163f0b7ed15916003918a9189913491879163d5469b9791604480820192602092909190829003018186803b15801561112e57600080fd5b505afa158015611142573d6000803e3d6000fd5b505050506040513d602081101561115857600080fd5b50516040805160e060020a63ffffffff891602815260048101969096526024860194909452604485019290925201606483015251608480830192600092919082900301818387803b1580156111ac57600080fd5b505af11580156111c0573d6000803e3d6000fd5b5050600054604080517fd5469b97000000000000000000000000000000000000000000000000000000008152600481018b9052602481018990529051859450600160a060020a03909216925063d5469b97916044808301926020929190829003018186803b15801561123157600080fd5b505afa158015611245573d6000803e3d6000fd5b505050506040513d602081101561125b57600080fd5b505110156112d9576040805160e560020a62461bcd02815260206004820152602960248201527f43726561746f7220666565206d75737420636f7665722061726269747261746960448201527f6f6e20636f7374732e0000000000000000000000000000000000000000000000606482015290519081900360840190fd5b60008054604051600160a060020a03909116913480156108fc02929091818181858888f19350505050158015611313573d6000803e3d6000fd5b5060008054604080517f6f6ccfc800000000000000000000000000000000000000000000000000000000815260036004820152602481018a9052604481018890524260648201529051600160a060020a0390921692636f6ccfc89260848084019382900301818387803b15801561138957600080fd5b505af115801561139d573d6000803e3d6000fd5b505060008054604080517fdb509fd8000000000000000000000000000000000000000000000000000000008152600481018c9052602481018a90529051929450600160a060020a03909116925063db509fd8916044808301926020929190829003018186803b15801561140f57600080fd5b505afa158015611423573d6000803e3d6000fd5b505050506040513d602081101561143957600080fd5b505190508181101561151d5760008054604080517f9af4a37400000000000000000000000000000000000000000000000000000000815260036004820152602481018b905260448101899052600260648201529051600160a060020a0390921692639af4a3749260848084019382900301818387803b1580156114bb57600080fd5b505af11580156114cf573d6000803e3d6000fd5b50506040805184860381529051339350600160a060020a038a1692508a917f074309ff946c9895a4d9db10a9d117d6d80e53b7430a95283e54c0c516043474919081900360200190a4611645565b60008054604080517fbb396833000000000000000000000000000000000000000000000000000000008152600260048201529051600160a060020a039092169163bb39683391602480820192602092909190829003018186803b15801561158357600080fd5b505afa158015611597573d6000803e3d6000fd5b505050506040513d60208110156115ad57600080fd5b5051604080517f844c51b400000000000000000000000000000000000000000000000000000000815260036004820152602481018b9052600160a060020a038a811660448301526064820187905291519293509083169163844c51b49160848082019260009290919082900301818387803b15801561162b57600080fd5b505af115801561163f573d6000803e3d6000fd5b50505050505b50505050505050565b60008054604080517fe0efefd900000000000000000000000000000000000000000000000000000000815290518392600160a060020a03169163e0efefd9916004808301926020929190829003018186803b1580156116ac57600080fd5b505afa1580156116c0573d6000803e3d6000fd5b505050506040513d60208110156116d657600080fd5b505160008054604080517f915bb7680000000000000000000000000000000000000000000000000000000081529051939450606093600160a060020a039092169263915bb76892600480840193829003018186803b15801561173757600080fd5b505afa15801561174b573d6000803e3d6000fd5b505050506040513d6000823e601f3d908101601f19168201604052602081101561177457600080fd5b81019080805164010000000081111561178c57600080fd5b8201602081018481111561179f57600080fd5b81516401000000008111828201871017156117b957600080fd5b50506040517ff7434ea9000000000000000000000000000000000000000000000000000000008152602060048201818152835160248401528351939750600160a060020a038916965063f7434ea995508794509283926044019185019080838360005b8381101561183457818101518382015260200161181c565b50505050905090810190601f1680156118615780820380516001836020036101000a031916815260200191505b509250505060206040518083038186803b15801561187e57600080fd5b505afa158015611892573d6000803e3d6000fd5b505050506040513d60208110156118a857600080fd5b50519392505050565b6000809054906101000a9004600160a060020a0316600160a060020a031663654f1ccb6040518163ffffffff1660e060020a02815260040160206040518083038186803b15801561190157600080fd5b505afa158015611915573d6000803e3d6000fd5b505050506040513d602081101561192b57600080fd5b50518110611983576040805160e560020a62461bcd02815260206004820152601660248201527f47616d6520696e646578206e6f7420636f727265637400000000000000000000604482015290519081900360640190fd5b600054604080517f4c206059000000000000000000000000000000000000000000000000000000008152600481018490523360248201529051600160a060020a0390921691634c20605991604480820192602092909190829003018186803b1580156119ee57600080fd5b505afa158015611a02573d6000803e3d6000fd5b505050506040513d6020811015611a1857600080fd5b50511515600114611a73576040805160e560020a62461bcd02815260206004820152601b60248201527f47616d6520736f6c7574696f6e206e6f74207375626d69747465640000000000604482015290519081900360640190fd5b60008054604080517f0781e9bf000000000000000000000000000000000000000000000000000000008152600481018590523360248201529051600160a060020a0390921691630781e9bf91604480820192602092909190829003018186803b158015611adf57600080fd5b505afa158015611af3573d6000803e3d6000fd5b505050506040513d6020811015611b0957600080fd5b5051905060036000546040805160e060020a633cbeaa9b02815260048101869052602481018590529051600160a060020a0390921691633cbeaa9b91604480820192602092909190829003018186803b158015611b6557600080fd5b505afa158015611b79573d6000803e3d6000fd5b505050506040513d6020811015611b8f57600080fd5b505110611be6576040805160e560020a62461bcd02815260206004820181905260248201527f446973707574652068617320616c7265616479206265656e2063726561746564604482015290519081900360640190fd5b600080546040805160e060020a633cbeaa9b02815260048101869052602481018590529051600160a060020a0390921691633cbeaa9b91604480820192602092909190829003018186803b158015611c3d57600080fd5b505afa158015611c51573d6000803e3d6000fd5b505050506040513d6020811015611c6757600080fd5b505114156124e457600054604080517f6703edca000000000000000000000000000000000000000000000000000000008152600481018590529051600160a060020a0390921691636703edca91602480820192602092909190829003018186803b158015611cd457600080fd5b505afa158015611ce8573d6000803e3d6000fd5b505050506040513d6020811015611cfe57600080fd5b50511515600114611d59576040805160e560020a62461bcd02815260206004820152601960248201527f736f6c7574696f6e2067616d65206e6f74206372656174656400000000000000604482015290519081900360640190fd5b6000546040805160e060020a637cfdb1b90281529051611f0e92600160a060020a031691637cfdb1b9916004808301926020929190829003018186803b158015611da257600080fd5b505afa158015611db6573d6000803e3d6000fd5b505050506040513d6020811015611dcc57600080fd5b50516000546040805160e160020a632e114abb028152905161087792600160a060020a031691635c229576916004808301926020929190829003018186803b158015611e1757600080fd5b505afa158015611e2b573d6000803e3d6000fd5b505050506040513d6020811015611e4157600080fd5b50516000546040805160e060020a63cd08e3b702815260048101899052905161087792600160a060020a03169163cd08e3b7916024808301926020929190829003018186803b158015611e9357600080fd5b505afa158015611ea7573d6000803e3d6000fd5b505050506040513d6020811015611ebd57600080fd5b50516000546040805160e160020a633ab1b853028152600481018b90529051600160a060020a039092169163756370a691602480820192602092909190829003018186803b15801561083f57600080fd5b4211801561215b5750600054604080517f2fdfdca0000000000000000000000000000000000000000000000000000000008152905161215792600160a060020a031691632fdfdca0916004808301926020929190829003018186803b158015611f7657600080fd5b505afa158015611f8a573d6000803e3d6000fd5b505050506040513d6020811015611fa057600080fd5b50516000546040805160e060020a637cfdb1b9028152905161087792600160a060020a031691637cfdb1b9916004808301926020929190829003018186803b158015611feb57600080fd5b505afa158015611fff573d6000803e3d6000fd5b505050506040513d602081101561201557600080fd5b50516000546040805160e160020a632e114abb028152905161087792600160a060020a031691635c229576916004808301926020929190829003018186803b15801561206057600080fd5b505afa158015612074573d6000803e3d6000fd5b505050506040513d602081101561208a57600080fd5b50516000546040805160e060020a63cd08e3b7028152600481018b9052905161087792600160a060020a03169163cd08e3b7916024808301926020929190829003018186803b1580156120dc57600080fd5b505afa1580156120f0573d6000803e3d6000fd5b505050506040513d602081101561210657600080fd5b50516000546040805160e160020a633ab1b853028152600481018d90529051600160a060020a039092169163756370a691602480820192602092909190829003018186803b15801561083f57600080fd5b4211155b15156121d7576040805160e560020a62461bcd02815260206004820152602f60248201527f74696d656f757420666f72206172626974726174696f6e20737461727420616c60448201527f7265616479206163746976617465640000000000000000000000000000000000606482015290519081900360840190fd5b60008054604080517fe55a6a8a00000000000000000000000000000000000000000000000000000000815260048101869052602481018590529051600160a060020a039092169263e55a6a8a92604480840193829003018186803b15801561223e57600080fd5b505afa158015612252573d6000803e3d6000fd5b505050506040513d6000823e601f3d908101601f19168201604052602081101561227b57600080fd5b81019080805164010000000081111561229357600080fd5b820160208101848111156122a657600080fd5b81516401000000008111828201871017156122c057600080fd5b50509291905050506040516020018082805190602001908083835b602083106122fa5780518252601f1990920191602091820191016122db565b51815160209384036101000a60001901801990921691161790526040805192909401828103601f1901835280855282519290910191909120600080547fdbe1d9be000000000000000000000000000000000000000000000000000000008452600484018a90529451919650600160a060020a03909416945063dbe1d9be93602480840194509092829003018186803b15801561239557600080fd5b505afa1580156123a9573d6000803e3d6000fd5b505050506040513d6000823e601f3d908101601f1916820160405260208110156123d257600080fd5b8101908080516401000000008111156123ea57600080fd5b820160208101848111156123fd57600080fd5b815164010000000081118282018710171561241757600080fd5b50509291905050506040516020018082805190602001908083835b602083106124515780518252601f199092019160209182019101612432565b6001836020036101000a03801982511681845116808217855250505050505090500191505060405160208183030381529060405280519060200120141515156124e4576040805160e560020a62461bcd02815260206004820152601360248201527f736f6c7574696f6e20697320636f727265637400000000000000000000000000604482015290519081900360640190fd5b60008060009054906101000a9004600160a060020a0316600160a060020a031663e0efefd96040518163ffffffff1660e060020a02815260040160206040518083038186803b15801561253657600080fd5b505afa15801561254a573d6000803e3d6000fd5b505050506040513d602081101561256057600080fd5b505160008054604080517f915bb7680000000000000000000000000000000000000000000000000000000081529051939450606093600160a060020a039092169263915bb76892600480840193829003018186803b1580156125c157600080fd5b505afa1580156125d5573d6000803e3d6000fd5b505050506040513d6000823e601f3d908101601f1916820160405260208110156125fe57600080fd5b81019080805164010000000081111561261657600080fd5b8201602081018481111561262957600080fd5b815164010000000081118282018710171561264357600080fd5b50506040517ff7434ea900000000000000000000000000000000000000000000000000000000815260206004820181815283516024840152835193975060009650600160a060020a038916955063f7434ea99450879390928392604490910191908501908083838b5b838110156126c45781810151838201526020016126ac565b50505050905090810190601f1680156126f15780820380516001836020036101000a031916815260200191505b509250505060206040518083038186803b15801561270e57600080fd5b505afa158015612722573d6000803e3d6000fd5b505050506040513d602081101561273857600080fd5b5051600054604080517fdb509fd800000000000000000000000000000000000000000000000000000000815260048101899052602481018890529051929350600160a060020a039091169163d2b4a06691600391899189913491879163db509fd891604480820192602092909190829003018186803b1580156127ba57600080fd5b505afa1580156127ce573d6000803e3d6000fd5b505050506040513d60208110156127e457600080fd5b50516040805160e060020a63ffffffff891602815260048101969096526024860194909452604485019290925201606483015251608480830192600092919082900301818387803b15801561283857600080fd5b505af115801561284c573d6000803e3d6000fd5b5050600054604080517fdb509fd8000000000000000000000000000000000000000000000000000000008152600481018a9052602481018990529051859450600160a060020a03909216925063db509fd8916044808301926020929190829003018186803b1580156128bd57600080fd5b505afa1580156128d1573d6000803e3d6000fd5b505050506040513d60208110156128e757600080fd5b50511015612965576040805160e560020a62461bcd02815260206004820152602860248201527f506c6179657220666565206d75737420636f766572206172626974726174696f60448201527f6e20636f7374732e000000000000000000000000000000000000000000000000606482015290519081900360840190fd5b60008054604051600160a060020a03909116913480156108fc02929091818181858888f1935050505015801561299f573d6000803e3d6000fd5b5060008054604080517f6f6ccfc80000000000000000000000000000000000000000000000000000000081526003600482015260248101899052604481018890524260648201529051600160a060020a0390921692636f6ccfc89260848084019382900301818387803b158015612a1557600080fd5b505af1158015612a29573d6000803e3d6000fd5b505060008054604080517fd5469b97000000000000000000000000000000000000000000000000000000008152600481018b9052602481018a90529051929450600160a060020a03909116925063d5469b97916044808301926020929190829003018186803b158015612a9b57600080fd5b505afa158015612aaf573d6000803e3d6000fd5b505050506040513d6020811015612ac557600080fd5b5051905081811015612c3a5760008054604080517f9af4a37400000000000000000000000000000000000000000000000000000000815260036004820152602481018a905260448101899052600160648201529051600160a060020a0390921692639af4a3749260848084019382900301818387803b158015612b4757600080fd5b505af1158015612b5b573d6000803e3d6000fd5b5050600054604080517f7ad40c86000000000000000000000000000000000000000000000000000000008152600481018b90529051339450600160a060020a039092169250637ad40c86916024808301926020929190829003018186803b158015612bc557600080fd5b505afa158015612bd9573d6000803e3d6000fd5b505050506040513d6020811015612bef57600080fd5b50516040805184860381529051600160a060020a039092169189917f074309ff946c9895a4d9db10a9d117d6d80e53b7430a95283e54c0c516043474919081900360200190a4612d5f565b60008054604080517fbb396833000000000000000000000000000000000000000000000000000000008152600260048201529051600160a060020a039092169163bb39683391602480820192602092909190829003018186803b158015612ca057600080fd5b505afa158015612cb4573d6000803e3d6000fd5b505050506040513d6020811015612cca57600080fd5b5051604080517f844c51b400000000000000000000000000000000000000000000000000000000815260036004820152602481018a9052336044820152606481018690529051919250600160a060020a0383169163844c51b49160848082019260009290919082900301818387803b158015612d4557600080fd5b505af1158015612d59573d6000803e3d6000fd5b50505050505b505050505050565b600054600160a060020a031681565b600082820183811015612d8857600080fd5b939250505056fea165627a7a723058200b9e8f6f450bdda276a076b70f0aabe6079c98048c81af591fa74873f31276d70029",
  "source": "  pragma solidity ^0.5.0;\r\n\r\nlibrary SafeMath {\r\n    /**\r\n     * @dev Multiplies two unsigned integers, reverts on overflow.\r\n     */\r\n    function mul(uint256 a, uint256 b) internal pure returns (uint256) {\r\n        // Gas optimization: this is cheaper than requiring 'a' not being zero, but the\r\n        // benefit is lost if 'b' is also tested.\r\n        // See: https://github.com/OpenZeppelin/openzeppelin-solidity/pull/522\r\n        if (a == 0) {\r\n            return 0;\r\n        }\r\n\r\n        uint256 c = a * b;\r\n        require(c / a == b);\r\n\r\n        return c;\r\n    }\r\n\r\n    /**\r\n     * @dev Integer division of two unsigned integers truncating the quotient, reverts on division by zero.\r\n     */\r\n    function div(uint256 a, uint256 b) internal pure returns (uint256) {\r\n        // Solidity only automatically asserts when dividing by 0\r\n        require(b > 0);\r\n        uint256 c = a / b;\r\n        // assert(a == b * c + a % b); // There is no case in which this doesn't hold\r\n\r\n        return c;\r\n    }\r\n\r\n    /**\r\n     * @dev Subtracts two unsigned integers, reverts on overflow (i.e. if subtrahend is greater than minuend).\r\n     */\r\n    function sub(uint256 a, uint256 b) internal pure returns (uint256) {\r\n        require(b <= a);\r\n        uint256 c = a - b;\r\n\r\n        return c;\r\n    }\r\n\r\n    /**\r\n     * @dev Adds two unsigned integers, reverts on overflow.\r\n     */\r\n    function add(uint256 a, uint256 b) internal pure returns (uint256) {\r\n        uint256 c = a + b;\r\n        require(c >= a);\r\n\r\n        return c;\r\n    }\r\n\r\n    /**\r\n     * @dev Divides two unsigned integers and returns the remainder (unsigned integer modulo),\r\n     * reverts when dividing by zero.\r\n     */\r\n    function mod(uint256 a, uint256 b) internal pure returns (uint256) {\r\n        require(b != 0);\r\n        return a % b;\r\n    }\r\n}\r\n\r\ncontract StoragePuzzlesAbstract  {\r\n    \r\n    function AddGamesType (bool _gameActivated)  external;\r\n    \r\n    function SetGameType (bool _gameActivated, uint256 _gameTypeIndex)  external;\r\n    \r\n    function GetGameType (uint256 _gameTypeIndex) external view returns (bool);\r\n    \r\n    function GetGameTypeLength()  external view returns (uint256);\r\n    \r\n    function setMinimalJackpot (uint256 _minimalJackpot)  external;\r\n    \r\n    function getMinimalJackpot() external view returns(uint256);\r\n    \r\n    function setMaxTimeoutCreation (uint256 _maxTimeoutCreation)   external;\r\n    \r\n    function getMaxTimeoutCreation () external view returns(uint256);\r\n    \r\n    function setTimeoutPlayerSolution (uint256 _timeoutPlayerSolution)  external;\r\n    \r\n    function getTimeoutPlayerSolution () external view returns(uint256);\r\n    \r\n    function setTimeoutCreatorSolution (uint256 _timeoutCreatorSolution) external;\r\n    \r\n    function getTimeoutCreatorSolution () external view returns(uint256);\r\n        \r\n    function setTimeoutDisp (uint256 _timeoutDisp)  external;\r\n    \r\n    function getTimeoutDisp () external view returns(uint256);\r\n    \r\n    function setTimeoutRuling (uint256 _timeoutRuling)  external;\r\n    \r\n    function getTimeoutRuling () external view returns(uint256);\r\n    \r\n    function setFeePercent (uint256 _feePercent)  external;\r\n    \r\n    function getFeePercent() external view returns(uint256);\r\n \r\n    function setArbitrator (address _arbitratorAddress, bytes calldata _arbitratorExtraData)  external;\r\n    \r\n    function getArbitratorAddress() external view returns(address);\r\n    \r\n    function getarbitratorExtraData() external view returns(bytes memory);\r\n    \r\n    function setFeeTimeout(uint256 _feeTimeout)  external;\r\n    \r\n    function getFeeTimeout() external view returns(uint256);\r\n    \r\n    function addLogicalContract (address _logicalContract)  external;\r\n    \r\n    function setLogicalContract (address _logicalContract, uint256 _logicalContractIndex)  external;\r\n    \r\n    function getLogicalContract (uint256 _logicalContractIndex) external view returns(address);\r\n    \r\n    function getLogicalContractLength () external view returns(uint256);\r\n    \r\n    function withdrawFee (address payable _destination, uint256 _amount)  external;\r\n    \r\n\r\n    \r\n    \r\n    function addGame (uint256 _logicalContractIndex, uint32  _gameType,  address payable _creator, uint256 _residualJackpot,  uint256[3] calldata _gameLimits, uint256[2] calldata _timeouts, uint256[2] calldata _times, uint256 _quote, bytes32 _solutionHash, string calldata _solution) external;\r\n      \r\n    function setGameType (uint256 _logicalContractIndex, uint256 _gameIndex, uint32 _gameType) external;\r\n     \r\n    function setGameCreator (uint256 _logicalContractIndex, uint256 _gameIndex, address payable _creator)  external ;\r\n  \r\n    function setGameResidualJackpot (uint256 _logicalContractIndex, uint256 _gameIndex, uint256 _residualJackpot)  external ;\r\n    \r\n    function setGameMaxOffer (uint256 _logicalContractIndex, uint256 _gameIndex, uint256 _maxOffer)  external;\r\n    \r\n    function setGameMinOffer (uint256 _logicalContractIndex, uint256 _gameIndex, uint256 _minOffer)  external;\r\n    \r\n    function setGameMaxOfferNumber (uint256 _logicalContractIndex, uint256 _gameIndex, uint256 _maxOfferNumber)  external;\r\n    \r\n    function setTimePropose (uint256 _logicalContractIndex, uint256 _gameIndex, uint256 _timePropose)  external;\r\n    \r\n    function setGametimeoutOffer(uint256 _logicalContractIndex, uint256 _gameIndex, uint256 _timeoutOffer)  external;\r\n    \r\n    function setGameTimeCreationGame(uint256 _logicalContractIndex, uint256 _gameIndex, uint256 _timeCreationGame)  external;\r\n    \r\n    function setGameTimeoutResolution(uint256 _logicalContractIndex, uint256 _gameIndex, uint256 _timeoutResolution)  external;\r\n    \r\n    function setGameQuote(uint256 _logicalContractIndex, uint256 _gameIndex, uint256 _quote)  external;\r\n    \r\n    function setGameSolutionHash(uint256 _logicalContractIndex, uint256 _gameIndex, bytes32 _solutionHash)  external;\r\n    \r\n    function setGameSolution(uint256 _logicalContractIndex, uint256 _gameIndex, string calldata _solution)  external;\r\n    \r\n    function getGameType (uint256 _gameIndex) external view returns(uint32);\r\n    \r\n    function getGameCreator (uint256 _gameIndex) external view returns(address payable);\r\n    \r\n    function getGameResidualJackpot (uint256 _gameIndex) external view returns(uint256);\r\n    \r\n    function getGameMaxOffer(uint256 _gameIndex) external view returns(uint256);\r\n    \r\n    function getGameMinOffer (uint256 _gameIndex) external view returns(uint256);\r\n    \r\n    function getGameMaxOfferNumber (uint256 _gameIndex) external view returns(uint256);\r\n    \r\n    function getGameTimePropose (uint256 _gameIndex) external view returns(uint256);\r\n    \r\n    function getGameTimeoutOffer (uint256 _gameIndex) external view returns(uint256);\r\n    \r\n    function getGameTimeCreationGame(uint256 _gameIndex) external view returns(uint256);\r\n    \r\n    function getGameTimeoutResolution (uint256 _gameIndex) external view returns(uint256);\r\n    \r\n    function getGameQuote (uint256 _gameIndex) external view returns(uint256);\r\n    \r\n    function getGameSolutionHash (uint256 _gameIndex) external view returns(bytes32);\r\n    \r\n    function getGameSolution (uint256 _gameIndex) external view returns(string memory);\r\n    \r\n    function getGamesLength ()  external view returns(uint256);\r\n    \r\n\r\n   \r\n    \r\n    \r\n    function setGameMetadata (uint256 _logicalContractIndex, uint256 _gameIndex, string calldata _gameMetadata)  external;\r\n    \r\n    function getGameMetadata(uint256 _gameIndex) external view returns(string memory);\r\n   \r\n    \r\n    \r\n\r\n    \r\n    \r\n    function addOffer (uint256 _logicalContractIndex, uint256 _gameIndex, address payable _player, uint256 _expectedwin, uint256 _serviceFee, bytes32 _solutionHash, string calldata _solutionPlayer, uint256 _lastInteraction, uint256 _solutionResult, uint256[6] calldata _disputeFields)  external;\r\n    \r\n    function setOfferPlayer (uint256 _logicalContractIndex, uint256 _gameIndex, uint256 _offerIndex, address payable _player) external;\r\n    \r\n    function setOfferExpectedWin (uint256 _logicalContractIndex, uint256 _gameIndex, uint256 _offerIndex, uint256 _expectedWin) external;\r\n    \r\n    function setOfferServiceFee (uint256 _logicalContractIndex, uint256 _gameIndex, uint256 _offerIndex, uint256 _serviceFee)  external;\r\n    \r\n    function setOfferSolutionHash (uint256 _logicalContractIndex, uint256 _gameIndex, uint256 _offerIndex, bytes32 _solutionHash) external;\r\n    \r\n    function setOfferSolutionPlayer(uint256 _logicalContractIndex, uint256 _gameIndex, uint256 _offerIndex, string calldata _solutionPlayer)   external;\r\n    \r\n    function setOfferLastInteraction(uint256 _logicalContractIndex, uint256 _gameIndex, uint256 _offerIndex, uint256 _lastInteraction) external;\r\n    \r\n    function setOfferSolutionResult(uint256 _logicalContractIndex, uint256 _gameIndex, uint256 _offerIndex, uint256 _solutionResult)   external;\r\n    \r\n    function setOfferDisputeId(uint256 _logicalContractIndex, uint256 _gameIndex, uint256 _offerIndex, uint256 _disputeId)   external;\r\n\t\r\n\tfunction setOfferTimeDispute(uint256 _logicalContractIndex, uint256 _gameIndex, uint256 _offerIndex, uint256 _timeDispute)  external;\r\n    \r\n    function setOfferPlayerFee(uint256 _logicalContractIndex, uint256 _gameIndex, uint256 _offerIndex, uint256 _playerFee)   external;\r\n    \r\n    function setOfferCreatorFee(uint256 _logicalContractIndex, uint256 _gameIndex, uint256 _offerIndex, uint256 _creatorFee)   external;\r\n    \r\n    function setOfferAppeal(uint256 _logicalContractIndex, uint256 _gameIndex, uint256 _offerIndex, uint256 _appeal)   external;\r\n    \r\n    function setOfferAppealFee(uint256 _logicalContractIndex, uint256 _gameIndex, uint256 _offerIndex, uint256 _appealFee)   external;\r\n    \r\n    function getOfferPlayer (uint256 _gameIndex, uint256 _offerIndex) external view returns(address payable);\r\n    \r\n    function getOfferExpectedWin (uint256 _gameIndex, uint256 _offerIndex) external view returns(uint256);\r\n    \r\n    function getOfferServiceFee (uint256 _gameIndex, uint256 _offerIndex) external view returns(uint256);\r\n    \r\n    function getOfferSolutionHash (uint256 _gameIndex, uint256 _offerIndex) external view returns(bytes32);\r\n    \r\n    function getOfferSolutionPlayer (uint256 _gameIndex, uint256 _offerIndex) external view returns(string memory);\r\n    \r\n    function getOfferLastInteraction (uint256 _gameIndex, uint256 _offerIndex) external view returns(uint256);\r\n    \r\n    function getOfferSolutionResult (uint256 _gameIndex, uint256 _offerIndex) external view returns(uint256);\r\n    \r\n    function getOfferDisputeId (uint256 _gameIndex, uint256 _offerIndex) external view returns(uint256);\r\n\t\r\n\tfunction getOfferTimeDispute (uint256 _gameIndex, uint256 _offerIndex) external view returns(uint256);\r\n    \r\n    function getOfferPlayerFee (uint256 _gameIndex, uint256 _offerIndex) external view returns(uint256);\r\n    \r\n    function getOfferCreatorFee (uint256 _gameIndex, uint256 _offerIndex) external view returns(uint256);\r\n    \r\n    function getOfferAppeal (uint256 _gameIndex, uint256 _offerIndex) external view returns(uint256);\r\n    \r\n    function getOfferAppealFee(uint256 _gameIndex, uint256 _offerIndex) external view returns(uint256);\r\n      \r\n    function getOffersLength (uint256 _gameIndex)  external view returns(uint256);\r\n    \r\n    \r\n\r\n    \r\n    \r\n    function addOffersMap (uint256 _logicalContractIndex, uint256 _gameIndex, address _player, uint256 _indexOffer, bool _submittedOffer, bool _submittedHashSol, bool _submittedSol)  external;\r\n    \r\n    function setOffersMapIndexOffer (uint256 _logicalContractIndex, uint256 _gameIndex, address _player, uint256 _indexOffer)  external;\r\n    \r\n    function setOffersMapSubmittedOffer (uint256 _logicalContractIndex, uint256 _gameIndex, address _player, bool _submittedOffer)  external;\r\n\t\r\n    function setOffersMapSubmittedHashSol (uint256 _logicalContractIndex, uint256 _gameIndex, address _player, bool _submittedHashSol)  external;\r\n\t\r\n    function setOffersMapSubmittedSol (uint256 _logicalContractIndex, uint256 _gameIndex, address _player, bool _submittedSol)  external;\r\n    \r\n    function getOffersMapIndexOffer (uint256 _gameIndex, address _player) external view returns (uint256);\r\n    \r\n    function getOffersMapSubmittedOffer(uint256 _gameIndex, address _player) external view returns (bool);\r\n    \r\n    function getOffersMapSubmittedHashSol (uint256 _gameIndex, address _player) external view returns (bool);\r\n    \r\n    function getOffersMapSubmittedSol (uint256 _gameIndex, address _player) external view returns (bool);\r\n    \r\n\r\n    \r\n \r\n \r\n    function addCreationMap (uint256 _logicalContractIndex, uint256 _gameIndex, bool _submittedGame, bool _submittedSol)  external;\r\n    \r\n    function setCreationMapSubmittedGame (uint256 _logicalContractIndex, uint256 _gameIndex, bool _submittedGame)  external;\r\n    \r\n    function setCreationMapSubmittedSol (uint256 _logicalContractIndex, uint256 _gameIndex, bool _submittedSol)  external;\r\n    \r\n    function getCreationMapSubmittedGame (uint256 _gameIndex) external view returns(bool);\r\n    \r\n    function getCreationMapSubmittedSol (uint256 _gameIndex) external view returns(bool);\r\n    \r\n\r\n    \r\n    \r\n    function addDisputeIDtoArbitrationIndexID (uint256 _logicalContractIndex, uint256 _disputeId,  uint256 _gameIndex, address payable _player)  external;\r\n    \r\n    function setDisputeIDtoArbitrationIndexIDGameIndex (uint256 _logicalContractIndex, uint256 _disputeId,  uint256 _gameIndex)  external;\r\n    \r\n    function setDisputeIDtoArbitrationIndexIDPlayer (uint256 _logicalContractIndex, uint256 _disputeId,  address payable _player)  external;\r\n    \r\n    function getDisputeIDtoArbitrationIndexIDGameIndex (uint256 _disputeId) external view returns(uint256);\r\n    \r\n    function getDisputeIDtoArbitrationIndexIDPlayer (uint256 _disputeId) external view returns(address payable);\r\n    \r\n\r\n    \r\n    function SetFeeBalance (uint256 _logicalContractIndex, uint256 _feeBalance)  external;\r\n    \r\n    function getFeeBalance() external view returns(uint256);\r\n    \r\n    function transferEth (uint256 _logicalContractIndex, address payable _destination, uint256 _amount)  external;\r\n    \r\n    function () external payable {}\r\n\r\n}\r\n\r\ncontract LogicalPuzzlesArbitrableAbstract  {\r\n       function raiseDispute (uint256 _logicalContractIndex, uint256 _gameIndex, address payable _player, uint256 _arbitrationCost) external;\r\n   }\r\n   \r\ninterface IArbitrable {\r\n    /** @dev To be emmited when meta-evidence is submitted.\r\n     *  @param _metaEvidenceID Unique identifier of meta-evidence.\r\n     *  @param _evidence A link to the meta-evidence JSON.\r\n     */\r\n    event MetaEvidence(uint indexed _metaEvidenceID, string _evidence);\r\n\r\n    /** @dev To be emmited when a dispute is created to link the correct meta-evidence to the disputeID\r\n     *  @param _arbitrator The arbitrator of the contract.\r\n     *  @param _disputeID ID of the dispute in the Arbitrator contract.\r\n     *  @param _metaEvidenceID Unique identifier of meta-evidence.\r\n     *  @param _evidenceGroupID Unique identifier of the evidence group that is linked to this dispute.\r\n     */\r\n    event Dispute(Arbitrator indexed _arbitrator, uint indexed _disputeID, uint _metaEvidenceID, uint _evidenceGroupID);\r\n\r\n    /** @dev To be raised when evidence are submitted. Should point to the ressource (evidences are not to be stored on chain due to gas considerations).\r\n     *  @param _arbitrator The arbitrator of the contract.\r\n     *  @param _evidenceGroupID Unique identifier of the evidence group the evidence belongs to.\r\n     *  @param _party The address of the party submiting the evidence. Note that 0x0 refers to evidence not submitted by any party.\r\n     *  @param _evidence A URI to the evidence JSON file whose name should be its keccak256 hash followed by .json.\r\n     */\r\n    event Evidence(Arbitrator indexed _arbitrator, uint indexed _evidenceGroupID, address indexed _party, string _evidence);\r\n\r\n    /** @dev To be raised when a ruling is given.\r\n     *  @param _arbitrator The arbitrator giving the ruling.\r\n     *  @param _disputeID ID of the dispute in the Arbitrator contract.\r\n     *  @param _ruling The ruling which was given.\r\n     */\r\n    event Ruling(Arbitrator indexed _arbitrator, uint indexed _disputeID, uint _ruling);\r\n\r\n    /** @dev Give a ruling for a dispute. Must be called by the arbitrator.\r\n     *  The purpose of this function is to ensure that the address calling it has the right to rule on the contract.\r\n     *  @param _disputeID ID of the dispute in the Arbitrator contract.\r\n     *  @param _ruling Ruling given by the arbitrator. Note that 0 is reserved for \"Not able/wanting to make a decision\".\r\n     */\r\n     function rule(uint _disputeID, uint _ruling) external;\r\n}\r\n\r\ncontract Arbitrable is IArbitrable {\r\n    Arbitrator public arbitrator;\r\n    bytes public arbitratorExtraData; // Extra data to require particular dispute and appeal behaviour.\r\n\r\n    modifier onlyArbitrator {require(msg.sender == address(arbitrator), \"Can only be called by the arbitrator.\"); _;}\r\n\r\n    /** @dev Constructor. Choose the arbitrator.\r\n     *  @param _arbitrator The arbitrator of the contract.\r\n     *  @param _arbitratorExtraData Extra data for the arbitrator.\r\n     */\r\n    constructor(Arbitrator _arbitrator, bytes memory _arbitratorExtraData) public {\r\n        arbitrator = _arbitrator;\r\n        arbitratorExtraData = _arbitratorExtraData;\r\n    }\r\n\r\n    /** @dev Give a ruling for a dispute. Must be called by the arbitrator.\r\n     *  The purpose of this function is to ensure that the address calling it has the right to rule on the contract.\r\n     *  @param _disputeID ID of the dispute in the Arbitrator contract.\r\n     *  @param _ruling Ruling given by the arbitrator. Note that 0 is reserved for \"Not able/wanting to make a decision\".\r\n     */\r\n     function rule(uint _disputeID, uint _ruling) public onlyArbitrator {\r\n        emit Ruling(Arbitrator(msg.sender),_disputeID,_ruling);\r\n\r\n        executeRuling(_disputeID,_ruling);\r\n    }\r\n\r\n\r\n    /** @dev Execute a ruling of a dispute.\r\n     *  @param _disputeID ID of the dispute in the Arbitrator contract.\r\n     *  @param _ruling Ruling given by the arbitrator. Note that 0 is reserved for \"Not able/wanting to make a decision\".\r\n     */\r\n    function executeRuling(uint _disputeID, uint _ruling) internal;\r\n}\r\n\r\ncontract Arbitrator {\r\n\r\n    enum DisputeStatus {Waiting, Appealable, Solved}\r\n\r\n    modifier requireArbitrationFee(bytes memory _extraData) {\r\n        require(msg.value >= arbitrationCost(_extraData), \"Not enough ETH to cover arbitration costs.\");\r\n        _;\r\n    }\r\n    modifier requireAppealFee(uint _disputeID, bytes memory _extraData) {\r\n        require(msg.value >= appealCost(_disputeID, _extraData), \"Not enough ETH to cover appeal costs.\");\r\n        _;\r\n    }\r\n\r\n    /** @dev To be raised when a dispute is created.\r\n     *  @param _disputeID ID of the dispute.\r\n     *  @param _arbitrable The contract which created the dispute.\r\n     */\r\n    event DisputeCreation(uint indexed _disputeID, Arbitrable indexed _arbitrable);\r\n\r\n    /** @dev To be raised when a dispute can be appealed.\r\n     *  @param _disputeID ID of the dispute.\r\n     */\r\n    event AppealPossible(uint indexed _disputeID, Arbitrable indexed _arbitrable);\r\n\r\n    /** @dev To be raised when the current ruling is appealed.\r\n     *  @param _disputeID ID of the dispute.\r\n     *  @param _arbitrable The contract which created the dispute.\r\n     */\r\n    event AppealDecision(uint indexed _disputeID, Arbitrable indexed _arbitrable);\r\n\r\n    /** @dev Create a dispute. Must be called by the arbitrable contract.\r\n     *  Must be paid at least arbitrationCost(_extraData).\r\n     *  @param _choices Amount of choices the arbitrator can make in this dispute.\r\n     *  @param _extraData Can be used to give additional info on the dispute to be created.\r\n     *  @return disputeID ID of the dispute created.\r\n     */\r\n    function createDispute(uint _choices, bytes memory _extraData) public requireArbitrationFee(_extraData) payable returns(uint disputeID) {}\r\n\r\n    /** @dev Compute the cost of arbitration. It is recommended not to increase it often, as it can be highly time and gas consuming for the arbitrated contracts to cope with fee augmentation.\r\n     *  @param _extraData Can be used to give additional info on the dispute to be created.\r\n     *  @return fee Amount to be paid.\r\n     */\r\n    function arbitrationCost(bytes memory _extraData) public view returns(uint fee);\r\n    \r\n\r\n    /** @dev Appeal a ruling. Note that it has to be called before the arbitrator contract calls rule.\r\n     *  @param _disputeID ID of the dispute to be appealed.\r\n     *  @param _extraData Can be used to give extra info on the appeal.\r\n     */\r\n    function appeal(uint _disputeID, bytes memory _extraData) public requireAppealFee(_disputeID,_extraData) payable {\r\n        emit AppealDecision(_disputeID, Arbitrable(msg.sender));\r\n    }\r\n\r\n    /** @dev Compute the cost of appeal. It is recommended not to increase it often, as it can be higly time and gas consuming for the arbitrated contracts to cope with fee augmentation.\r\n     *  @param _disputeID ID of the dispute to be appealed.\r\n     *  @param _extraData Can be used to give additional info on the dispute to be created.\r\n     *  @return fee Amount to be paid.\r\n     */\r\n    function appealCost(uint _disputeID, bytes memory _extraData) public view returns(uint fee);\r\n\r\n    /** @dev Compute the start and end of the dispute's current or next appeal period, if possible.\r\n     *  @param _disputeID ID of the dispute.\r\n     *  @return The start and end of the period.\r\n     */\r\n    function appealPeriod(uint _disputeID) public view returns(uint start, uint end) {}\r\n\r\n    /** @dev Return the status of a dispute.\r\n     *  @param _disputeID ID of the dispute to rule.\r\n     *  @return status The status of the dispute.\r\n     */\r\n    function disputeStatus(uint _disputeID) public view returns(DisputeStatus status);\r\n\r\n    /** @dev Return the current ruling of a dispute. This is useful for parties to know if they should appeal.\r\n     *  @param _disputeID ID of the dispute.\r\n     *  @return ruling The ruling which has been given or the one which will be given if there is no appeal.\r\n     */\r\n    function currentRuling(uint _disputeID) public view returns(uint ruling);\r\n}\r\n  \r\n   \r\n\r\n   \r\ncontract LogicalPuzzlesInitialization {\r\n    using SafeMath for uint256;\r\n    \r\n    enum Result {NOTHING, WAITING_CREATOR, WAITING_PLAYER, DISPUTE_CREATED, PLAYER_WINS, CREATOR_WINS, NO_WINNER}\r\n    \r\n    enum Appeal {NO_APPEAL, PLAYER_APPEAL, CREATOR_APPEAL}\r\n\r\n   \r\n    event HasToPayFee(uint256 indexed _gameId,  address indexed _payer, address indexed _disputeOtherSide, uint256 _minimalAmount);\r\n    \r\n    \r\n    StoragePuzzlesAbstract public storagepuzzles;\r\n    \r\n    constructor (address payable _storagepuzzles) public {\r\n        storagepuzzles=StoragePuzzlesAbstract(_storagepuzzles);\r\n    }\r\n    \r\n    \r\n \r\n \r\n \r\n    function getArbitrationCost () external view returns(uint256 arbitrationCost) {\r\n        Arbitrator arbitrator= Arbitrator(storagepuzzles.getArbitratorAddress());\r\n        bytes memory arbitratorExtraData=storagepuzzles.getarbitratorExtraData();\r\n        arbitrationCost = arbitrator.arbitrationCost(arbitratorExtraData);\r\n    }\r\n    \r\n    function payArbitrationFeeByPlayer(uint256 _gameIndex) external payable {\r\n        require (_gameIndex<storagepuzzles.getGamesLength(), \"Game index not correct\");\r\n        require (storagepuzzles.getOffersMapSubmittedSol(_gameIndex,msg.sender)==true, \"Game solution not submitted\");\r\n        uint256 indexoffer=storagepuzzles.getOffersMapIndexOffer(_gameIndex, msg.sender);\r\n        require (storagepuzzles.getOfferSolutionResult(_gameIndex,indexoffer)<uint256(Result.DISPUTE_CREATED)  ,\"Dispute has already been created\");\r\n        if (storagepuzzles.getOfferSolutionResult(_gameIndex,indexoffer)==uint256(Result.NOTHING) )  {\r\n            require (storagepuzzles.getCreationMapSubmittedSol(_gameIndex)==true, \"solution game not created\");\r\n            require (now>storagepuzzles.getGameTimeCreationGame(_gameIndex).add(storagepuzzles.getGameTimeoutResolution(_gameIndex)).add(storagepuzzles.getTimeoutPlayerSolution()).add(storagepuzzles.getTimeoutCreatorSolution()) && now<=storagepuzzles.getGameTimeCreationGame(_gameIndex).add(storagepuzzles.getGameTimeoutResolution(_gameIndex)).add(storagepuzzles.getTimeoutPlayerSolution()).add(storagepuzzles.getTimeoutCreatorSolution()).add(storagepuzzles.getTimeoutDisp()), \"timeout for arbitration start already activated\");\r\n            require (keccak256(abi.encodePacked(storagepuzzles.getGameSolution(_gameIndex))) != keccak256(abi.encodePacked(storagepuzzles.getOfferSolutionPlayer(_gameIndex,indexoffer))), \"solution is correct\" );\r\n        }\r\n        Arbitrator arbitrator= Arbitrator(storagepuzzles.getArbitratorAddress());\r\n        bytes memory arbitratorExtraData=storagepuzzles.getarbitratorExtraData();\r\n        uint256 arbitrationCost = arbitrator.arbitrationCost(arbitratorExtraData);\r\n        storagepuzzles.setOfferPlayerFee(3,_gameIndex,indexoffer, storagepuzzles.getOfferPlayerFee(_gameIndex,indexoffer)+msg.value);\r\n        // Require that the total pay at least the arbitration cost.\r\n        require(storagepuzzles.getOfferPlayerFee(_gameIndex,indexoffer) >= arbitrationCost, \"Player fee must cover arbitration costs.\");\r\n        address(storagepuzzles).transfer(msg.value);\r\n        storagepuzzles.setOfferLastInteraction(3,_gameIndex,indexoffer,now);\r\n        // The receiver still has to pay. This can also happen if he has paid, but arbitrationCost has increased. \r\n        uint256 offercreatorefee=storagepuzzles.getOfferCreatorFee(_gameIndex,indexoffer);\r\n        if (offercreatorefee < arbitrationCost) {\r\n            storagepuzzles.setOfferSolutionResult(3,_gameIndex,indexoffer,uint256(Result.WAITING_CREATOR)); \r\n            emit HasToPayFee(_gameIndex, storagepuzzles.getGameCreator(_gameIndex), msg.sender, arbitrationCost-offercreatorefee);\r\n        } \r\n        else { // The receiver has also paid the fee. We create the dispute.\r\n            LogicalPuzzlesArbitrableAbstract logicalpuzzlesarbitrable = LogicalPuzzlesArbitrableAbstract(storagepuzzles.getLogicalContract(2));\r\n            logicalpuzzlesarbitrable.raiseDispute(3,_gameIndex, msg.sender, arbitrationCost);\r\n        }\r\n    }\r\n    \r\n    function payArbitrationFeeByCreator(uint256 _gameIndex, address payable  _player) external payable {\r\n        require (_gameIndex<storagepuzzles.getGamesLength(), \"Game index not correct\");\r\n        require (storagepuzzles.getGameCreator(_gameIndex)==msg.sender,\"sender must be game creator\");\r\n        require (storagepuzzles.getOffersMapSubmittedSol(_gameIndex,_player)==true, \"Game solution not submitted\");\r\n        uint256 indexoffer=storagepuzzles.getOffersMapIndexOffer(_gameIndex, _player);\r\n        require (storagepuzzles.getOfferSolutionResult(_gameIndex,indexoffer)<uint256(Result.DISPUTE_CREATED)  ,\"Dispute has already been created\");\r\n        if (storagepuzzles.getOfferSolutionResult(_gameIndex,indexoffer)==uint256(Result.NOTHING) )  {  \r\n             require (storagepuzzles.getCreationMapSubmittedSol(_gameIndex)==true, \"solution not submitted\");\r\n             require (now>storagepuzzles.getGameTimeCreationGame(_gameIndex).add(storagepuzzles.getGameTimeoutResolution(_gameIndex)).add(storagepuzzles.getTimeoutPlayerSolution()).add(storagepuzzles.getTimeoutCreatorSolution()) && now<=storagepuzzles.getGameTimeCreationGame(_gameIndex).add(storagepuzzles.getGameTimeoutResolution(_gameIndex)).add(storagepuzzles.getTimeoutPlayerSolution()).add(storagepuzzles.getTimeoutCreatorSolution()).add(storagepuzzles.getTimeoutDisp()), \"timeout for arbitration start already activated\");\r\n             require (keccak256(abi.encodePacked(storagepuzzles.getGameSolution(_gameIndex))) == keccak256(abi.encodePacked(storagepuzzles.getOfferSolutionPlayer(_gameIndex,indexoffer))), \"solution is correct\" );\r\n        }\r\n        Arbitrator arbitrator= Arbitrator(storagepuzzles.getArbitratorAddress());\r\n        bytes memory arbitratorExtraData=storagepuzzles.getarbitratorExtraData();\r\n        uint256 arbitrationCost = arbitrator.arbitrationCost(arbitratorExtraData);\r\n        storagepuzzles.setOfferCreatorFee(3,_gameIndex,indexoffer, storagepuzzles.getOfferCreatorFee(_gameIndex,indexoffer)+msg.value);\r\n        // Require that the total pay at least the arbitration cost.\r\n        require(storagepuzzles.getOfferCreatorFee(_gameIndex,indexoffer) >= arbitrationCost, \"Creator fee must cover arbitration costs.\");\r\n        address(storagepuzzles).transfer(msg.value);\r\n        storagepuzzles.setOfferLastInteraction(3,_gameIndex,indexoffer,now);\r\n        // The receiver still has to pay. This can also happen if he has paid, but arbitrationCost has increased. \r\n        uint256 offerplayerfee=storagepuzzles.getOfferPlayerFee(_gameIndex,indexoffer);\r\n        if (offerplayerfee < arbitrationCost) {\r\n            storagepuzzles.setOfferSolutionResult(3,_gameIndex,indexoffer,uint256(Result.WAITING_PLAYER));\r\n            emit HasToPayFee(_gameIndex, _player, msg.sender, arbitrationCost-offerplayerfee);\r\n        } \r\n        else { // The receiver has also paid the fee. We create the dispute.\r\n            LogicalPuzzlesArbitrableAbstract logicalpuzzlesarbitrable = LogicalPuzzlesArbitrableAbstract(storagepuzzles.getLogicalContract(2));\r\n            logicalpuzzlesarbitrable.raiseDispute(3,_gameIndex, _player, arbitrationCost);\r\n        }\r\n    }\r\n}",
  "sourcePath": "C:/Users/Alessandro/solidity_work/myproject/contracts/LogicalPuzzlesInitialization.sol",
  "compiler": {
    "name": "solc",
    "version": "0.5.0+commit.1d4f565a.Emscripten.clang"
  },
  "schemaVersion": "3.0.0",
  "updatedAt": "2019-10-17T15:30:30.561Z",
  "devdoc": {
    "methods": {}
  },
  "userdoc": {
    "methods": {}
  }
}