{
  "contractName": "LogicalPuzzlesCreation",
  "abi": [
    {
      "constant": true,
      "inputs": [],
      "name": "storagepuzzles",
      "outputs": [
        {
          "name": "",
          "type": "address"
        }
      ],
      "payable": false,
      "stateMutability": "view",
      "type": "function",
      "signature": "0xac578833"
    },
    {
      "inputs": [
        {
          "name": "_storagepuzzles",
          "type": "address"
        }
      ],
      "payable": false,
      "stateMutability": "nonpayable",
      "type": "constructor",
      "signature": "constructor"
    },
    {
      "anonymous": false,
      "inputs": [
        {
          "indexed": true,
          "name": "_gameId",
          "type": "uint256"
        },
        {
          "indexed": true,
          "name": "_creator",
          "type": "address"
        },
        {
          "indexed": true,
          "name": "_puzzleType",
          "type": "uint32"
        },
        {
          "indexed": false,
          "name": "_puzzleName",
          "type": "string"
        },
        {
          "indexed": false,
          "name": "_metadata",
          "type": "string"
        }
      ],
      "name": "GamesSource",
      "type": "event",
      "signature": "0xc4d9f3a871edc20a475e79dda47708e10c16f6be73496e4f4695d3426b751d21"
    },
    {
      "anonymous": false,
      "inputs": [
        {
          "indexed": true,
          "name": "_gameId",
          "type": "uint256"
        },
        {
          "indexed": false,
          "name": "_maxJackpot",
          "type": "uint256"
        },
        {
          "indexed": false,
          "name": "_quote",
          "type": "uint256"
        },
        {
          "indexed": false,
          "name": "_maxOffer",
          "type": "uint256"
        },
        {
          "indexed": false,
          "name": "_minOffer",
          "type": "uint256"
        },
        {
          "indexed": false,
          "name": "_maxNumberOffer",
          "type": "uint256"
        },
        {
          "indexed": false,
          "name": "_timePropose",
          "type": "uint256"
        },
        {
          "indexed": false,
          "name": "_timeoutOffer",
          "type": "uint256"
        },
        {
          "indexed": false,
          "name": "_timeoutPlayerSolution",
          "type": "uint256"
        }
      ],
      "name": "GamesValues",
      "type": "event",
      "signature": "0xde4d7f9eb82bbbd35feafb3cc104624079d41964637f050d89765761d6fdefba"
    },
    {
      "anonymous": false,
      "inputs": [
        {
          "indexed": true,
          "name": "_gameId",
          "type": "uint256"
        },
        {
          "indexed": false,
          "name": "_timeCreation",
          "type": "uint256"
        },
        {
          "indexed": false,
          "name": "_metadataCreation",
          "type": "string"
        }
      ],
      "name": "GameCreation",
      "type": "event",
      "signature": "0x374f3747f184b08a6ef7eeb6b796135a89ee33202644bfc03982299569c208d8"
    },
    {
      "anonymous": false,
      "inputs": [
        {
          "indexed": true,
          "name": "_gameId",
          "type": "uint256"
        },
        {
          "indexed": true,
          "name": "_player",
          "type": "address"
        },
        {
          "indexed": false,
          "name": "_valueBet",
          "type": "uint256"
        },
        {
          "indexed": false,
          "name": "_expectedWin",
          "type": "uint256"
        },
        {
          "indexed": false,
          "name": "_fee",
          "type": "uint256"
        }
      ],
      "name": "OffersLog",
      "type": "event",
      "signature": "0xb725f525d59142c2a9f553376ad26d806fa8af7f63a716423a5c4c77fa421b82"
    },
    {
      "anonymous": false,
      "inputs": [
        {
          "indexed": true,
          "name": "_gameId",
          "type": "uint256"
        },
        {
          "indexed": false,
          "name": "_residual",
          "type": "uint256"
        }
      ],
      "name": "ResidualLog",
      "type": "event",
      "signature": "0x04fee6df3b01c60bdb68235c0bedfe89a6a92d0f63022d3942d3856b207221a0"
    },
    {
      "anonymous": false,
      "inputs": [
        {
          "indexed": true,
          "name": "_gameId",
          "type": "uint256"
        },
        {
          "indexed": true,
          "name": "_player",
          "type": "address"
        },
        {
          "indexed": false,
          "name": "_solution",
          "type": "string"
        }
      ],
      "name": "SolutionPlayerLog",
      "type": "event",
      "signature": "0x64045571d46a892132d7ccb14236bbf77d251a405af13272fd0dc938b83c276c"
    },
    {
      "anonymous": false,
      "inputs": [
        {
          "indexed": true,
          "name": "_gameId",
          "type": "uint256"
        },
        {
          "indexed": true,
          "name": "_creator",
          "type": "address"
        },
        {
          "indexed": false,
          "name": "_solution",
          "type": "string"
        }
      ],
      "name": "SolutionCreatorLog",
      "type": "event",
      "signature": "0xd1401349f8c6022ca853e7ba7eff857086d78eecbbaaffa2911b545ff180d161"
    },
    {
      "constant": false,
      "inputs": [
        {
          "name": "_gameName",
          "type": "string"
        },
        {
          "name": "_gameProposeMetadata",
          "type": "string"
        },
        {
          "name": "_gameType",
          "type": "uint32"
        },
        {
          "name": "_gameLimits",
          "type": "uint256[3]"
        },
        {
          "name": "_timeouts",
          "type": "uint256[2]"
        },
        {
          "name": "_quote",
          "type": "uint256"
        },
        {
          "name": "_solutionHash",
          "type": "bytes32"
        }
      ],
      "name": "proposeGame",
      "outputs": [],
      "payable": true,
      "stateMutability": "payable",
      "type": "function",
      "signature": "0xd085ff17"
    },
    {
      "constant": false,
      "inputs": [
        {
          "name": "_gameIndex",
          "type": "uint256"
        }
      ],
      "name": "createOffer",
      "outputs": [],
      "payable": true,
      "stateMutability": "payable",
      "type": "function",
      "signature": "0xa269993d"
    },
    {
      "constant": false,
      "inputs": [
        {
          "name": "_gameIndex",
          "type": "uint256"
        },
        {
          "name": "_gameMetadata",
          "type": "string"
        }
      ],
      "name": "createGame",
      "outputs": [],
      "payable": false,
      "stateMutability": "nonpayable",
      "type": "function",
      "signature": "0xa52169a4"
    },
    {
      "constant": false,
      "inputs": [
        {
          "name": "_gameIndex",
          "type": "uint256"
        },
        {
          "name": "_solutionHash",
          "type": "bytes32"
        }
      ],
      "name": "submitSolutionHash",
      "outputs": [],
      "payable": false,
      "stateMutability": "nonpayable",
      "type": "function",
      "signature": "0x2fe08903"
    },
    {
      "constant": false,
      "inputs": [
        {
          "name": "_gameIndex",
          "type": "uint256"
        },
        {
          "name": "_solutionPlayer",
          "type": "string"
        },
        {
          "name": "_secret",
          "type": "bytes32"
        }
      ],
      "name": "submitSolutionPlayer",
      "outputs": [],
      "payable": false,
      "stateMutability": "nonpayable",
      "type": "function",
      "signature": "0xf65d8faf"
    },
    {
      "constant": false,
      "inputs": [
        {
          "name": "_gameIndex",
          "type": "uint256"
        },
        {
          "name": "_solutionGame",
          "type": "string"
        },
        {
          "name": "_secret",
          "type": "bytes32"
        }
      ],
      "name": "submitSolutionCreator",
      "outputs": [],
      "payable": false,
      "stateMutability": "nonpayable",
      "type": "function",
      "signature": "0x38890890"
    },
    {
      "constant": false,
      "inputs": [
        {
          "name": "_gameIndex",
          "type": "uint256"
        }
      ],
      "name": "withdrawResidual",
      "outputs": [],
      "payable": false,
      "stateMutability": "nonpayable",
      "type": "function",
      "signature": "0xd08a8c3b"
    }
  ],
  "bytecode": "0x608060405234801561001057600080fd5b506040516020806200460d8339810180604052602081101561003157600080fd5b505160008054600160a060020a03909216600160a060020a03199092169190911790556145a980620000646000396000f3fe6080604052600436106100745763ffffffff60e060020a6000350416632fe08903811461007957806338890890146100ab578063a269993d1461012f578063a52169a41461014c578063ac578833146101d0578063d085ff1714610201578063d08a8c3b146102e0578063f65d8faf1461030a575b600080fd5b34801561008557600080fd5b506100a96004803603604081101561009c57600080fd5b508035906020013561038e565b005b3480156100b757600080fd5b506100a9600480360360608110156100ce57600080fd5b813591908101906040810160208201356401000000008111156100f057600080fd5b82018360208201111561010257600080fd5b8035906020019184600183028401116401000000008311171561012457600080fd5b919350915035610ac8565b6100a96004803603602081101561014557600080fd5b503561153e565b34801561015857600080fd5b506100a96004803603604081101561016f57600080fd5b8135919081019060408101602082013564010000000081111561019157600080fd5b8201836020820111156101a357600080fd5b803590602001918460018302840111640100000000831117156101c557600080fd5b509092509050612571565b3480156101dc57600080fd5b506101e5612c2d565b60408051600160a060020a039092168252519081900360200190f35b6100a9600480360361014081101561021857600080fd5b81019060208101813564010000000081111561023357600080fd5b82018360208201111561024557600080fd5b8035906020019184600183028401116401000000008311171561026757600080fd5b91939092909160208101903564010000000081111561028557600080fd5b82018360208201111561029757600080fd5b803590602001918460018302840111640100000000831117156102b957600080fd5b919350915063ffffffff813516906020810190608081019060c08101359060e00135612c3c565b3480156102ec57600080fd5b506100a96004803603602081101561030357600080fd5b503561373e565b34801561031657600080fd5b506100a96004803603606081101561032d57600080fd5b8135919081019060408101602082013564010000000081111561034f57600080fd5b82018360208201111561036157600080fd5b8035906020019184600183028401116401000000008311171561038357600080fd5b919350915035613baa565b6000809054906101000a9004600160a060020a0316600160a060020a031663654f1ccb6040518163ffffffff1660e060020a02815260040160206040518083038186803b1580156103de57600080fd5b505afa1580156103f2573d6000803e3d6000fd5b505050506040513d602081101561040857600080fd5b5051821061044e576040805160e560020a62461bcd028152602060048201526016602482015260008051602061455e833981519152604482015290519081900360640190fd5b6000546040805160e060020a632a1594a1028152600481018590529051600160a060020a0390921691632a1594a191602480820192602092909190829003018186803b15801561049d57600080fd5b505afa1580156104b1573d6000803e3d6000fd5b505050506040513d60208110156104c757600080fd5b50511515600114610522576040805160e560020a62461bcd02815260206004820152601960248201527f67616d6520686173206e6f74206265656e206372656174656400000000000000604482015290519081900360640190fd5b600054604080517f8d5f642e000000000000000000000000000000000000000000000000000000008152600481018590523360248201529051600160a060020a0390921691638d5f642e91604480820192602092909190829003018186803b15801561058d57600080fd5b505afa1580156105a1573d6000803e3d6000fd5b505050506040513d60208110156105b757600080fd5b50511515600114610612576040805160e560020a62461bcd02815260206004820152601360248201527f6f66666572206e6f74207375626d697474656400000000000000000000000000604482015290519081900360640190fd5b600054604080517f8f0f9088000000000000000000000000000000000000000000000000000000008152600481018590523360248201529051600160a060020a0390921691638f0f908891604480820192602092909190829003018186803b15801561067d57600080fd5b505afa158015610691573d6000803e3d6000fd5b505050506040513d60208110156106a757600080fd5b505115600114610701576040805160e560020a62461bcd02815260206004820152601f60248201527f736f6c7574696f6e206861736820616c7265616479207375626d697474656400604482015290519081900360640190fd5b6000546040805160e160020a633ab1b853028152600481018590529051600160a060020a039092169163756370a691602480820192602092909190829003018186803b15801561075057600080fd5b505afa158015610764573d6000803e3d6000fd5b505050506040513d602081101561077a57600080fd5b50514211801561088c57506000546040805160e060020a63cd08e3b702815260048101859052905161088892600160a060020a03169163cd08e3b7916024808301926020929190829003018186803b1580156107d557600080fd5b505afa1580156107e9573d6000803e3d6000fd5b505050506040513d60208110156107ff57600080fd5b50516000546040805160e160020a633ab1b853028152600481018790529051600160a060020a039092169163756370a691602480820192602092909190829003018186803b15801561085057600080fd5b505afa158015610864573d6000803e3d6000fd5b505050506040513d602081101561087a57600080fd5b50519063ffffffff6144dd16565b4211155b1515610908576040805160e560020a62461bcd02815260206004820152603660248201527f74696d656f757420666f72206861736820736f6c7574696f6e2073756d62697360448201527f73696f6e20616c72656164792061637469766174656400000000000000000000606482015290519081900360840190fd5b60008054604080517f0781e9bf000000000000000000000000000000000000000000000000000000008152600481018690523360248201529051600160a060020a0390921691630781e9bf91604480820192602092909190829003018186803b15801561097457600080fd5b505afa158015610988573d6000803e3d6000fd5b505050506040513d602081101561099e57600080fd5b505160008054604080517fc10d9c7e000000000000000000000000000000000000000000000000000000008152600481018490526024810188905260448101859052606481018790529051939450600160a060020a039091169263c10d9c7e9260848084019391929182900301818387803b158015610a1c57600080fd5b505af1158015610a30573d6000803e3d6000fd5b505060008054604080517f5343b78e0000000000000000000000000000000000000000000000000000000081526004810184905260248101899052336044820152600160648201529051600160a060020a039092169450635343b78e9350608480820193929182900301818387803b158015610aab57600080fd5b505af1158015610abf573d6000803e3d6000fd5b50505050505050565b6000809054906101000a9004600160a060020a0316600160a060020a031663654f1ccb6040518163ffffffff1660e060020a02815260040160206040518083038186803b158015610b1857600080fd5b505afa158015610b2c573d6000803e3d6000fd5b505050506040513d6020811015610b4257600080fd5b50518410610b88576040805160e560020a62461bcd028152602060048201526016602482015260008051602061455e833981519152604482015290519081900360640190fd5b6000546040805160e160020a633d6a06430281526004810187905290513392600160a060020a031691637ad40c86916024808301926020929190829003018186803b158015610bd657600080fd5b505afa158015610bea573d6000803e3d6000fd5b505050506040513d6020811015610c0057600080fd5b5051600160a060020a031614610c60576040805160e560020a62461bcd02815260206004820152601b60248201527f73656e646572206d7573742062652067616d652063726561746f720000000000604482015290519081900360640190fd5b6000546040805160e060020a632a1594a1028152600481018790529051600160a060020a0390921691632a1594a191602480820192602092909190829003018186803b158015610caf57600080fd5b505afa158015610cc3573d6000803e3d6000fd5b505050506040513d6020811015610cd957600080fd5b50511515600114610d34576040805160e560020a62461bcd02815260206004820152601960248201527f67616d6520686173206e6f74206265656e206372656174656400000000000000604482015290519081900360640190fd5b600054604080517f6703edca000000000000000000000000000000000000000000000000000000008152600481018790529051600160a060020a0390921691636703edca91602480820192602092909190829003018186803b158015610d9957600080fd5b505afa158015610dad573d6000803e3d6000fd5b505050506040513d6020811015610dc357600080fd5b505115600114610e1d576040805160e560020a62461bcd02815260206004820152601a60248201527f736f6c7574696f6e20616c7265616479207375626d6974746564000000000000604482015290519081900360640190fd5b600054604080517f5c2295760000000000000000000000000000000000000000000000000000000081529051610f7f92600160a060020a031691635c229576916004808301926020929190829003018186803b158015610e7c57600080fd5b505afa158015610e90573d6000803e3d6000fd5b505050506040513d6020811015610ea657600080fd5b50516000546040805160e060020a63cd08e3b7028152600481018990529051610f7392600160a060020a03169163cd08e3b7916024808301926020929190829003018186803b158015610ef857600080fd5b505afa158015610f0c573d6000803e3d6000fd5b505050506040513d6020811015610f2257600080fd5b50516000546040805160e160020a633ab1b853028152600481018b90529051600160a060020a039092169163756370a691602480820192602092909190829003018186803b15801561085057600080fd5b9063ffffffff6144dd16565b4211801561116d5750600054604080517f7cfdb1b9000000000000000000000000000000000000000000000000000000008152905161116992600160a060020a031691637cfdb1b9916004808301926020929190829003018186803b158015610fe757600080fd5b505afa158015610ffb573d6000803e3d6000fd5b505050506040513d602081101561101157600080fd5b5051600054604080517f5c2295760000000000000000000000000000000000000000000000000000000081529051610f7392600160a060020a031691635c229576916004808301926020929190829003018186803b15801561107257600080fd5b505afa158015611086573d6000803e3d6000fd5b505050506040513d602081101561109c57600080fd5b50516000546040805160e060020a63cd08e3b7028152600481018b90529051610f7392600160a060020a03169163cd08e3b7916024808301926020929190829003018186803b1580156110ee57600080fd5b505afa158015611102573d6000803e3d6000fd5b505050506040513d602081101561111857600080fd5b50516000546040805160e160020a633ab1b853028152600481018d90529051600160a060020a039092169163756370a691602480820192602092909190829003018186803b15801561085057600080fd5b4211155b15156111e9576040805160e560020a62461bcd02815260206004820152602860248201527f74696d656f757420666f722020736f6c7574696f6e2020616c7265616479206160448201527f6374697661746564000000000000000000000000000000000000000000000000606482015290519081900360840190fd5b811515611240576040805160e560020a62461bcd02815260206004820152601960248201527f737472696e672067616d6520736f6c7574696f6e20766f696400000000000000604482015290519081900360640190fd5b600054604080517f90ce6005000000000000000000000000000000000000000000000000000000008152600481018790529051600160a060020a03909216916390ce600591602480820192602092909190829003018186803b1580156112a557600080fd5b505afa1580156112b9573d6000803e3d6000fd5b505050506040513d60208110156112cf57600080fd5b50516040805160208101848152849287928792910183838082843780830192505050935050505060405160208183030381529060405280519060200120141515611389576040805160e560020a62461bcd02815260206004820152602160248201527f736f6c7574696f6e206e6f7420636f6d70617469626c6520776974682068617360448201527f6800000000000000000000000000000000000000000000000000000000000000606482015290519081900360840190fd5b600080546040517f76508ce0000000000000000000000000000000000000000000000000000000008152600481018381526024820188905260606044830190815260648301879052600160a060020a03909316936376508ce0939092899289928992608401848480828437600081840152601f19601f82011690508083019250505095505050505050600060405180830381600087803b15801561142c57600080fd5b505af1158015611440573d6000803e3d6000fd5b505060008054604080517f6a1320a100000000000000000000000000000000000000000000000000000000815260048101849052602481018a9052600160448201529051600160a060020a039092169450636a1320a19350606480820193929182900301818387803b1580156114b557600080fd5b505af11580156114c9573d6000803e3d6000fd5b5050505033600160a060020a0316847fd1401349f8c6022ca853e7ba7eff857086d78eecbbaaffa2911b545ff180d161858560405180806020018281038252848482818152602001925080828437600083820152604051601f909101601f19169092018290039550909350505050a350505050565b6000809054906101000a9004600160a060020a0316600160a060020a031663654f1ccb6040518163ffffffff1660e060020a02815260040160206040518083038186803b15801561158e57600080fd5b505afa1580156115a2573d6000803e3d6000fd5b505050506040513d60208110156115b857600080fd5b505181106115fe576040805160e560020a62461bcd028152602060048201526016602482015260008051602061455e833981519152604482015290519081900360640190fd5b6000546040805160e160020a633d6a06430281526004810184905290513392600160a060020a031691637ad40c86916024808301926020929190829003018186803b15801561164c57600080fd5b505afa158015611660573d6000803e3d6000fd5b505050506040513d602081101561167657600080fd5b5051600160a060020a031614156116d7576040805160e560020a62461bcd02815260206004820152601f60248201527f73656e646572206d757374206e6f742062652067616d652063726561746f7200604482015290519081900360640190fd5b600054604080517f8d5f642e000000000000000000000000000000000000000000000000000000008152600481018490523360248201529051600160a060020a0390921691638d5f642e91604480820192602092909190829003018186803b15801561174257600080fd5b505afa158015611756573d6000803e3d6000fd5b505050506040513d602081101561176c57600080fd5b5051156001146117c6576040805160e560020a62461bcd02815260206004820152601760248201527f4f6666657220616c7265616479207375626d6974746564000000000000000000604482015290519081900360640190fd5b600054604080517f478a94ae000000000000000000000000000000000000000000000000000000008152600481018490529051600160a060020a039092169163478a94ae91602480820192602092909190829003018186803b15801561182b57600080fd5b505afa15801561183f573d6000803e3d6000fd5b505050506040513d602081101561185557600080fd5b505134118015906118f65750600054604080517f2ac21d27000000000000000000000000000000000000000000000000000000008152600481018490529051600160a060020a0390921691632ac21d2791602480820192602092909190829003018186803b1580156118c657600080fd5b505afa1580156118da573d6000803e3d6000fd5b505050506040513d60208110156118f057600080fd5b50513410155b80156119055750629896803406155b151561195b576040805160e560020a62461bcd02815260206004820152601860248201527f56616c75652073656e74206e6f74207065726d69747465640000000000000000604482015290519081900360640190fd5b60008054604080517f63d28fe2000000000000000000000000000000000000000000000000000000008152600481018590529051600160a060020a03909216916363d28fe291602480820192602092909190829003018186803b1580156119c157600080fd5b505afa1580156119d5573d6000803e3d6000fd5b505050506040513d60208110156119eb57600080fd5b5051600054604080517fbe74264d0000000000000000000000000000000000000000000000000000000081529051929350620f424092611a9192600160a060020a03169163be74264d916004808301926020929190829003018186803b158015611a5457600080fd5b505afa158015611a68573d6000803e3d6000fd5b505050506040513d6020811015611a7e57600080fd5b505183906127100363ffffffff6144f816565b118015611b2b5750620f4240611b296000809054906101000a9004600160a060020a0316600160a060020a031663be74264d6040518163ffffffff1660e060020a02815260040160206040518083038186803b158015611af057600080fd5b505afa158015611b04573d6000803e3d6000fd5b505050506040513d6020811015611b1a57600080fd5b5051839063ffffffff6144f816565b105b1515611ba6576040805160e560020a62461bcd028152602060048201526024808201527f71756f7465206e6f6e207065726d6974746564206163636f7264696e6720746f60448201527f2066656500000000000000000000000000000000000000000000000000000000606482015290519081900360840190fd5b60006064611bba348463ffffffff6144f816565b811515611bc357fe5b6000546040805160e060020a6332c2cc350281526004810188905290519390920493503492600160a060020a03909116916332c2cc35916024808301926020929190829003018186803b158015611c1957600080fd5b505afa158015611c2d573d6000803e3d6000fd5b505050506040513d6020811015611c4357600080fd5b505101811115611cc3576040805160e560020a62461bcd02815260206004820152602a60248201527f4e6f7420656e6f75676820726573696475616c206a61636b706f7420666f722060448201527f74686973206f6666657200000000000000000000000000000000000000000000606482015290519081900360840190fd5b6000546040805160e160020a634e2ee013028152600481018690529051600160a060020a0390921691639c5dc02691602480820192602092909190829003018186803b158015611d1257600080fd5b505afa158015611d26573d6000803e3d6000fd5b505050506040513d6020811015611d3c57600080fd5b505142118015611e1657506000546040805160e060020a63fea93d7d028152600481018690529051611e1292600160a060020a03169163fea93d7d916024808301926020929190829003018186803b158015611d9757600080fd5b505afa158015611dab573d6000803e3d6000fd5b505050506040513d6020811015611dc157600080fd5b50516000546040805160e160020a634e2ee013028152600481018890529051600160a060020a0390921691639c5dc02691602480820192602092909190829003018186803b15801561085057600080fd5b4211155b1515611e92576040805160e560020a62461bcd02815260206004820152602360248201527f54696d656f757420666f72206f6666657220616c72656164792061637469766160448201527f7465640000000000000000000000000000000000000000000000000000000000606482015290519081900360840190fd5b600054604080517ff12ac8b2000000000000000000000000000000000000000000000000000000008152600481018690529051600160a060020a039092169163f12ac8b291602480820192602092909190829003018186803b158015611ef757600080fd5b505afa158015611f0b573d6000803e3d6000fd5b505050506040513d6020811015611f2157600080fd5b5051600054604080517ff590901d000000000000000000000000000000000000000000000000000000008152600481018790529051600160a060020a039092169163f590901d91602480820192602092909190829003018186803b158015611f8857600080fd5b505afa158015611f9c573d6000803e3d6000fd5b505050506040513d6020811015611fb257600080fd5b50511061202e576040805160e560020a62461bcd028152602060048201526024808201527f4d6178206e756d626572206f66206f666665727320616c72656164792072656160448201527f6368656400000000000000000000000000000000000000000000000000000000606482015290519081900360840190fd5b612036614523565b60c060405190810160405280600081526020016000815260200160008152602001600081526020016000600281111561206b57fe5b81526020016000815250905060006127106121086000809054906101000a9004600160a060020a0316600160a060020a031663be74264d6040518163ffffffff1660e060020a02815260040160206040518083038186803b1580156120cf57600080fd5b505afa1580156120e3573d6000803e3d6000fd5b505050506040513d60208110156120f957600080fd5b5051859063ffffffff6144f816565b81151561211157fe5b60008054929091049250600160a060020a03909116906389ff67b8908733878642858a6040518963ffffffff1660e060020a0281526004018089815260200188815260200187600160a060020a0316600160a060020a03168152602001868152602001858152602001807f30780000000000000000000000000000000000000000000000000000000000008152506020018060200185815260200184815260200183600660200280838360005b838110156121d65781810151838201526020016121be565b505050509050018281038252600081526020016020019950505050505050505050600060405180830381600087803b15801561221157600080fd5b505af1158015612225573d6000803e3d6000fd5b505060008054604080517ff590901d000000000000000000000000000000000000000000000000000000008152600481018b90529051600160a060020a03909216945063d7b04487935089913391600191879163f590901d916024808301926020929190829003018186803b15801561229d57600080fd5b505afa1580156122b1573d6000803e3d6000fd5b505050506040513d60208110156122c757600080fd5b50516040805160e060020a63ffffffff891602815260048101969096526024860194909452600160a060020a0390921660448501529003606483015260016084830152600060a4830181905260c48301819052905160e48084019382900301818387803b15801561233757600080fd5b505af115801561234b573d6000803e3d6000fd5b5050600080546040805160e060020a6332c2cc35028152600481018b90529051600160a060020a03909216945063b0f6de48935089913489039186916332c2cc3591602480820192602092909190829003018186803b1580156123ad57600080fd5b505afa1580156123c1573d6000803e3d6000fd5b505050506040513d60208110156123d757600080fd5b50516040805160e060020a63ffffffff88160281526004810195909552602485019390935203604483015251606480830192600092919082900301818387803b15801561242357600080fd5b505af1158015612437573d6000803e3d6000fd5b5050604080513481526020810187905280820185905290513393508892507fb725f525d59142c2a9f553376ad26d806fa8af7f63a716423a5c4c77fa421b829181900360600190a36000546040805160e060020a6332c2cc3502815260048101889052905187927f04fee6df3b01c60bdb68235c0bedfe89a6a92d0f63022d3942d3856b207221a092600160a060020a03909116916332c2cc3591602480820192602092909190829003018186803b1580156124f257600080fd5b505afa158015612506573d6000803e3d6000fd5b505050506040513d602081101561251c57600080fd5b505160408051918252519081900360200190a260008054604051600160a060020a03909116913480156108fc02929091818181858888f19350505050158015612569573d6000803e3d6000fd5b505050505050565b6000809054906101000a9004600160a060020a0316600160a060020a031663654f1ccb6040518163ffffffff1660e060020a02815260040160206040518083038186803b1580156125c157600080fd5b505afa1580156125d5573d6000803e3d6000fd5b505050506040513d60208110156125eb57600080fd5b50518310612631576040805160e560020a62461bcd028152602060048201526016602482015260008051602061455e833981519152604482015290519081900360640190fd5b6000546040805160e160020a633d6a06430281526004810186905290513392600160a060020a031691637ad40c86916024808301926020929190829003018186803b15801561267f57600080fd5b505afa158015612693573d6000803e3d6000fd5b505050506040513d60208110156126a957600080fd5b5051600160a060020a031614612709576040805160e560020a62461bcd02815260206004820152601b60248201527f73656e646572206d7573742062652067616d652063726561746f720000000000604482015290519081900360640190fd5b6000546040805160e060020a632a1594a1028152600481018690529051600160a060020a0390921691632a1594a191602480820192602092909190829003018186803b15801561275857600080fd5b505afa15801561276c573d6000803e3d6000fd5b505050506040513d602081101561278257600080fd5b5051156001146127dc576040805160e560020a62461bcd02815260206004820152601d60248201527f67616d652068617320616c7265616479206265656e2063726561746564000000604482015290519081900360640190fd5b6000546040805160e060020a63fea93d7d02815260048101869052905161282c92600160a060020a03169163fea93d7d916024808301926020929190829003018186803b158015611d9757600080fd5b4211801561298f5750600054604080517fdb034279000000000000000000000000000000000000000000000000000000008152905161298b92600160a060020a03169163db034279916004808301926020929190829003018186803b15801561289457600080fd5b505afa1580156128a8573d6000803e3d6000fd5b505050506040513d60208110156128be57600080fd5b50516000546040805160e060020a63fea93d7d028152600481018890529051610f7392600160a060020a03169163fea93d7d916024808301926020929190829003018186803b15801561291057600080fd5b505afa158015612924573d6000803e3d6000fd5b505050506040513d602081101561293a57600080fd5b50516000546040805160e160020a634e2ee013028152600481018a90529051600160a060020a0390921691639c5dc02691602480820192602092909190829003018186803b15801561085057600080fd5b4211155b1515612a0b576040805160e560020a62461bcd02815260206004820152602b60248201527f54696d656f757420666f722067616d65206372656174696f6e20616c7265616460448201527f7920616374697661746564000000000000000000000000000000000000000000606482015290519081900360840190fd5b60008054604080517f2ff5ac7300000000000000000000000000000000000000000000000000000000815260048101849052602481018790524260448201529051600160a060020a0390921692632ff5ac739260648084019382900301818387803b158015612a7957600080fd5b505af1158015612a8d573d6000803e3d6000fd5b505060008054604080517fea8bf468000000000000000000000000000000000000000000000000000000008152600481018490526024810189905260016044820152606481018490529051600160a060020a03909216945063ea8bf4689350608480820193929182900301818387803b158015612b0957600080fd5b505af1158015612b1d573d6000803e3d6000fd5b50505050827f374f3747f184b08a6ef7eeb6b796135a89ee33202644bfc03982299569c208d842848460405180848152602001806020018281038252848482818152602001925080828437600083820152604051601f909101601f1916909201829003965090945050505050a2600080546040517fe29431c2000000000000000000000000000000000000000000000000000000008152600481018381526024820187905260606044830190815260648301869052600160a060020a039093169363e29431c2939092889288928892608401848480828437600081840152601f19601f82011690508083019250505095505050505050600060405180830381600087803b158015610aab57600080fd5b600054600160a060020a031681565b6000809054906101000a9004600160a060020a0316600160a060020a0316633aebe3436040518163ffffffff1660e060020a02815260040160206040518083038186803b158015612c8c57600080fd5b505afa158015612ca0573d6000803e3d6000fd5b505050506040513d6020811015612cb657600080fd5b505163ffffffff8616108015612d615750600054604080517e712efe00000000000000000000000000000000000000000000000000000000815263ffffffff881660048201529051600160a060020a039092169162712efe91602480820192602092909190829003018186803b158015612d2f57600080fd5b505afa158015612d43573d6000803e3d6000fd5b505050506040513d6020811015612d5957600080fd5b505115156001145b1515612ddd576040805160e560020a62461bcd02815260206004820152602560248201527f67616d65207479706520646f6573206e6f74206578697374206f72206e6f742060448201527f76616c6964000000000000000000000000000000000000000000000000000000606482015290519081900360840190fd5b6000809054906101000a9004600160a060020a0316600160a060020a0316633387e66a6040518163ffffffff1660e060020a02815260040160206040518083038186803b158015612e2d57600080fd5b505afa158015612e41573d6000803e3d6000fd5b505050506040513d6020811015612e5757600080fd5b50513410801590612e6b5750629896803406155b1515612ec1576040805160e560020a62461bcd02815260206004820152601660248201527f76616c75652073656e74206e6f7420636f727265637400000000000000000000604482015290519081900360640190fd5b606482118015612ee85750629896803401612ee583620186a063ffffffff6144f816565b11155b1515612f3e576040805160e560020a62461bcd02815260206004820152601160248201527f71756f7465206e6f7420636f7272656374000000000000000000000000000000604482015290519081900360640190fd5b620f4240612fd26000809054906101000a9004600160a060020a0316600160a060020a031663be74264d6040518163ffffffff1660e060020a02815260040160206040518083038186803b158015612f9557600080fd5b505afa158015612fa9573d6000803e3d6000fd5b505050506040513d6020811015612fbf57600080fd5b505184906127100363ffffffff6144f816565b11801561306c5750620f424061306a6000809054906101000a9004600160a060020a0316600160a060020a031663be74264d6040518163ffffffff1660e060020a02815260040160206040518083038186803b15801561303157600080fd5b505afa158015613045573d6000803e3d6000fd5b505050506040513d602081101561305b57600080fd5b5051849063ffffffff6144f816565b105b15156130e7576040805160e560020a62461bcd028152602060048201526024808201527f71756f7465206e6f6e207065726d6974746564206163636f7264696e6720746f60448201527f2066656500000000000000000000000000000000000000000000000000000000606482015290519081900360840190fd5b62989680843506158015613121575061310734853563ffffffff6144dd16565b60646131148635856144f8565b81151561311d57fe5b0411155b1515613177576040805160e560020a62461bcd02815260206004820152601b60248201527f6d6178696d616c206f66666572206e6f74207065726d69747465640000000000604482015290519081900360640190fd5b62989680602085013506158015613192575083356020850135105b15156131e8576040805160e560020a62461bcd02815260206004820152601b60248201527f6d696e696d616c206f66666572206e6f74207065726d69747465640000000000604482015290519081900360640190fd5b60408401351515613243576040805160e560020a62461bcd02815260206004820152601560248201527f6d6178206e756d626572206f66666572206e756c6c0000000000000000000000604482015290519081900360640190fd5b8235158015906132565750602083013515155b15156132ac576040805160e560020a62461bcd02815260206004820152601560248201527f54696d656f75742063616e2774206265206e756c6c0000000000000000000000604482015290519081900360640190fd5b6132b4614542565b50604080518082018252428152600060208201819052805492517fa842ac180000000000000000000000000000000000000000000000000000000081526004810182815263ffffffff8a166024830152336044830181905234606484018190529495600160a060020a03169463a842ac1894938c938c918c918a918d918d9160840186606080828437600083820152601f01601f1916909101905085604080828437600081840152601f19601f82011690508083019250505084600260200280838360005b83811015613391578181015183820152602001613379565b50505050905001838152602001828152602001806020018281038252600081526020016020019a5050505050505050505050600060405180830381600087803b1580156133dd57600080fd5b505af11580156133f1573d6000803e3d6000fd5b50505050600060016000809054906101000a9004600160a060020a0316600160a060020a031663654f1ccb6040518163ffffffff1660e060020a02815260040160206040518083038186803b15801561344957600080fd5b505afa15801561345d573d6000803e3d6000fd5b505050506040513d602081101561347357600080fd5b5051604080518181529081018d9052919003915063ffffffff881690339083907fc4d9f3a871edc20a475e79dda47708e10c16f6be73496e4f4695d3426b751d21908f908f908f908f90806020810160608201878780828437600083820152601f01601f191690910184810383528581526020019050858580828437600083820152604051601f909101601f19169092018290039850909650505050505050a46040805134815260208181018790528835828401528089013560608301528289013560808301524260a0830152873560c083015287013560e0820152905182917fde4d7f9eb82bbbd35feafb3cc104624079d41964637f050d89765761d6fdefba91908190036101000190a260408051348152905182917f04fee6df3b01c60bdb68235c0bedfe89a6a92d0f63022d3942d3856b207221a0919081900360200190a260008054604080517fbb396833000000000000000000000000000000000000000000000000000000008152600260048201529051600160a060020a039092169163bb39683391602480820192602092909190829003018186803b15801561361b57600080fd5b505afa15801561362f573d6000803e3d6000fd5b505050506040513d602081101561364557600080fd5b8101908080519060200190929190505050905080600160a060020a031663beb7da276000848d8d6040518563ffffffff1660e060020a02815260040180858152602001848152602001806020018281038252848482818152602001925080828437600081840152601f19601f82011690508083019250505095505050505050600060405180830381600087803b1580156136de57600080fd5b505af11580156136f2573d6000803e3d6000fd5b505060008054604051600160a060020a0390911693503480156108fc02935091818181858888f1935050505015801561372f573d6000803e3d6000fd5b50505050505050505050505050565b6000809054906101000a9004600160a060020a0316600160a060020a031663654f1ccb6040518163ffffffff1660e060020a02815260040160206040518083038186803b15801561378e57600080fd5b505afa1580156137a2573d6000803e3d6000fd5b505050506040513d60208110156137b857600080fd5b505181106137fe576040805160e560020a62461bcd028152602060048201526016602482015260008051602061455e833981519152604482015290519081900360640190fd5b6000546040805160e160020a633d6a06430281526004810184905290513392600160a060020a031691637ad40c86916024808301926020929190829003018186803b15801561384c57600080fd5b505afa158015613860573d6000803e3d6000fd5b505050506040513d602081101561387657600080fd5b5051600160a060020a0316146138d6576040805160e560020a62461bcd02815260206004820152601b60248201527f73656e646572206d7573742062652067616d652063726561746f720000000000604482015290519081900360640190fd5b6000546040805160e060020a63fea93d7d0281526004810184905290516139a192600160a060020a03169163fea93d7d916024808301926020929190829003018186803b15801561392657600080fd5b505afa15801561393a573d6000803e3d6000fd5b505050506040513d602081101561395057600080fd5b50516000546040805160e160020a634e2ee013028152600481018690529051600160a060020a0390921691639c5dc02691602480820192602092909190829003018186803b15801561085057600080fd5b42116139f7576040805160e560020a62461bcd02815260206004820152601560248201527f4f6666657220706572696f64206f70656e207965740000000000000000000000604482015290519081900360640190fd5b600080546040805160e060020a6332c2cc35028152600481018590529051600160a060020a039092169263f524f146929091339185916332c2cc35916024808301926020929190829003018186803b158015613a5257600080fd5b505afa158015613a66573d6000803e3d6000fd5b505050506040513d6020811015613a7c57600080fd5b50516040805160e060020a63ffffffff87160281526004810194909452600160a060020a039092166024840152604483015251606480830192600092919082900301818387803b158015613acf57600080fd5b505af1158015613ae3573d6000803e3d6000fd5b505060008054604080517fb0f6de480000000000000000000000000000000000000000000000000000000081526004810184905260248101879052604481018490529051600160a060020a03909216945063b0f6de489350606480820193929182900301818387803b158015613b5857600080fd5b505af1158015613b6c573d6000803e3d6000fd5b5050604080516000815290518493507f04fee6df3b01c60bdb68235c0bedfe89a6a92d0f63022d3942d3856b207221a092509081900360200190a250565b6000809054906101000a9004600160a060020a0316600160a060020a031663654f1ccb6040518163ffffffff1660e060020a02815260040160206040518083038186803b158015613bfa57600080fd5b505afa158015613c0e573d6000803e3d6000fd5b505050506040513d6020811015613c2457600080fd5b50518410613c6a576040805160e560020a62461bcd028152602060048201526016602482015260008051602061455e833981519152604482015290519081900360640190fd5b6000546040805160e060020a632a1594a1028152600481018790529051600160a060020a0390921691632a1594a191602480820192602092909190829003018186803b158015613cb957600080fd5b505afa158015613ccd573d6000803e3d6000fd5b505050506040513d6020811015613ce357600080fd5b50511515600114613d3e576040805160e560020a62461bcd02815260206004820152601960248201527f67616d6520686173206e6f74206265656e206372656174656400000000000000604482015290519081900360640190fd5b600054604080517f8f0f9088000000000000000000000000000000000000000000000000000000008152600481018790523360248201529051600160a060020a0390921691638f0f908891604480820192602092909190829003018186803b158015613da957600080fd5b505afa158015613dbd573d6000803e3d6000fd5b505050506040513d6020811015613dd357600080fd5b50511515600114613e2e576040805160e560020a62461bcd02815260206004820152601b60248201527f736f6c7574696f6e2068617368206e6f74207375626d69747465640000000000604482015290519081900360640190fd5b600054604080517f4c206059000000000000000000000000000000000000000000000000000000008152600481018790523360248201529051600160a060020a0390921691634c20605991604480820192602092909190829003018186803b158015613e9957600080fd5b505afa158015613ead573d6000803e3d6000fd5b505050506040513d6020811015613ec357600080fd5b505115600114613f1d576040805160e560020a62461bcd02815260206004820152601a60248201527f736f6c7574696f6e20616c7265616479207375626d6974746564000000000000604482015290519081900360640190fd5b6000546040805160e060020a63cd08e3b7028152600481018790529051613fe892600160a060020a03169163cd08e3b7916024808301926020929190829003018186803b158015613f6d57600080fd5b505afa158015613f81573d6000803e3d6000fd5b505050506040513d6020811015613f9757600080fd5b50516000546040805160e160020a633ab1b853028152600481018990529051600160a060020a039092169163756370a691602480820192602092909190829003018186803b15801561085057600080fd5b421180156140545750600054604080517f5c229576000000000000000000000000000000000000000000000000000000008152905161405092600160a060020a031691635c229576916004808301926020929190829003018186803b158015610e7c57600080fd5b4211155b15156140d0576040805160e560020a62461bcd02815260206004820152603260248201527f74696d656f757420666f722020736f6c7574696f6e2073756d62697373696f6e60448201527f20616c7265616479206163746976617465640000000000000000000000000000606482015290519081900360840190fd5b60008054604080517f0781e9bf000000000000000000000000000000000000000000000000000000008152600481018890523360248201529051600160a060020a0390921691630781e9bf91604480820192602092909190829003018186803b15801561413c57600080fd5b505afa158015614150573d6000803e3d6000fd5b505050506040513d602081101561416657600080fd5b505160008054604080517f20c4491d000000000000000000000000000000000000000000000000000000008152600481018a90526024810185905290519394509192600160a060020a03909116916320c4491d916044808301926020929190829003018186803b1580156141d957600080fd5b505afa1580156141ed573d6000803e3d6000fd5b505050506040513d602081101561420357600080fd5b5051905083151561425e576040805160e560020a62461bcd02815260206004820152601b60248201527f737472696e6720706c6179657220736f6c7574696f6e20766f69640000000000604482015290519081900360640190fd5b808386866040516020018084815260200183838082843780830192505050935050505060405160208183030381529060405280519060200120141515614314576040805160e560020a62461bcd02815260206004820152602160248201527f736f6c7574696f6e206e6f7420636f6d70617469626c6520776974682068617360448201527f6800000000000000000000000000000000000000000000000000000000000000606482015290519081900360840190fd5b600080546040517f9248fcd900000000000000000000000000000000000000000000000000000000815260048101838152602482018a90526044820186905260806064830190815260848301899052600160a060020a0390931693639248fcd99390928b9288928c928c92919060a401848480828437600081840152601f19601f8201169050808301925050509650505050505050600060405180830381600087803b1580156143c357600080fd5b505af11580156143d7573d6000803e3d6000fd5b505060008054604080517f5a28419800000000000000000000000000000000000000000000000000000000815260048101849052602481018c9052336044820152600160648201529051600160a060020a039092169450635a2841989350608480820193929182900301818387803b15801561445257600080fd5b505af1158015614466573d6000803e3d6000fd5b5050505033600160a060020a0316867f64045571d46a892132d7ccb14236bbf77d251a405af13272fd0dc938b83c276c878760405180806020018281038252848482818152602001925080828437600083820152604051601f909101601f19169092018290039550909350505050a3505050505050565b6000828201838110156144ef57600080fd5b90505b92915050565b6000821515614509575060006144f2565b82820282848281151561451857fe5b04146144ef57600080fd5b60c0604051908101604052806006906020820280388339509192915050565b6040805180820182529060029082908038833950919291505056fe47616d6520696e646578206e6f7420636f727265637400000000000000000000a165627a7a72305820148b873c698fcda48080db6bd917960d87f777826e5aa7b0d495b0c3671732480029",
  "source": "pragma solidity ^0.5.0;\n\nlibrary SafeMath {\n    /**\n     * @dev Multiplies two unsigned integers, reverts on overflow.\n     */\n    function mul(uint256 a, uint256 b) internal pure returns (uint256) {\n        // Gas optimization: this is cheaper than requiring 'a' not being zero, but the\n        // benefit is lost if 'b' is also tested.\n        // See: https://github.com/OpenZeppelin/openzeppelin-solidity/pull/522\n        if (a == 0) {\n            return 0;\n        }\n\n        uint256 c = a * b;\n        require(c / a == b);\n\n        return c;\n    }\n\n    /**\n     * @dev Integer division of two unsigned integers truncating the quotient, reverts on division by zero.\n     */\n    function div(uint256 a, uint256 b) internal pure returns (uint256) {\n        // Solidity only automatically asserts when dividing by 0\n        require(b > 0);\n        uint256 c = a / b;\n        // assert(a == b * c + a % b); // There is no case in which this doesn't hold\n\n        return c;\n    }\n\n    /**\n     * @dev Subtracts two unsigned integers, reverts on overflow (i.e. if subtrahend is greater than minuend).\n     */\n    function sub(uint256 a, uint256 b) internal pure returns (uint256) {\n        require(b <= a);\n        uint256 c = a - b;\n\n        return c;\n    }\n\n    /**\n     * @dev Adds two unsigned integers, reverts on overflow.\n     */\n    function add(uint256 a, uint256 b) internal pure returns (uint256) {\n        uint256 c = a + b;\n        require(c >= a);\n\n        return c;\n    }\n\n    /**\n     * @dev Divides two unsigned integers and returns the remainder (unsigned integer modulo),\n     * reverts when dividing by zero.\n     */\n    function mod(uint256 a, uint256 b) internal pure returns (uint256) {\n        require(b != 0);\n        return a % b;\n    }\n}\n\n\n\ncontract StoragePuzzlesAbstract  {\n    \n    function AddGamesType (bool _gameActivated)  external;\n    \n    function SetGameType (bool _gameActivated, uint256 _gameTypeIndex)  external;\n    \n    function GetGameType (uint256 _gameTypeIndex) external view returns (bool);\n    \n    function GetGameTypeLength()  external view returns (uint256);\n    \n    function setMinimalJackpot (uint256 _minimalJackpot)  external;\n    \n    function getMinimalJackpot() external view returns(uint256);\n    \n    function setMaxTimeoutCreation (uint256 _maxTimeoutCreation)   external;\n    \n    function getMaxTimeoutCreation () external view returns(uint256);\n    \n    function setTimeoutPlayerSolution (uint256 _timeoutPlayerSolution)  external;\n    \n    function getTimeoutPlayerSolution () external view returns(uint256);\n    \n    function setTimeoutCreatorSolution (uint256 _timeoutCreatorSolution) external;\n    \n    function getTimeoutCreatorSolution () external view returns(uint256);\n        \n    function setTimeoutDisp (uint256 _timeoutDisp)  external;\n    \n    function getTimeoutDisp () external view returns(uint256);\n    \n    function setTimeoutRuling (uint256 _timeoutRuling)  external;\n    \n    function getTimeoutRuling () external view returns(uint256);\n    \n    function setFeePercent (uint256 _feePercent)  external;\n    \n    function getFeePercent() external view returns(uint256);\n \n    function setArbitrator (address _arbitratorAddress, bytes calldata _arbitratorExtraData)  external;\n    \n    function getArbitratorAddress() external view returns(address);\n    \n    function getarbitratorExtraData() external view returns(bytes memory);\n    \n    function setFeeTimeout(uint256 _feeTimeout)  external;\n    \n    function getFeeTimeout() external view returns(uint256);\n    \n    function addLogicalContract (address _logicalContract)  external;\n    \n    function setLogicalContract (address _logicalContract, uint256 _logicalContractIndex)  external;\n    \n    function getLogicalContract (uint256 _logicalContractIndex) external view returns(address);\n    \n    function getLogicalContractLength () external view returns(uint256);\n    \n    function withdrawFee (address payable _destination, uint256 _amount)  external;\n    \n\n    \n    \n    function addGame (uint256 _logicalContractIndex, uint32  _gameType,  address payable _creator, uint256 _residualJackpot,  uint256[3] calldata _gameLimits, uint256[2] calldata _timeouts, uint256[2] calldata _times, uint256 _quote, bytes32 _solutionHash, string calldata _solution) external;\n      \n    function setGameType (uint256 _logicalContractIndex, uint256 _gameIndex, uint32 _gameType) external;\n     \n    function setGameCreator (uint256 _logicalContractIndex, uint256 _gameIndex, address payable _creator)  external ;\n  \n    function setGameResidualJackpot (uint256 _logicalContractIndex, uint256 _gameIndex, uint256 _residualJackpot)  external ;\n    \n    function setGameMaxOffer (uint256 _logicalContractIndex, uint256 _gameIndex, uint256 _maxOffer)  external;\n    \n    function setGameMinOffer (uint256 _logicalContractIndex, uint256 _gameIndex, uint256 _minOffer)  external;\n    \n    function setGameMaxOfferNumber (uint256 _logicalContractIndex, uint256 _gameIndex, uint256 _maxOfferNumber)  external;\n    \n    function setTimePropose (uint256 _logicalContractIndex, uint256 _gameIndex, uint256 _timePropose)  external;\n    \n    function setGametimeoutOffer(uint256 _logicalContractIndex, uint256 _gameIndex, uint256 _timeoutOffer)  external;\n    \n    function setGameTimeCreationGame(uint256 _logicalContractIndex, uint256 _gameIndex, uint256 _timeCreationGame)  external;\n    \n    function setGameTimeoutResolution(uint256 _logicalContractIndex, uint256 _gameIndex, uint256 _timeoutResolution)  external;\n    \n    function setGameQuote(uint256 _logicalContractIndex, uint256 _gameIndex, uint256 _quote)  external;\n    \n    function setGameSolutionHash(uint256 _logicalContractIndex, uint256 _gameIndex, bytes32 _solutionHash)  external;\n    \n    function setGameSolution(uint256 _logicalContractIndex, uint256 _gameIndex, string calldata _solution)  external;\n    \n    function getGameType (uint256 _gameIndex) external view returns(uint32);\n    \n    function getGameCreator (uint256 _gameIndex) external view returns(address payable);\n    \n    function getGameResidualJackpot (uint256 _gameIndex) external view returns(uint256);\n    \n    function getGameMaxOffer(uint256 _gameIndex) external view returns(uint256);\n    \n    function getGameMinOffer (uint256 _gameIndex) external view returns(uint256);\n    \n    function getGameMaxOfferNumber (uint256 _gameIndex) external view returns(uint256);\n    \n    function getGameTimePropose (uint256 _gameIndex) external view returns(uint256);\n    \n    function getGameTimeoutOffer (uint256 _gameIndex) external view returns(uint256);\n    \n    function getGameTimeCreationGame(uint256 _gameIndex) external view returns(uint256);\n    \n    function getGameTimeoutResolution (uint256 _gameIndex) external view returns(uint256);\n    \n    function getGameQuote (uint256 _gameIndex) external view returns(uint256);\n    \n    function getGameSolutionHash (uint256 _gameIndex) external view returns(bytes32);\n    \n    function getGameSolution (uint256 _gameIndex) external view returns(string memory);\n    \n    function getGamesLength ()  external view returns(uint256);\n    \n\n   \n    \n    \n    function setGameMetadata (uint256 _logicalContractIndex, uint256 _gameIndex, string calldata _gameMetadata)  external;\n    \n    function getGameMetadata(uint256 _gameIndex) external view returns(string memory);\n   \n    \n    \n\n    \n    \n    function addOffer (uint256 _logicalContractIndex, uint256 _gameIndex, address payable _player, uint256 _expectedwin, uint256 _serviceFee, bytes32 _solutionHash, string calldata _solutionPlayer, uint256 _lastInteraction, uint256 _solutionResult, uint256[6] calldata _disputeFields)  external;\n    \n    function setOfferPlayer (uint256 _logicalContractIndex, uint256 _gameIndex, uint256 _offerIndex, address payable _player) external;\n    \n    function setOfferExpectedWin (uint256 _logicalContractIndex, uint256 _gameIndex, uint256 _offerIndex, uint256 _expectedWin) external;\n    \n    function setOfferServiceFee (uint256 _logicalContractIndex, uint256 _gameIndex, uint256 _offerIndex, uint256 _serviceFee)  external;\n    \n    function setOfferSolutionHash (uint256 _logicalContractIndex, uint256 _gameIndex, uint256 _offerIndex, bytes32 _solutionHash) external;\n    \n    function setOfferSolutionPlayer(uint256 _logicalContractIndex, uint256 _gameIndex, uint256 _offerIndex, string calldata _solutionPlayer)   external;\n    \n    function setOfferLastInteraction(uint256 _logicalContractIndex, uint256 _gameIndex, uint256 _offerIndex, uint256 _lastInteraction) external;\n    \n    function setOfferSolutionResult(uint256 _logicalContractIndex, uint256 _gameIndex, uint256 _offerIndex, uint256 _solutionResult)   external;\n    \n    function setOfferDisputeId(uint256 _logicalContractIndex, uint256 _gameIndex, uint256 _offerIndex, uint256 _disputeId)   external;\n\t\n\tfunction setOfferTimeDispute(uint256 _logicalContractIndex, uint256 _gameIndex, uint256 _offerIndex, uint256 _timeDispute)  external;\n    \n    function setOfferPlayerFee(uint256 _logicalContractIndex, uint256 _gameIndex, uint256 _offerIndex, uint256 _playerFee)   external;\n    \n    function setOfferCreatorFee(uint256 _logicalContractIndex, uint256 _gameIndex, uint256 _offerIndex, uint256 _creatorFee)   external;\n    \n    function setOfferAppeal(uint256 _logicalContractIndex, uint256 _gameIndex, uint256 _offerIndex, uint256 _appeal)   external;\n    \n    function setOfferAppealFee(uint256 _logicalContractIndex, uint256 _gameIndex, uint256 _offerIndex, uint256 _appealFee)   external;\n    \n    function getOfferPlayer (uint256 _gameIndex, uint256 _offerIndex) external view returns(address payable);\n    \n    function getOfferExpectedWin (uint256 _gameIndex, uint256 _offerIndex) external view returns(uint256);\n    \n    function getOfferServiceFee (uint256 _gameIndex, uint256 _offerIndex) external view returns(uint256);\n    \n    function getOfferSolutionHash (uint256 _gameIndex, uint256 _offerIndex) external view returns(bytes32);\n    \n    function getOfferSolutionPlayer (uint256 _gameIndex, uint256 _offerIndex) external view returns(string memory);\n    \n    function getOfferLastInteraction (uint256 _gameIndex, uint256 _offerIndex) external view returns(uint256);\n    \n    function getOfferSolutionResult (uint256 _gameIndex, uint256 _offerIndex) external view returns(uint256);\n    \n    function getOfferDisputeId (uint256 _gameIndex, uint256 _offerIndex) external view returns(uint256);\n\t\n\tfunction getOfferTimeDispute (uint256 _gameIndex, uint256 _offerIndex) external view returns(uint256);\n    \n    function getOfferPlayerFee (uint256 _gameIndex, uint256 _offerIndex) external view returns(uint256);\n    \n    function getOfferCreatorFee (uint256 _gameIndex, uint256 _offerIndex) external view returns(uint256);\n    \n    function getOfferAppeal (uint256 _gameIndex, uint256 _offerIndex) external view returns(uint256);\n    \n    function getOfferAppealFee(uint256 _gameIndex, uint256 _offerIndex) external view returns(uint256);\n      \n    function getOffersLength (uint256 _gameIndex)  external view returns(uint256);\n    \n    \n\n    \n    \n    function addOffersMap (uint256 _logicalContractIndex, uint256 _gameIndex, address _player, uint256 _indexOffer, bool _submittedOffer, bool _submittedHashSol, bool _submittedSol)  external;\n    \n    function setOffersMapIndexOffer (uint256 _logicalContractIndex, uint256 _gameIndex, address _player, uint256 _indexOffer)  external;\n    \n    function setOffersMapSubmittedOffer (uint256 _logicalContractIndex, uint256 _gameIndex, address _player, bool _submittedOffer)  external;\n\t\n    function setOffersMapSubmittedHashSol (uint256 _logicalContractIndex, uint256 _gameIndex, address _player, bool _submittedHashSol)  external;\n\t\n    function setOffersMapSubmittedSol (uint256 _logicalContractIndex, uint256 _gameIndex, address _player, bool _submittedSol)  external;\n    \n    function getOffersMapIndexOffer (uint256 _gameIndex, address _player) external view returns (uint256);\n    \n    function getOffersMapSubmittedOffer(uint256 _gameIndex, address _player) external view returns (bool);\n    \n    function getOffersMapSubmittedHashSol (uint256 _gameIndex, address _player) external view returns (bool);\n    \n    function getOffersMapSubmittedSol (uint256 _gameIndex, address _player) external view returns (bool);\n    \n\n    \n \n \n    function addCreationMap (uint256 _logicalContractIndex, uint256 _gameIndex, bool _submittedGame, bool _submittedSol)  external;\n    \n    function setCreationMapSubmittedGame (uint256 _logicalContractIndex, uint256 _gameIndex, bool _submittedGame)  external;\n    \n    function setCreationMapSubmittedSol (uint256 _logicalContractIndex, uint256 _gameIndex, bool _submittedSol)  external;\n    \n    function getCreationMapSubmittedGame (uint256 _gameIndex) external view returns(bool);\n    \n    function getCreationMapSubmittedSol (uint256 _gameIndex) external view returns(bool);\n    \n\n    \n    \n    function addDisputeIDtoArbitrationIndexID (uint256 _logicalContractIndex, uint256 _disputeId,  uint256 _gameIndex, address payable _player)  external;\n    \n    function setDisputeIDtoArbitrationIndexIDGameIndex (uint256 _logicalContractIndex, uint256 _disputeId,  uint256 _gameIndex)  external;\n    \n    function setDisputeIDtoArbitrationIndexIDPlayer (uint256 _logicalContractIndex, uint256 _disputeId,  address payable _player)  external;\n    \n    function getDisputeIDtoArbitrationIndexIDGameIndex (uint256 _disputeId) external view returns(uint256);\n    \n    function getDisputeIDtoArbitrationIndexIDPlayer (uint256 _disputeId) external view returns(address payable);\n    \n\n    \n    function SetFeeBalance (uint256 _logicalContractIndex, uint256 _feeBalance)  external;\n    \n    function getFeeBalance() external view returns(uint256);\n    \n    function transferEth (uint256 _logicalContractIndex, address payable _destination, uint256 _amount)  external;\n    \n    function () external payable {}\n\n}\n\ncontract LogicalPuzzlesArbitrableAbstract {\n    function emitMetaEvidence(uint256 _logicalContractIndex,uint256 _gameIndex, string calldata  _gameCreationMetadata) external;\n}\n\n\ncontract LogicalPuzzlesCreation  {\n    using SafeMath for uint256;\n    \n    enum Result {NOTHING, WAITING_CREATOR, WAITING_PLAYER, DISPUTE_CREATED, PLAYER_WINS, CREATOR_WINS, NO_WINNER}\n    \n    enum Appeal {NO_APPEAL, PLAYER_APPEAL, CREATOR_APPEAL}\n    \n    \n    event GamesSource (uint256 indexed _gameId,  address indexed _creator, uint32 indexed _puzzleType, string _puzzleName, string _metadata)  ;\n    \n    event GamesValues (uint256 indexed _gameId,  uint256 _maxJackpot, uint256 _quote, uint256 _maxOffer, uint256 _minOffer, uint256 _maxNumberOffer,  uint256 _timePropose, uint256 _timeoutOffer, uint256 _timeoutPlayerSolution)  ;\n    \n    event GameCreation (uint256 indexed _gameId, uint256 _timeCreation, string _metadataCreation);\n        \n    event OffersLog (uint256 indexed _gameId, address indexed _player, uint256 _valueBet, uint256 _expectedWin, uint256 _fee);\n    \n    event ResidualLog (uint256 indexed _gameId, uint256 _residual);\n    \n    event SolutionPlayerLog(uint256 indexed _gameId, address indexed _player, string _solution);\n    \n    event SolutionCreatorLog (uint256 indexed _gameId, address indexed _creator,  string _solution);\n    \n    \n    StoragePuzzlesAbstract public storagepuzzles;\n    \n    /*modifier onlyOtherLogicalContracts(uint256 _logicalContractIndex) {\n        require (_logicalContractIndex<storagepuzzles.getLogicalContractLength(), \"Logical contract index not present\");\n        require (storagepuzzles.getLogicalContract(_logicalContractIndex)==msg.sender, \"Sender different from logical contract\");\n        _;\n    }*/\n    \n    constructor (address payable _storagepuzzles) public {\n        storagepuzzles=StoragePuzzlesAbstract(_storagepuzzles);\n    }\n    \n    function proposeGame (string calldata _gameName, string calldata _gameProposeMetadata, uint32  _gameType, uint256[3] calldata _gameLimits, uint256[2] calldata _timeouts, uint256 _quote, bytes32 _solutionHash)  external payable {\n        require (_gameType<storagepuzzles.GetGameTypeLength() && storagepuzzles.GetGameType(_gameType)==true, \"game type does not exist or not valid\");\n       // require (msg.value >=storagepuzzles.getMinimalJackpot() && (msg.value/10000000)*(10000000)==msg.value, \"value sent not correct\");\n        require (msg.value >=storagepuzzles.getMinimalJackpot() && msg.value%10000000==0, \"value sent not correct\");\n        require (_quote > 100 && _quote.mul(100000)<=msg.value+10000000, \"quote not correct\" );\n        require (_quote.mul(10000-storagepuzzles.getFeePercent()) > 1000000 && _quote.mul(storagepuzzles.getFeePercent()) < 1000000, \"quote non permitted according to fee\" );//condition that net_win - value_bet >0 (fee doesn't overcome value initially bet)\n        //require ((_gameLimits[0]/10000000)*(10000000)==_gameLimits[0]  && (_gameLimits[0].mul(_quote))/100<=msg.value.add(_gameLimits[0]), \"maximal offer not permitted\");\n        require (_gameLimits[0]%10000000==0  && (_gameLimits[0].mul(_quote))/100<=msg.value.add(_gameLimits[0]), \"maximal offer not permitted\");\n        //require ((_gameLimits[1]/10000000)*(10000000)==_gameLimits[1]  && _gameLimits[1]<_gameLimits[0], \"minimal offer not permitted\");\n\t\trequire (_gameLimits[1]%10000000==0   && _gameLimits[1]<_gameLimits[0], \"minimal offer not permitted\");\n\t\trequire (_gameLimits[2]!=0, \"max number offer null\");\n        require (_timeouts[0]!=0 && _timeouts[1]!=0, \"Timeout can't be null\");\n        uint256[2] memory _times=[now,0];\n        storagepuzzles.addGame(0,_gameType, msg.sender, msg.value, _gameLimits, _timeouts, _times, _quote, _solutionHash, '');\n        uint256 gameindex=storagepuzzles.getGamesLength()-1;\n        emit GamesSource (gameindex, msg.sender, _gameType , _gameName, _gameProposeMetadata);\n        emit GamesValues (gameindex , msg.value,  _quote, _gameLimits[0], _gameLimits[1], _gameLimits[2], now,  _timeouts[0] , _timeouts[1]);\n        emit ResidualLog (gameindex, msg.value);\n        LogicalPuzzlesArbitrableAbstract logicalpuzzlesarbitrable= LogicalPuzzlesArbitrableAbstract(storagepuzzles.getLogicalContract(2));\n        logicalpuzzlesarbitrable.emitMetaEvidence(0,gameindex, _gameProposeMetadata);\n        address(storagepuzzles).transfer(msg.value);\n    }\n    \n    \n    function createOffer (uint256 _gameIndex)  external payable {\n        require (_gameIndex<storagepuzzles.getGamesLength(), \"Game index not correct\");\n        require (storagepuzzles.getGameCreator(_gameIndex)!=msg.sender, \"sender must not be game creator\");\n        require (!storagepuzzles.getOffersMapSubmittedOffer(_gameIndex, msg.sender)==true, \"Offer already submitted\");\n       // require (msg.value<=storagepuzzles.getGameMaxOffer(_gameIndex)&& msg.value>=storagepuzzles.getGameMinOffer(_gameIndex) && (msg.value/10000000)*10000000==msg.value,\"Value sent not permitted\");\n        require (msg.value<=storagepuzzles.getGameMaxOffer(_gameIndex)&& msg.value>=storagepuzzles.getGameMinOffer(_gameIndex) && msg.value%10000000==0,\"Value sent not permitted\");\n        uint256 quote=storagepuzzles.getGameQuote(_gameIndex);\n        require (quote.mul(10000-storagepuzzles.getFeePercent()) > 1000000 && quote.mul(storagepuzzles.getFeePercent()) < 1000000, \"quote non permitted according to fee\" ); //test needed in case getfeepercent changed from propose game time\n        uint256 expectedwin=(msg.value.mul(quote))/100 ;\n        require (expectedwin <= storagepuzzles.getGameResidualJackpot(_gameIndex)+msg.value, \"Not enough residual jackpot for this offer\");\n        require (now > storagepuzzles.getGameTimePropose(_gameIndex) && now <= storagepuzzles.getGameTimePropose(_gameIndex).add(storagepuzzles.getGameTimeoutOffer(_gameIndex)),\"Timeout for offer already activated\");\n        require (storagepuzzles.getOffersLength(_gameIndex)<storagepuzzles.getGameMaxOfferNumber(_gameIndex), \"Max number of offers already reached\");\n        uint256[6] memory _disputeFields=[0,0,0,0,uint256(Appeal.NO_APPEAL),0];\n        uint256 servicefee=expectedwin.mul(storagepuzzles.getFeePercent())/10000;\n        storagepuzzles.addOffer (0, _gameIndex,msg.sender,expectedwin,servicefee,'0x','',now, uint256(Result.NOTHING),_disputeFields);\n        storagepuzzles.addOffersMap (0, _gameIndex, msg.sender , storagepuzzles.getOffersLength(_gameIndex)-1 ,true,false,false);\n        storagepuzzles.setGameResidualJackpot (0, _gameIndex, storagepuzzles.getGameResidualJackpot(_gameIndex)-(expectedwin-msg.value)); \n        emit OffersLog (_gameIndex, msg.sender, msg.value, expectedwin,servicefee);\n        emit ResidualLog (_gameIndex,  storagepuzzles.getGameResidualJackpot(_gameIndex) );\n        address(storagepuzzles).transfer(msg.value);\n    }\n    \n   \n    \n    function createGame (uint256 _gameIndex, string calldata _gameMetadata) external {\n        require (_gameIndex<storagepuzzles.getGamesLength(), \"Game index not correct\");\n        require (storagepuzzles.getGameCreator(_gameIndex)==msg.sender, \"sender must be game creator\");\n        require (!storagepuzzles.getCreationMapSubmittedGame(_gameIndex)==true, \"game has already been created\");\n        require(now > storagepuzzles.getGameTimePropose(_gameIndex).add(storagepuzzles.getGameTimeoutOffer(_gameIndex)) && now <= storagepuzzles.getGameTimePropose(_gameIndex).add(storagepuzzles.getGameTimeoutOffer(_gameIndex)).add(storagepuzzles.getMaxTimeoutCreation()), \"Timeout for game creation already activated\");\n        storagepuzzles.setGameTimeCreationGame(0, _gameIndex, now);\n        storagepuzzles.addCreationMap (0, _gameIndex, true, false);\n        emit GameCreation (_gameIndex,now, _gameMetadata);\n        storagepuzzles.setGameMetadata (0,_gameIndex, _gameMetadata);\n    }\n    \n    \n    \n     function submitSolutionHash (uint256 _gameIndex, bytes32 _solutionHash ) external {\n        require (_gameIndex<storagepuzzles.getGamesLength(), \"Game index not correct\");\n        require (storagepuzzles.getCreationMapSubmittedGame(_gameIndex)==true, \"game has not been created\");\n        require (storagepuzzles.getOffersMapSubmittedOffer(_gameIndex,msg.sender)==true, \"offer not submitted\" );\n        require (!storagepuzzles.getOffersMapSubmittedHashSol(_gameIndex,msg.sender)==true, \"solution hash already submitted\");\n        require (now > storagepuzzles.getGameTimeCreationGame(_gameIndex) && now <= storagepuzzles.getGameTimeCreationGame(_gameIndex).add(storagepuzzles.getGameTimeoutResolution(_gameIndex)), \"timeout for hash solution sumbission already activated\");\n        uint256 indexoffer=storagepuzzles.getOffersMapIndexOffer(_gameIndex, msg.sender);\n        storagepuzzles.setOfferSolutionHash(0,_gameIndex,indexoffer,_solutionHash);\n        storagepuzzles.setOffersMapSubmittedHashSol(0,_gameIndex,msg.sender,true);\n    }\n    \n    function submitSolutionPlayer (uint256 _gameIndex, string calldata _solutionPlayer, bytes32 _secret)  external {\n        require (_gameIndex<storagepuzzles.getGamesLength(), \"Game index not correct\");\n        require (storagepuzzles.getCreationMapSubmittedGame(_gameIndex)==true, \"game has not been created\");\n        require (storagepuzzles.getOffersMapSubmittedHashSol(_gameIndex,msg.sender)==true, \"solution hash not submitted\");\n        require (!storagepuzzles.getOffersMapSubmittedSol(_gameIndex,msg.sender)==true, \"solution already submitted\");\n        require (now >storagepuzzles.getGameTimeCreationGame(_gameIndex).add(storagepuzzles.getGameTimeoutResolution(_gameIndex)) && now <= storagepuzzles.getGameTimeCreationGame(_gameIndex).add(storagepuzzles.getGameTimeoutResolution(_gameIndex)).add(storagepuzzles.getTimeoutPlayerSolution()), \"timeout for  solution sumbission already activated\");\n        uint256 indexoffer=storagepuzzles.getOffersMapIndexOffer(_gameIndex, msg.sender);\n        bytes32 solutionhash=storagepuzzles.getOfferSolutionHash(_gameIndex,indexoffer);\n\t\trequire (bytes(_solutionPlayer).length!=0, \"string player solution void\");\n        require (keccak256(abi.encodePacked(_secret,_solutionPlayer))==solutionhash, \"solution not compatible with hash\");\n        storagepuzzles.setOfferSolutionPlayer(0,_gameIndex,indexoffer,_solutionPlayer);\n        storagepuzzles.setOffersMapSubmittedSol(0,_gameIndex, msg.sender,true);\n        emit SolutionPlayerLog(_gameIndex, msg.sender, _solutionPlayer);\n   }\n   \n   function submitSolutionCreator (uint256 _gameIndex, string calldata _solutionGame, bytes32 _secret)  external {\n        require (_gameIndex<storagepuzzles.getGamesLength(), \"Game index not correct\");\n        require (storagepuzzles.getGameCreator(_gameIndex)==msg.sender,\"sender must be game creator\");\n        require (storagepuzzles.getCreationMapSubmittedGame(_gameIndex)==true, \"game has not been created\");\n        require (!storagepuzzles.getCreationMapSubmittedSol(_gameIndex)==true, \"solution already submitted\");\n        require (now > storagepuzzles.getGameTimeCreationGame(_gameIndex).add(storagepuzzles.getGameTimeoutResolution(_gameIndex)).add(storagepuzzles.getTimeoutPlayerSolution()) && now<=storagepuzzles.getGameTimeCreationGame(_gameIndex).add(storagepuzzles.getGameTimeoutResolution(_gameIndex)).add(storagepuzzles.getTimeoutPlayerSolution()).add(storagepuzzles.getTimeoutCreatorSolution()), \"timeout for  solution  already activated\");\n        require (bytes(_solutionGame).length!=0, \"string game solution void\");\n\t\trequire (keccak256(abi.encodePacked(_secret,_solutionGame))==storagepuzzles.getGameSolutionHash(_gameIndex), \"solution not compatible with hash\");\n        storagepuzzles.setGameSolution(0,_gameIndex,_solutionGame);\n        storagepuzzles.setCreationMapSubmittedSol(0,_gameIndex,true);\n        emit SolutionCreatorLog (_gameIndex, msg.sender, _solutionGame);\n   }\n   \n    function withdrawResidual (uint256 _gameIndex) external {\n        require (_gameIndex<storagepuzzles.getGamesLength(), \"Game index not correct\");\n        require (storagepuzzles.getGameCreator(_gameIndex)==msg.sender, \"sender must be game creator\");\n        require (now > storagepuzzles.getGameTimePropose(_gameIndex).add(storagepuzzles.getGameTimeoutOffer(_gameIndex)), \"Offer period open yet\");\n        storagepuzzles.transferEth(0,msg.sender,storagepuzzles.getGameResidualJackpot(_gameIndex));\n        storagepuzzles.setGameResidualJackpot (0, _gameIndex, 0); \n        emit ResidualLog (_gameIndex, 0);\n    }\n    \n}",
  "sourcePath": "C:/Users/Alessandro/solidity_work/myproject/contracts/LogicalPuzzlesCreation.sol",
  "compiler": {
    "name": "solc",
    "version": "0.5.0+commit.1d4f565a.Emscripten.clang"
  },
  "schemaVersion": "3.0.0",
  "updatedAt": "2019-10-17T15:30:30.662Z",
  "devdoc": {
    "methods": {}
  },
  "userdoc": {
    "methods": {}
  }
}