{
  "contractName": "LogicalPuzzlesDisputeWithdraw",
  "abi": [
    {
      "constant": true,
      "inputs": [],
      "name": "storagepuzzles",
      "outputs": [
        {
          "name": "",
          "type": "address"
        }
      ],
      "payable": false,
      "stateMutability": "view",
      "type": "function",
      "signature": "0xac578833"
    },
    {
      "inputs": [
        {
          "name": "_storagepuzzles",
          "type": "address"
        }
      ],
      "payable": false,
      "stateMutability": "nonpayable",
      "type": "constructor",
      "signature": "constructor"
    },
    {
      "constant": false,
      "inputs": [
        {
          "name": "_gameIndex",
          "type": "uint256"
        }
      ],
      "name": "timeOutByPlayer",
      "outputs": [],
      "payable": false,
      "stateMutability": "nonpayable",
      "type": "function",
      "signature": "0x55ea95ea"
    },
    {
      "constant": false,
      "inputs": [
        {
          "name": "_gameIndex",
          "type": "uint256"
        },
        {
          "name": "_player",
          "type": "address"
        }
      ],
      "name": "timeOutByCreator",
      "outputs": [],
      "payable": false,
      "stateMutability": "nonpayable",
      "type": "function",
      "signature": "0x9741c151"
    },
    {
      "constant": false,
      "inputs": [
        {
          "name": "_logicalContractIndex",
          "type": "uint256"
        },
        {
          "name": "_gameIndex",
          "type": "uint256"
        },
        {
          "name": "_player",
          "type": "address"
        },
        {
          "name": "_ruling",
          "type": "uint256"
        }
      ],
      "name": "executeRulingExternal",
      "outputs": [],
      "payable": false,
      "stateMutability": "nonpayable",
      "type": "function",
      "signature": "0xfd0d418b"
    },
    {
      "constant": false,
      "inputs": [
        {
          "name": "_gameIndex",
          "type": "uint256"
        }
      ],
      "name": "WithdrawPlayerNoRuling",
      "outputs": [],
      "payable": false,
      "stateMutability": "nonpayable",
      "type": "function",
      "signature": "0xe6759009"
    },
    {
      "constant": false,
      "inputs": [
        {
          "name": "_gameIndex",
          "type": "uint256"
        }
      ],
      "name": "WithdrawCreatorNoRuling",
      "outputs": [],
      "payable": false,
      "stateMutability": "nonpayable",
      "type": "function",
      "signature": "0x2dccb79e"
    },
    {
      "constant": false,
      "inputs": [
        {
          "name": "_gameIndex",
          "type": "uint256"
        },
        {
          "name": "_player",
          "type": "address"
        }
      ],
      "name": "WithdrawCreatorNoRulingSingle",
      "outputs": [],
      "payable": false,
      "stateMutability": "nonpayable",
      "type": "function",
      "signature": "0x79698b7e"
    }
  ],
  "bytecode": "0x608060405234801561001057600080fd5b50604051602080613c7c8339810180604052602081101561003057600080fd5b505160008054600160a060020a03909216600160a060020a0319909216919091179055613c1a806100626000396000f3fe6080604052600436106100695763ffffffff60e060020a6000350416632dccb79e811461006e57806355ea95ea1461009a57806379698b7e146100c45780639741c151146100fd578063ac57883314610136578063e675900914610167578063fd0d418b14610191575b600080fd5b34801561007a57600080fd5b506100986004803603602081101561009157600080fd5b50356101d6565b005b3480156100a657600080fd5b50610098600480360360208110156100bd57600080fd5b5035610716565b3480156100d057600080fd5b50610098600480360360408110156100e757600080fd5b5080359060200135600160a060020a0316610c90565b34801561010957600080fd5b506100986004803603604081101561012057600080fd5b5080359060200135600160a060020a0316611282565b34801561014257600080fd5b5061014b61188d565b60408051600160a060020a039092168252519081900360200190f35b34801561017357600080fd5b506100986004803603602081101561018a57600080fd5b503561189c565b34801561019d57600080fd5b50610098600480360360808110156101b457600080fd5b50803590602081013590600160a060020a036040820135169060600135611d15565b6000809054906101000a9004600160a060020a0316600160a060020a031663654f1ccb6040518163ffffffff1660e060020a02815260040160206040518083038186803b15801561022657600080fd5b505afa15801561023a573d6000803e3d6000fd5b505050506040513d602081101561025057600080fd5b5051811061025d57600080fd5b6000546040805160e160020a633d6a06430281526004810184905290513392600160a060020a031691637ad40c86916024808301926020929190829003018186803b1580156102ab57600080fd5b505afa1580156102bf573d6000803e3d6000fd5b505050506040513d60208110156102d557600080fd5b5051600160a060020a031614610335576040805160e560020a62461bcd02815260206004820152601b60248201527f73656e646572206d7573742062652067616d652063726561746f720000000000604482015290519081900360640190fd5b6000546040805160e160020a633381f6e5028152600481018490529051600160a060020a0390921691636703edca91602480820192602092909190829003018186803b15801561038457600080fd5b505afa158015610398573d6000803e3d6000fd5b505050506040513d60208110156103ae57600080fd5b50511515600114610409576040805160e560020a62461bcd02815260206004820152601960248201527f736f6c7574696f6e2067616d65206e6f74206372656174656400000000000000604482015290519081900360640190fd5b60005b600054604080517ff590901d000000000000000000000000000000000000000000000000000000008152600481018590529051600160a060020a039092169163f590901d91602480820192602092909190829003018186803b15801561047157600080fd5b505afa158015610485573d6000803e3d6000fd5b505050506040513d602081101561049b57600080fd5b5051811015610712576000546040805160e060020a633cbeaa9b02815260048101859052602481018490529051600392600160a060020a031691633cbeaa9b916044808301926020929190829003018186803b1580156104fa57600080fd5b505afa15801561050e573d6000803e3d6000fd5b505050506040513d602081101561052457600080fd5b50511480156106605750600054604080517f7e0b230b000000000000000000000000000000000000000000000000000000008152905161065d92600160a060020a031691637e0b230b916004808301926020929190829003018186803b15801561058d57600080fd5b505afa1580156105a1573d6000803e3d6000fd5b505050506040513d60208110156105b757600080fd5b5051600054604080517f2329c14700000000000000000000000000000000000000000000000000000000815260048101879052602481018690529051600160a060020a0390921691632329c14791604480820192602092909190829003018186803b15801561062557600080fd5b505afa158015610639573d6000803e3d6000fd5b505050506040513d602081101561064f57600080fd5b50519063ffffffff611f4016565b42115b1561070a57600054604080517f4bcdbeea0000000000000000000000000000000000000000000000000000000081526004810185905260248101849052905161070a928592600160a060020a0390911691634bcdbeea91604480820192602092909190829003018186803b1580156106d757600080fd5b505afa1580156106eb573d6000803e3d6000fd5b505050506040513d602081101561070157600080fd5b50516000611f5b565b60010161040c565b5050565b6000809054906101000a9004600160a060020a0316600160a060020a031663654f1ccb6040518163ffffffff1660e060020a02815260040160206040518083038186803b15801561076657600080fd5b505afa15801561077a573d6000803e3d6000fd5b505050506040513d602081101561079057600080fd5b505181106107e8576040805160e560020a62461bcd02815260206004820152601660248201527f47616d6520696e646578206e6f7420636f727265637400000000000000000000604482015290519081900360640190fd5b6000546040805160e160020a633381f6e5028152600481018490529051600160a060020a0390921691636703edca91602480820192602092909190829003018186803b15801561083757600080fd5b505afa15801561084b573d6000803e3d6000fd5b505050506040513d602081101561086157600080fd5b505115156001146108bc576040805160e560020a62461bcd02815260206004820152601060248201527f67616d65206e6f74206372656174656400000000000000000000000000000000604482015290519081900360640190fd5b6000546040805160e060020a634c206059028152600481018490523360248201529051600160a060020a0390921691634c20605991604480820192602092909190829003018186803b15801561091157600080fd5b505afa158015610925573d6000803e3d6000fd5b505050506040513d602081101561093b57600080fd5b50511515600114610996576040805160e560020a62461bcd02815260206004820152601660248201527f736f6c7574696f6e206e6f74207375626d697474656400000000000000000000604482015290519081900360640190fd5b600080546040805160e060020a630781e9bf028152600481018590523360248201529051600160a060020a0390921691630781e9bf91604480820192602092909190829003018186803b1580156109ec57600080fd5b505afa158015610a00573d6000803e3d6000fd5b505050506040513d6020811015610a1657600080fd5b5051905060016000546040805160e060020a633cbeaa9b02815260048101869052602481018590529051600160a060020a0390921691633cbeaa9b91604480820192602092909190829003018186803b158015610a7257600080fd5b505afa158015610a86573d6000803e3d6000fd5b505050506040513d6020811015610a9c57600080fd5b505114610b19576040805160e560020a62461bcd02815260206004820152602e60248201527f546865207472616e73616374696f6e206973206e6f742077616974696e67206f60448201527f6e207468652063726561746f722e000000000000000000000000000000000000606482015290519081900360840190fd5b6000809054906101000a9004600160a060020a0316600160a060020a031663f81f9f336040518163ffffffff1660e060020a02815260040160206040518083038186803b158015610b6957600080fd5b505afa158015610b7d573d6000803e3d6000fd5b505050506040513d6020811015610b9357600080fd5b5051600054604080517fe7f48a2800000000000000000000000000000000000000000000000000000000815260048101869052602481018590529051600160a060020a039092169163e7f48a2891604480820192602092909190829003018186803b158015610c0157600080fd5b505afa158015610c15573d6000803e3d6000fd5b505050506040513d6020811015610c2b57600080fd5b5051420311610c84576040805160e560020a62461bcd02815260206004820181905260248201527f54696d656f75742074696d6520686173206e6f7420706173736564207965742e604482015290519081900360640190fd5b61071282336001611f5b565b6000809054906101000a9004600160a060020a0316600160a060020a031663654f1ccb6040518163ffffffff1660e060020a02815260040160206040518083038186803b158015610ce057600080fd5b505afa158015610cf4573d6000803e3d6000fd5b505050506040513d6020811015610d0a57600080fd5b50518210610d1757600080fd5b6000546040805160e160020a633d6a06430281526004810185905290513392600160a060020a031691637ad40c86916024808301926020929190829003018186803b158015610d6557600080fd5b505afa158015610d79573d6000803e3d6000fd5b505050506040513d6020811015610d8f57600080fd5b5051600160a060020a031614610def576040805160e560020a62461bcd02815260206004820152601b60248201527f73656e646572206d7573742062652067616d652063726561746f720000000000604482015290519081900360640190fd5b6000546040805160e160020a633381f6e5028152600481018590529051600160a060020a0390921691636703edca91602480820192602092909190829003018186803b158015610e3e57600080fd5b505afa158015610e52573d6000803e3d6000fd5b505050506040513d6020811015610e6857600080fd5b50511515600114610ec3576040805160e560020a62461bcd02815260206004820152601960248201527f736f6c7574696f6e2067616d65206e6f74206372656174656400000000000000604482015290519081900360640190fd5b6000546040805160e060020a634c20605902815260048101859052600160a060020a03848116602483015291519190921691634c206059916044808301926020929190829003018186803b158015610f1a57600080fd5b505afa158015610f2e573d6000803e3d6000fd5b505050506040513d6020811015610f4457600080fd5b50511515600114610f9f576040805160e560020a62461bcd02815260206004820152601d60248201527f736f6c7574696f6e20706c61796572206e6f74207375626d6974746564000000604482015290519081900360640190fd5b600080546040805160e060020a630781e9bf02815260048101869052600160a060020a03858116602483015291519190921691630781e9bf916044808301926020929190829003018186803b158015610ff757600080fd5b505afa15801561100b573d6000803e3d6000fd5b505050506040513d602081101561102157600080fd5b5051905060036000546040805160e060020a633cbeaa9b02815260048101879052602481018590529051600160a060020a0390921691633cbeaa9b91604480820192602092909190829003018186803b15801561107d57600080fd5b505afa158015611091573d6000803e3d6000fd5b505050506040513d60208110156110a757600080fd5b505114611124576040805160e560020a62461bcd02815260206004820152602660248201527f54686520646973707574652068617320616c7265616479206265656e2072657360448201527f6f6c7665642e0000000000000000000000000000000000000000000000000000606482015290519081900360840190fd5b600054604080517f7e0b230b000000000000000000000000000000000000000000000000000000008152905161121b92600160a060020a031691637e0b230b916004808301926020929190829003018186803b15801561118357600080fd5b505afa158015611197573d6000803e3d6000fd5b505050506040513d60208110156111ad57600080fd5b5051600054604080517f2329c14700000000000000000000000000000000000000000000000000000000815260048101889052602481018690529051600160a060020a0390921691632329c14791604480820192602092909190829003018186803b15801561062557600080fd5b4211611271576040805160e560020a62461bcd02815260206004820152601460248201527f52756c696e672079657420616374697661746564000000000000000000000000604482015290519081900360640190fd5b61127d83836000611f5b565b505050565b6000809054906101000a9004600160a060020a0316600160a060020a031663654f1ccb6040518163ffffffff1660e060020a02815260040160206040518083038186803b1580156112d257600080fd5b505afa1580156112e6573d6000803e3d6000fd5b505050506040513d60208110156112fc57600080fd5b5051821061130957600080fd5b6000546040805160e160020a633381f6e5028152600481018590529051600160a060020a0390921691636703edca91602480820192602092909190829003018186803b15801561135857600080fd5b505afa15801561136c573d6000803e3d6000fd5b505050506040513d602081101561138257600080fd5b505115156001146113dd576040805160e560020a62461bcd02815260206004820152601b60248201527f736f6c7574696f6e2067616d65206e6f74207375626d69747465640000000000604482015290519081900360640190fd5b6000546040805160e160020a633d6a06430281526004810185905290513392600160a060020a031691637ad40c86916024808301926020929190829003018186803b15801561142b57600080fd5b505afa15801561143f573d6000803e3d6000fd5b505050506040513d602081101561145557600080fd5b5051600160a060020a0316146114b5576040805160e560020a62461bcd02815260206004820152601b60248201527f73656e646572206d7573742062652067616d652063726561746f720000000000604482015290519081900360640190fd5b6000546040805160e060020a634c20605902815260048101859052600160a060020a03848116602483015291519190921691634c206059916044808301926020929190829003018186803b15801561150c57600080fd5b505afa158015611520573d6000803e3d6000fd5b505050506040513d602081101561153657600080fd5b50511515600114611591576040805160e560020a62461bcd02815260206004820152601d60248201527f736f6c7574696f6e20706c61796572206e6f74207375626d6974746564000000604482015290519081900360640190fd5b600080546040805160e060020a630781e9bf02815260048101869052600160a060020a03858116602483015291519190921691630781e9bf916044808301926020929190829003018186803b1580156115e957600080fd5b505afa1580156115fd573d6000803e3d6000fd5b505050506040513d602081101561161357600080fd5b5051905060026000546040805160e060020a633cbeaa9b02815260048101879052602481018590529051600160a060020a0390921691633cbeaa9b91604480820192602092909190829003018186803b15801561166f57600080fd5b505afa158015611683573d6000803e3d6000fd5b505050506040513d602081101561169957600080fd5b505114611716576040805160e560020a62461bcd02815260206004820152602d60248201527f546865207472616e73616374696f6e206973206e6f742077616974696e67206f60448201527f6e2074686520706c617965722e00000000000000000000000000000000000000606482015290519081900360840190fd5b6000809054906101000a9004600160a060020a0316600160a060020a031663f81f9f336040518163ffffffff1660e060020a02815260040160206040518083038186803b15801561176657600080fd5b505afa15801561177a573d6000803e3d6000fd5b505050506040513d602081101561179057600080fd5b5051600054604080517fe7f48a2800000000000000000000000000000000000000000000000000000000815260048101879052602481018590529051600160a060020a039092169163e7f48a2891604480820192602092909190829003018186803b1580156117fe57600080fd5b505afa158015611812573d6000803e3d6000fd5b505050506040513d602081101561182857600080fd5b5051420311611881576040805160e560020a62461bcd02815260206004820181905260248201527f54696d656f75742074696d6520686173206e6f7420706173736564207965742e604482015290519081900360640190fd5b61127d83836002611f5b565b600054600160a060020a031681565b6000809054906101000a9004600160a060020a0316600160a060020a031663654f1ccb6040518163ffffffff1660e060020a02815260040160206040518083038186803b1580156118ec57600080fd5b505afa158015611900573d6000803e3d6000fd5b505050506040513d602081101561191657600080fd5b5051811061192357600080fd5b6000546040805160e160020a633381f6e5028152600481018490529051600160a060020a0390921691636703edca91602480820192602092909190829003018186803b15801561197257600080fd5b505afa158015611986573d6000803e3d6000fd5b505050506040513d602081101561199c57600080fd5b505115156001146119f7576040805160e560020a62461bcd02815260206004820152601960248201527f736f6c7574696f6e2067616d65206e6f74206372656174656400000000000000604482015290519081900360640190fd5b6000546040805160e060020a634c206059028152600481018490523360248201529051600160a060020a0390921691634c20605991604480820192602092909190829003018186803b158015611a4c57600080fd5b505afa158015611a60573d6000803e3d6000fd5b505050506040513d6020811015611a7657600080fd5b50511515600114611ad1576040805160e560020a62461bcd02815260206004820152601d60248201527f736f6c7574696f6e20706c61796572206e6f74207375626d6974746564000000604482015290519081900360640190fd5b600080546040805160e060020a630781e9bf028152600481018590523360248201529051600160a060020a0390921691630781e9bf91604480820192602092909190829003018186803b158015611b2757600080fd5b505afa158015611b3b573d6000803e3d6000fd5b505050506040513d6020811015611b5157600080fd5b5051905060036000546040805160e060020a633cbeaa9b02815260048101869052602481018590529051600160a060020a0390921691633cbeaa9b91604480820192602092909190829003018186803b158015611bad57600080fd5b505afa158015611bc1573d6000803e3d6000fd5b505050506040513d6020811015611bd757600080fd5b505114611c54576040805160e560020a62461bcd02815260206004820152602660248201527f54686520646973707574652068617320616c7265616479206265656e2072657360448201527f6f6c7665642e0000000000000000000000000000000000000000000000000000606482015290519081900360840190fd5b600054604080517f7e0b230b0000000000000000000000000000000000000000000000000000000081529051611cb392600160a060020a031691637e0b230b916004808301926020929190829003018186803b15801561058d57600080fd5b4211611d09576040805160e560020a62461bcd02815260206004820152601460248201527f52756c696e672079657420616374697661746564000000000000000000000000604482015290519081900360640190fd5b61071282336000611f5b565b600054604080517fbc882a8f00000000000000000000000000000000000000000000000000000000815290518692600160a060020a03169163bc882a8f916004808301926020929190829003018186803b158015611d7257600080fd5b505afa158015611d86573d6000803e3d6000fd5b505050506040513d6020811015611d9c57600080fd5b50518110611e1a576040805160e560020a62461bcd02815260206004820152602260248201527f4c6f676963616c20636f6e747261637420696e646578206e6f7420707265736560448201527f6e74000000000000000000000000000000000000000000000000000000000000606482015290519081900360840190fd5b600054604080517fbb3968330000000000000000000000000000000000000000000000000000000081526004810184905290513392600160a060020a03169163bb396833916024808301926020929190829003018186803b158015611e7e57600080fd5b505afa158015611e92573d6000803e3d6000fd5b505050506040513d6020811015611ea857600080fd5b5051600160a060020a031614611f2e576040805160e560020a62461bcd02815260206004820152602660248201527f53656e64657220646966666572656e742066726f6d206c6f676963616c20636f60448201527f6e74726163740000000000000000000000000000000000000000000000000000606482015290519081900360840190fd5b611f39848484611f5b565b5050505050565b600082820183811015611f5257600080fd5b90505b92915050565b6002811115611fb4576040805160e560020a62461bcd02815260206004820152600f60248201527f496e76616c69642072756c696e672e0000000000000000000000000000000000604482015290519081900360640190fd5b600080546040805160e060020a630781e9bf02815260048101879052600160a060020a03868116602483015291519190921691630781e9bf916044808301926020929190829003018186803b15801561200c57600080fd5b505afa158015612020573d6000803e3d6000fd5b505050506040513d602081101561203657600080fd5b505160408051600880825261012082019092529192506060919060208201610100803883395050600054604080517f187c6eb5000000000000000000000000000000000000000000000000000000008152600481018a9052602481018790529051939450600160a060020a039091169263187c6eb592506044808301926020929190829003018186803b1580156120cc57600080fd5b505afa1580156120e0573d6000803e3d6000fd5b505050506040513d60208110156120f657600080fd5b505181518290600090811061210757fe5b6020908102909101810191909152600054604080517fd66691ab00000000000000000000000000000000000000000000000000000000815260048101899052602481018690529051600160a060020a039092169263d66691ab92604480840193829003018186803b15801561217b57600080fd5b505afa15801561218f573d6000803e3d6000fd5b505050506040513d60208110156121a557600080fd5b50518151829060009081106121b657fe5b90602001906020020151038160018151811015156121d057fe5b602090810290910101528051819060019081106121e957fe5b9060200190602002015181600081518110151561220257fe5b906020019060200201510381600281518110151561221c57fe5b6020908102909101810191909152600054604080517f63d28fe2000000000000000000000000000000000000000000000000000000008152600481018990529051600160a060020a03909216926363d28fe292602480840193829003018186803b15801561228957600080fd5b505afa15801561229d573d6000803e3d6000fd5b505050506040513d60208110156122b357600080fd5b505181516122e190606490849060009081106122cb57fe5b602090810290910101519063ffffffff613b6316565b8115156122ea57fe5b048160038151811015156122fa57fe5b602090810290910101526001600054604080517f2a02e6dc00000000000000000000000000000000000000000000000000000000815260048101899052602481018690529051600160a060020a0390921691632a02e6dc91604480820192602092909190829003018186803b15801561237257600080fd5b505afa158015612386573d6000803e3d6000fd5b505050506040513d602081101561239c57600080fd5b5051141561245657600054604080517fd16cb16500000000000000000000000000000000000000000000000000000000815260048101889052602481018590529051600160a060020a039092169163d16cb16591604480820192602092909190829003018186803b15801561241057600080fd5b505afa158015612424573d6000803e3d6000fd5b505050506040513d602081101561243a57600080fd5b505181518290600490811061244b57fe5b602090810290910101525b600054604080517f2a02e6dc00000000000000000000000000000000000000000000000000000000815260048101889052602481018590529051600292600160a060020a031691632a02e6dc916044808301926020929190829003018186803b1580156124c257600080fd5b505afa1580156124d6573d6000803e3d6000fd5b505050506040513d60208110156124ec57600080fd5b505114156125a657600054604080517fd16cb16500000000000000000000000000000000000000000000000000000000815260048101889052602481018590529051600160a060020a039092169163d16cb16591604480820192602092909190829003018186803b15801561256057600080fd5b505afa158015612574573d6000803e3d6000fd5b505050506040513d602081101561258a57600080fd5b505181518290600590811061259b57fe5b602090810290910101525b600054604080517fdb509fd800000000000000000000000000000000000000000000000000000000815260048101889052602481018590529051600160a060020a039092169163db509fd891604480820192602092909190829003018186803b15801561261257600080fd5b505afa158015612626573d6000803e3d6000fd5b505050506040513d602081101561263c57600080fd5b505181518290600690811061264d57fe5b6020908102909101810191909152600054604080517fd5469b9700000000000000000000000000000000000000000000000000000000815260048101899052602481018690529051600160a060020a039092169263d5469b9792604480840193829003018186803b1580156126c157600080fd5b505afa1580156126d5573d6000803e3d6000fd5b505050506040513d60208110156126eb57600080fd5b50518151829060079081106126fc57fe5b602090810290910181019190915260008054604080517fbb3968330000000000000000000000000000000000000000000000000000000081526001600482015290519293600160a060020a039092169263bb39683392602480840193919291829003018186803b15801561276f57600080fd5b505afa158015612783573d6000803e3d6000fd5b505050506040513d602081101561279957600080fd5b5051600080546040805160e160020a633d6a0643028152600481018b905290519394509192600160a060020a0390911691637ad40c86916024808301926020929190829003018186803b1580156127ef57600080fd5b505afa158015612803573d6000803e3d6000fd5b505050506040513d602081101561281957600080fd5b50516000548451919250600160a060020a03169063e10d2ef3906004906128a1908790600290811061284757fe5b906020019060200201516000809054906101000a9004600160a060020a0316600160a060020a031663d4c30ceb6040518163ffffffff1660e060020a02815260040160206040518083038186803b15801561062557600080fd5b6040518363ffffffff1660e060020a0281526004018083815260200182815260200192505050600060405180830381600087803b1580156128e157600080fd5b505af11580156128f5573d6000803e3d6000fd5b505050506001851415612ffe576000548351600160a060020a039091169063f524f1469060049089908790600690811061292b57fe5b9060200190602002015187600181518110151561294457fe5b90602001906020020151016040518463ffffffff1660e060020a0281526004018084815260200183600160a060020a0316600160a060020a031681526020018281526020019350505050600060405180830381600087803b1580156129a857600080fd5b505af11580156129bc573d6000803e3d6000fd5b50600192506129c9915050565b6000546040805160e060020a633cbeaa9b028152600481018b9052602481018890529051600160a060020a0390921691633cbeaa9b91604480820192602092909190829003018186803b158015612a1f57600080fd5b505afa158015612a33573d6000803e3d6000fd5b505050506040513d6020811015612a4957600080fd5b50511415612bc5576000548351600160a060020a039091169063f524f14690600490849087906007908110612a7a57fe5b906020019060200201516040518463ffffffff1660e060020a0281526004018084815260200183600160a060020a0316600160a060020a031681526020018281526020019350505050600060405180830381600087803b158015612add57600080fd5b505af1158015612af1573d6000803e3d6000fd5b5050505081600160a060020a031663d3dcdad5600489846000886003815181101515612b1957fe5b90602001906020020151896000815181101515612b3257fe5b90602001906020020151036040518663ffffffff1660e060020a0281526004018086815260200185815260200184600160a060020a0316600160a060020a031681526020018315151515815260200182815260200195505050505050600060405180830381600087803b158015612ba857600080fd5b505af1158015612bbc573d6000803e3d6000fd5b50505050612d4c565b81600160a060020a031663d3dcdad56004896000809054906101000a9004600160a060020a0316600160a060020a0316637ad40c868c6040518263ffffffff1660e060020a0281526004018082815260200191505060206040518083038186803b158015612c3257600080fd5b505afa158015612c46573d6000803e3d6000fd5b505050506040513d6020811015612c5c57600080fd5b5051875160009089906005908110612c7057fe5b90602001906020020151896007815181101515612c8957fe5b906020019060200201518a6003815181101515612ca257fe5b906020019060200201518b6000815181101515612cbb57fe5b906020019060200201510301016040518663ffffffff1660e060020a0281526004018086815260200185815260200184600160a060020a0316600160a060020a031681526020018315151515815260200182815260200195505050505050600060405180830381600087803b158015612d3357600080fd5b505af1158015612d47573d6000803e3d6000fd5b505050505b826004815181101515612d5b57fe5b90602001906020020151612da6846003815181101515612d7757fe5b90602001906020020151856001815181101515612d9057fe5b602090810290910101519063ffffffff613b8e16565b1115612e965781600160a060020a031663d3dcdad5600489896001886004815181101515612dd057fe5b90602001906020020151896003815181101515612de957fe5b906020019060200201518a6001815181101515612e0257fe5b9060200190602002015103036040518663ffffffff1660e060020a0281526004018086815260200185815260200184600160a060020a0316600160a060020a031681526020018315151515815260200182815260200195505050505050600060405180830381600087803b158015612e7957600080fd5b505af1158015612e8d573d6000803e3d6000fd5b50505050612f7c565b81600160a060020a031663d3dcdad5600489896000886003815181101515612eba57fe5b90602001906020020151896001815181101515612ed357fe5b906020019060200201518a6004815181101515612eec57fe5b9060200190602002015103016040518663ffffffff1660e060020a0281526004018086815260200185815260200184600160a060020a0316600160a060020a031681526020018315151515815260200182815260200195505050505050600060405180830381600087803b158015612f6357600080fd5b505af1158015612f77573d6000803e3d6000fd5b505050505b600054600160a060020a0316639af4a37460048987825b6040518563ffffffff1660e060020a02815260040180858152602001848152602001838152602001828152602001945050505050600060405180830381600087803b158015612fe157600080fd5b505af1158015612ff5573d6000803e3d6000fd5b50505050613b5a565b60028514156136cf576000548351600160a060020a039091169063f524f1469060049084908790600790811061303057fe5b9060200190602002015187600181518110151561304957fe5b90602001906020020151016040518463ffffffff1660e060020a0281526004018084815260200183600160a060020a0316600160a060020a031681526020018281526020019350505050600060405180830381600087803b1580156130ad57600080fd5b505af11580156130c1573d6000803e3d6000fd5b50600292506130ce915050565b6000546040805160e060020a633cbeaa9b028152600481018b9052602481018890529051600160a060020a0390921691633cbeaa9b91604480820192602092909190829003018186803b15801561312457600080fd5b505afa158015613138573d6000803e3d6000fd5b505050506040513d602081101561314e57600080fd5b505114156132a5576000548351600160a060020a039091169063f524f1469060049089908790600690811061317f57fe5b906020019060200201516040518463ffffffff1660e060020a0281526004018084815260200183600160a060020a0316600160a060020a031681526020018281526020019350505050600060405180830381600087803b1580156131e257600080fd5b505af11580156131f6573d6000803e3d6000fd5b5050505081600160a060020a031663d3dcdad560048989600088600381518110151561321e57fe5b602090810290910101516040805160e060020a63ffffffff891602815260048101969096526024860194909452600160a060020a0390921660448501521515606484015260848301525160a480830192600092919082900301818387803b15801561328857600080fd5b505af115801561329c573d6000803e3d6000fd5b5050505061338b565b81600160a060020a031663d3dcdad56004898960008860048151811015156132c957fe5b906020019060200201518960068151811015156132e257fe5b906020019060200201518a60038151811015156132fb57fe5b9060200190602002015101016040518663ffffffff1660e060020a0281526004018086815260200185815260200184600160a060020a0316600160a060020a031681526020018315151515815260200182815260200195505050505050600060405180830381600087803b15801561337257600080fd5b505af1158015613386573d6000803e3d6000fd5b505050505b82600581518110151561339a57fe5b906020019060200201516133cf8460028151811015156133b657fe5b90602001906020020151856003815181101515612d9057fe5b11156135465781600160a060020a031663d3dcdad56004896000809054906101000a9004600160a060020a0316600160a060020a0316637ad40c868c6040518263ffffffff1660e060020a0281526004018082815260200191505060206040518083038186803b15801561344257600080fd5b505afa158015613456573d6000803e3d6000fd5b505050506040513d602081101561346c57600080fd5b505187516001908990600590811061348057fe5b9060200190602002015189600281518110151561349957fe5b906020019060200201518a60038151811015156134b257fe5b9060200190602002015103036040518663ffffffff1660e060020a0281526004018086815260200185815260200184600160a060020a0316600160a060020a031681526020018315151515815260200182815260200195505050505050600060405180830381600087803b15801561352957600080fd5b505af115801561353d573d6000803e3d6000fd5b505050506136b3565b81600160a060020a031663d3dcdad56004896000809054906101000a9004600160a060020a0316600160a060020a0316637ad40c868c6040518263ffffffff1660e060020a0281526004018082815260200191505060206040518083038186803b1580156135b357600080fd5b505afa1580156135c7573d6000803e3d6000fd5b505050506040513d60208110156135dd57600080fd5b50518751600090899060029081106135f157fe5b9060200190602002015189600381518110151561360a57fe5b906020019060200201518a600581518110151561362357fe5b9060200190602002015103016040518663ffffffff1660e060020a0281526004018086815260200185815260200184600160a060020a0316600160a060020a031681526020018315151515815260200182815260200195505050505050600060405180830381600087803b15801561369a57600080fd5b505af11580156136ae573d6000803e3d6000fd5b505050505b600054600160a060020a0316639af4a374600489876005612f93565b600061372a60028560028151811015156136e557fe5b906020019060200201518115156136f857fe5b04600286600681518110151561370a57fe5b9060200190602002015181151561371d57fe5b049063ffffffff613b8e16565b84600381518110151561373957fe5b906020019060200201510190506000613781600286600281518110151561375c57fe5b9060200190602002015181151561376f57fe5b04600287600781518110151561370a57fe5b85600381518110151561379057fe5b906020019060200201518660008151811015156137a957fe5b6020908102909101015160008054604080517ff524f146000000000000000000000000000000000000000000000000000000008152600481810152600160a060020a038f81166024830152604482018a9052915195909403959095019550939093169263f524f1469260648084019382900301818387803b15801561382d57600080fd5b505af1158015613841573d6000803e3d6000fd5b505060008054604080517ff524f146000000000000000000000000000000000000000000000000000000008152600481810152600160a060020a03898116602483015260448201889052915191909216945063f524f14693506064808301939282900301818387803b1580156138b657600080fd5b505af11580156138ca573d6000803e3d6000fd5b5050505083600160a060020a031663d3dcdad560048b8660008a60058151811015156138f257fe5b9060200190602002015160028c600281518110151561390d57fe5b9060200190602002015181151561392057fe5b0460028d600781518110151561393257fe5b9060200190602002015181151561394557fe5b0401016040518663ffffffff1660e060020a0281526004018086815260200185815260200184600160a060020a0316600160a060020a031681526020018315151515815260200182815260200195505050505050600060405180830381600087803b1580156139b357600080fd5b505af11580156139c7573d6000803e3d6000fd5b5050505083600160a060020a031663d3dcdad560048b8b60008a60048151811015156139ef57fe5b9060200190602002015160028c6002815181101515613a0a57fe5b90602001906020020151811515613a1d57fe5b0460028d6006815181101515613a2f57fe5b90602001906020020151811515613a4257fe5b0401016040518663ffffffff1660e060020a0281526004018086815260200185815260200184600160a060020a0316600160a060020a031681526020018315151515815260200182815260200195505050505050600060405180830381600087803b158015613ab057600080fd5b505af1158015613ac4573d6000803e3d6000fd5b505060008054604080517f9af4a374000000000000000000000000000000000000000000000000000000008152600481810152602481018f9052604481018c9052600660648201529051600160a060020a039092169450639af4a3749350608480820193929182900301818387803b158015613b3f57600080fd5b505af1158015613b53573d6000803e3d6000fd5b5050505050505b50505050505050565b6000821515613b7457506000611f55565b828202828482811515613b8357fe5b0414611f5257600080fd5b600082821115613be8576040805160e560020a62461bcd02815260206004820152601960248201527f737562206f7065726174696f6e206e6f7420636f727265637400000000000000604482015290519081900360640190fd5b5090039056fea165627a7a723058206df34d4c0f8e8611faaa42806c7b098d9c6c238140c047eaa5bf19f1df4d330d0029",
  "source": "pragma solidity ^0.5.0;\r\n\r\nlibrary SafeMath {\r\n    /**\r\n     * @dev Multiplies two unsigned integers, reverts on overflow.\r\n     */\r\n    function mul(uint256 a, uint256 b) internal pure returns (uint256) {\r\n        // Gas optimization: this is cheaper than requiring 'a' not being zero, but the\r\n        // benefit is lost if 'b' is also tested.\r\n        // See: https://github.com/OpenZeppelin/openzeppelin-solidity/pull/522\r\n        if (a == 0) {\r\n            return 0;\r\n        }\r\n\r\n        uint256 c = a * b;\r\n        require(c / a == b);\r\n\r\n        return c;\r\n    }\r\n\r\n    /**\r\n     * @dev Integer division of two unsigned integers truncating the quotient, reverts on division by zero.\r\n     */\r\n    function div(uint256 a, uint256 b) internal pure returns (uint256) {\r\n        // Solidity only automatically asserts when dividing by 0\r\n        require(b > 0);\r\n        uint256 c = a / b;\r\n        // assert(a == b * c + a % b); // There is no case in which this doesn't hold\r\n\r\n        return c;\r\n    }\r\n\r\n    /**\r\n     * @dev Subtracts two unsigned integers, reverts on overflow (i.e. if subtrahend is greater than minuend).\r\n     */\r\n    function sub(uint256 a, uint256 b) internal pure returns (uint256) {\r\n        require(b <= a, \"sub operation not correct\");\r\n        uint256 c = a - b;\r\n\r\n        return c;\r\n    }\r\n\r\n    /**\r\n     * @dev Adds two unsigned integers, reverts on overflow.\r\n     */\r\n    function add(uint256 a, uint256 b) internal pure returns (uint256) {\r\n        uint256 c = a + b;\r\n        require(c >= a);\r\n\r\n        return c;\r\n    }\r\n\r\n    /**\r\n     * @dev Divides two unsigned integers and returns the remainder (unsigned integer modulo),\r\n     * reverts when dividing by zero.\r\n     */\r\n    function mod(uint256 a, uint256 b) internal pure returns (uint256) {\r\n        require(b != 0);\r\n        return a % b;\r\n    }\r\n}\r\n\r\ncontract StoragePuzzlesAbstract  {\r\n    \r\n    function AddGamesType (bool _gameActivated)  external;\r\n    \r\n    function SetGameType (bool _gameActivated, uint256 _gameTypeIndex)  external;\r\n    \r\n    function GetGameType (uint256 _gameTypeIndex) external view returns (bool);\r\n    \r\n    function GetGameTypeLength()  external view returns (uint256);\r\n    \r\n    function setMinimalJackpot (uint256 _minimalJackpot)  external;\r\n    \r\n    function getMinimalJackpot() external view returns(uint256);\r\n    \r\n    function setMaxTimeoutCreation (uint256 _maxTimeoutCreation)   external;\r\n    \r\n    function getMaxTimeoutCreation () external view returns(uint256);\r\n    \r\n    function setTimeoutPlayerSolution (uint256 _timeoutPlayerSolution)  external;\r\n    \r\n    function getTimeoutPlayerSolution () external view returns(uint256);\r\n    \r\n    function setTimeoutCreatorSolution (uint256 _timeoutCreatorSolution) external;\r\n    \r\n    function getTimeoutCreatorSolution () external view returns(uint256);\r\n        \r\n    function setTimeoutDisp (uint256 _timeoutDisp)  external;\r\n    \r\n    function getTimeoutDisp () external view returns(uint256);\r\n    \r\n    function setTimeoutRuling (uint256 _timeoutRuling)  external;\r\n    \r\n    function getTimeoutRuling () external view returns(uint256);\r\n    \r\n    function setFeePercent (uint256 _feePercent)  external;\r\n    \r\n    function getFeePercent() external view returns(uint256);\r\n \r\n    function setArbitrator (address _arbitratorAddress, bytes calldata _arbitratorExtraData)  external;\r\n    \r\n    function getArbitratorAddress() external view returns(address);\r\n    \r\n    function getarbitratorExtraData() external view returns(bytes memory);\r\n    \r\n    function setFeeTimeout(uint256 _feeTimeout)  external;\r\n    \r\n    function getFeeTimeout() external view returns(uint256);\r\n    \r\n    function addLogicalContract (address _logicalContract)  external;\r\n    \r\n    function setLogicalContract (address _logicalContract, uint256 _logicalContractIndex)  external;\r\n    \r\n    function getLogicalContract (uint256 _logicalContractIndex) external view returns(address);\r\n    \r\n    function getLogicalContractLength () external view returns(uint256);\r\n    \r\n    function withdrawFee (address payable _destination, uint256 _amount)  external;\r\n    \r\n\r\n    \r\n    \r\n    function addGame (uint256 _logicalContractIndex, uint32  _gameType,  address payable _creator, uint256 _residualJackpot,  uint256[3] calldata _gameLimits, uint256[2] calldata _timeouts, uint256[2] calldata _times, uint256 _quote, bytes32 _solutionHash, string calldata _solution) external;\r\n      \r\n    function setGameType (uint256 _logicalContractIndex, uint256 _gameIndex, uint32 _gameType) external;\r\n     \r\n    function setGameCreator (uint256 _logicalContractIndex, uint256 _gameIndex, address payable _creator)  external ;\r\n  \r\n    function setGameResidualJackpot (uint256 _logicalContractIndex, uint256 _gameIndex, uint256 _residualJackpot)  external ;\r\n    \r\n    function setGameMaxOffer (uint256 _logicalContractIndex, uint256 _gameIndex, uint256 _maxOffer)  external;\r\n    \r\n    function setGameMinOffer (uint256 _logicalContractIndex, uint256 _gameIndex, uint256 _minOffer)  external;\r\n    \r\n    function setGameMaxOfferNumber (uint256 _logicalContractIndex, uint256 _gameIndex, uint256 _maxOfferNumber)  external;\r\n    \r\n    function setTimePropose (uint256 _logicalContractIndex, uint256 _gameIndex, uint256 _timePropose)  external;\r\n    \r\n    function setGametimeoutOffer(uint256 _logicalContractIndex, uint256 _gameIndex, uint256 _timeoutOffer)  external;\r\n    \r\n    function setGameTimeCreationGame(uint256 _logicalContractIndex, uint256 _gameIndex, uint256 _timeCreationGame)  external;\r\n    \r\n    function setGameTimeoutResolution(uint256 _logicalContractIndex, uint256 _gameIndex, uint256 _timeoutResolution)  external;\r\n    \r\n    function setGameQuote(uint256 _logicalContractIndex, uint256 _gameIndex, uint256 _quote)  external;\r\n    \r\n    function setGameSolutionHash(uint256 _logicalContractIndex, uint256 _gameIndex, bytes32 _solutionHash)  external;\r\n    \r\n    function setGameSolution(uint256 _logicalContractIndex, uint256 _gameIndex, string calldata _solution)  external;\r\n    \r\n    function getGameType (uint256 _gameIndex) external view returns(uint32);\r\n    \r\n    function getGameCreator (uint256 _gameIndex) external view returns(address payable);\r\n    \r\n    function getGameResidualJackpot (uint256 _gameIndex) external view returns(uint256);\r\n    \r\n    function getGameMaxOffer(uint256 _gameIndex) external view returns(uint256);\r\n    \r\n    function getGameMinOffer (uint256 _gameIndex) external view returns(uint256);\r\n    \r\n    function getGameMaxOfferNumber (uint256 _gameIndex) external view returns(uint256);\r\n    \r\n    function getGameTimePropose (uint256 _gameIndex) external view returns(uint256);\r\n    \r\n    function getGameTimeoutOffer (uint256 _gameIndex) external view returns(uint256);\r\n    \r\n    function getGameTimeCreationGame(uint256 _gameIndex) external view returns(uint256);\r\n    \r\n    function getGameTimeoutResolution (uint256 _gameIndex) external view returns(uint256);\r\n    \r\n    function getGameQuote (uint256 _gameIndex) external view returns(uint256);\r\n    \r\n    function getGameSolutionHash (uint256 _gameIndex) external view returns(bytes32);\r\n    \r\n    function getGameSolution (uint256 _gameIndex) external view returns(string memory);\r\n    \r\n    function getGamesLength ()  external view returns(uint256);\r\n    \r\n\r\n   \r\n    \r\n    \r\n    function setGameMetadata (uint256 _logicalContractIndex, uint256 _gameIndex, string calldata _gameMetadata)  external;\r\n    \r\n    function getGameMetadata(uint256 _gameIndex) external view returns(string memory);\r\n   \r\n    \r\n    \r\n\r\n    \r\n    \r\n    function addOffer (uint256 _logicalContractIndex, uint256 _gameIndex, address payable _player, uint256 _expectedwin, uint256 _serviceFee, bytes32 _solutionHash, string calldata _solutionPlayer, uint256 _lastInteraction, uint256 _solutionResult, uint256[6] calldata _disputeFields)  external;\r\n    \r\n    function setOfferPlayer (uint256 _logicalContractIndex, uint256 _gameIndex, uint256 _offerIndex, address payable _player) external;\r\n    \r\n    function setOfferExpectedWin (uint256 _logicalContractIndex, uint256 _gameIndex, uint256 _offerIndex, uint256 _expectedWin) external;\r\n    \r\n    function setOfferServiceFee (uint256 _logicalContractIndex, uint256 _gameIndex, uint256 _offerIndex, uint256 _serviceFee)  external;\r\n    \r\n    function setOfferSolutionHash (uint256 _logicalContractIndex, uint256 _gameIndex, uint256 _offerIndex, bytes32 _solutionHash) external;\r\n    \r\n    function setOfferSolutionPlayer(uint256 _logicalContractIndex, uint256 _gameIndex, uint256 _offerIndex, string calldata _solutionPlayer)   external;\r\n    \r\n    function setOfferLastInteraction(uint256 _logicalContractIndex, uint256 _gameIndex, uint256 _offerIndex, uint256 _lastInteraction) external;\r\n    \r\n    function setOfferSolutionResult(uint256 _logicalContractIndex, uint256 _gameIndex, uint256 _offerIndex, uint256 _solutionResult)   external;\r\n    \r\n    function setOfferDisputeId(uint256 _logicalContractIndex, uint256 _gameIndex, uint256 _offerIndex, uint256 _disputeId)   external;\r\n\t\r\n\tfunction setOfferTimeDispute(uint256 _logicalContractIndex, uint256 _gameIndex, uint256 _offerIndex, uint256 _timeDispute)  external;\r\n    \r\n    function setOfferPlayerFee(uint256 _logicalContractIndex, uint256 _gameIndex, uint256 _offerIndex, uint256 _playerFee)   external;\r\n    \r\n    function setOfferCreatorFee(uint256 _logicalContractIndex, uint256 _gameIndex, uint256 _offerIndex, uint256 _creatorFee)   external;\r\n    \r\n    function setOfferAppeal(uint256 _logicalContractIndex, uint256 _gameIndex, uint256 _offerIndex, uint256 _appeal)   external;\r\n    \r\n    function setOfferAppealFee(uint256 _logicalContractIndex, uint256 _gameIndex, uint256 _offerIndex, uint256 _appealFee)   external;\r\n    \r\n    function getOfferPlayer (uint256 _gameIndex, uint256 _offerIndex) external view returns(address payable);\r\n    \r\n    function getOfferExpectedWin (uint256 _gameIndex, uint256 _offerIndex) external view returns(uint256);\r\n    \r\n    function getOfferServiceFee (uint256 _gameIndex, uint256 _offerIndex) external view returns(uint256);\r\n    \r\n    function getOfferSolutionHash (uint256 _gameIndex, uint256 _offerIndex) external view returns(bytes32);\r\n    \r\n    function getOfferSolutionPlayer (uint256 _gameIndex, uint256 _offerIndex) external view returns(string memory);\r\n    \r\n    function getOfferLastInteraction (uint256 _gameIndex, uint256 _offerIndex) external view returns(uint256);\r\n    \r\n    function getOfferSolutionResult (uint256 _gameIndex, uint256 _offerIndex) external view returns(uint256);\r\n    \r\n    function getOfferDisputeId (uint256 _gameIndex, uint256 _offerIndex) external view returns(uint256);\r\n\t\r\n\tfunction getOfferTimeDispute (uint256 _gameIndex, uint256 _offerIndex) external view returns(uint256);\r\n    \r\n    function getOfferPlayerFee (uint256 _gameIndex, uint256 _offerIndex) external view returns(uint256);\r\n    \r\n    function getOfferCreatorFee (uint256 _gameIndex, uint256 _offerIndex) external view returns(uint256);\r\n    \r\n    function getOfferAppeal (uint256 _gameIndex, uint256 _offerIndex) external view returns(uint256);\r\n    \r\n    function getOfferAppealFee(uint256 _gameIndex, uint256 _offerIndex) external view returns(uint256);\r\n      \r\n    function getOffersLength (uint256 _gameIndex)  external view returns(uint256);\r\n    \r\n    \r\n\r\n    \r\n    \r\n    function addOffersMap (uint256 _logicalContractIndex, uint256 _gameIndex, address _player, uint256 _indexOffer, bool _submittedOffer, bool _submittedHashSol, bool _submittedSol)  external;\r\n    \r\n    function setOffersMapIndexOffer (uint256 _logicalContractIndex, uint256 _gameIndex, address _player, uint256 _indexOffer)  external;\r\n    \r\n    function setOffersMapSubmittedOffer (uint256 _logicalContractIndex, uint256 _gameIndex, address _player, bool _submittedOffer)  external;\r\n\t\r\n    function setOffersMapSubmittedHashSol (uint256 _logicalContractIndex, uint256 _gameIndex, address _player, bool _submittedHashSol)  external;\r\n\t\r\n    function setOffersMapSubmittedSol (uint256 _logicalContractIndex, uint256 _gameIndex, address _player, bool _submittedSol)  external;\r\n    \r\n    function getOffersMapIndexOffer (uint256 _gameIndex, address _player) external view returns (uint256);\r\n    \r\n    function getOffersMapSubmittedOffer(uint256 _gameIndex, address _player) external view returns (bool);\r\n    \r\n    function getOffersMapSubmittedHashSol (uint256 _gameIndex, address _player) external view returns (bool);\r\n    \r\n    function getOffersMapSubmittedSol (uint256 _gameIndex, address _player) external view returns (bool);\r\n    \r\n\r\n    \r\n \r\n \r\n    function addCreationMap (uint256 _logicalContractIndex, uint256 _gameIndex, bool _submittedGame, bool _submittedSol)  external;\r\n    \r\n    function setCreationMapSubmittedGame (uint256 _logicalContractIndex, uint256 _gameIndex, bool _submittedGame)  external;\r\n    \r\n    function setCreationMapSubmittedSol (uint256 _logicalContractIndex, uint256 _gameIndex, bool _submittedSol)  external;\r\n    \r\n    function getCreationMapSubmittedGame (uint256 _gameIndex) external view returns(bool);\r\n    \r\n    function getCreationMapSubmittedSol (uint256 _gameIndex) external view returns(bool);\r\n    \r\n\r\n    \r\n    \r\n    function addDisputeIDtoArbitrationIndexID (uint256 _logicalContractIndex, uint256 _disputeId,  uint256 _gameIndex, address payable _player)  external;\r\n    \r\n    function setDisputeIDtoArbitrationIndexIDGameIndex (uint256 _logicalContractIndex, uint256 _disputeId,  uint256 _gameIndex)  external;\r\n    \r\n    function setDisputeIDtoArbitrationIndexIDPlayer (uint256 _logicalContractIndex, uint256 _disputeId,  address payable _player)  external;\r\n    \r\n    function getDisputeIDtoArbitrationIndexIDGameIndex (uint256 _disputeId) external view returns(uint256);\r\n    \r\n    function getDisputeIDtoArbitrationIndexIDPlayer (uint256 _disputeId) external view returns(address payable);\r\n    \r\n\r\n    \r\n    function SetFeeBalance (uint256 _logicalContractIndex, uint256 _feeBalance)  external;\r\n    \r\n    function getFeeBalance() external view returns(uint256);\r\n    \r\n    function transferEth (uint256 _logicalContractIndex, address payable _destination, uint256 _amount)  external;\r\n    \r\n    function () external payable {}\r\n\r\n}\r\n\r\ncontract LogicalPuzzlesWithdrawAbstract  {\r\n       function emitSolutionStatusLog ( uint256 _logicalContractIndex, uint256  _gameId, address  _player,  bool _WonOrLost, uint256 _amount)  external;\r\n   }\r\n   \r\n\r\ncontract LogicalPuzzlesDisputeWithdraw  {\r\n    using SafeMath for uint256;\r\n    \r\n    enum Result {NOTHING, WAITING_CREATOR, WAITING_PLAYER, DISPUTE_CREATED, PLAYER_WINS, CREATOR_WINS, NO_WINNER}\r\n    \r\n    enum Appeal {NO_APPEAL, PLAYER_APPEAL, CREATOR_APPEAL}\r\n    \r\n    uint8 constant AMOUNT_OF_CHOICES = 2;\r\n    uint8 constant PLAYER_WINS = 1;\r\n    uint8 constant CREATOR_WINS = 2;\r\n\r\n \r\n    \r\n    StoragePuzzlesAbstract public storagepuzzles;\r\n    \r\n    modifier onlyOtherLogicalContracts(uint256 _logicalContractIndex) {\r\n        require (_logicalContractIndex<storagepuzzles.getLogicalContractLength(), \"Logical contract index not present\");\r\n        require (storagepuzzles.getLogicalContract(_logicalContractIndex)==msg.sender, \"Sender different from logical contract\");\r\n        _;\r\n    }\r\n    \r\n    constructor (address payable _storagepuzzles) public {\r\n        storagepuzzles=StoragePuzzlesAbstract(_storagepuzzles);\r\n    }\r\n    \r\n    function timeOutByPlayer(uint256 _gameIndex) external {\r\n         require (_gameIndex<storagepuzzles.getGamesLength(), \"Game index not correct\");\r\n         require (storagepuzzles.getCreationMapSubmittedSol(_gameIndex)==true, \"game not created\");\r\n         require (storagepuzzles.getOffersMapSubmittedSol(_gameIndex,msg.sender)==true, \"solution not submitted\");\r\n         uint256 indexoffer=storagepuzzles.getOffersMapIndexOffer(_gameIndex, msg.sender);\r\n         require(storagepuzzles.getOfferSolutionResult(_gameIndex,indexoffer) == uint256(Result.WAITING_CREATOR), \"The transaction is not waiting on the creator.\");\r\n         require(now-storagepuzzles.getOfferLastInteraction(_gameIndex,indexoffer) > storagepuzzles.getFeeTimeout(), \"Timeout time has not passed yet.\");\r\n         executeRuling(_gameIndex, msg.sender, uint256(PLAYER_WINS));\r\n     }\r\n     \r\n     \r\n     function timeOutByCreator(uint256 _gameIndex, address payable _player) external {\r\n         require (_gameIndex<storagepuzzles.getGamesLength());\r\n         require (storagepuzzles.getCreationMapSubmittedSol(_gameIndex)==true, \"solution game not submitted\");\r\n         require (storagepuzzles.getGameCreator(_gameIndex)==msg.sender,\"sender must be game creator\");\r\n         require (storagepuzzles.getOffersMapSubmittedSol(_gameIndex,_player)==true, \"solution player not submitted\");\r\n         uint256 indexoffer=storagepuzzles.getOffersMapIndexOffer(_gameIndex, _player );\r\n         require(storagepuzzles.getOfferSolutionResult(_gameIndex,indexoffer) == uint256(Result.WAITING_PLAYER), \"The transaction is not waiting on the player.\");\r\n         require(now-storagepuzzles.getOfferLastInteraction(_gameIndex,indexoffer) > storagepuzzles.getFeeTimeout(), \"Timeout time has not passed yet.\");\r\n         executeRuling(_gameIndex, _player, uint256(CREATOR_WINS));\r\n     }\r\n     \r\n    function executeRulingExternal(uint256 _logicalContractIndex,uint256 _gameIndex , address payable _player, uint256 _ruling) onlyOtherLogicalContracts(_logicalContractIndex) external {\r\n         executeRuling(_gameIndex ,_player,_ruling);\r\n    } \r\n    \r\n   \r\n    function executeRuling(uint256 _gameIndex , address payable _player, uint256 _ruling) internal {\r\n        require(_ruling <= AMOUNT_OF_CHOICES, \"Invalid ruling.\");\r\n        // Give the arbitration fee back.\r\n        // Note that we use send to prevent a party from blocking the execution.\r\n        uint256 indexoffer=storagepuzzles.getOffersMapIndexOffer(_gameIndex, _player);\r\n        uint256[] memory values=new uint256[](8);\r\n        values[0]=storagepuzzles.getOfferExpectedWin(_gameIndex,indexoffer); //grosswin\r\n        values[1]=values[0]-(storagepuzzles.getOfferServiceFee(_gameIndex,indexoffer));//netwin\r\n        values[2]=values[0]-values[1]; //fee\r\n        values[3]=(values[0].mul(100))/storagepuzzles.getGameQuote(_gameIndex);//valuebet\r\n        if (storagepuzzles.getOfferAppeal(_gameIndex,indexoffer)==uint256(Appeal.PLAYER_APPEAL)) {\r\n            values[4]=storagepuzzles.getOfferAppealFee(_gameIndex,indexoffer); //fee appeal player\r\n        }\r\n        if (storagepuzzles.getOfferAppeal(_gameIndex,indexoffer)==uint256(Appeal.CREATOR_APPEAL)) {\r\n            values[5]=storagepuzzles.getOfferAppealFee(_gameIndex,indexoffer); //fee appeal creator\r\n        }\r\n        values[6]=storagepuzzles.getOfferPlayerFee(_gameIndex,indexoffer);//fee arbitration player\r\n        values[7]=storagepuzzles.getOfferCreatorFee(_gameIndex,indexoffer);//fee arbitration creator\r\n        LogicalPuzzlesWithdrawAbstract logicalpuzzleswithdraw= LogicalPuzzlesWithdrawAbstract(storagepuzzles.getLogicalContract(1));\r\n        address payable creator=storagepuzzles.getGameCreator(_gameIndex);\r\n        storagepuzzles.SetFeeBalance(4,storagepuzzles.getFeeBalance().add(values[2]));\r\n        if (_ruling == PLAYER_WINS) {\r\n            storagepuzzles.transferEth(4,_player,values[1]+values[6]);\r\n            if (storagepuzzles.getOfferSolutionResult(_gameIndex,indexoffer) == uint256(Result.WAITING_CREATOR)) {\r\n                storagepuzzles.transferEth(4,creator,values[7]);\r\n                logicalpuzzleswithdraw.emitSolutionStatusLog (4,_gameIndex, creator, false , values[0]-values[3]);\r\n            }\r\n            else {\r\n                logicalpuzzleswithdraw.emitSolutionStatusLog(4,_gameIndex, storagepuzzles.getGameCreator(_gameIndex), false , values[0]-values[3]+values[7]+values[5]);\r\n            }\r\n            if (values[1].sub(values[3]) > values[4])  {  \r\n                logicalpuzzleswithdraw.emitSolutionStatusLog (4,_gameIndex, _player, true , values[1]-values[3]-values[4]);\r\n            }\r\n            else {\r\n                logicalpuzzleswithdraw.emitSolutionStatusLog (4,_gameIndex, _player, false , values[4]-values[1]+values[3]);\r\n            }\r\n            storagepuzzles.setOfferSolutionResult(4,_gameIndex,indexoffer,uint256(Result.PLAYER_WINS));\r\n        } \r\n        else if (_ruling == CREATOR_WINS) {   \r\n            storagepuzzles.transferEth(4,creator,values[1]+values[7]);\r\n            if (storagepuzzles.getOfferSolutionResult(_gameIndex,indexoffer) == uint256(Result.WAITING_PLAYER)) {\r\n                   storagepuzzles.transferEth(4,_player,values[6]);\r\n                   logicalpuzzleswithdraw.emitSolutionStatusLog (4,_gameIndex, _player , false , values[3]); \r\n            }\r\n            else {\r\n                 logicalpuzzleswithdraw.emitSolutionStatusLog (4,_gameIndex, _player , false , values[3]+values[6]+values[4]);\r\n            }\r\n             if (values[3].sub(values[2]) > values[5])  {\r\n                logicalpuzzleswithdraw.emitSolutionStatusLog (4,_gameIndex, storagepuzzles.getGameCreator(_gameIndex), true , values[3]-values[2]-values[5]);\r\n            }\r\n            else {\r\n                logicalpuzzleswithdraw.emitSolutionStatusLog (4,_gameIndex, storagepuzzles.getGameCreator(_gameIndex) , false , values[5]-values[3]+values[2]);\r\n            }\r\n            storagepuzzles.setOfferSolutionResult(4,_gameIndex,indexoffer,uint256(Result.CREATOR_WINS));\r\n        }\r\n        else {\r\n            uint256 playeramount = values[3]+(values[6]/2).sub(values[2]/2);\r\n            uint256 creatoramount = values[0]-values[3]+(values[7]/2).sub(values[2]/2);\r\n            storagepuzzles.transferEth(4,_player,playeramount);\r\n            storagepuzzles.transferEth(4,creator,creatoramount);\r\n            logicalpuzzleswithdraw.emitSolutionStatusLog (4,_gameIndex,creator , false , (values[7]/2)+(values[2]/2)+values[5]);\r\n            logicalpuzzleswithdraw.emitSolutionStatusLog (4,_gameIndex, _player , false , (values[6]/2)+(values[2]/2)+values[4]);\r\n            storagepuzzles.setOfferSolutionResult(4,_gameIndex,indexoffer,uint256(Result.NO_WINNER));\r\n        }\r\n        \r\n    }\r\n    \r\n    function WithdrawPlayerNoRuling(uint256 _gameIndex) external  {\r\n        require (_gameIndex<storagepuzzles.getGamesLength());\r\n        require (storagepuzzles.getCreationMapSubmittedSol(_gameIndex)==true, \"solution game not created\");\r\n        require (storagepuzzles.getOffersMapSubmittedSol(_gameIndex,msg.sender)==true, \"solution player not submitted\");\r\n        uint256 indexoffer=storagepuzzles.getOffersMapIndexOffer(_gameIndex, msg.sender);\r\n        require(storagepuzzles.getOfferSolutionResult(_gameIndex,indexoffer)== uint256(Result.DISPUTE_CREATED), \"The dispute has already been resolved.\");\r\n        require(now > storagepuzzles.getOfferTimeDispute(_gameIndex,indexoffer).add(storagepuzzles.getTimeoutRuling()), \"Ruling yet activated\");\r\n        executeRuling(_gameIndex, msg.sender, 0);\r\n    }\r\n    \r\n    function WithdrawCreatorNoRuling(uint256 _gameIndex) external  {\r\n        require (_gameIndex<storagepuzzles.getGamesLength());\r\n        require (storagepuzzles.getGameCreator(_gameIndex)==msg.sender,\"sender must be game creator\");\r\n        require (storagepuzzles.getCreationMapSubmittedSol(_gameIndex)==true, \"solution game not created\");\r\n        for (uint256 j=0; j<storagepuzzles.getOffersLength(_gameIndex); j++) {\r\n            if (storagepuzzles.getOfferSolutionResult(_gameIndex,j)== uint256(Result.DISPUTE_CREATED) && now > storagepuzzles.getOfferTimeDispute(_gameIndex,j).add(storagepuzzles.getTimeoutRuling())) {\r\n                     executeRuling(_gameIndex, storagepuzzles.getOfferPlayer(_gameIndex,j), 0);\r\n            }\r\n        } \r\n    }\r\n    \r\n    function WithdrawCreatorNoRulingSingle (uint256 _gameIndex, address payable _player) external {\r\n        require (_gameIndex<storagepuzzles.getGamesLength());\r\n        require (storagepuzzles.getGameCreator(_gameIndex)==msg.sender,\"sender must be game creator\");\r\n        require (storagepuzzles.getCreationMapSubmittedSol(_gameIndex)==true, \"solution game not created\");\r\n        require (storagepuzzles.getOffersMapSubmittedSol(_gameIndex,_player)==true, \"solution player not submitted\");\r\n        uint256 indexoffer=storagepuzzles.getOffersMapIndexOffer(_gameIndex, _player);\r\n        require(storagepuzzles.getOfferSolutionResult(_gameIndex,indexoffer)== uint256(Result.DISPUTE_CREATED), \"The dispute has already been resolved.\");\r\n        require(now > storagepuzzles.getOfferTimeDispute(_gameIndex,indexoffer).add(storagepuzzles.getTimeoutRuling()), \"Ruling yet activated\");\r\n        executeRuling(_gameIndex,_player, 0);\r\n    }\r\n}\r\n    ",
  "sourcePath": "C:/Users/Alessandro/solidity_work/myproject/contracts/LogicalPuzzlesDisputeWithdraw.sol",
  "compiler": {
    "name": "solc",
    "version": "0.5.0+commit.1d4f565a.Emscripten.clang"
  },
  "schemaVersion": "3.0.0",
  "updatedAt": "2019-10-17T15:30:30.621Z",
  "devdoc": {
    "methods": {}
  },
  "userdoc": {
    "methods": {}
  }
}