{
  "contractName": "StoragePuzzles",
  "abi": [
    {
      "constant": false,
      "inputs": [
        {
          "name": "newOwnerDao",
          "type": "address"
        }
      ],
      "name": "transferOwnershipDao",
      "outputs": [],
      "payable": false,
      "stateMutability": "nonpayable",
      "type": "function",
      "signature": "0x66fafd75"
    },
    {
      "constant": true,
      "inputs": [],
      "name": "isOwnerDao",
      "outputs": [
        {
          "name": "",
          "type": "bool"
        }
      ],
      "payable": false,
      "stateMutability": "view",
      "type": "function",
      "signature": "0x6fffb906"
    },
    {
      "constant": true,
      "inputs": [],
      "name": "getOwnerDao",
      "outputs": [
        {
          "name": "",
          "type": "address"
        }
      ],
      "payable": false,
      "stateMutability": "view",
      "type": "function",
      "signature": "0xf270da7b"
    },
    {
      "inputs": [
        {
          "name": "_arbitratorAddress",
          "type": "address"
        },
        {
          "name": "_arbitratorExtraData",
          "type": "bytes"
        },
        {
          "name": "_minimalJackpot",
          "type": "uint256"
        },
        {
          "name": "_maxTimeoutCreation",
          "type": "uint256"
        },
        {
          "name": "_timeoutPlayerSolution",
          "type": "uint256"
        },
        {
          "name": "_timeoutCreatorSolution",
          "type": "uint256"
        },
        {
          "name": "_timeoutDisp",
          "type": "uint256"
        },
        {
          "name": "_timeoutRuling",
          "type": "uint256"
        },
        {
          "name": "_feePercent",
          "type": "uint256"
        },
        {
          "name": "_feeTimeout",
          "type": "uint256"
        },
        {
          "name": "_ownerDao",
          "type": "address"
        }
      ],
      "payable": false,
      "stateMutability": "nonpayable",
      "type": "constructor",
      "signature": "constructor"
    },
    {
      "payable": true,
      "stateMutability": "payable",
      "type": "fallback"
    },
    {
      "anonymous": false,
      "inputs": [
        {
          "indexed": true,
          "name": "previousOwner",
          "type": "address"
        },
        {
          "indexed": true,
          "name": "newOwner",
          "type": "address"
        }
      ],
      "name": "OwnershipTransferred",
      "type": "event",
      "signature": "0x8be0079c531659141344cd1fd0a4f28419497f9722a3daafe3b4186f6b6457e0"
    },
    {
      "constant": false,
      "inputs": [
        {
          "name": "_gameActivated",
          "type": "bool"
        }
      ],
      "name": "AddGamesType",
      "outputs": [],
      "payable": false,
      "stateMutability": "nonpayable",
      "type": "function",
      "signature": "0xcf8fbf87"
    },
    {
      "constant": false,
      "inputs": [
        {
          "name": "_gameActivated",
          "type": "bool"
        },
        {
          "name": "_gameTypeIndex",
          "type": "uint256"
        }
      ],
      "name": "SetGameType",
      "outputs": [],
      "payable": false,
      "stateMutability": "nonpayable",
      "type": "function",
      "signature": "0x92ee973f"
    },
    {
      "constant": true,
      "inputs": [
        {
          "name": "_gameTypeIndex",
          "type": "uint256"
        }
      ],
      "name": "GetGameType",
      "outputs": [
        {
          "name": "",
          "type": "bool"
        }
      ],
      "payable": false,
      "stateMutability": "view",
      "type": "function",
      "signature": "0x00712efe"
    },
    {
      "constant": true,
      "inputs": [],
      "name": "GetGameTypeLength",
      "outputs": [
        {
          "name": "",
          "type": "uint256"
        }
      ],
      "payable": false,
      "stateMutability": "view",
      "type": "function",
      "signature": "0x3aebe343"
    },
    {
      "constant": false,
      "inputs": [
        {
          "name": "_minimalJackpot",
          "type": "uint256"
        }
      ],
      "name": "setMinimalJackpot",
      "outputs": [],
      "payable": false,
      "stateMutability": "nonpayable",
      "type": "function",
      "signature": "0x918d1f65"
    },
    {
      "constant": true,
      "inputs": [],
      "name": "getMinimalJackpot",
      "outputs": [
        {
          "name": "",
          "type": "uint256"
        }
      ],
      "payable": false,
      "stateMutability": "view",
      "type": "function",
      "signature": "0x3387e66a"
    },
    {
      "constant": false,
      "inputs": [
        {
          "name": "_maxTimeoutCreation",
          "type": "uint256"
        }
      ],
      "name": "setMaxTimeoutCreation",
      "outputs": [],
      "payable": false,
      "stateMutability": "nonpayable",
      "type": "function",
      "signature": "0x3750cfe6"
    },
    {
      "constant": true,
      "inputs": [],
      "name": "getMaxTimeoutCreation",
      "outputs": [
        {
          "name": "",
          "type": "uint256"
        }
      ],
      "payable": false,
      "stateMutability": "view",
      "type": "function",
      "signature": "0xdb034279"
    },
    {
      "constant": false,
      "inputs": [
        {
          "name": "_timeoutPlayerSolution",
          "type": "uint256"
        }
      ],
      "name": "setTimeoutPlayerSolution",
      "outputs": [],
      "payable": false,
      "stateMutability": "nonpayable",
      "type": "function",
      "signature": "0x3e239dc0"
    },
    {
      "constant": true,
      "inputs": [],
      "name": "getTimeoutPlayerSolution",
      "outputs": [
        {
          "name": "",
          "type": "uint256"
        }
      ],
      "payable": false,
      "stateMutability": "view",
      "type": "function",
      "signature": "0x5c229576"
    },
    {
      "constant": false,
      "inputs": [
        {
          "name": "_timeoutCreatorSolution",
          "type": "uint256"
        }
      ],
      "name": "setTimeoutCreatorSolution",
      "outputs": [],
      "payable": false,
      "stateMutability": "nonpayable",
      "type": "function",
      "signature": "0xea05ac1a"
    },
    {
      "constant": true,
      "inputs": [],
      "name": "getTimeoutCreatorSolution",
      "outputs": [
        {
          "name": "",
          "type": "uint256"
        }
      ],
      "payable": false,
      "stateMutability": "view",
      "type": "function",
      "signature": "0x7cfdb1b9"
    },
    {
      "constant": false,
      "inputs": [
        {
          "name": "_timeoutDisp",
          "type": "uint256"
        }
      ],
      "name": "setTimeoutDisp",
      "outputs": [],
      "payable": false,
      "stateMutability": "nonpayable",
      "type": "function",
      "signature": "0xf688b3b6"
    },
    {
      "constant": true,
      "inputs": [],
      "name": "getTimeoutDisp",
      "outputs": [
        {
          "name": "",
          "type": "uint256"
        }
      ],
      "payable": false,
      "stateMutability": "view",
      "type": "function",
      "signature": "0x2fdfdca0"
    },
    {
      "constant": false,
      "inputs": [
        {
          "name": "_timeoutRuling",
          "type": "uint256"
        }
      ],
      "name": "setTimeoutRuling",
      "outputs": [],
      "payable": false,
      "stateMutability": "nonpayable",
      "type": "function",
      "signature": "0x007c88f0"
    },
    {
      "constant": true,
      "inputs": [],
      "name": "getTimeoutRuling",
      "outputs": [
        {
          "name": "",
          "type": "uint256"
        }
      ],
      "payable": false,
      "stateMutability": "view",
      "type": "function",
      "signature": "0x7e0b230b"
    },
    {
      "constant": false,
      "inputs": [
        {
          "name": "_feePercent",
          "type": "uint256"
        }
      ],
      "name": "setFeePercent",
      "outputs": [],
      "payable": false,
      "stateMutability": "nonpayable",
      "type": "function",
      "signature": "0x7ce3489b"
    },
    {
      "constant": true,
      "inputs": [],
      "name": "getFeePercent",
      "outputs": [
        {
          "name": "",
          "type": "uint256"
        }
      ],
      "payable": false,
      "stateMutability": "view",
      "type": "function",
      "signature": "0xbe74264d"
    },
    {
      "constant": false,
      "inputs": [
        {
          "name": "_feeTimeout",
          "type": "uint256"
        }
      ],
      "name": "setFeeTimeout",
      "outputs": [],
      "payable": false,
      "stateMutability": "nonpayable",
      "type": "function",
      "signature": "0x8f2d26c6"
    },
    {
      "constant": true,
      "inputs": [],
      "name": "getFeeTimeout",
      "outputs": [
        {
          "name": "",
          "type": "uint256"
        }
      ],
      "payable": false,
      "stateMutability": "view",
      "type": "function",
      "signature": "0xf81f9f33"
    },
    {
      "constant": false,
      "inputs": [
        {
          "name": "_arbitratorAddress",
          "type": "address"
        },
        {
          "name": "_arbitratorExtraData",
          "type": "bytes"
        }
      ],
      "name": "setArbitrator",
      "outputs": [],
      "payable": false,
      "stateMutability": "nonpayable",
      "type": "function",
      "signature": "0x0ea7c0ea"
    },
    {
      "constant": true,
      "inputs": [],
      "name": "getArbitratorAddress",
      "outputs": [
        {
          "name": "",
          "type": "address"
        }
      ],
      "payable": false,
      "stateMutability": "view",
      "type": "function",
      "signature": "0xe0efefd9"
    },
    {
      "constant": true,
      "inputs": [],
      "name": "getarbitratorExtraData",
      "outputs": [
        {
          "name": "",
          "type": "bytes"
        }
      ],
      "payable": false,
      "stateMutability": "view",
      "type": "function",
      "signature": "0x915bb768"
    },
    {
      "constant": false,
      "inputs": [
        {
          "name": "_logicalContract",
          "type": "address"
        }
      ],
      "name": "addLogicalContract",
      "outputs": [],
      "payable": false,
      "stateMutability": "nonpayable",
      "type": "function",
      "signature": "0xee2e329d"
    },
    {
      "constant": false,
      "inputs": [
        {
          "name": "_logicalContract",
          "type": "address"
        },
        {
          "name": "_logicalContractIndex",
          "type": "uint256"
        }
      ],
      "name": "setLogicalContract",
      "outputs": [],
      "payable": false,
      "stateMutability": "nonpayable",
      "type": "function",
      "signature": "0x2483ce8c"
    },
    {
      "constant": true,
      "inputs": [
        {
          "name": "_logicalContractIndex",
          "type": "uint256"
        }
      ],
      "name": "getLogicalContract",
      "outputs": [
        {
          "name": "",
          "type": "address"
        }
      ],
      "payable": false,
      "stateMutability": "view",
      "type": "function",
      "signature": "0xbb396833"
    },
    {
      "constant": true,
      "inputs": [],
      "name": "getLogicalContractLength",
      "outputs": [
        {
          "name": "",
          "type": "uint256"
        }
      ],
      "payable": false,
      "stateMutability": "view",
      "type": "function",
      "signature": "0xbc882a8f"
    },
    {
      "constant": false,
      "inputs": [
        {
          "name": "_destination",
          "type": "address"
        },
        {
          "name": "_amount",
          "type": "uint256"
        }
      ],
      "name": "withdrawFee",
      "outputs": [],
      "payable": false,
      "stateMutability": "nonpayable",
      "type": "function",
      "signature": "0xfd9be522"
    },
    {
      "constant": false,
      "inputs": [
        {
          "name": "_logicalContractIndex",
          "type": "uint256"
        },
        {
          "name": "_gameType",
          "type": "uint32"
        },
        {
          "name": "_creator",
          "type": "address"
        },
        {
          "name": "_residualJackpot",
          "type": "uint256"
        },
        {
          "name": "_gameLimits",
          "type": "uint256[3]"
        },
        {
          "name": "_timeouts",
          "type": "uint256[2]"
        },
        {
          "name": "_times",
          "type": "uint256[2]"
        },
        {
          "name": "_quote",
          "type": "uint256"
        },
        {
          "name": "_solutionHash",
          "type": "bytes32"
        },
        {
          "name": "_solution",
          "type": "string"
        }
      ],
      "name": "addGame",
      "outputs": [],
      "payable": false,
      "stateMutability": "nonpayable",
      "type": "function",
      "signature": "0xa842ac18"
    },
    {
      "constant": false,
      "inputs": [
        {
          "name": "_logicalContractIndex",
          "type": "uint256"
        },
        {
          "name": "_gameIndex",
          "type": "uint256"
        },
        {
          "name": "_gameType",
          "type": "uint32"
        }
      ],
      "name": "setGameType",
      "outputs": [],
      "payable": false,
      "stateMutability": "nonpayable",
      "type": "function",
      "signature": "0x65b9f52c"
    },
    {
      "constant": false,
      "inputs": [
        {
          "name": "_logicalContractIndex",
          "type": "uint256"
        },
        {
          "name": "_gameIndex",
          "type": "uint256"
        },
        {
          "name": "_creator",
          "type": "address"
        }
      ],
      "name": "setGameCreator",
      "outputs": [],
      "payable": false,
      "stateMutability": "nonpayable",
      "type": "function",
      "signature": "0xe541b316"
    },
    {
      "constant": false,
      "inputs": [
        {
          "name": "_logicalContractIndex",
          "type": "uint256"
        },
        {
          "name": "_gameIndex",
          "type": "uint256"
        },
        {
          "name": "_residualJackpot",
          "type": "uint256"
        }
      ],
      "name": "setGameResidualJackpot",
      "outputs": [],
      "payable": false,
      "stateMutability": "nonpayable",
      "type": "function",
      "signature": "0xb0f6de48"
    },
    {
      "constant": false,
      "inputs": [
        {
          "name": "_logicalContractIndex",
          "type": "uint256"
        },
        {
          "name": "_gameIndex",
          "type": "uint256"
        },
        {
          "name": "_maxOffer",
          "type": "uint256"
        }
      ],
      "name": "setGameMaxOffer",
      "outputs": [],
      "payable": false,
      "stateMutability": "nonpayable",
      "type": "function",
      "signature": "0xf7e7329d"
    },
    {
      "constant": false,
      "inputs": [
        {
          "name": "_logicalContractIndex",
          "type": "uint256"
        },
        {
          "name": "_gameIndex",
          "type": "uint256"
        },
        {
          "name": "_minOffer",
          "type": "uint256"
        }
      ],
      "name": "setGameMinOffer",
      "outputs": [],
      "payable": false,
      "stateMutability": "nonpayable",
      "type": "function",
      "signature": "0x8eea3d65"
    },
    {
      "constant": false,
      "inputs": [
        {
          "name": "_logicalContractIndex",
          "type": "uint256"
        },
        {
          "name": "_gameIndex",
          "type": "uint256"
        },
        {
          "name": "_maxOfferNumber",
          "type": "uint256"
        }
      ],
      "name": "setGameMaxOfferNumber",
      "outputs": [],
      "payable": false,
      "stateMutability": "nonpayable",
      "type": "function",
      "signature": "0x24478401"
    },
    {
      "constant": false,
      "inputs": [
        {
          "name": "_logicalContractIndex",
          "type": "uint256"
        },
        {
          "name": "_gameIndex",
          "type": "uint256"
        },
        {
          "name": "_timePropose",
          "type": "uint256"
        }
      ],
      "name": "setTimePropose",
      "outputs": [],
      "payable": false,
      "stateMutability": "nonpayable",
      "type": "function",
      "signature": "0x2afe6169"
    },
    {
      "constant": false,
      "inputs": [
        {
          "name": "_logicalContractIndex",
          "type": "uint256"
        },
        {
          "name": "_gameIndex",
          "type": "uint256"
        },
        {
          "name": "_timeoutOffer",
          "type": "uint256"
        }
      ],
      "name": "setGametimeoutOffer",
      "outputs": [],
      "payable": false,
      "stateMutability": "nonpayable",
      "type": "function",
      "signature": "0x251006ce"
    },
    {
      "constant": false,
      "inputs": [
        {
          "name": "_logicalContractIndex",
          "type": "uint256"
        },
        {
          "name": "_gameIndex",
          "type": "uint256"
        },
        {
          "name": "_timeCreationGame",
          "type": "uint256"
        }
      ],
      "name": "setGameTimeCreationGame",
      "outputs": [],
      "payable": false,
      "stateMutability": "nonpayable",
      "type": "function",
      "signature": "0x2ff5ac73"
    },
    {
      "constant": false,
      "inputs": [
        {
          "name": "_logicalContractIndex",
          "type": "uint256"
        },
        {
          "name": "_gameIndex",
          "type": "uint256"
        },
        {
          "name": "_timeoutResolution",
          "type": "uint256"
        }
      ],
      "name": "setGameTimeoutResolution",
      "outputs": [],
      "payable": false,
      "stateMutability": "nonpayable",
      "type": "function",
      "signature": "0x9d97e100"
    },
    {
      "constant": false,
      "inputs": [
        {
          "name": "_logicalContractIndex",
          "type": "uint256"
        },
        {
          "name": "_gameIndex",
          "type": "uint256"
        },
        {
          "name": "_quote",
          "type": "uint256"
        }
      ],
      "name": "setGameQuote",
      "outputs": [],
      "payable": false,
      "stateMutability": "nonpayable",
      "type": "function",
      "signature": "0xa9198ae4"
    },
    {
      "constant": false,
      "inputs": [
        {
          "name": "_logicalContractIndex",
          "type": "uint256"
        },
        {
          "name": "_gameIndex",
          "type": "uint256"
        },
        {
          "name": "_solutionHash",
          "type": "bytes32"
        }
      ],
      "name": "setGameSolutionHash",
      "outputs": [],
      "payable": false,
      "stateMutability": "nonpayable",
      "type": "function",
      "signature": "0xdcdd9108"
    },
    {
      "constant": false,
      "inputs": [
        {
          "name": "_logicalContractIndex",
          "type": "uint256"
        },
        {
          "name": "_gameIndex",
          "type": "uint256"
        },
        {
          "name": "_solution",
          "type": "string"
        }
      ],
      "name": "setGameSolution",
      "outputs": [],
      "payable": false,
      "stateMutability": "nonpayable",
      "type": "function",
      "signature": "0x76508ce0"
    },
    {
      "constant": true,
      "inputs": [
        {
          "name": "_gameIndex",
          "type": "uint256"
        }
      ],
      "name": "getGameType",
      "outputs": [
        {
          "name": "",
          "type": "uint32"
        }
      ],
      "payable": false,
      "stateMutability": "view",
      "type": "function",
      "signature": "0x82a8c7d6"
    },
    {
      "constant": true,
      "inputs": [
        {
          "name": "_gameIndex",
          "type": "uint256"
        }
      ],
      "name": "getGameCreator",
      "outputs": [
        {
          "name": "",
          "type": "address"
        }
      ],
      "payable": false,
      "stateMutability": "view",
      "type": "function",
      "signature": "0x7ad40c86"
    },
    {
      "constant": true,
      "inputs": [
        {
          "name": "_gameIndex",
          "type": "uint256"
        }
      ],
      "name": "getGameResidualJackpot",
      "outputs": [
        {
          "name": "",
          "type": "uint256"
        }
      ],
      "payable": false,
      "stateMutability": "view",
      "type": "function",
      "signature": "0x32c2cc35"
    },
    {
      "constant": true,
      "inputs": [
        {
          "name": "_gameIndex",
          "type": "uint256"
        }
      ],
      "name": "getGameMaxOffer",
      "outputs": [
        {
          "name": "",
          "type": "uint256"
        }
      ],
      "payable": false,
      "stateMutability": "view",
      "type": "function",
      "signature": "0x478a94ae"
    },
    {
      "constant": true,
      "inputs": [
        {
          "name": "_gameIndex",
          "type": "uint256"
        }
      ],
      "name": "getGameMinOffer",
      "outputs": [
        {
          "name": "",
          "type": "uint256"
        }
      ],
      "payable": false,
      "stateMutability": "view",
      "type": "function",
      "signature": "0x2ac21d27"
    },
    {
      "constant": true,
      "inputs": [
        {
          "name": "_gameIndex",
          "type": "uint256"
        }
      ],
      "name": "getGameMaxOfferNumber",
      "outputs": [
        {
          "name": "",
          "type": "uint256"
        }
      ],
      "payable": false,
      "stateMutability": "view",
      "type": "function",
      "signature": "0xf12ac8b2"
    },
    {
      "constant": true,
      "inputs": [
        {
          "name": "_gameIndex",
          "type": "uint256"
        }
      ],
      "name": "getGameTimePropose",
      "outputs": [
        {
          "name": "",
          "type": "uint256"
        }
      ],
      "payable": false,
      "stateMutability": "view",
      "type": "function",
      "signature": "0x9c5dc026"
    },
    {
      "constant": true,
      "inputs": [
        {
          "name": "_gameIndex",
          "type": "uint256"
        }
      ],
      "name": "getGameTimeoutOffer",
      "outputs": [
        {
          "name": "",
          "type": "uint256"
        }
      ],
      "payable": false,
      "stateMutability": "view",
      "type": "function",
      "signature": "0xfea93d7d"
    },
    {
      "constant": true,
      "inputs": [
        {
          "name": "_gameIndex",
          "type": "uint256"
        }
      ],
      "name": "getGameTimeCreationGame",
      "outputs": [
        {
          "name": "",
          "type": "uint256"
        }
      ],
      "payable": false,
      "stateMutability": "view",
      "type": "function",
      "signature": "0x756370a6"
    },
    {
      "constant": true,
      "inputs": [
        {
          "name": "_gameIndex",
          "type": "uint256"
        }
      ],
      "name": "getGameTimeoutResolution",
      "outputs": [
        {
          "name": "",
          "type": "uint256"
        }
      ],
      "payable": false,
      "stateMutability": "view",
      "type": "function",
      "signature": "0xcd08e3b7"
    },
    {
      "constant": true,
      "inputs": [
        {
          "name": "_gameIndex",
          "type": "uint256"
        }
      ],
      "name": "getGameQuote",
      "outputs": [
        {
          "name": "",
          "type": "uint256"
        }
      ],
      "payable": false,
      "stateMutability": "view",
      "type": "function",
      "signature": "0x63d28fe2"
    },
    {
      "constant": true,
      "inputs": [
        {
          "name": "_gameIndex",
          "type": "uint256"
        }
      ],
      "name": "getGameSolutionHash",
      "outputs": [
        {
          "name": "",
          "type": "bytes32"
        }
      ],
      "payable": false,
      "stateMutability": "view",
      "type": "function",
      "signature": "0x90ce6005"
    },
    {
      "constant": true,
      "inputs": [
        {
          "name": "_gameIndex",
          "type": "uint256"
        }
      ],
      "name": "getGameSolution",
      "outputs": [
        {
          "name": "",
          "type": "string"
        }
      ],
      "payable": false,
      "stateMutability": "view",
      "type": "function",
      "signature": "0xdbe1d9be"
    },
    {
      "constant": true,
      "inputs": [],
      "name": "getGamesLength",
      "outputs": [
        {
          "name": "",
          "type": "uint256"
        }
      ],
      "payable": false,
      "stateMutability": "view",
      "type": "function",
      "signature": "0x654f1ccb"
    },
    {
      "constant": false,
      "inputs": [
        {
          "name": "_logicalContractIndex",
          "type": "uint256"
        },
        {
          "name": "_gameIndex",
          "type": "uint256"
        },
        {
          "name": "_gameMetadata",
          "type": "string"
        }
      ],
      "name": "setGameMetadata",
      "outputs": [],
      "payable": false,
      "stateMutability": "nonpayable",
      "type": "function",
      "signature": "0xe29431c2"
    },
    {
      "constant": true,
      "inputs": [
        {
          "name": "_gameIndex",
          "type": "uint256"
        }
      ],
      "name": "getGameMetadata",
      "outputs": [
        {
          "name": "",
          "type": "string"
        }
      ],
      "payable": false,
      "stateMutability": "view",
      "type": "function",
      "signature": "0x21b113f3"
    },
    {
      "constant": false,
      "inputs": [
        {
          "name": "_logicalContractIndex",
          "type": "uint256"
        },
        {
          "name": "_gameIndex",
          "type": "uint256"
        },
        {
          "name": "_player",
          "type": "address"
        },
        {
          "name": "_expectedwin",
          "type": "uint256"
        },
        {
          "name": "_serviceFee",
          "type": "uint256"
        },
        {
          "name": "_solutionHash",
          "type": "bytes32"
        },
        {
          "name": "_solutionPlayer",
          "type": "string"
        },
        {
          "name": "_lastInteraction",
          "type": "uint256"
        },
        {
          "name": "_solutionResult",
          "type": "uint256"
        },
        {
          "name": "_disputeFields",
          "type": "uint256[6]"
        }
      ],
      "name": "addOffer",
      "outputs": [],
      "payable": false,
      "stateMutability": "nonpayable",
      "type": "function",
      "signature": "0x89ff67b8"
    },
    {
      "constant": false,
      "inputs": [
        {
          "name": "_logicalContractIndex",
          "type": "uint256"
        },
        {
          "name": "_gameIndex",
          "type": "uint256"
        },
        {
          "name": "_offerIndex",
          "type": "uint256"
        },
        {
          "name": "_player",
          "type": "address"
        }
      ],
      "name": "setOfferPlayer",
      "outputs": [],
      "payable": false,
      "stateMutability": "nonpayable",
      "type": "function",
      "signature": "0x3a9a8a95"
    },
    {
      "constant": false,
      "inputs": [
        {
          "name": "_logicalContractIndex",
          "type": "uint256"
        },
        {
          "name": "_gameIndex",
          "type": "uint256"
        },
        {
          "name": "_offerIndex",
          "type": "uint256"
        },
        {
          "name": "_expectedWin",
          "type": "uint256"
        }
      ],
      "name": "setOfferExpectedWin",
      "outputs": [],
      "payable": false,
      "stateMutability": "nonpayable",
      "type": "function",
      "signature": "0xe84132e5"
    },
    {
      "constant": false,
      "inputs": [
        {
          "name": "_logicalContractIndex",
          "type": "uint256"
        },
        {
          "name": "_gameIndex",
          "type": "uint256"
        },
        {
          "name": "_offerIndex",
          "type": "uint256"
        },
        {
          "name": "_serviceFee",
          "type": "uint256"
        }
      ],
      "name": "setOfferServiceFee",
      "outputs": [],
      "payable": false,
      "stateMutability": "nonpayable",
      "type": "function",
      "signature": "0xbfa0eb01"
    },
    {
      "constant": false,
      "inputs": [
        {
          "name": "_logicalContractIndex",
          "type": "uint256"
        },
        {
          "name": "_gameIndex",
          "type": "uint256"
        },
        {
          "name": "_offerIndex",
          "type": "uint256"
        },
        {
          "name": "_solutionHash",
          "type": "bytes32"
        }
      ],
      "name": "setOfferSolutionHash",
      "outputs": [],
      "payable": false,
      "stateMutability": "nonpayable",
      "type": "function",
      "signature": "0xc10d9c7e"
    },
    {
      "constant": false,
      "inputs": [
        {
          "name": "_logicalContractIndex",
          "type": "uint256"
        },
        {
          "name": "_gameIndex",
          "type": "uint256"
        },
        {
          "name": "_offerIndex",
          "type": "uint256"
        },
        {
          "name": "_solutionPlayer",
          "type": "string"
        }
      ],
      "name": "setOfferSolutionPlayer",
      "outputs": [],
      "payable": false,
      "stateMutability": "nonpayable",
      "type": "function",
      "signature": "0x9248fcd9"
    },
    {
      "constant": false,
      "inputs": [
        {
          "name": "_logicalContractIndex",
          "type": "uint256"
        },
        {
          "name": "_gameIndex",
          "type": "uint256"
        },
        {
          "name": "_offerIndex",
          "type": "uint256"
        },
        {
          "name": "_lastInteraction",
          "type": "uint256"
        }
      ],
      "name": "setOfferLastInteraction",
      "outputs": [],
      "payable": false,
      "stateMutability": "nonpayable",
      "type": "function",
      "signature": "0x6f6ccfc8"
    },
    {
      "constant": false,
      "inputs": [
        {
          "name": "_logicalContractIndex",
          "type": "uint256"
        },
        {
          "name": "_gameIndex",
          "type": "uint256"
        },
        {
          "name": "_offerIndex",
          "type": "uint256"
        },
        {
          "name": "_solutionResult",
          "type": "uint256"
        }
      ],
      "name": "setOfferSolutionResult",
      "outputs": [],
      "payable": false,
      "stateMutability": "nonpayable",
      "type": "function",
      "signature": "0x9af4a374"
    },
    {
      "constant": false,
      "inputs": [
        {
          "name": "_logicalContractIndex",
          "type": "uint256"
        },
        {
          "name": "_gameIndex",
          "type": "uint256"
        },
        {
          "name": "_offerIndex",
          "type": "uint256"
        },
        {
          "name": "_disputeId",
          "type": "uint256"
        }
      ],
      "name": "setOfferDisputeId",
      "outputs": [],
      "payable": false,
      "stateMutability": "nonpayable",
      "type": "function",
      "signature": "0xbdf2b002"
    },
    {
      "constant": false,
      "inputs": [
        {
          "name": "_logicalContractIndex",
          "type": "uint256"
        },
        {
          "name": "_gameIndex",
          "type": "uint256"
        },
        {
          "name": "_offerIndex",
          "type": "uint256"
        },
        {
          "name": "_timeDispute",
          "type": "uint256"
        }
      ],
      "name": "setOfferTimeDispute",
      "outputs": [],
      "payable": false,
      "stateMutability": "nonpayable",
      "type": "function",
      "signature": "0x38781f6d"
    },
    {
      "constant": false,
      "inputs": [
        {
          "name": "_logicalContractIndex",
          "type": "uint256"
        },
        {
          "name": "_gameIndex",
          "type": "uint256"
        },
        {
          "name": "_offerIndex",
          "type": "uint256"
        },
        {
          "name": "_playerFee",
          "type": "uint256"
        }
      ],
      "name": "setOfferPlayerFee",
      "outputs": [],
      "payable": false,
      "stateMutability": "nonpayable",
      "type": "function",
      "signature": "0xd2b4a066"
    },
    {
      "constant": false,
      "inputs": [
        {
          "name": "_logicalContractIndex",
          "type": "uint256"
        },
        {
          "name": "_gameIndex",
          "type": "uint256"
        },
        {
          "name": "_offerIndex",
          "type": "uint256"
        },
        {
          "name": "_creatorFee",
          "type": "uint256"
        }
      ],
      "name": "setOfferCreatorFee",
      "outputs": [],
      "payable": false,
      "stateMutability": "nonpayable",
      "type": "function",
      "signature": "0xf0b7ed15"
    },
    {
      "constant": false,
      "inputs": [
        {
          "name": "_logicalContractIndex",
          "type": "uint256"
        },
        {
          "name": "_gameIndex",
          "type": "uint256"
        },
        {
          "name": "_offerIndex",
          "type": "uint256"
        },
        {
          "name": "_appeal",
          "type": "uint256"
        }
      ],
      "name": "setOfferAppeal",
      "outputs": [],
      "payable": false,
      "stateMutability": "nonpayable",
      "type": "function",
      "signature": "0x9942c9a1"
    },
    {
      "constant": false,
      "inputs": [
        {
          "name": "_logicalContractIndex",
          "type": "uint256"
        },
        {
          "name": "_gameIndex",
          "type": "uint256"
        },
        {
          "name": "_offerIndex",
          "type": "uint256"
        },
        {
          "name": "_appealFee",
          "type": "uint256"
        }
      ],
      "name": "setOfferAppealFee",
      "outputs": [],
      "payable": false,
      "stateMutability": "nonpayable",
      "type": "function",
      "signature": "0x45560f1b"
    },
    {
      "constant": true,
      "inputs": [
        {
          "name": "_gameIndex",
          "type": "uint256"
        },
        {
          "name": "_offerIndex",
          "type": "uint256"
        }
      ],
      "name": "getOfferPlayer",
      "outputs": [
        {
          "name": "",
          "type": "address"
        }
      ],
      "payable": false,
      "stateMutability": "view",
      "type": "function",
      "signature": "0x4bcdbeea"
    },
    {
      "constant": true,
      "inputs": [
        {
          "name": "_gameIndex",
          "type": "uint256"
        },
        {
          "name": "_offerIndex",
          "type": "uint256"
        }
      ],
      "name": "getOfferExpectedWin",
      "outputs": [
        {
          "name": "",
          "type": "uint256"
        }
      ],
      "payable": false,
      "stateMutability": "view",
      "type": "function",
      "signature": "0x187c6eb5"
    },
    {
      "constant": true,
      "inputs": [
        {
          "name": "_gameIndex",
          "type": "uint256"
        },
        {
          "name": "_offerIndex",
          "type": "uint256"
        }
      ],
      "name": "getOfferServiceFee",
      "outputs": [
        {
          "name": "",
          "type": "uint256"
        }
      ],
      "payable": false,
      "stateMutability": "view",
      "type": "function",
      "signature": "0xd66691ab"
    },
    {
      "constant": true,
      "inputs": [
        {
          "name": "_gameIndex",
          "type": "uint256"
        },
        {
          "name": "_offerIndex",
          "type": "uint256"
        }
      ],
      "name": "getOfferSolutionHash",
      "outputs": [
        {
          "name": "",
          "type": "bytes32"
        }
      ],
      "payable": false,
      "stateMutability": "view",
      "type": "function",
      "signature": "0x20c4491d"
    },
    {
      "constant": true,
      "inputs": [
        {
          "name": "_gameIndex",
          "type": "uint256"
        },
        {
          "name": "_offerIndex",
          "type": "uint256"
        }
      ],
      "name": "getOfferSolutionPlayer",
      "outputs": [
        {
          "name": "",
          "type": "string"
        }
      ],
      "payable": false,
      "stateMutability": "view",
      "type": "function",
      "signature": "0xe55a6a8a"
    },
    {
      "constant": true,
      "inputs": [
        {
          "name": "_gameIndex",
          "type": "uint256"
        },
        {
          "name": "_offerIndex",
          "type": "uint256"
        }
      ],
      "name": "getOfferLastInteraction",
      "outputs": [
        {
          "name": "",
          "type": "uint256"
        }
      ],
      "payable": false,
      "stateMutability": "view",
      "type": "function",
      "signature": "0xe7f48a28"
    },
    {
      "constant": true,
      "inputs": [
        {
          "name": "_gameIndex",
          "type": "uint256"
        },
        {
          "name": "_offerIndex",
          "type": "uint256"
        }
      ],
      "name": "getOfferSolutionResult",
      "outputs": [
        {
          "name": "",
          "type": "uint256"
        }
      ],
      "payable": false,
      "stateMutability": "view",
      "type": "function",
      "signature": "0x3cbeaa9b"
    },
    {
      "constant": true,
      "inputs": [
        {
          "name": "_gameIndex",
          "type": "uint256"
        },
        {
          "name": "_offerIndex",
          "type": "uint256"
        }
      ],
      "name": "getOfferDisputeId",
      "outputs": [
        {
          "name": "",
          "type": "uint256"
        }
      ],
      "payable": false,
      "stateMutability": "view",
      "type": "function",
      "signature": "0x159c335c"
    },
    {
      "constant": true,
      "inputs": [
        {
          "name": "_gameIndex",
          "type": "uint256"
        },
        {
          "name": "_offerIndex",
          "type": "uint256"
        }
      ],
      "name": "getOfferTimeDispute",
      "outputs": [
        {
          "name": "",
          "type": "uint256"
        }
      ],
      "payable": false,
      "stateMutability": "view",
      "type": "function",
      "signature": "0x2329c147"
    },
    {
      "constant": true,
      "inputs": [
        {
          "name": "_gameIndex",
          "type": "uint256"
        },
        {
          "name": "_offerIndex",
          "type": "uint256"
        }
      ],
      "name": "getOfferPlayerFee",
      "outputs": [
        {
          "name": "",
          "type": "uint256"
        }
      ],
      "payable": false,
      "stateMutability": "view",
      "type": "function",
      "signature": "0xdb509fd8"
    },
    {
      "constant": true,
      "inputs": [
        {
          "name": "_gameIndex",
          "type": "uint256"
        },
        {
          "name": "_offerIndex",
          "type": "uint256"
        }
      ],
      "name": "getOfferCreatorFee",
      "outputs": [
        {
          "name": "",
          "type": "uint256"
        }
      ],
      "payable": false,
      "stateMutability": "view",
      "type": "function",
      "signature": "0xd5469b97"
    },
    {
      "constant": true,
      "inputs": [
        {
          "name": "_gameIndex",
          "type": "uint256"
        },
        {
          "name": "_offerIndex",
          "type": "uint256"
        }
      ],
      "name": "getOfferAppeal",
      "outputs": [
        {
          "name": "",
          "type": "uint256"
        }
      ],
      "payable": false,
      "stateMutability": "view",
      "type": "function",
      "signature": "0x2a02e6dc"
    },
    {
      "constant": true,
      "inputs": [
        {
          "name": "_gameIndex",
          "type": "uint256"
        },
        {
          "name": "_offerIndex",
          "type": "uint256"
        }
      ],
      "name": "getOfferAppealFee",
      "outputs": [
        {
          "name": "",
          "type": "uint256"
        }
      ],
      "payable": false,
      "stateMutability": "view",
      "type": "function",
      "signature": "0xd16cb165"
    },
    {
      "constant": true,
      "inputs": [
        {
          "name": "_gameIndex",
          "type": "uint256"
        }
      ],
      "name": "getOffersLength",
      "outputs": [
        {
          "name": "",
          "type": "uint256"
        }
      ],
      "payable": false,
      "stateMutability": "view",
      "type": "function",
      "signature": "0xf590901d"
    },
    {
      "constant": false,
      "inputs": [
        {
          "name": "_logicalContractIndex",
          "type": "uint256"
        },
        {
          "name": "_gameIndex",
          "type": "uint256"
        },
        {
          "name": "_player",
          "type": "address"
        },
        {
          "name": "_indexOffer",
          "type": "uint256"
        },
        {
          "name": "_submittedOffer",
          "type": "bool"
        },
        {
          "name": "_submittedHashSol",
          "type": "bool"
        },
        {
          "name": "_submittedSol",
          "type": "bool"
        }
      ],
      "name": "addOffersMap",
      "outputs": [],
      "payable": false,
      "stateMutability": "nonpayable",
      "type": "function",
      "signature": "0xd7b04487"
    },
    {
      "constant": false,
      "inputs": [
        {
          "name": "_logicalContractIndex",
          "type": "uint256"
        },
        {
          "name": "_gameIndex",
          "type": "uint256"
        },
        {
          "name": "_player",
          "type": "address"
        },
        {
          "name": "_indexOffer",
          "type": "uint256"
        }
      ],
      "name": "setOffersMapIndexOffer",
      "outputs": [],
      "payable": false,
      "stateMutability": "nonpayable",
      "type": "function",
      "signature": "0x5681fa2b"
    },
    {
      "constant": false,
      "inputs": [
        {
          "name": "_logicalContractIndex",
          "type": "uint256"
        },
        {
          "name": "_gameIndex",
          "type": "uint256"
        },
        {
          "name": "_player",
          "type": "address"
        },
        {
          "name": "_submittedOffer",
          "type": "bool"
        }
      ],
      "name": "setOffersMapSubmittedOffer",
      "outputs": [],
      "payable": false,
      "stateMutability": "nonpayable",
      "type": "function",
      "signature": "0xe765a542"
    },
    {
      "constant": false,
      "inputs": [
        {
          "name": "_logicalContractIndex",
          "type": "uint256"
        },
        {
          "name": "_gameIndex",
          "type": "uint256"
        },
        {
          "name": "_player",
          "type": "address"
        },
        {
          "name": "_submittedHashSol",
          "type": "bool"
        }
      ],
      "name": "setOffersMapSubmittedHashSol",
      "outputs": [],
      "payable": false,
      "stateMutability": "nonpayable",
      "type": "function",
      "signature": "0x5343b78e"
    },
    {
      "constant": false,
      "inputs": [
        {
          "name": "_logicalContractIndex",
          "type": "uint256"
        },
        {
          "name": "_gameIndex",
          "type": "uint256"
        },
        {
          "name": "_player",
          "type": "address"
        },
        {
          "name": "_submittedSol",
          "type": "bool"
        }
      ],
      "name": "setOffersMapSubmittedSol",
      "outputs": [],
      "payable": false,
      "stateMutability": "nonpayable",
      "type": "function",
      "signature": "0x5a284198"
    },
    {
      "constant": true,
      "inputs": [
        {
          "name": "_gameIndex",
          "type": "uint256"
        },
        {
          "name": "_player",
          "type": "address"
        }
      ],
      "name": "getOffersMapIndexOffer",
      "outputs": [
        {
          "name": "",
          "type": "uint256"
        }
      ],
      "payable": false,
      "stateMutability": "view",
      "type": "function",
      "signature": "0x0781e9bf"
    },
    {
      "constant": true,
      "inputs": [
        {
          "name": "_gameIndex",
          "type": "uint256"
        },
        {
          "name": "_player",
          "type": "address"
        }
      ],
      "name": "getOffersMapSubmittedOffer",
      "outputs": [
        {
          "name": "",
          "type": "bool"
        }
      ],
      "payable": false,
      "stateMutability": "view",
      "type": "function",
      "signature": "0x8d5f642e"
    },
    {
      "constant": true,
      "inputs": [
        {
          "name": "_gameIndex",
          "type": "uint256"
        },
        {
          "name": "_player",
          "type": "address"
        }
      ],
      "name": "getOffersMapSubmittedHashSol",
      "outputs": [
        {
          "name": "",
          "type": "bool"
        }
      ],
      "payable": false,
      "stateMutability": "view",
      "type": "function",
      "signature": "0x8f0f9088"
    },
    {
      "constant": true,
      "inputs": [
        {
          "name": "_gameIndex",
          "type": "uint256"
        },
        {
          "name": "_player",
          "type": "address"
        }
      ],
      "name": "getOffersMapSubmittedSol",
      "outputs": [
        {
          "name": "",
          "type": "bool"
        }
      ],
      "payable": false,
      "stateMutability": "view",
      "type": "function",
      "signature": "0x4c206059"
    },
    {
      "constant": false,
      "inputs": [
        {
          "name": "_logicalContractIndex",
          "type": "uint256"
        },
        {
          "name": "_gameIndex",
          "type": "uint256"
        },
        {
          "name": "_submittedGame",
          "type": "bool"
        },
        {
          "name": "_submittedSol",
          "type": "bool"
        }
      ],
      "name": "addCreationMap",
      "outputs": [],
      "payable": false,
      "stateMutability": "nonpayable",
      "type": "function",
      "signature": "0xea8bf468"
    },
    {
      "constant": false,
      "inputs": [
        {
          "name": "_logicalContractIndex",
          "type": "uint256"
        },
        {
          "name": "_gameIndex",
          "type": "uint256"
        },
        {
          "name": "_submittedGame",
          "type": "bool"
        }
      ],
      "name": "setCreationMapSubmittedGame",
      "outputs": [],
      "payable": false,
      "stateMutability": "nonpayable",
      "type": "function",
      "signature": "0x9a86be92"
    },
    {
      "constant": false,
      "inputs": [
        {
          "name": "_logicalContractIndex",
          "type": "uint256"
        },
        {
          "name": "_gameIndex",
          "type": "uint256"
        },
        {
          "name": "_submittedSol",
          "type": "bool"
        }
      ],
      "name": "setCreationMapSubmittedSol",
      "outputs": [],
      "payable": false,
      "stateMutability": "nonpayable",
      "type": "function",
      "signature": "0x6a1320a1"
    },
    {
      "constant": true,
      "inputs": [
        {
          "name": "_gameIndex",
          "type": "uint256"
        }
      ],
      "name": "getCreationMapSubmittedGame",
      "outputs": [
        {
          "name": "",
          "type": "bool"
        }
      ],
      "payable": false,
      "stateMutability": "view",
      "type": "function",
      "signature": "0x2a1594a1"
    },
    {
      "constant": true,
      "inputs": [
        {
          "name": "_gameIndex",
          "type": "uint256"
        }
      ],
      "name": "getCreationMapSubmittedSol",
      "outputs": [
        {
          "name": "",
          "type": "bool"
        }
      ],
      "payable": false,
      "stateMutability": "view",
      "type": "function",
      "signature": "0x6703edca"
    },
    {
      "constant": false,
      "inputs": [
        {
          "name": "_logicalContractIndex",
          "type": "uint256"
        },
        {
          "name": "_disputeId",
          "type": "uint256"
        },
        {
          "name": "_gameIndex",
          "type": "uint256"
        },
        {
          "name": "_player",
          "type": "address"
        }
      ],
      "name": "addDisputeIDtoArbitrationIndexID",
      "outputs": [],
      "payable": false,
      "stateMutability": "nonpayable",
      "type": "function",
      "signature": "0x6baaca95"
    },
    {
      "constant": false,
      "inputs": [
        {
          "name": "_logicalContractIndex",
          "type": "uint256"
        },
        {
          "name": "_disputeId",
          "type": "uint256"
        },
        {
          "name": "_gameIndex",
          "type": "uint256"
        }
      ],
      "name": "setDisputeIDtoArbitrationIndexIDGameIndex",
      "outputs": [],
      "payable": false,
      "stateMutability": "nonpayable",
      "type": "function",
      "signature": "0xca278cb9"
    },
    {
      "constant": false,
      "inputs": [
        {
          "name": "_logicalContractIndex",
          "type": "uint256"
        },
        {
          "name": "_disputeId",
          "type": "uint256"
        },
        {
          "name": "_player",
          "type": "address"
        }
      ],
      "name": "setDisputeIDtoArbitrationIndexIDPlayer",
      "outputs": [],
      "payable": false,
      "stateMutability": "nonpayable",
      "type": "function",
      "signature": "0x8130894c"
    },
    {
      "constant": true,
      "inputs": [
        {
          "name": "_disputeId",
          "type": "uint256"
        }
      ],
      "name": "getDisputeIDtoArbitrationIndexIDGameIndex",
      "outputs": [
        {
          "name": "",
          "type": "uint256"
        }
      ],
      "payable": false,
      "stateMutability": "view",
      "type": "function",
      "signature": "0xe05e6752"
    },
    {
      "constant": true,
      "inputs": [
        {
          "name": "_disputeId",
          "type": "uint256"
        }
      ],
      "name": "getDisputeIDtoArbitrationIndexIDPlayer",
      "outputs": [
        {
          "name": "",
          "type": "address"
        }
      ],
      "payable": false,
      "stateMutability": "view",
      "type": "function",
      "signature": "0x19327507"
    },
    {
      "constant": false,
      "inputs": [
        {
          "name": "_logicalContractIndex",
          "type": "uint256"
        },
        {
          "name": "_feeBalance",
          "type": "uint256"
        }
      ],
      "name": "SetFeeBalance",
      "outputs": [],
      "payable": false,
      "stateMutability": "nonpayable",
      "type": "function",
      "signature": "0xe10d2ef3"
    },
    {
      "constant": true,
      "inputs": [],
      "name": "getFeeBalance",
      "outputs": [
        {
          "name": "",
          "type": "uint256"
        }
      ],
      "payable": false,
      "stateMutability": "view",
      "type": "function",
      "signature": "0xd4c30ceb"
    },
    {
      "constant": false,
      "inputs": [
        {
          "name": "_logicalContractIndex",
          "type": "uint256"
        },
        {
          "name": "_destination",
          "type": "address"
        },
        {
          "name": "_amount",
          "type": "uint256"
        }
      ],
      "name": "transferEth",
      "outputs": [],
      "payable": false,
      "stateMutability": "nonpayable",
      "type": "function",
      "signature": "0xf524f146"
    }
  ],
  "bytecode": "0x60806040523480156200001157600080fd5b50604051620061523803806200615283398101806040526101608110156200003857600080fd5b8151602083018051919392830192916401000000008111156200005a57600080fd5b820160208101848111156200006e57600080fd5b81516401000000008111828201871017156200008957600080fd5b5050602082015160408301516060840151608085015160a086015160c087015160e088015161010089015161012090990151979a50959850939692959194909392909180600160a060020a0381161515620000e357600080fd5b60008054600160a060020a031916600160a060020a03831690811782556040519091907f8be0079c531659141344cd1fd0a4f28419497f9722a3daafe3b4186f6b6457e0908290a35061271083106200013b57600080fd5b600160a060020a038b1615156200015157600080fd5b8715156200015e57600080fd5b8615156200016b57600080fd5b8515156200017857600080fd5b8415156200018557600080fd5b8315156200019257600080fd5b8115156200019f57600080fd5b60108054600160a060020a031916600160a060020a038d161790558951620001cf9060119060208d0190620001fe565b5050600997909755600a95909555600b93909355600c91909155600d55600e55600f5560125550620002a39050565b828054600181600116156101000203166002900490600052602060002090601f016020900481019282601f106200024157805160ff191683800117855562000271565b8280016001018555821562000271579182015b828111156200027157825182559160200191906001019062000254565b506200027f92915062000283565b5090565b620002a091905b808211156200027f57600081556001016200028a565b90565b615e9f80620002b36000396000f3fe6080604052600436106104f85763ffffffff7c0100000000000000000000000000000000000000000000000000000000600035041662712efe81146104fa5780627c88f0146105385780630781e9bf146105625780630ea7c0ea146105ad578063159c335c1461063a578063187c6eb51461066a578063193275071461069a57806320c4491d146106e057806321b113f3146107105780632329c147146107af57806324478401146107df5780632483ce8c14610815578063251006ce1461084e5780632a02e6dc146108845780632a1594a1146108b45780632ac21d27146108de5780632afe6169146109085780632fdfdca01461093e5780632ff5ac731461095357806332c2cc35146109895780633387e66a146109b35780633750cfe6146109c857806338781f6d146109f25780633a9a8a9514610a2e5780633aebe34314610a735780633cbeaa9b14610a885780633e239dc014610ab857806345560f1b14610ae2578063478a94ae14610b1e5780634bcdbeea14610b485780634c20605914610b785780635343b78e14610bb15780635681fa2b14610bf85780635a28419814610c3d5780635c22957614610c8457806363d28fe214610c99578063654f1ccb14610cc357806365b9f52c14610cd857806366fafd7514610d145780636703edca14610d475780636a1320a114610d715780636baaca9514610da95780636f6ccfc814610dee5780636fffb90614610e2a578063756370a614610e3f57806376508ce014610e695780637ad40c8614610ef25780637ce3489b14610f1c5780637cfdb1b914610f465780637e0b230b14610f5b5780638130894c14610f7057806382a8c7d614610faf57806389ff67b814610ff25780638d5f642e146110a85780638eea3d65146110e15780638f0f9088146111175780638f2d26c61461115057806390ce60051461117a578063915bb768146111a4578063918d1f65146111b95780639248fcd9146111e357806392ee973f146112735780639942c9a1146112a55780639a86be92146112e15780639af4a374146113195780639c5dc026146113555780639d97e1001461137f578063a842ac18146113b5578063a9198ae41461147b578063b0f6de48146114b1578063bb396833146114e7578063bc882a8f14611511578063bdf2b00214611526578063be74264d14611562578063bfa0eb0114611577578063c10d9c7e146115b3578063ca278cb9146115ef578063cd08e3b714611625578063cf8fbf871461164f578063d16cb1651461167b578063d2b4a066146116ab578063d4c30ceb146116e7578063d5469b97146116fc578063d66691ab1461172c578063d7b044871461175c578063db034279146117b9578063db509fd8146117ce578063dbe1d9be146117fe578063dcdd910814611828578063e05e67521461185e578063e0efefd914611888578063e10d2ef31461189d578063e29431c2146118cd578063e541b31614611956578063e55a6a8a14611995578063e765a542146119c5578063e7f48a2814611a0c578063e84132e514611a3c578063ea05ac1a14611a78578063ea8bf46814611aa2578063ee2e329d14611ae2578063f0b7ed1514611b15578063f12ac8b214611b51578063f270da7b14611b7b578063f524f14614611b90578063f590901d14611bcf578063f688b3b614611bf9578063f7e7329d14611c23578063f81f9f3314611c59578063fd9be52214611c6e578063fea93d7d14611ca7575b005b34801561050657600080fd5b506105246004803603602081101561051d57600080fd5b5035611cd1565b604080519115158252519081900360200190f35b34801561054457600080fd5b506104f86004803603602081101561055b57600080fd5b5035611d09565b34801561056e57600080fd5b5061059b6004803603604081101561058557600080fd5b5080359060200135600160a060020a0316611d2d565b60408051918252519081900360200190f35b3480156105b957600080fd5b506104f8600480360360408110156105d057600080fd5b600160a060020a0382351691908101906040810160208201356401000000008111156105fb57600080fd5b82018360208201111561060d57600080fd5b8035906020019184600183028401116401000000008311171561062f57600080fd5b509092509050611d55565b34801561064657600080fd5b5061059b6004803603604081101561065d57600080fd5b5080359060200135611daa565b34801561067657600080fd5b5061059b6004803603604081101561068d57600080fd5b5080359060200135611dde565b3480156106a657600080fd5b506106c4600480360360208110156106bd57600080fd5b5035611e12565b60408051600160a060020a039092168252519081900360200190f35b3480156106ec57600080fd5b5061059b6004803603604081101561070357600080fd5b5080359060200135611e30565b34801561071c57600080fd5b5061073a6004803603602081101561073357600080fd5b5035611e64565b6040805160208082528351818301528351919283929083019185019080838360005b8381101561077457818101518382015260200161075c565b50505050905090810190601f1680156107a15780820380516001836020036101000a031916815260200191505b509250505060405180910390f35b3480156107bb57600080fd5b5061059b600480360360408110156107d257600080fd5b5080359060200135611f03565b3480156107eb57600080fd5b506104f86004803603606081101561080257600080fd5b5080359060208101359060400135611f37565b34801561082157600080fd5b506104f86004803603604081101561083857600080fd5b50600160a060020a038135169060200135612034565b34801561085a57600080fd5b506104f86004803603606081101561087157600080fd5b50803590602081013590604001356120ac565b34801561089057600080fd5b5061059b600480360360408110156108a757600080fd5b50803590602001356121a9565b3480156108c057600080fd5b50610524600480360360208110156108d757600080fd5b50356121ec565b3480156108ea57600080fd5b5061059b6004803603602081101561090157600080fd5b5035612201565b34801561091457600080fd5b506104f86004803603606081101561092b57600080fd5b508035906020810135906040013561222b565b34801561094a57600080fd5b5061059b612328565b34801561095f57600080fd5b506104f86004803603606081101561097657600080fd5b508035906020810135906040013561232f565b34801561099557600080fd5b5061059b600480360360208110156109ac57600080fd5b503561242c565b3480156109bf57600080fd5b5061059b612456565b3480156109d457600080fd5b506104f8600480360360208110156109eb57600080fd5b503561245c565b3480156109fe57600080fd5b506104f860048036036080811015610a1557600080fd5b5080359060208101359060408101359060600135612480565b348015610a3a57600080fd5b506104f860048036036080811015610a5157600080fd5b5080359060208101359060408101359060600135600160a060020a031661258a565b348015610a7f57600080fd5b5061059b6126ac565b348015610a9457600080fd5b5061059b60048036036040811015610aab57600080fd5b50803590602001356126b2565b348015610ac457600080fd5b506104f860048036036020811015610adb57600080fd5b50356126ee565b348015610aee57600080fd5b506104f860048036036080811015610b0557600080fd5b5080359060208101359060408101359060600135612712565b348015610b2a57600080fd5b5061059b60048036036020811015610b4157600080fd5b503561281c565b348015610b5457600080fd5b506106c460048036036040811015610b6b57600080fd5b5080359060200135612846565b348015610b8457600080fd5b5061052460048036036040811015610b9b57600080fd5b5080359060200135600160a060020a0316612881565b348015610bbd57600080fd5b506104f860048036036080811015610bd457600080fd5b50803590602081013590600160a060020a03604082013516906060013515156128b5565b348015610c0457600080fd5b506104f860048036036080811015610c1b57600080fd5b50803590602081013590600160a060020a0360408201351690606001356129c7565b348015610c4957600080fd5b506104f860048036036080811015610c6057600080fd5b50803590602081013590600160a060020a0360408201351690606001351515612ac1565b348015610c9057600080fd5b5061059b612bd5565b348015610ca557600080fd5b5061059b60048036036020811015610cbc57600080fd5b5035612bdb565b348015610ccf57600080fd5b5061059b612c05565b348015610ce457600080fd5b506104f860048036036060811015610cfb57600080fd5b508035906020810135906040013563ffffffff16612c0b565b348015610d2057600080fd5b506104f860048036036020811015610d3757600080fd5b5035600160a060020a0316612d1b565b348015610d5357600080fd5b5061052460048036036020811015610d6a57600080fd5b5035612d3a565b348015610d7d57600080fd5b506104f860048036036060811015610d9457600080fd5b50803590602081013590604001351515612d54565b348015610db557600080fd5b506104f860048036036080811015610dcc57600080fd5b5080359060208101359060408101359060600135600160a060020a0316612e4f565b348015610dfa57600080fd5b506104f860048036036080811015610e1157600080fd5b5080359060208101359060408101359060600135612f76565b348015610e3657600080fd5b50610524613080565b348015610e4b57600080fd5b5061059b60048036036020811015610e6257600080fd5b5035613091565b348015610e7557600080fd5b506104f860048036036060811015610e8c57600080fd5b813591602081013591810190606081016040820135640100000000811115610eb357600080fd5b820183602082011115610ec557600080fd5b80359060200191846001830284011164010000000083111715610ee757600080fd5b5090925090506130bb565b348015610efe57600080fd5b506106c460048036036020811015610f1557600080fd5b50356131c4565b348015610f2857600080fd5b506104f860048036036020811015610f3f57600080fd5b50356131fd565b348015610f5257600080fd5b5061059b613223565b348015610f6757600080fd5b5061059b613229565b348015610f7c57600080fd5b506104f860048036036060811015610f9357600080fd5b5080359060208101359060400135600160a060020a031661322f565b348015610fbb57600080fd5b50610fd960048036036020811015610fd257600080fd5b5035613334565b6040805163ffffffff9092168252519081900360200190f35b348015610ffe57600080fd5b506104f860048036036101e081101561101657600080fd5b813591602081013591600160a060020a036040830135169160608101359160808201359160a08101359181019060e0810160c082013564010000000081111561105e57600080fd5b82018360208201111561107057600080fd5b8035906020019184600183028401116401000000008311171561109257600080fd5b9193509150803590602081013590604001613362565b3480156110b457600080fd5b50610524600480360360408110156110cb57600080fd5b5080359060200135600160a060020a0316613644565b3480156110ed57600080fd5b506104f86004803603606081101561110457600080fd5b5080359060208101359060400135613672565b34801561112357600080fd5b506105246004803603604081101561113a57600080fd5b5080359060200135600160a060020a031661376f565b34801561115c57600080fd5b506104f86004803603602081101561117357600080fd5b50356137a2565b34801561118657600080fd5b5061059b6004803603602081101561119d57600080fd5b50356137c6565b3480156111b057600080fd5b5061073a6137f0565b3480156111c557600080fd5b506104f8600480360360208110156111dc57600080fd5b5035613886565b3480156111ef57600080fd5b506104f86004803603608081101561120657600080fd5b8135916020810135916040820135919081019060808101606082013564010000000081111561123457600080fd5b82018360208201111561124657600080fd5b8035906020019184600183028401116401000000008311171561126857600080fd5b50909250905061389e565b34801561127f57600080fd5b506104f86004803603604081101561129657600080fd5b508035151590602001356139b4565b3480156112b157600080fd5b506104f8600480360360808110156112c857600080fd5b5080359060208101359060408101359060600135613a5d565b3480156112ed57600080fd5b506104f86004803603606081101561130457600080fd5b50803590602081013590604001351515613b8a565b34801561132557600080fd5b506104f86004803603608081101561133c57600080fd5b5080359060208101359060408101359060600135613c7e565b34801561136157600080fd5b5061059b6004803603602081101561137857600080fd5b5035613da5565b34801561138b57600080fd5b506104f8600480360360608110156113a257600080fd5b5080359060208101359060400135613dcf565b3480156113c157600080fd5b506104f860048036036101c08110156113d957600080fd5b81359163ffffffff60208201351691600160a060020a0360408301351691606081013591608082019160e08101916101208201916101608101359161018082013591908101906101c081016101a082013564010000000081111561143c57600080fd5b82018360208201111561144e57600080fd5b8035906020019184600183028401116401000000008311171561147057600080fd5b509092509050613ecc565b34801561148757600080fd5b506104f86004803603606081101561149e57600080fd5b50803590602081013590604001356142d0565b3480156114bd57600080fd5b506104f8600480360360608110156114d457600080fd5b50803590602081013590604001356143cd565b3480156114f357600080fd5b506106c46004803603602081101561150a57600080fd5b50356144ca565b34801561151d57600080fd5b5061059b6144f6565b34801561153257600080fd5b506104f86004803603608081101561154957600080fd5b50803590602081013590604081013590606001356144fc565b34801561156e57600080fd5b5061059b614606565b34801561158357600080fd5b506104f86004803603608081101561159a57600080fd5b508035906020810135906040810135906060013561460c565b3480156115bf57600080fd5b506104f8600480360360808110156115d657600080fd5b5080359060208101359060408101359060600135614716565b3480156115fb57600080fd5b506104f86004803603606081101561161257600080fd5b5080359060208101359060400135614820565b34801561163157600080fd5b5061059b6004803603602081101561164857600080fd5b5035614906565b34801561165b57600080fd5b506104f86004803603602081101561167257600080fd5b50351515614930565b34801561168757600080fd5b5061059b6004803603604081101561169e57600080fd5b5080359060200135614998565b3480156116b757600080fd5b506104f8600480360360808110156116ce57600080fd5b50803590602081013590604081013590606001356149cc565b3480156116f357600080fd5b5061059b614ad6565b34801561170857600080fd5b5061059b6004803603604081101561171f57600080fd5b5080359060200135614adc565b34801561173857600080fd5b5061059b6004803603604081101561174f57600080fd5b5080359060200135614b10565b34801561176857600080fd5b506104f8600480360360e081101561177f57600080fd5b50803590602081013590600160a060020a0360408201351690606081013590608081013515159060a081013515159060c001351515614b44565b3480156117c557600080fd5b5061059b614cb3565b3480156117da57600080fd5b5061059b600480360360408110156117f157600080fd5b5080359060200135614cb9565b34801561180a57600080fd5b5061073a6004803603602081101561182157600080fd5b5035614ced565b34801561183457600080fd5b506104f86004803603606081101561184b57600080fd5b5080359060208101359060400135614d69565b34801561186a57600080fd5b5061059b6004803603602081101561188157600080fd5b5035614e66565b34801561189457600080fd5b506106c4614e78565b3480156118a957600080fd5b506104f8600480360360408110156118c057600080fd5b5080359060200135614e87565b3480156118d957600080fd5b506104f8600480360360608110156118f057600080fd5b81359160208101359181019060608101604082013564010000000081111561191757600080fd5b82018360208201111561192957600080fd5b8035906020019184600183028401116401000000008311171561194b57600080fd5b509092509050614f60565b34801561196257600080fd5b506104f86004803603606081101561197957600080fd5b5080359060208101359060400135600160a060020a031661504b565b3480156119a157600080fd5b5061073a600480360360408110156119b857600080fd5b5080359060200135615168565b3480156119d157600080fd5b506104f8600480360360808110156119e857600080fd5b50803590602081013590600160a060020a0360408201351690606001351515615229565b348015611a1857600080fd5b5061059b60048036036040811015611a2f57600080fd5b5080359060200135615335565b348015611a4857600080fd5b506104f860048036036080811015611a5f57600080fd5b5080359060208101359060408101359060600135615369565b348015611a8457600080fd5b506104f860048036036020811015611a9b57600080fd5b5035615473565b348015611aae57600080fd5b506104f860048036036080811015611ac557600080fd5b508035906020810135906040810135151590606001351515615497565b348015611aee57600080fd5b506104f860048036036020811015611b0557600080fd5b5035600160a060020a03166155be565b348015611b2157600080fd5b506104f860048036036080811015611b3857600080fd5b5080359060208101359060408101359060600135615638565b348015611b5d57600080fd5b5061059b60048036036020811015611b7457600080fd5b5035615742565b348015611b8757600080fd5b506106c461576c565b348015611b9c57600080fd5b506104f860048036036060811015611bb357600080fd5b50803590600160a060020a03602082013516906040013561577b565b348015611bdb57600080fd5b5061059b60048036036020811015611bf257600080fd5b5035615943565b348015611c0557600080fd5b506104f860048036036020811015611c1c57600080fd5b5035615955565b348015611c2f57600080fd5b506104f860048036036060811015611c4657600080fd5b5080359060208101359060400135615979565b348015611c6557600080fd5b5061059b615a76565b348015611c7a57600080fd5b506104f860048036036040811015611c9157600080fd5b50600160a060020a038135169060200135615a7c565b348015611cb357600080fd5b5061059b60048036036020811015611cca57600080fd5b5035615b68565b6000600882815481101515611ce257fe5b90600052602060002090602091828204019190069054906101000a900460ff169050919050565b611d11613080565b1515611d1c57600080fd5b801515611d2857600080fd5b600e55565b6000918252600460209081526040808420600160a060020a0393909316845291905290205490565b611d5d613080565b1515611d6857600080fd5b600160a060020a0383161515611d7d57600080fd5b60108054600160a060020a031916600160a060020a038516179055611da460118383615c02565b50505050565b6000828152600360205260408120805483908110611dc457fe5b90600052602060002090600d020160070154905092915050565b6000828152600360205260408120805483908110611df857fe5b90600052602060002090600d020160010154905092915050565b600090815260066020526040902060010154600160a060020a031690565b6000828152600360205260408120805483908110611e4a57fe5b90600052602060002090600d020160030154905092915050565b600081815260026020818152604092839020805484516001821615610100026000190190911693909304601f81018390048302840183019094528383526060939091830182828015611ef75780601f10611ecc57610100808354040283529160200191611ef7565b820191906000526020600020905b815481529060010190602001808311611eda57829003601f168201915b50505050509050919050565b6000828152600360205260408120805483908110611f1d57fe5b90600052602060002090600d020160080154905092915050565b60135483908110611f8e576040805160e560020a62461bcd0281526020600482015260226024820152600080516020615e34833981519152604482015260f260020a611b9d02606482015290519081900360840190fd5b6013805433919083908110611f9f57fe5b600091825260209091200154600160a060020a031614612009576040805160e560020a62461bcd0281526020600482015260266024820152600080516020615e54833981519152604482015260d260020a651b9d1c9858dd02606482015290519081900360840190fd5b8160018481548110151561201957fe5b90600052602060002090600c02016004018190555050505050565b61203c613080565b151561204757600080fd5b601354811061205557600080fd5b600160a060020a038216151561206a57600080fd5b8160138281548110151561207a57fe5b9060005260206000200160006101000a815481600160a060020a030219169083600160a060020a031602179055505050565b60135483908110612103576040805160e560020a62461bcd0281526020600482015260226024820152600080516020615e34833981519152604482015260f260020a611b9d02606482015290519081900360840190fd5b601380543391908390811061211457fe5b600091825260209091200154600160a060020a03161461217e576040805160e560020a62461bcd0281526020600482015260266024820152600080516020615e54833981519152604482015260d260020a651b9d1c9858dd02606482015290519081900360840190fd5b8160018481548110151561218e57fe5b90600052602060002090600c02016006018190555050505050565b60008281526003602052604081208054839081106121c357fe5b60009182526020909120600b600d90920201015460ff1660028111156121e557fe5b9392505050565b60009081526005602052604090205460ff1690565b600060018281548110151561221257fe5b90600052602060002090600c0201600301549050919050565b60135483908110612282576040805160e560020a62461bcd0281526020600482015260226024820152600080516020615e34833981519152604482015260f260020a611b9d02606482015290519081900360840190fd5b601380543391908390811061229357fe5b600091825260209091200154600160a060020a0316146122fd576040805160e560020a62461bcd0281526020600482015260266024820152600080516020615e54833981519152604482015260d260020a651b9d1c9858dd02606482015290519081900360840190fd5b8160018481548110151561230d57fe5b90600052602060002090600c02016005018190555050505050565b600d545b90565b60135483908110612386576040805160e560020a62461bcd0281526020600482015260226024820152600080516020615e34833981519152604482015260f260020a611b9d02606482015290519081900360840190fd5b601380543391908390811061239757fe5b600091825260209091200154600160a060020a031614612401576040805160e560020a62461bcd0281526020600482015260266024820152600080516020615e54833981519152604482015260d260020a651b9d1c9858dd02606482015290519081900360840190fd5b8160018481548110151561241157fe5b90600052602060002090600c02016007018190555050505050565b600060018281548110151561243d57fe5b90600052602060002090600c0201600101549050919050565b60095490565b612464613080565b151561246f57600080fd5b80151561247b57600080fd5b600a55565b601354849081106124d7576040805160e560020a62461bcd0281526020600482015260226024820152600080516020615e34833981519152604482015260f260020a611b9d02606482015290519081900360840190fd5b60138054339190839081106124e857fe5b600091825260209091200154600160a060020a031614612552576040805160e560020a62461bcd0281526020600482015260266024820152600080516020615e54833981519152604482015260d260020a651b9d1c9858dd02606482015290519081900360840190fd5b600084815260036020526040812080548590811061256c57fe5b600091825260209091206008600d9092020101929092555050505050565b601354849081106125e1576040805160e560020a62461bcd0281526020600482015260226024820152600080516020615e34833981519152604482015260f260020a611b9d02606482015290519081900360840190fd5b60138054339190839081106125f257fe5b600091825260209091200154600160a060020a03161461265c576040805160e560020a62461bcd0281526020600482015260266024820152600080516020615e54833981519152604482015260d260020a651b9d1c9858dd02606482015290519081900360840190fd5b600084815260036020526040812080548590811061267657fe5b60009182526020909120600d909102018054600160a060020a031916600160a060020a0394909416939093179092555050505050565b60085490565b60008281526003602052604081208054839081106126cc57fe5b600091825260209091206006600d9092020181015460ff16908111156121e557fe5b6126f6613080565b151561270157600080fd5b80151561270d57600080fd5b600b55565b60135484908110612769576040805160e560020a62461bcd0281526020600482015260226024820152600080516020615e34833981519152604482015260f260020a611b9d02606482015290519081900360840190fd5b601380543391908390811061277a57fe5b600091825260209091200154600160a060020a0316146127e4576040805160e560020a62461bcd0281526020600482015260266024820152600080516020615e54833981519152604482015260d260020a651b9d1c9858dd02606482015290519081900360840190fd5b60008481526003602052604081208054859081106127fe57fe5b60009182526020909120600c600d9092020101929092555050505050565b600060018281548110151561282d57fe5b90600052602060002090600c0201600201549050919050565b600082815260036020526040812080548390811061286057fe5b60009182526020909120600d9091020154600160a060020a03169392505050565b6000918252600460209081526040808420600160a060020a0393909316845291905290206001015462010000900460ff1690565b6013548490811061290c576040805160e560020a62461bcd0281526020600482015260226024820152600080516020615e34833981519152604482015260f260020a611b9d02606482015290519081900360840190fd5b601380543391908390811061291d57fe5b600091825260209091200154600160a060020a031614612987576040805160e560020a62461bcd0281526020600482015260266024820152600080516020615e54833981519152604482015260d260020a651b9d1c9858dd02606482015290519081900360840190fd5b506000928352600460209081526040808520600160a060020a039094168552929052912060010180549115156101000261ff001990921691909117905550565b60135484908110612a1e576040805160e560020a62461bcd0281526020600482015260226024820152600080516020615e34833981519152604482015260f260020a611b9d02606482015290519081900360840190fd5b6013805433919083908110612a2f57fe5b600091825260209091200154600160a060020a031614612a99576040805160e560020a62461bcd0281526020600482015260266024820152600080516020615e54833981519152604482015260d260020a651b9d1c9858dd02606482015290519081900360840190fd5b506000928352600460209081526040808520600160a060020a03909416855292905291205550565b60135484908110612b18576040805160e560020a62461bcd0281526020600482015260226024820152600080516020615e34833981519152604482015260f260020a611b9d02606482015290519081900360840190fd5b6013805433919083908110612b2957fe5b600091825260209091200154600160a060020a031614612b93576040805160e560020a62461bcd0281526020600482015260266024820152600080516020615e54833981519152604482015260d260020a651b9d1c9858dd02606482015290519081900360840190fd5b506000928352600460209081526040808520600160a060020a03909416855292905291206001018054911515620100000262ff00001990921691909117905550565b600b5490565b6000600182815481101515612bec57fe5b90600052602060002090600c0201600901549050919050565b60015490565b60135483908110612c62576040805160e560020a62461bcd0281526020600482015260226024820152600080516020615e34833981519152604482015260f260020a611b9d02606482015290519081900360840190fd5b6013805433919083908110612c7357fe5b600091825260209091200154600160a060020a031614612cdd576040805160e560020a62461bcd0281526020600482015260266024820152600080516020615e54833981519152604482015260d260020a651b9d1c9858dd02606482015290519081900360840190fd5b81600184815481101515612ced57fe5b60009182526020909120600c90910201805463ffffffff191663ffffffff9290921691909117905550505050565b612d23613080565b1515612d2e57600080fd5b612d3781615b92565b50565b600090815260056020526040902054610100900460ff1690565b60135483908110612dab576040805160e560020a62461bcd0281526020600482015260226024820152600080516020615e34833981519152604482015260f260020a611b9d02606482015290519081900360840190fd5b6013805433919083908110612dbc57fe5b600091825260209091200154600160a060020a031614612e26576040805160e560020a62461bcd0281526020600482015260266024820152600080516020615e54833981519152604482015260d260020a651b9d1c9858dd02606482015290519081900360840190fd5b5060009182526005602052604090912080549115156101000261ff001990921691909117905550565b60135484908110612ea6576040805160e560020a62461bcd0281526020600482015260226024820152600080516020615e34833981519152604482015260f260020a611b9d02606482015290519081900360840190fd5b6013805433919083908110612eb757fe5b600091825260209091200154600160a060020a031614612f21576040805160e560020a62461bcd0281526020600482015260266024820152600080516020615e54833981519152604482015260d260020a651b9d1c9858dd02606482015290519081900360840190fd5b612f29615c80565b5050604080518082018252928352600160a060020a039182166020808501918252600095865260069052932091518255915160019091018054600160a060020a0319169190921617905550565b60135484908110612fcd576040805160e560020a62461bcd0281526020600482015260226024820152600080516020615e34833981519152604482015260f260020a611b9d02606482015290519081900360840190fd5b6013805433919083908110612fde57fe5b600091825260209091200154600160a060020a031614613048576040805160e560020a62461bcd0281526020600482015260266024820152600080516020615e54833981519152604482015260d260020a651b9d1c9858dd02606482015290519081900360840190fd5b600084815260036020526040812080548590811061306257fe5b600091825260209091206005600d9092020101929092555050505050565b600054600160a060020a0316331490565b60006001828154811015156130a257fe5b90600052602060002090600c0201600701549050919050565b60135484908110613112576040805160e560020a62461bcd0281526020600482015260226024820152600080516020615e34833981519152604482015260f260020a611b9d02606482015290519081900360840190fd5b601380543391908390811061312357fe5b600091825260209091200154600160a060020a03161461318d576040805160e560020a62461bcd0281526020600482015260266024820152600080516020615e54833981519152604482015260d260020a651b9d1c9858dd02606482015290519081900360840190fd5b828260018681548110151561319e57fe5b90600052602060002090600c0201600b0191906131bc929190615c02565b505050505050565b60006001828154811015156131d557fe5b60009182526020909120600c90910201546401000000009004600160a060020a031692915050565b613205613080565b151561321057600080fd5b612710811061321e57600080fd5b600f55565b600c5490565b600e5490565b60135483908110613286576040805160e560020a62461bcd0281526020600482015260226024820152600080516020615e34833981519152604482015260f260020a611b9d02606482015290519081900360840190fd5b601380543391908390811061329757fe5b600091825260209091200154600160a060020a031614613301576040805160e560020a62461bcd0281526020600482015260266024820152600080516020615e54833981519152604482015260d260020a651b9d1c9858dd02606482015290519081900360840190fd5b506000918252600660205260409091206001018054600160a060020a031916600160a060020a0390921691909117905550565b600060018281548110151561334557fe5b60009182526020909120600c909102015463ffffffff1692915050565b6013548b9081106133b9576040805160e560020a62461bcd0281526020600482015260226024820152600080516020615e34833981519152604482015260f260020a611b9d02606482015290519081900360840190fd5b60138054339190839081106133ca57fe5b600091825260209091200154600160a060020a031614613434576040805160e560020a62461bcd0281526020600482015260266024820152600080516020615e54833981519152604482015260d260020a651b9d1c9858dd02606482015290519081900360840190fd5b61343c615c97565b6101a0604051908101604052808c600160a060020a031681526020018b81526020018a815260200189815260200188888080601f016020809104026020016040519081016040528093929190818152602001838380828437600092019190915250505090825250602081018790526040018560068111156134b957fe5b60068111156134c457fe5b8152843560208083019190915285013560408083019190915285013560608083019190915285013560808083019190915260a090910190850135600281111561350957fe5b600281111561351457fe5b815260a085013560209182015260008e81526003808352604080832080546001808201808455928652948690208751600d909202018054600160a060020a031916600160a060020a03909216919091178155868601519481019490945590850151600284015560608501519183019190915560808401518051949550909385936135a5926004850192910190615d09565b5060a0820151816005015560c08201518160060160006101000a81548160ff021916908360068111156135d457fe5b021790555060e0820151600782015561010082015160088201556101208201516009820155610140820151600a820155610160820151600b8201805460ff1916600183600281111561362257fe5b021790555061018082015181600c015550505050505050505050505050505050565b6000918252600460209081526040808420600160a060020a0393909316845291905290206001015460ff1690565b601354839081106136c9576040805160e560020a62461bcd0281526020600482015260226024820152600080516020615e34833981519152604482015260f260020a611b9d02606482015290519081900360840190fd5b60138054339190839081106136da57fe5b600091825260209091200154600160a060020a031614613744576040805160e560020a62461bcd0281526020600482015260266024820152600080516020615e54833981519152604482015260d260020a651b9d1c9858dd02606482015290519081900360840190fd5b8160018481548110151561375457fe5b90600052602060002090600c02016003018190555050505050565b6000918252600460209081526040808420600160a060020a03939093168452919052902060010154610100900460ff1690565b6137aa613080565b15156137b557600080fd5b8015156137c157600080fd5b601255565b60006001828154811015156137d757fe5b90600052602060002090600c0201600a01549050919050565b60118054604080516020601f600260001961010060018816150201909516949094049384018190048102820181019092528281526060939092909183018282801561387c5780601f106138515761010080835404028352916020019161387c565b820191906000526020600020905b81548152906001019060200180831161385f57829003601f168201915b5050505050905090565b61388e613080565b151561389957600080fd5b600955565b601354859081106138f5576040805160e560020a62461bcd0281526020600482015260226024820152600080516020615e34833981519152604482015260f260020a611b9d02606482015290519081900360840190fd5b601380543391908390811061390657fe5b600091825260209091200154600160a060020a031614613970576040805160e560020a62461bcd0281526020600482015260266024820152600080516020615e54833981519152604482015260d260020a651b9d1c9858dd02606482015290519081900360840190fd5b600085815260036020526040812080548690811061398a57fe5b60009182526020909120600d9091020190506139aa600482018585615c02565b5050505050505050565b6139bc613080565b15156139c757600080fd5b6008548110613a20576040805160e560020a62461bcd02815260206004820152601860248201527f67616d657479706520696e646578206e6f742076616c69640000000000000000604482015290519081900360640190fd5b81600882815481101515613a3057fe5b90600052602060002090602091828204019190066101000a81548160ff0219169083151502179055505050565b60135484908110613ab4576040805160e560020a62461bcd0281526020600482015260226024820152600080516020615e34833981519152604482015260f260020a611b9d02606482015290519081900360840190fd5b6013805433919083908110613ac557fe5b600091825260209091200154600160a060020a031614613b2f576040805160e560020a62461bcd0281526020600482015260266024820152600080516020615e54833981519152604482015260d260020a651b9d1c9858dd02606482015290519081900360840190fd5b6000848152600360205260408120805485908110613b4957fe5b90600052602060002090600d02019050826002811115613b6557fe5b600b8201805460ff19166001836002811115613b7d57fe5b0217905550505050505050565b60135483908110613be1576040805160e560020a62461bcd0281526020600482015260226024820152600080516020615e34833981519152604482015260f260020a611b9d02606482015290519081900360840190fd5b6013805433919083908110613bf257fe5b600091825260209091200154600160a060020a031614613c5c576040805160e560020a62461bcd0281526020600482015260266024820152600080516020615e54833981519152604482015260d260020a651b9d1c9858dd02606482015290519081900360840190fd5b50600091825260056020526040909120805460ff191691151591909117905550565b60135484908110613cd5576040805160e560020a62461bcd0281526020600482015260226024820152600080516020615e34833981519152604482015260f260020a611b9d02606482015290519081900360840190fd5b6013805433919083908110613ce657fe5b600091825260209091200154600160a060020a031614613d50576040805160e560020a62461bcd0281526020600482015260266024820152600080516020615e54833981519152604482015260d260020a651b9d1c9858dd02606482015290519081900360840190fd5b6000848152600360205260408120805485908110613d6a57fe5b90600052602060002090600d02019050826006811115613d8657fe5b8160060160006101000a81548160ff02191690836006811115613b7d57fe5b6000600182815481101515613db657fe5b90600052602060002090600c0201600501549050919050565b60135483908110613e26576040805160e560020a62461bcd0281526020600482015260226024820152600080516020615e34833981519152604482015260f260020a611b9d02606482015290519081900360840190fd5b6013805433919083908110613e3757fe5b600091825260209091200154600160a060020a031614613ea1576040805160e560020a62461bcd0281526020600482015260266024820152600080516020615e54833981519152604482015260d260020a651b9d1c9858dd02606482015290519081900360840190fd5b81600184815481101515613eb157fe5b90600052602060002090600c02016008018190555050505050565b6013548b908110613f23576040805160e560020a62461bcd0281526020600482015260226024820152600080516020615e34833981519152604482015260f260020a611b9d02606482015290519081900360840190fd5b6013805433919083908110613f3457fe5b600091825260209091200154600160a060020a031614613f9e576040805160e560020a62461bcd0281526020600482015260266024820152600080516020615e54833981519152604482015260d260020a651b9d1c9858dd02606482015290519081900360840190fd5b613fa6615d77565b604080516101a08101825263ffffffff8e168152600160a060020a038d166020808301919091528183018d90528b3560608301528b81013560808301528b83013560a0830152893560c08301528a3560e0830152898101356101008301528a810135610120830152610140820189905261016082018890528251601f870182900482028101820190935285835290916101808301918790879081908401838280828437600092018290525093909452505060018054808201808355919092528351600c9092027fb10e2d527612073b26eecdfd717e6a320cf44b4afac2b0732d9fcbe2b7fa0cf681018054602080880151600160a060020a03166401000000000277ffffffffffffffffffffffffffffffffffffffff000000001963ffffffff90971663ffffffff19909316929092179590951617815560408601517fb10e2d527612073b26eecdfd717e6a320cf44b4afac2b0732d9fcbe2b7fa0cf783015560608601517fb10e2d527612073b26eecdfd717e6a320cf44b4afac2b0732d9fcbe2b7fa0cf883015560808601517fb10e2d527612073b26eecdfd717e6a320cf44b4afac2b0732d9fcbe2b7fa0cf983015560a08601517fb10e2d527612073b26eecdfd717e6a320cf44b4afac2b0732d9fcbe2b7fa0cfa83015560c08601517fb10e2d527612073b26eecdfd717e6a320cf44b4afac2b0732d9fcbe2b7fa0cfb83015560e08601517fb10e2d527612073b26eecdfd717e6a320cf44b4afac2b0732d9fcbe2b7fa0cfc8301556101008601517fb10e2d527612073b26eecdfd717e6a320cf44b4afac2b0732d9fcbe2b7fa0cfd8301556101208601517fb10e2d527612073b26eecdfd717e6a320cf44b4afac2b0732d9fcbe2b7fa0cfe8301556101408601517fb10e2d527612073b26eecdfd717e6a320cf44b4afac2b0732d9fcbe2b7fa0cff8301556101608601517fb10e2d527612073b26eecdfd717e6a320cf44b4afac2b0732d9fcbe2b7fa0d008301556101808601518051969750929587955090936142bd937fb10e2d527612073b26eecdfd717e6a320cf44b4afac2b0732d9fcbe2b7fa0d01909301920190615d09565b5050505050505050505050505050505050565b60135483908110614327576040805160e560020a62461bcd0281526020600482015260226024820152600080516020615e34833981519152604482015260f260020a611b9d02606482015290519081900360840190fd5b601380543391908390811061433857fe5b600091825260209091200154600160a060020a0316146143a2576040805160e560020a62461bcd0281526020600482015260266024820152600080516020615e54833981519152604482015260d260020a651b9d1c9858dd02606482015290519081900360840190fd5b816001848154811015156143b257fe5b90600052602060002090600c02016009018190555050505050565b60135483908110614424576040805160e560020a62461bcd0281526020600482015260226024820152600080516020615e34833981519152604482015260f260020a611b9d02606482015290519081900360840190fd5b601380543391908390811061443557fe5b600091825260209091200154600160a060020a03161461449f576040805160e560020a62461bcd0281526020600482015260266024820152600080516020615e54833981519152604482015260d260020a651b9d1c9858dd02606482015290519081900360840190fd5b816001848154811015156144af57fe5b90600052602060002090600c02016001018190555050505050565b60006013828154811015156144db57fe5b600091825260209091200154600160a060020a031692915050565b60135490565b60135484908110614553576040805160e560020a62461bcd0281526020600482015260226024820152600080516020615e34833981519152604482015260f260020a611b9d02606482015290519081900360840190fd5b601380543391908390811061456457fe5b600091825260209091200154600160a060020a0316146145ce576040805160e560020a62461bcd0281526020600482015260266024820152600080516020615e54833981519152604482015260d260020a651b9d1c9858dd02606482015290519081900360840190fd5b60008481526003602052604081208054859081106145e857fe5b600091825260209091206007600d9092020101929092555050505050565b600f5490565b60135484908110614663576040805160e560020a62461bcd0281526020600482015260226024820152600080516020615e34833981519152604482015260f260020a611b9d02606482015290519081900360840190fd5b601380543391908390811061467457fe5b600091825260209091200154600160a060020a0316146146de576040805160e560020a62461bcd0281526020600482015260266024820152600080516020615e54833981519152604482015260d260020a651b9d1c9858dd02606482015290519081900360840190fd5b60008481526003602052604081208054859081106146f857fe5b600091825260209091206002600d9092020101929092555050505050565b6013548490811061476d576040805160e560020a62461bcd0281526020600482015260226024820152600080516020615e34833981519152604482015260f260020a611b9d02606482015290519081900360840190fd5b601380543391908390811061477e57fe5b600091825260209091200154600160a060020a0316146147e8576040805160e560020a62461bcd0281526020600482015260266024820152600080516020615e54833981519152604482015260d260020a651b9d1c9858dd02606482015290519081900360840190fd5b600084815260036020526040812080548590811061480257fe5b600091825260209091206003600d9092020101929092555050505050565b60135483908110614877576040805160e560020a62461bcd0281526020600482015260226024820152600080516020615e34833981519152604482015260f260020a611b9d02606482015290519081900360840190fd5b601380543391908390811061488857fe5b600091825260209091200154600160a060020a0316146148f2576040805160e560020a62461bcd0281526020600482015260266024820152600080516020615e54833981519152604482015260d260020a651b9d1c9858dd02606482015290519081900360840190fd5b506000918252600660205260409091205550565b600060018281548110151561491757fe5b90600052602060002090600c0201600801549050919050565b614938613080565b151561494357600080fd5b60088054600181018255600091909152602081047ff3f7a9fe364faab93b216da50a3214154f22a0a2b415b23a84c8169e8b636ee3018054921515601f9092166101000a91820260ff90920219909216179055565b60008281526003602052604081208054839081106149b257fe5b90600052602060002090600d0201600c0154905092915050565b60135484908110614a23576040805160e560020a62461bcd0281526020600482015260226024820152600080516020615e34833981519152604482015260f260020a611b9d02606482015290519081900360840190fd5b6013805433919083908110614a3457fe5b600091825260209091200154600160a060020a031614614a9e576040805160e560020a62461bcd0281526020600482015260266024820152600080516020615e54833981519152604482015260d260020a651b9d1c9858dd02606482015290519081900360840190fd5b6000848152600360205260408120805485908110614ab857fe5b600091825260209091206009600d9092020101929092555050505050565b60075490565b6000828152600360205260408120805483908110614af657fe5b90600052602060002090600d0201600a0154905092915050565b6000828152600360205260408120805483908110614b2a57fe5b90600052602060002090600d020160020154905092915050565b60135487908110614b9b576040805160e560020a62461bcd0281526020600482015260226024820152600080516020615e34833981519152604482015260f260020a611b9d02606482015290519081900360840190fd5b6013805433919083908110614bac57fe5b600091825260209091200154600160a060020a031614614c16576040805160e560020a62461bcd0281526020600482015260266024820152600080516020615e54833981519152604482015260d260020a651b9d1c9858dd02606482015290519081900360840190fd5b614c1e615df2565b505060408051608081018252948552921515602080860191825292151585850190815291151560608601908152600097885260048452848820600160a060020a039097168852959092529190942091518255925160019091018054935192511515620100000262ff0000199315156101000261ff001993151560ff199096169590951792909216939093179190911617905550565b600a5490565b6000828152600360205260408120805483908110614cd357fe5b90600052602060002090600d020160090154905092915050565b6060600182815481101515614cfe57fe5b6000918252602091829020600b600c9092020101805460408051601f6002600019610100600187161502019094169390930492830185900485028101850190915281815292830182828015611ef75780601f10611ecc57610100808354040283529160200191611ef7565b60135483908110614dc0576040805160e560020a62461bcd0281526020600482015260226024820152600080516020615e34833981519152604482015260f260020a611b9d02606482015290519081900360840190fd5b6013805433919083908110614dd157fe5b600091825260209091200154600160a060020a031614614e3b576040805160e560020a62461bcd0281526020600482015260266024820152600080516020615e54833981519152604482015260d260020a651b9d1c9858dd02606482015290519081900360840190fd5b81600184815481101515614e4b57fe5b90600052602060002090600c0201600a018190555050505050565b60009081526006602052604090205490565b601054600160a060020a031690565b60135482908110614ede576040805160e560020a62461bcd0281526020600482015260226024820152600080516020615e34833981519152604482015260f260020a611b9d02606482015290519081900360840190fd5b6013805433919083908110614eef57fe5b600091825260209091200154600160a060020a031614614f59576040805160e560020a62461bcd0281526020600482015260266024820152600080516020615e54833981519152604482015260d260020a651b9d1c9858dd02606482015290519081900360840190fd5b5060075550565b60135484908110614fb7576040805160e560020a62461bcd0281526020600482015260226024820152600080516020615e34833981519152604482015260f260020a611b9d02606482015290519081900360840190fd5b6013805433919083908110614fc857fe5b600091825260209091200154600160a060020a031614615032576040805160e560020a62461bcd0281526020600482015260266024820152600080516020615e54833981519152604482015260d260020a651b9d1c9858dd02606482015290519081900360840190fd5b60008481526002602052604090206131bc908484615c02565b601354839081106150a2576040805160e560020a62461bcd0281526020600482015260226024820152600080516020615e34833981519152604482015260f260020a611b9d02606482015290519081900360840190fd5b60138054339190839081106150b357fe5b600091825260209091200154600160a060020a03161461511d576040805160e560020a62461bcd0281526020600482015260266024820152600080516020615e54833981519152604482015260d260020a651b9d1c9858dd02606482015290519081900360840190fd5b8160018481548110151561512d57fe5b90600052602060002090600c020160000160046101000a815481600160a060020a030219169083600160a060020a0316021790555050505050565b60008281526003602052604090208054606091908390811061518657fe5b60009182526020918290206004600d9092020101805460408051601f600260001961010060018716150201909416939093049283018590048502810185019091528181529283018282801561521c5780601f106151f15761010080835404028352916020019161521c565b820191906000526020600020905b8154815290600101906020018083116151ff57829003601f168201915b5050505050905092915050565b60135484908110615280576040805160e560020a62461bcd0281526020600482015260226024820152600080516020615e34833981519152604482015260f260020a611b9d02606482015290519081900360840190fd5b601380543391908390811061529157fe5b600091825260209091200154600160a060020a0316146152fb576040805160e560020a62461bcd0281526020600482015260266024820152600080516020615e54833981519152604482015260d260020a651b9d1c9858dd02606482015290519081900360840190fd5b506000928352600460209081526040808520600160a060020a039490941685529290529120600101805460ff191691151591909117905550565b600082815260036020526040812080548390811061534f57fe5b90600052602060002090600d020160050154905092915050565b601354849081106153c0576040805160e560020a62461bcd0281526020600482015260226024820152600080516020615e34833981519152604482015260f260020a611b9d02606482015290519081900360840190fd5b60138054339190839081106153d157fe5b600091825260209091200154600160a060020a03161461543b576040805160e560020a62461bcd0281526020600482015260266024820152600080516020615e54833981519152604482015260d260020a651b9d1c9858dd02606482015290519081900360840190fd5b600084815260036020526040812080548590811061545557fe5b600091825260209091206001600d9092020101929092555050505050565b61547b613080565b151561548657600080fd5b80151561549257600080fd5b600c55565b601354849081106154ee576040805160e560020a62461bcd0281526020600482015260226024820152600080516020615e34833981519152604482015260f260020a611b9d02606482015290519081900360840190fd5b60138054339190839081106154ff57fe5b600091825260209091200154600160a060020a031614615569576040805160e560020a62461bcd0281526020600482015260266024820152600080516020615e54833981519152604482015260d260020a651b9d1c9858dd02606482015290519081900360840190fd5b615571615c80565b505060408051808201825292151583529015156020808401918252600094855260059052922090518154925115156101000261ff001991151560ff19909416939093171691909117905550565b6155c6613080565b15156155d157600080fd5b600160a060020a03811615156155e657600080fd5b601380546001810182556000919091527f66de8ffda797e3de9c05e8fc57b3bf0ec28a930d40b0d285d93c06501cf6a090018054600160a060020a031916600160a060020a0392909216919091179055565b6013548490811061568f576040805160e560020a62461bcd0281526020600482015260226024820152600080516020615e34833981519152604482015260f260020a611b9d02606482015290519081900360840190fd5b60138054339190839081106156a057fe5b600091825260209091200154600160a060020a03161461570a576040805160e560020a62461bcd0281526020600482015260266024820152600080516020615e54833981519152604482015260d260020a651b9d1c9858dd02606482015290519081900360840190fd5b600084815260036020526040812080548590811061572457fe5b60009182526020909120600a600d9092020101929092555050505050565b600060018281548110151561575357fe5b90600052602060002090600c0201600401549050919050565b600054600160a060020a031690565b601354839081106157d2576040805160e560020a62461bcd0281526020600482015260226024820152600080516020615e34833981519152604482015260f260020a611b9d02606482015290519081900360840190fd5b60138054339190839081106157e357fe5b600091825260209091200154600160a060020a03161461584d576040805160e560020a62461bcd0281526020600482015260266024820152600080516020615e54833981519152604482015260d260020a651b9d1c9858dd02606482015290519081900360840190fd5b600160a060020a03831615156158ad576040805160e560020a62461bcd02815260206004820152600c60248201527f61646472657373206e756c6c0000000000000000000000000000000000000000604482015290519081900360640190fd5b3031821115615906576040805160e560020a62461bcd02815260206004820152600d60248201527f6e6f20656e6f7567682045544800000000000000000000000000000000000000604482015290519081900360640190fd5b604051600160a060020a0384169083156108fc029084906000818181858888f1935050505015801561593c573d6000803e3d6000fd5b5050505050565b60009081526003602052604090205490565b61595d613080565b151561596857600080fd5b80151561597457600080fd5b600d55565b601354839081106159d0576040805160e560020a62461bcd0281526020600482015260226024820152600080516020615e34833981519152604482015260f260020a611b9d02606482015290519081900360840190fd5b60138054339190839081106159e157fe5b600091825260209091200154600160a060020a031614615a4b576040805160e560020a62461bcd0281526020600482015260266024820152600080516020615e54833981519152604482015260d260020a651b9d1c9858dd02606482015290519081900360840190fd5b81600184815481101515615a5b57fe5b90600052602060002090600c02016002018190555050505050565b60125490565b615a84613080565b1515615a8f57600080fd5b600754811115615b0f576040805160e560020a62461bcd02815260206004820152602760248201527f66656562616c616e6365206c657373207468616e20616d6f756e7420746f207760448201527f6974686472617700000000000000000000000000000000000000000000000000606482015290519081900360840190fd5b600160a060020a0382161515615b2457600080fd5b604051600160a060020a0383169082156108fc029083906000818181858888f19350505050158015615b5a573d6000803e3d6000fd5b506007805491909103905550565b6000600182815481101515615b7957fe5b90600052602060002090600c0201600601549050919050565b600160a060020a0381161515615ba757600080fd5b60008054604051600160a060020a03808516939216917f8be0079c531659141344cd1fd0a4f28419497f9722a3daafe3b4186f6b6457e091a360008054600160a060020a031916600160a060020a0392909216919091179055565b828054600181600116156101000203166002900490600052602060002090601f016020900481019282601f10615c435782800160ff19823516178555615c70565b82800160010185558215615c70579182015b82811115615c70578235825591602001919060010190615c55565b50615c7c929150615e19565b5090565b604080518082019091526000808252602082015290565b604080516101a0810182526000808252602082018190529181018290526060808201839052608082015260a081018290529060c082019081526020016000815260200160008152602001600081526020016000815260200160006002811115615cfc57fe5b8152602001600081525090565b828054600181600116156101000203166002900490600052602060002090601f016020900481019282601f10615d4a57805160ff1916838001178555615c70565b82800160010185558215615c70579182015b82811115615c70578251825591602001919060010190615d5c565b6101a060405190810160405280600063ffffffff1681526020016000600160a060020a0316815260200160008152602001600081526020016000815260200160008152602001600081526020016000815260200160008152602001600081526020016000815260200160008019168152602001606081525090565b60408051608081018252600080825260208201819052918101829052606081019190915290565b61232c91905b80821115615c7c5760008155600101615e1f56fe4c6f676963616c20636f6e747261637420696e646578206e6f7420707265736553656e64657220646966666572656e742066726f6d206c6f676963616c20636fa165627a7a723058209608b79597eefad02f3e9221ad2135c254c1de495ed5fd8a29168036159371e10029",
  "source": "pragma solidity ^0.5.0;\r\n\r\ncontract OwnableDao {\r\n    address internal ownerDao;\r\n\r\n    event OwnershipTransferred(address indexed previousOwner, address indexed newOwner);\r\n    \r\n    /**\r\n     * @dev The Ownable constructor sets the original `owner` of the contract to the sender\r\n     * account.\r\n     */\r\n    constructor (address _ownerDao) internal {\r\n        require (_ownerDao!=address(0));\r\n        ownerDao = _ownerDao;\r\n        emit OwnershipTransferred(address(0), _ownerDao);\r\n    }\r\n\r\n\r\n\r\n    /**\r\n     * @return the address of the owner.\r\n     */\r\n    function getOwnerDao() public view returns (address) {\r\n        return ownerDao;\r\n    }\r\n\r\n    /**\r\n     * @dev Throws if called by any account other than the owner.\r\n     */\r\n    modifier onlyOwnerDao() {\r\n        require(isOwnerDao());\r\n        _;\r\n    }\r\n\r\n    /**\r\n     * @return true if `msg.sender` is the owner of the contract.\r\n     */\r\n    function isOwnerDao() public view returns (bool) {\r\n        return msg.sender == ownerDao;\r\n    }\r\n\r\n   \r\n    /**\r\n     * @dev Allows the current owner to transfer control of the contract to a newOwner.\r\n     * @param newOwnerDao The address to transfer ownership to.\r\n     */\r\n    function transferOwnershipDao(address newOwnerDao) public onlyOwnerDao {\r\n        _transferOwnershipDao(newOwnerDao);\r\n    }\r\n\r\n    /**\r\n     * @dev Transfers control of the contract to a newOwner.\r\n     * @param newOwnerDao The address to transfer ownership to.\r\n     */\r\n    function _transferOwnershipDao(address newOwnerDao) internal {\r\n        require(newOwnerDao != address(0));\r\n        emit OwnershipTransferred(ownerDao, newOwnerDao);\r\n        ownerDao = newOwnerDao;\r\n    }\r\n}\r\n\r\n\r\ncontract StoragePuzzles is OwnableDao {\r\n    \r\n    struct Game {\r\n        uint32 gameType;\r\n        address payable creator;\r\n        uint256 residualJackpot;\r\n        uint256 maxOffer;\r\n        uint256 minOffer;\r\n        uint256 maxOfferNumber;\r\n        uint256 timePropose;\r\n        uint256 timeoutOffer;\r\n        uint256 timeCreationGame;\r\n        uint256 timeoutResolution;\r\n        uint256 quote;\r\n        bytes32 solutionHash;\r\n        string  solution;\r\n        }\r\n        \r\n    \r\n    Game[] private games;\r\n    \r\n    mapping(uint256=>string) private gameMetadata;\r\n    \r\n        \r\n    enum Result {NOTHING, WAITING_CREATOR, WAITING_PLAYER, DISPUTE_CREATED, PLAYER_WINS, CREATOR_WINS, NO_WINNER}\r\n    \r\n    enum Appeal {NO_APPEAL, PLAYER_APPEAL, CREATOR_APPEAL}\r\n        \r\n    struct Offer {\r\n        address payable player;\r\n        uint256 expectedWin;\r\n        uint256 serviceFee;\r\n        bytes32 solutionHash;\r\n        string solutionPlayer;\r\n        uint256 lastInteraction; \r\n        Result solutionResult;\r\n        uint256 disputeId; // If dispute exists, the ID of the dispute.\r\n\t\tuint256 timeDispute;\r\n        uint256 playerFee; // Total fees paid by the player in case of dispute\r\n        uint256 creatorFee; // Total fees paid by the creator in case of dispute\r\n        Appeal appeal;\r\n        uint256 appealFee;\r\n        }\r\n        \r\n    mapping  (uint256 => Offer[]) private gameOffers;\r\n    \r\n        \r\n    struct FlagAndPositionPlayer {\r\n        uint256 indexOffer;\r\n        bool submittedOffer;\r\n        bool submittedHashSol;\r\n        bool submittedSol;\r\n        }\r\n    \r\n    mapping  (uint256 => mapping (address  => FlagAndPositionPlayer )) private offersMap;\r\n    \r\n    \r\n    struct FlagAndPositionCreator {\r\n        bool submittedGame;\r\n        bool submittedSol;\r\n        }\r\n    \r\n    mapping  (uint256  => FlagAndPositionCreator ) private creationMap;\r\n    \r\n    \r\n    struct GameAndPlayer  {\r\n        uint256 gameIndex;\r\n        address payable player;\r\n    }\r\n    \r\n    mapping (uint256 => GameAndPlayer) private disputeIDtoArbitrationIndexID;\r\n    \r\n    uint256 private feeBalance;\r\n    \r\n    \r\n    bool[] private gamesType;\r\n    \r\n    uint256 private minimalJackpot;\r\n    \r\n    uint256 private maxTimeoutCreation;\r\n    \r\n    uint256 private timeoutPlayerSolution;\r\n    \r\n    uint256 private timeoutCreatorSolution;\r\n    \r\n    uint256 private timeoutDisp;\r\n    \r\n    uint256 private timeoutRuling;\r\n    \r\n    uint256 private feePercent;\r\n    \r\n    address private arbitratorAddress;\r\n    \r\n    bytes private   arbitratorExtraData;\r\n    \r\n    uint256 private feeTimeout;\r\n    \r\n    address[] private logicalContracts;\r\n    \r\n    modifier onlyLogicalContract(uint256 _logicalContractIndex) {\r\n        require (_logicalContractIndex<logicalContracts.length, \"Logical contract index not present\");\r\n        require (logicalContracts[_logicalContractIndex]==msg.sender, \"Sender different from logical contract\");\r\n        _;\r\n    }\r\n    \r\n    \r\n    constructor (address _arbitratorAddress, bytes memory _arbitratorExtraData, uint256 _minimalJackpot, uint256 _maxTimeoutCreation, uint256 _timeoutPlayerSolution, uint256 _timeoutCreatorSolution, uint256 _timeoutDisp, uint256 _timeoutRuling, uint256 _feePercent, uint256 _feeTimeout, address _ownerDao) public OwnableDao(_ownerDao)    {\r\n        require (_feePercent<10000);\r\n        require (_arbitratorAddress!=address(0));\r\n        require (_maxTimeoutCreation!=0);\r\n        require (_timeoutPlayerSolution!=0);\r\n        require (_timeoutCreatorSolution!=0);\r\n        require (_timeoutDisp!=0);\r\n        require (_timeoutRuling!=0);\r\n        require (_feeTimeout!=0);\r\n        arbitratorAddress=_arbitratorAddress;\r\n        arbitratorExtraData=_arbitratorExtraData;\r\n        minimalJackpot=_minimalJackpot;\r\n        maxTimeoutCreation=_maxTimeoutCreation;\r\n        timeoutPlayerSolution=_timeoutPlayerSolution;\r\n        timeoutCreatorSolution=_timeoutCreatorSolution;\r\n        timeoutDisp=_timeoutDisp;\r\n        timeoutRuling=_timeoutRuling;\r\n        feePercent= _feePercent;\r\n        feeTimeout=_feeTimeout;\r\n    }\r\n    \r\n    function AddGamesType (bool _gameActivated) onlyOwnerDao() external {\r\n        gamesType.push(_gameActivated);\r\n    }\r\n    \r\n    function SetGameType (bool _gameActivated, uint256 _gameTypeIndex) onlyOwnerDao() external  {\r\n        require (_gameTypeIndex<gamesType.length , \"gametype index not valid\");\r\n        gamesType[_gameTypeIndex]=_gameActivated;\r\n    }\r\n    \r\n    function GetGameType (uint256 _gameTypeIndex) external view returns (bool)  {\r\n        return gamesType[_gameTypeIndex];\r\n    }\r\n    \r\n    function GetGameTypeLength ()  external view returns (uint256)  {\r\n        return gamesType.length;\r\n    }\r\n    \r\n    function setMinimalJackpot (uint256 _minimalJackpot) onlyOwnerDao() external {\r\n        minimalJackpot= _minimalJackpot;\r\n    }\r\n    \r\n    function getMinimalJackpot() external view returns(uint256) {\r\n        return minimalJackpot;\r\n    }\r\n    \r\n    function setMaxTimeoutCreation (uint256 _maxTimeoutCreation)  onlyOwnerDao() external {\r\n        require (_maxTimeoutCreation!=0);\r\n        maxTimeoutCreation=_maxTimeoutCreation;\r\n    }\r\n    \r\n    function getMaxTimeoutCreation () external view returns(uint256) {\r\n        return maxTimeoutCreation;\r\n    }\r\n    \r\n    function setTimeoutPlayerSolution (uint256 _timeoutPlayerSolution) onlyOwnerDao() external {\r\n        require (_timeoutPlayerSolution!=0);\r\n        timeoutPlayerSolution=_timeoutPlayerSolution;\r\n    }\r\n    \r\n    function getTimeoutPlayerSolution () external view returns(uint256) {\r\n        return timeoutPlayerSolution;\r\n    }\r\n    \r\n    function setTimeoutCreatorSolution (uint256 _timeoutCreatorSolution) onlyOwnerDao() external {\r\n        require (_timeoutCreatorSolution!=0);\r\n        timeoutCreatorSolution=_timeoutCreatorSolution;\r\n    }\r\n    \r\n    function getTimeoutCreatorSolution () external view returns(uint256) {\r\n        return timeoutCreatorSolution ;\r\n    }\r\n        \r\n    function setTimeoutDisp (uint256 _timeoutDisp) onlyOwnerDao() external {\r\n        require (_timeoutDisp!=0);\r\n        timeoutDisp=_timeoutDisp;\r\n    } \r\n    \r\n    function getTimeoutDisp () external view returns(uint256) {\r\n        return timeoutDisp;\r\n    } \r\n    \r\n    function setTimeoutRuling (uint256 _timeoutRuling) onlyOwnerDao() external  {\r\n        require (_timeoutRuling!=0);\r\n        timeoutRuling= _timeoutRuling;\r\n    }\r\n    \r\n    function getTimeoutRuling () external view returns(uint256) {\r\n        return timeoutRuling;\r\n    }\r\n    \r\n    function setFeePercent (uint256 _feePercent) onlyOwnerDao() external {\r\n        require (_feePercent<10000);\r\n        feePercent=_feePercent;\r\n    }\r\n    \r\n    function getFeePercent () external view returns(uint256) {\r\n        return feePercent;\r\n    }\r\n    \r\n    function setFeeTimeout(uint256 _feeTimeout) onlyOwnerDao() external {\r\n        require (_feeTimeout!=0);\r\n        feeTimeout=_feeTimeout;\r\n    }\r\n    \r\n    function getFeeTimeout() external view returns(uint256) {\r\n        return feeTimeout;\r\n    }\r\n \r\n    function setArbitrator (address _arbitratorAddress, bytes calldata _arbitratorExtraData) onlyOwnerDao() external {\r\n        require (_arbitratorAddress!=address(0));\r\n        arbitratorAddress=_arbitratorAddress;\r\n        arbitratorExtraData=_arbitratorExtraData;\r\n    }\r\n    \r\n    function getArbitratorAddress() external view returns(address) {\r\n        return arbitratorAddress;\r\n    }\r\n    \r\n    function getarbitratorExtraData() external view returns(bytes memory) {\r\n        return arbitratorExtraData;\r\n    }\r\n    \r\n    \r\n    function addLogicalContract (address _logicalContract) onlyOwnerDao() external {\r\n        require (_logicalContract!=address(0));\r\n        logicalContracts.push(_logicalContract);\r\n    }\r\n    \r\n    function setLogicalContract (address _logicalContract, uint256 _logicalContractIndex) onlyOwnerDao() external {\r\n        require (_logicalContractIndex<logicalContracts.length);\r\n        require (_logicalContract!=address(0));\r\n        logicalContracts[_logicalContractIndex]=_logicalContract;\r\n    }\r\n    \r\n    function getLogicalContract (uint256 _logicalContractIndex) external view returns(address)  {\r\n        return logicalContracts[_logicalContractIndex];\r\n    }\r\n    \r\n    function getLogicalContractLength () external view returns(uint256) {\r\n        return logicalContracts.length;\r\n    }\r\n    \r\n    function withdrawFee (address payable _destination, uint256 _amount) onlyOwnerDao() external {\r\n        require (_amount<=feeBalance, \"feebalance less than amount to withdraw\");\r\n        require (_destination!=address(0));\r\n        _destination.transfer(_amount); \r\n        feeBalance=feeBalance-_amount;\r\n    }\r\n    \r\n//----------------------------------------------------------------------------------------------------    \r\n    \r\n    \r\n    function addGame (uint256 _logicalContractIndex, uint32  _gameType,  address payable _creator, uint256 _residualJackpot,  uint256[3] calldata _gameLimits, uint256[2] calldata _timeouts, uint256[2] calldata _times, uint256 _quote, bytes32 _solutionHash, string calldata _solution)  onlyLogicalContract(_logicalContractIndex) external {\r\n        Game memory game=Game(_gameType, _creator, _residualJackpot, _gameLimits[0], _gameLimits[1], _gameLimits[2], _times[0] , _timeouts[0], _times[1], _timeouts[1], _quote, _solutionHash , _solution);\r\n        games.push(game);\r\n    }\r\n    \r\n    function setGameType (uint256 _logicalContractIndex, uint256 _gameIndex, uint32 _gameType) onlyLogicalContract(_logicalContractIndex) external {\r\n        games[_gameIndex].gameType=_gameType;\r\n    }\r\n    \r\n    function setGameCreator (uint256 _logicalContractIndex, uint256 _gameIndex, address payable _creator) onlyLogicalContract(_logicalContractIndex) external {\r\n        games[_gameIndex].creator=_creator;\r\n    }\r\n    \r\n    function setGameResidualJackpot (uint256 _logicalContractIndex, uint256 _gameIndex, uint256 _residualJackpot) onlyLogicalContract(_logicalContractIndex) external {\r\n        games[_gameIndex].residualJackpot=_residualJackpot;\r\n    }\r\n    \r\n     function setGameMaxOffer (uint256 _logicalContractIndex, uint256 _gameIndex, uint256 _maxOffer) onlyLogicalContract(_logicalContractIndex) external {\r\n        games[_gameIndex].maxOffer=_maxOffer;\r\n    }\r\n    \r\n    function  setGameMinOffer (uint256 _logicalContractIndex, uint256 _gameIndex, uint256 _minOffer) onlyLogicalContract(_logicalContractIndex) external {\r\n        games[_gameIndex].minOffer=_minOffer;\r\n    }\r\n    \r\n    function setGameMaxOfferNumber (uint256 _logicalContractIndex, uint256 _gameIndex, uint256 _maxOfferNumber) onlyLogicalContract(_logicalContractIndex) external {\r\n        games[_gameIndex].maxOfferNumber=_maxOfferNumber;\r\n    }\r\n    \r\n    function setTimePropose (uint256 _logicalContractIndex, uint256 _gameIndex, uint256 _timePropose) onlyLogicalContract(_logicalContractIndex) external {\r\n        games[_gameIndex].timePropose=_timePropose;\r\n    }\r\n    \r\n    function setGametimeoutOffer(uint256 _logicalContractIndex, uint256 _gameIndex, uint256 _timeoutOffer) onlyLogicalContract(_logicalContractIndex) external {\r\n        games[_gameIndex].timeoutOffer=_timeoutOffer;\r\n    }\r\n    \r\n    function setGameTimeCreationGame(uint256 _logicalContractIndex, uint256 _gameIndex, uint256 _timeCreationGame) onlyLogicalContract(_logicalContractIndex) external {\r\n        games[_gameIndex].timeCreationGame=_timeCreationGame;\r\n    }\r\n    \r\n    function setGameTimeoutResolution(uint256 _logicalContractIndex, uint256 _gameIndex, uint256 _timeoutResolution) onlyLogicalContract(_logicalContractIndex) external {\r\n        games[_gameIndex].timeoutResolution=_timeoutResolution;\r\n    }\r\n    \r\n   \r\n    \r\n    function setGameQuote(uint256 _logicalContractIndex, uint256 _gameIndex, uint256 _quote) onlyLogicalContract(_logicalContractIndex) external {\r\n        games[_gameIndex].quote=_quote;\r\n    }\r\n    \r\n    function setGameSolutionHash(uint256 _logicalContractIndex, uint256 _gameIndex, bytes32 _solutionHash) onlyLogicalContract(_logicalContractIndex) external {\r\n        games[_gameIndex].solutionHash=_solutionHash;\r\n    }\r\n    \r\n    function setGameSolution(uint256 _logicalContractIndex, uint256 _gameIndex, string calldata _solution) onlyLogicalContract(_logicalContractIndex) external {\r\n        games[_gameIndex].solution=_solution;\r\n    }\r\n    \r\n    \r\n    function getGameType (uint256 _gameIndex) external view returns(uint32)  {\r\n        return games[_gameIndex].gameType;\r\n    }\r\n    \r\n    function getGameCreator (uint256 _gameIndex) external view returns(address payable)  {\r\n        return games[_gameIndex].creator;\r\n    }\r\n    \r\n    function getGameResidualJackpot (uint256 _gameIndex) external view returns(uint256)  {\r\n        return games[_gameIndex].residualJackpot;\r\n    }\r\n    \r\n    function getGameMaxOffer(uint256 _gameIndex) external view returns(uint256)  {\r\n        return games[_gameIndex].maxOffer;\r\n    }\r\n    \r\n    function getGameMinOffer (uint256 _gameIndex) external view returns(uint256)  {\r\n        return games[_gameIndex].minOffer;\r\n    }\r\n    \r\n    function getGameMaxOfferNumber (uint256 _gameIndex) external view returns(uint256)  {\r\n        return games[_gameIndex].maxOfferNumber;\r\n    }\r\n    \r\n    function getGameTimePropose (uint256 _gameIndex) external view returns(uint256)  {\r\n        return games[_gameIndex].timePropose;\r\n    }\r\n    \r\n    function getGameTimeoutOffer (uint256 _gameIndex) external view returns(uint256)  {\r\n        return games[_gameIndex].timeoutOffer;\r\n    }\r\n    \r\n    function getGameTimeCreationGame(uint256 _gameIndex) external view returns(uint256)  {\r\n        return games[_gameIndex].timeCreationGame;\r\n    }\r\n    \r\n    function getGameTimeoutResolution (uint256 _gameIndex) external view returns(uint256)  {\r\n        return games[_gameIndex].timeoutResolution;\r\n    }\r\n    \r\n    function getGameQuote (uint256 _gameIndex) external view returns(uint256)  {\r\n        return games[_gameIndex].quote;\r\n    }\r\n    \r\n    function getGameSolutionHash (uint256 _gameIndex) external view returns(bytes32)  {\r\n        return games[_gameIndex].solutionHash;\r\n    }\r\n    \r\n    function getGameSolution (uint256 _gameIndex) external view returns(string memory)  {\r\n        return games[_gameIndex].solution;\r\n    }\r\n    \r\n    function getGamesLength ()  external view returns(uint256) {\r\n        return games.length;\r\n    }\r\n    \r\n//    ------------------------------------------------------------------------\r\n   \r\n    \r\n    \r\n    function setGameMetadata (uint256 _logicalContractIndex, uint256 _gameIndex, string calldata _gameMetadata) onlyLogicalContract(_logicalContractIndex) external {\r\n        gameMetadata[_gameIndex]=_gameMetadata;\r\n    }\r\n    \r\n    function getGameMetadata(uint256 _gameIndex) external view returns(string memory) {\r\n        return gameMetadata[_gameIndex];\r\n    }\r\n\r\n    \r\n    \r\n //   ----------------------------------------------------------------------------\r\n    \r\n    \r\n    function addOffer (uint256 _logicalContractIndex, uint256 _gameIndex, address payable _player, uint256 _expectedwin, uint256 _serviceFee, bytes32 _solutionHash, string calldata _solutionPlayer, uint256 _lastInteraction, uint256 _solutionResult, uint256[6] calldata _disputeFields) onlyLogicalContract(_logicalContractIndex) external {\r\n        Offer memory offer = Offer( _player, _expectedwin, _serviceFee, _solutionHash, _solutionPlayer, _lastInteraction, Result(_solutionResult), _disputeFields[0], _disputeFields[1], _disputeFields[2],  _disputeFields[3], Appeal(_disputeFields[4]), _disputeFields[5]);\r\n        gameOffers[_gameIndex].push(offer);\r\n    }\r\n    \r\n    function setOfferPlayer (uint256 _logicalContractIndex, uint256 _gameIndex, uint256 _offerIndex, address payable _player)  onlyLogicalContract(_logicalContractIndex) external {\r\n        Offer storage offer=gameOffers[_gameIndex][_offerIndex];\r\n        offer.player=_player;\r\n    }\r\n    \r\n    function setOfferExpectedWin (uint256 _logicalContractIndex, uint256 _gameIndex, uint256 _offerIndex, uint256 _expectedWin)  onlyLogicalContract(_logicalContractIndex) external {\r\n        Offer storage offer=gameOffers[_gameIndex][_offerIndex];\r\n        offer.expectedWin=_expectedWin;\r\n    }\r\n    \r\n    function setOfferServiceFee (uint256 _logicalContractIndex, uint256 _gameIndex, uint256 _offerIndex, uint256 _serviceFee)  onlyLogicalContract(_logicalContractIndex) external {\r\n        Offer storage offer=gameOffers[_gameIndex][_offerIndex];\r\n        offer.serviceFee=_serviceFee;\r\n    }\r\n    \r\n    function setOfferSolutionHash (uint256 _logicalContractIndex, uint256 _gameIndex, uint256 _offerIndex, bytes32 _solutionHash)  onlyLogicalContract(_logicalContractIndex) external {\r\n        Offer storage offer=gameOffers[_gameIndex][_offerIndex];\r\n        offer.solutionHash=_solutionHash;\r\n    }\r\n        \r\n    function setOfferSolutionPlayer(uint256 _logicalContractIndex, uint256 _gameIndex, uint256 _offerIndex, string calldata _solutionPlayer)  onlyLogicalContract(_logicalContractIndex) external {\r\n        Offer storage offer=gameOffers[_gameIndex][_offerIndex];\r\n        offer.solutionPlayer=_solutionPlayer;\r\n    }\r\n    \r\n    function setOfferLastInteraction(uint256 _logicalContractIndex, uint256 _gameIndex, uint256 _offerIndex, uint256 _lastInteraction)  onlyLogicalContract(_logicalContractIndex) external {\r\n        Offer storage offer=gameOffers[_gameIndex][_offerIndex];\r\n        offer.lastInteraction=_lastInteraction;\r\n    }\r\n    \r\n    function setOfferSolutionResult(uint256 _logicalContractIndex, uint256 _gameIndex, uint256 _offerIndex, uint256 _solutionResult)  onlyLogicalContract(_logicalContractIndex) external {\r\n        Offer storage offer=gameOffers[_gameIndex][_offerIndex];\r\n        offer.solutionResult=Result(_solutionResult);\r\n    }\r\n    \r\n    function setOfferDisputeId(uint256 _logicalContractIndex, uint256 _gameIndex, uint256 _offerIndex, uint256 _disputeId)  onlyLogicalContract(_logicalContractIndex) external {\r\n        Offer storage offer=gameOffers[_gameIndex][_offerIndex];\r\n        offer.disputeId=_disputeId;\r\n    }\r\n\t\r\n\tfunction setOfferTimeDispute(uint256 _logicalContractIndex, uint256 _gameIndex, uint256 _offerIndex, uint256 _timeDispute) onlyLogicalContract(_logicalContractIndex) external {\r\n        Offer storage offer=gameOffers[_gameIndex][_offerIndex];\r\n\t\toffer.timeDispute=_timeDispute;\r\n    }\r\n    \r\n    function setOfferPlayerFee(uint256 _logicalContractIndex, uint256 _gameIndex, uint256 _offerIndex, uint256 _playerFee)  onlyLogicalContract(_logicalContractIndex) external {\r\n        Offer storage offer=gameOffers[_gameIndex][_offerIndex];\r\n        offer.playerFee=_playerFee;\r\n    }\r\n    \r\n    function setOfferCreatorFee(uint256 _logicalContractIndex, uint256 _gameIndex, uint256 _offerIndex, uint256 _creatorFee)  onlyLogicalContract(_logicalContractIndex) external {\r\n        Offer storage offer=gameOffers[_gameIndex][_offerIndex];\r\n        offer.creatorFee=_creatorFee;\r\n    }\r\n    \r\n    function setOfferAppeal(uint256 _logicalContractIndex, uint256 _gameIndex, uint256 _offerIndex, uint256 _appeal)  onlyLogicalContract(_logicalContractIndex) external {\r\n        Offer storage offer=gameOffers[_gameIndex][_offerIndex];\r\n        offer.appeal=Appeal(_appeal);\r\n    }\r\n    \r\n    function setOfferAppealFee(uint256 _logicalContractIndex, uint256 _gameIndex, uint256 _offerIndex, uint256 _appealFee)  onlyLogicalContract(_logicalContractIndex) external {\r\n        Offer storage offer=gameOffers[_gameIndex][_offerIndex];\r\n        offer.appealFee=_appealFee;\r\n    }\r\n    \r\n    function getOfferPlayer (uint256 _gameIndex, uint256 _offerIndex) external view returns(address payable)  {\r\n        return gameOffers[_gameIndex][_offerIndex].player;\r\n    }\r\n    \r\n    function getOfferExpectedWin (uint256 _gameIndex, uint256 _offerIndex) external view returns(uint256)  {\r\n        return gameOffers[_gameIndex][_offerIndex].expectedWin;\r\n    }\r\n    \r\n    function getOfferServiceFee (uint256 _gameIndex, uint256 _offerIndex) external view returns(uint256)  {\r\n        return gameOffers[_gameIndex][_offerIndex].serviceFee;\r\n    }\r\n    \r\n    function getOfferSolutionHash (uint256 _gameIndex, uint256 _offerIndex) external view returns(bytes32)  {\r\n        return gameOffers[_gameIndex][_offerIndex].solutionHash;\r\n    }\r\n    \r\n    function getOfferSolutionPlayer (uint256 _gameIndex, uint256 _offerIndex) external view returns(string memory)  {\r\n        return gameOffers[_gameIndex][_offerIndex].solutionPlayer;\r\n    }\r\n    \r\n    function getOfferLastInteraction (uint256 _gameIndex, uint256 _offerIndex) external view returns(uint256)  {\r\n        return gameOffers[_gameIndex][_offerIndex].lastInteraction;\r\n    }\r\n    \r\n    function getOfferSolutionResult (uint256 _gameIndex, uint256 _offerIndex) external view returns(uint256)  {\r\n        return uint256(gameOffers[_gameIndex][_offerIndex].solutionResult);\r\n    }\r\n    \r\n    function getOfferDisputeId (uint256 _gameIndex, uint256 _offerIndex) external view returns(uint256)  {\r\n        return gameOffers[_gameIndex][_offerIndex].disputeId;\r\n    }\r\n\t\r\n\tfunction getOfferTimeDispute (uint256 _gameIndex, uint256 _offerIndex) external view returns(uint256)  {\r\n        return gameOffers[_gameIndex][_offerIndex].timeDispute;\r\n    }\r\n    \r\n    function getOfferPlayerFee (uint256 _gameIndex, uint256 _offerIndex) external view returns(uint256)  {\r\n        return gameOffers[_gameIndex][_offerIndex].playerFee;\r\n    }\r\n    \r\n    function getOfferCreatorFee (uint256 _gameIndex, uint256 _offerIndex) external view returns(uint256)  {\r\n        return gameOffers[_gameIndex][_offerIndex].creatorFee;\r\n    }\r\n    \r\n    function getOfferAppeal (uint256 _gameIndex, uint256 _offerIndex) external view returns(uint256)  {\r\n        return uint256(gameOffers[_gameIndex][_offerIndex].appeal);\r\n    }\r\n    \r\n    function getOfferAppealFee(uint256 _gameIndex, uint256 _offerIndex) external view returns(uint256)  {\r\n        return gameOffers[_gameIndex][_offerIndex].appealFee;\r\n    }\r\n      \r\n    function getOffersLength (uint256 _gameIndex)  external view returns(uint256) {\r\n        return gameOffers[_gameIndex].length;\r\n    }\r\n    \r\n    \r\n//---------------------------------------------------------------------\r\n    \r\n    \r\n    function addOffersMap (uint256 _logicalContractIndex, uint256 _gameIndex, address _player, uint256 _indexOffer, bool _submittedOffer, bool _submittedHashSol, bool _submittedSol) onlyLogicalContract(_logicalContractIndex) external {\r\n        FlagAndPositionPlayer memory flagandpositionplayer = FlagAndPositionPlayer(_indexOffer, _submittedOffer, _submittedHashSol, _submittedSol);\r\n        offersMap[_gameIndex][_player]=flagandpositionplayer;\r\n    }\r\n    \r\n    \r\n    function setOffersMapIndexOffer (uint256 _logicalContractIndex, uint256 _gameIndex, address _player, uint256 _indexOffer) onlyLogicalContract(_logicalContractIndex) external {\r\n        offersMap[_gameIndex][_player].indexOffer=_indexOffer;\r\n    }\r\n    \r\n    function setOffersMapSubmittedOffer (uint256 _logicalContractIndex, uint256 _gameIndex, address _player, bool _submittedOffer) onlyLogicalContract(_logicalContractIndex) external {\r\n        offersMap[_gameIndex][_player].submittedOffer= _submittedOffer;\r\n    }\r\n    \r\n    function setOffersMapSubmittedHashSol (uint256 _logicalContractIndex, uint256 _gameIndex, address _player, bool _submittedHashSol) onlyLogicalContract(_logicalContractIndex) external {\r\n        offersMap[_gameIndex][_player].submittedHashSol=_submittedHashSol;\r\n    }\r\n    \r\n    function setOffersMapSubmittedSol (uint256 _logicalContractIndex, uint256 _gameIndex, address _player, bool _submittedSol) onlyLogicalContract(_logicalContractIndex) external {\r\n        offersMap[_gameIndex][_player].submittedSol=_submittedSol;\r\n    }\r\n    \r\n    function getOffersMapIndexOffer (uint256 _gameIndex, address _player) external view returns (uint256)  {\r\n        return offersMap[_gameIndex][_player].indexOffer;\r\n    }\r\n    \r\n    function getOffersMapSubmittedOffer(uint256 _gameIndex, address _player) external view returns (bool)  {\r\n        return offersMap[_gameIndex][_player].submittedOffer;\r\n    }\r\n    \r\n    function getOffersMapSubmittedHashSol (uint256 _gameIndex, address _player) external view returns (bool)  {\r\n        return offersMap[_gameIndex][_player].submittedHashSol;\r\n    }\r\n    \r\n    function getOffersMapSubmittedSol (uint256 _gameIndex, address _player) external view returns (bool)  {\r\n        return offersMap[_gameIndex][_player].submittedSol;\r\n    }\r\n    \r\n \r\n    \r\n//-----------------------------------\r\n    \r\n \r\n \r\n    function addCreationMap (uint256 _logicalContractIndex, uint256 _gameIndex, bool _submittedGame, bool _submittedSol) onlyLogicalContract(_logicalContractIndex) external {\r\n        FlagAndPositionCreator memory flagandpositioncreator = FlagAndPositionCreator(_submittedGame, _submittedSol);\r\n        creationMap[_gameIndex]=flagandpositioncreator;\r\n    }\r\n    \r\n    function setCreationMapSubmittedGame (uint256 _logicalContractIndex, uint256 _gameIndex, bool _submittedGame) onlyLogicalContract(_logicalContractIndex) external {\r\n        creationMap[_gameIndex].submittedGame=_submittedGame;\r\n    } \r\n    \r\n    function setCreationMapSubmittedSol (uint256 _logicalContractIndex, uint256 _gameIndex, bool _submittedSol) onlyLogicalContract(_logicalContractIndex) external {\r\n        creationMap[_gameIndex].submittedSol=_submittedSol;\r\n    } \r\n    \r\n    function getCreationMapSubmittedGame (uint256 _gameIndex) external view returns(bool) {\r\n        return  creationMap[_gameIndex].submittedGame;\r\n    }\r\n    \r\n     function getCreationMapSubmittedSol (uint256 _gameIndex) external view returns(bool) {\r\n        return  creationMap[_gameIndex].submittedSol;\r\n    }\r\n    \r\n  \r\n    \r\n//----------------------------------------------------------------\r\n    \r\n    \r\n    function addDisputeIDtoArbitrationIndexID (uint256 _logicalContractIndex, uint256 _disputeId,  uint256 _gameIndex, address payable _player) onlyLogicalContract(_logicalContractIndex) external {\r\n        GameAndPlayer memory gameandplayer=GameAndPlayer(_gameIndex, _player);\r\n        disputeIDtoArbitrationIndexID[_disputeId]=gameandplayer;\r\n    }\r\n    \r\n    function setDisputeIDtoArbitrationIndexIDGameIndex (uint256 _logicalContractIndex, uint256 _disputeId,  uint256 _gameIndex) onlyLogicalContract(_logicalContractIndex) external  {\r\n        disputeIDtoArbitrationIndexID[_disputeId].gameIndex=_gameIndex;\r\n    }\r\n    \r\n    function setDisputeIDtoArbitrationIndexIDPlayer (uint256 _logicalContractIndex, uint256 _disputeId,  address payable _player) onlyLogicalContract(_logicalContractIndex) external  {\r\n        disputeIDtoArbitrationIndexID[_disputeId].player=_player;\r\n    }\r\n    \r\n    function getDisputeIDtoArbitrationIndexIDGameIndex (uint256 _disputeId) external view returns(uint256) {\r\n        return disputeIDtoArbitrationIndexID[_disputeId].gameIndex;\r\n    }\r\n    \r\n     function getDisputeIDtoArbitrationIndexIDPlayer (uint256 _disputeId) external view returns(address payable) {\r\n        return disputeIDtoArbitrationIndexID[_disputeId].player;\r\n    }\r\n   \r\n\r\n    \r\n //----------------------------------------------------------------  \r\n    \r\n    function SetFeeBalance (uint256 _logicalContractIndex, uint256 _feeBalance) onlyLogicalContract(_logicalContractIndex) external {\r\n        feeBalance=_feeBalance;\r\n    }\r\n    \r\n    function getFeeBalance() external view returns(uint256) {\r\n        return feeBalance;\r\n    }\r\n    \r\n    function transferEth (uint256 _logicalContractIndex, address payable _destination, uint256 _amount) onlyLogicalContract(_logicalContractIndex) external {\r\n        require (_destination!=address(0), \"address null\");\r\n        require (_amount<=address(this).balance, \"no enough ETH\");\r\n        _destination.transfer(_amount);\r\n    }\r\n    \r\n    function () external payable {}\r\n}\r\n",
  "sourcePath": "C:/Users/Alessandro/solidity_work/myproject/contracts/StoragePuzzles.sol",
  "compiler": {
    "name": "solc",
    "version": "0.5.0+commit.1d4f565a.Emscripten.clang"
  },
  "schemaVersion": "3.0.0",
  "updatedAt": "2019-10-17T15:30:30.590Z",
  "devdoc": {
    "methods": {
      "getOwnerDao()": {
        "return": "the address of the owner.\r"
      },
      "isOwnerDao()": {
        "return": "true if `msg.sender` is the owner of the contract.\r"
      },
      "transferOwnershipDao(address)": {
        "details": "Allows the current owner to transfer control of the contract to a newOwner.\r",
        "params": {
          "newOwnerDao": "The address to transfer ownership to.\r"
        }
      }
    }
  },
  "userdoc": {
    "methods": {}
  }
}